{"contracts/ESGStorage.sol":{"ESGStorage":{"abi":[{"inputs":[],"stateMutability":"nonpayable","type":"constructor"},{"anonymous":false,"inputs":[{"indexed":true,"internalType":"string","name":"companyId","type":"string"},{"indexed":false,"internalType":"string","name":"metadataHash","type":"string"},{"indexed":false,"internalType":"uint256","name":"timestamp","type":"uint256"}],"name":"CompanyRegistered","type":"event"},{"anonymous":false,"inputs":[{"indexed":true,"internalType":"uint256","name":"submissionId","type":"uint256"},{"indexed":true,"internalType":"string","name":"companyId","type":"string"},{"indexed":true,"internalType":"string","name":"stakeholderId","type":"string"},{"indexed":false,"internalType":"string","name":"actor","type":"string"},{"indexed":false,"internalType":"string","name":"period","type":"string"},{"indexed":false,"internalType":"string","name":"dataHash","type":"string"},{"indexed":false,"internalType":"uint256","name":"co2Value","type":"uint256"},{"indexed":false,"internalType":"uint256","name":"timestamp","type":"uint256"}],"name":"ESGDataSubmitted","type":"event"},{"anonymous":false,"inputs":[{"indexed":true,"internalType":"uint256","name":"reportId","type":"uint256"},{"indexed":true,"internalType":"string","name":"companyId","type":"string"},{"indexed":false,"internalType":"string","name":"period","type":"string"},{"indexed":false,"internalType":"string","name":"reportHash","type":"string"},{"indexed":false,"internalType":"uint256","name":"totalCo2Value","type":"uint256"},{"indexed":false,"internalType":"uint256","name":"score","type":"uint256"},{"indexed":false,"internalType":"uint256","name":"timestamp","type":"uint256"}],"name":"ReportGenerated","type":"event"},{"anonymous":false,"inputs":[{"indexed":true,"internalType":"uint256","name":"reportId","type":"uint256"},{"indexed":true,"internalType":"string","name":"companyId","type":"string"},{"indexed":true,"internalType":"string","name":"buyerId","type":"string"},{"indexed":false,"internalType":"uint256","name":"timestamp","type":"uint256"}],"name":"ReportPurchased","type":"event"},{"anonymous":false,"inputs":[{"indexed":true,"internalType":"string","name":"companyId","type":"string"},{"indexed":true,"internalType":"string","name":"stakeholderId","type":"string"},{"indexed":false,"internalType":"string","name":"role","type":"string"},{"indexed":false,"internalType":"uint256","name":"timestamp","type":"uint256"}],"name":"StakeholderAuthorized","type":"event"},{"anonymous":false,"inputs":[{"indexed":true,"internalType":"string","name":"companyId","type":"string"},{"indexed":true,"internalType":"string","name":"stakeholderId","type":"string"},{"indexed":false,"internalType":"uint256","name":"timestamp","type":"uint256"}],"name":"StakeholderRevoked","type":"event"},{"inputs":[{"internalType":"string","name":"companyId","type":"string"},{"internalType":"string","name":"stakeholderId","type":"string"},{"internalType":"string","name":"role","type":"string"}],"name":"authorizeStakeholder","outputs":[],"stateMutability":"nonpayable","type":"function"},{"inputs":[{"internalType":"string","name":"companyId","type":"string"},{"internalType":"string","name":"period","type":"string"},{"internalType":"string","name":"reportHash","type":"string"},{"internalType":"uint256","name":"totalCo2Value","type":"uint256"},{"internalType":"uint256","name":"score","type":"uint256"}],"name":"generateReport","outputs":[{"internalType":"uint256","name":"","type":"uint256"}],"stateMutability":"nonpayable","type":"function"},{"inputs":[{"internalType":"string","name":"companyId","type":"string"}],"name":"getCompany","outputs":[{"components":[{"internalType":"string","name":"companyId","type":"string"},{"internalType":"string","name":"metadataHash","type":"string"},{"internalType":"bool","name":"exists","type":"bool"},{"internalType":"uint256","name":"createdAt","type":"uint256"}],"internalType":"struct ESGStorage.Company","name":"","type":"tuple"}],"stateMutability":"view","type":"function"},{"inputs":[{"internalType":"string","name":"companyId","type":"string"}],"name":"getCompanyReportIds","outputs":[{"internalType":"uint256[]","name":"","type":"uint256[]"}],"stateMutability":"view","type":"function"},{"inputs":[{"internalType":"string","name":"companyId","type":"string"}],"name":"getCompanySubmissionIds","outputs":[{"internalType":"uint256[]","name":"","type":"uint256[]"}],"stateMutability":"view","type":"function"},{"inputs":[{"internalType":"uint256","name":"reportId","type":"uint256"}],"name":"getReport","outputs":[{"components":[{"internalType":"uint256","name":"id","type":"uint256"},{"internalType":"string","name":"companyId","type":"string"},{"internalType":"string","name":"period","type":"string"},{"internalType":"string","name":"reportHash","type":"string"},{"internalType":"uint256","name":"totalCo2Value","type":"uint256"},{"internalType":"uint256","name":"score","type":"uint256"},{"internalType":"uint256","name":"generatedAt","type":"uint256"},{"internalType":"bool","name":"exists","type":"bool"}],"internalType":"struct ESGStorage.Report","name":"","type":"tuple"}],"stateMutability":"view","type":"function"},{"inputs":[],"name":"getReportCount","outputs":[{"internalType":"uint256","name":"","type":"uint256"}],"stateMutability":"view","type":"function"},{"inputs":[{"internalType":"string","name":"companyId","type":"string"},{"internalType":"string","name":"stakeholderId","type":"string"}],"name":"getStakeholder","outputs":[{"components":[{"internalType":"string","name":"stakeholderId","type":"string"},{"internalType":"string","name":"role","type":"string"},{"internalType":"bool","name":"active","type":"bool"},{"internalType":"uint256","name":"authorizedAt","type":"uint256"}],"internalType":"struct ESGStorage.Stakeholder","name":"","type":"tuple"}],"stateMutability":"view","type":"function"},{"inputs":[{"internalType":"string","name":"companyId","type":"string"}],"name":"getStakeholderCount","outputs":[{"internalType":"uint256","name":"","type":"uint256"}],"stateMutability":"view","type":"function"},{"inputs":[{"internalType":"uint256","name":"submissionId","type":"uint256"}],"name":"getSubmission","outputs":[{"components":[{"internalType":"uint256","name":"id","type":"uint256"},{"internalType":"string","name":"companyId","type":"string"},{"internalType":"string","name":"stakeholderId","type":"string"},{"internalType":"string","name":"stakeholderRole","type":"string"},{"internalType":"string","name":"actor","type":"string"},{"internalType":"string","name":"period","type":"string"},{"internalType":"string","name":"dataHash","type":"string"},{"internalType":"uint256","name":"co2Value","type":"uint256"},{"internalType":"uint256","name":"timestamp","type":"uint256"}],"internalType":"struct ESGStorage.Submission","name":"","type":"tuple"}],"stateMutability":"view","type":"function"},{"inputs":[],"name":"getSubmissionCount","outputs":[{"internalType":"uint256","name":"","type":"uint256"}],"stateMutability":"view","type":"function"},{"inputs":[{"internalType":"uint256","name":"reportId","type":"uint256"},{"internalType":"string","name":"buyerId","type":"string"}],"name":"hasReportAccess","outputs":[{"internalType":"bool","name":"","type":"bool"}],"stateMutability":"view","type":"function"},{"inputs":[{"internalType":"string","name":"companyId","type":"string"},{"internalType":"string","name":"stakeholderId","type":"string"}],"name":"isStakeholderAuthorized","outputs":[{"internalType":"bool","name":"","type":"bool"}],"stateMutability":"view","type":"function"},{"inputs":[],"name":"owner","outputs":[{"internalType":"address","name":"","type":"address"}],"stateMutability":"view","type":"function"},{"inputs":[{"internalType":"uint256","name":"reportId","type":"uint256"},{"internalType":"string","name":"buyerId","type":"string"}],"name":"purchaseReportAccess","outputs":[{"internalType":"bool","name":"","type":"bool"}],"stateMutability":"nonpayable","type":"function"},{"inputs":[{"internalType":"string","name":"companyId","type":"string"},{"internalType":"string","name":"metadataHash","type":"string"}],"name":"registerCompany","outputs":[],"stateMutability":"nonpayable","type":"function"},{"inputs":[{"internalType":"string","name":"companyId","type":"string"},{"internalType":"string","name":"stakeholderId","type":"string"}],"name":"revokeStakeholder","outputs":[],"stateMutability":"nonpayable","type":"function"},{"inputs":[{"internalType":"string","name":"companyId","type":"string"},{"internalType":"string","name":"stakeholderId","type":"string"},{"internalType":"string","name":"stakeholderRole","type":"string"},{"internalType":"string","name":"actor","type":"string"},{"internalType":"string","name":"period","type":"string"},{"internalType":"string","name":"dataHash","type":"string"},{"internalType":"uint256","name":"co2Value","type":"uint256"}],"name":"submitESGData","outputs":[{"internalType":"uint256","name":"","type":"uint256"}],"stateMutability":"nonpayable","type":"function"},{"inputs":[{"internalType":"string","name":"companyId","type":"string"},{"internalType":"string","name":"metadataHash","type":"string"}],"name":"updateCompanyMetadata","outputs":[],"stateMutability":"nonpayable","type":"function"}],"evm":{"bytecode":{"linkReferences":{},"object":"60a060405234801561001057600080fd5b503373ffffffffffffffffffffffffffffffffffffffff1660808173ffffffffffffffffffffffffffffffffffffffff1681525050608051613ec7610091600039600081816104320152818161056501528181610d6d015281816113470152818161157801528181611aa801528181611daf01526123020152613ec76000f3fe608060405234801561001057600080fd5b50600436106101215760003560e01c80638da5cb5b116100ad578063cad9642b11610071578063cad9642b14610366578063cbc0799314610384578063d00bb8b8146103b4578063fb8c3485146103e4578063fc7457ab1461041457610121565b80638da5cb5b1461029a5780639999d2ae146102b8578063ae69370b146102d6578063b24a4e5214610306578063b6c33e041461033657610121565b806345de8853116100f457806345de8853146101d25780634e7f9b19146101ee578063696fd2c11461021e57806374448ba41461024e5780637c59a5511461026a57610121565b80630218a7ec1461012657806316c3913f146101425780632c10f557146101725780633e8686cc146101a2575b600080fd5b610140600480360381019061013b91906127ba565b610430565b005b61015c60048036038101906101579190612868565b610561565b6040516101699190612946565b60405180910390f35b61018c60048036038101906101879190612961565b610889565b6040516101999190612a68565b60405180910390f35b6101bc60048036038101906101b79190612a8a565b61096f565b6040516101c99190612c1e565b60405180910390f35b6101ec60048036038101906101e79190612c40565b610d6b565b005b61020860048036038101906102039190612a8a565b611045565b6040516102159190612dc0565b60405180910390f35b61023860048036038101906102339190612de2565b6112cf565b6040516102459190612e4d565b60405180910390f35b610268600480360381019061026391906127ba565b611345565b005b610284600480360381019061027f9190612e68565b611574565b6040516102919190612946565b60405180910390f35b6102a2611aa6565b6040516102af9190612ff3565b60405180910390f35b6102c0611aca565b6040516102cd9190612946565b60405180910390f35b6102f060048036038101906102eb9190612961565b611ad4565b6040516102fd9190612a68565b60405180910390f35b610320600480360381019061031b9190612961565b611bba565b60405161032d9190613078565b60405180910390f35b610350600480360381019061034b9190612de2565b611dab565b60405161035d9190612e4d565b60405180910390f35b61036e611fb0565b60405161037b9190612946565b60405180910390f35b61039e60048036038101906103999190612961565b611fba565b6040516103ab9190612946565b60405180910390f35b6103ce60048036038101906103c991906127ba565b612055565b6040516103db9190613104565b60405180910390f35b6103fe60048036038101906103f991906127ba565b6122ae565b60405161040b9190612e4d565b60405180910390f35b61042e600480360381019061042991906127ba565b612300565b005b7f000000000000000000000000000000000000000000000000000000000000000073ffffffffffffffffffffffffffffffffffffffff163373ffffffffffffffffffffffffffffffffffffffff16146104be576040517f08c379a00000000000000000000000000000000000000000000000000000000081526004016104b590613183565b60405180910390fd5b816000816040516104cf91906131df565b908152602001604051809103902060020160009054906101000a900460ff1661052d576040517f08c379a000000000000000000000000000000000000000000000000000000000815260040161052490613242565b60405180910390fd5b8160008460405161053e91906131df565b9081526020016040518091039020600101908161055b919061346e565b50505050565b60007f000000000000000000000000000000000000000000000000000000000000000073ffffffffffffffffffffffffffffffffffffffff163373ffffffffffffffffffffffffffffffffffffffff16146105f1576040517f08c379a00000000000000000000000000000000000000000000000000000000081526004016105e890613183565b60405180910390fd5b8560008160405161060291906131df565b908152602001604051809103902060020160009054906101000a900460ff16610660576040517f08c379a000000000000000000000000000000000000000000000000000000000815260040161065790613242565b60405180910390fd5b60008651116106a4576040517f08c379a000000000000000000000000000000000000000000000000000000000815260040161069b9061358c565b60405180910390fd5b60008551116106e8576040517f08c379a00000000000000000000000000000000000000000000000000000000081526004016106df906135f8565b60405180910390fd5b6000600960008154809291906106fd90613647565b9190505590506040518061010001604052808281526020018981526020018881526020018781526020018681526020018581526020014281526020016001151581525060076000838152602001908152602001600020600082015181600001556020820151816001019081610772919061346e565b506040820151816002019081610788919061346e565b50606082015181600301908161079e919061346e565b506080820151816004015560a0820151816005015560c0820151816006015560e08201518160070160006101000a81548160ff0219169083151502179055509050506006886040516107f091906131df565b90815260200160405180910390208190806001815401808255809150506001900390600052602060002001600090919091909150558760405161083391906131df565b6040518091039020817ff6b8c3ee718b848994733f1ead2f3f0b4b54ccbb772af4009edc8cfe95cd299a89898989426040516108739594939291906136c8565b60405180910390a3809250505095945050505050565b60608160008160405161089c91906131df565b908152602001604051809103902060020160009054906101000a900460ff166108fa576040517f08c379a00000000000000000000000000000000000000000000000000000000081526004016108f190613242565b60405180910390fd5b60068360405161090a91906131df565b908152602001604051809103902080548060200260200160405190810160405280929190818152602001828054801561096257602002820191906000526020600020905b81548152602001906001019080831161094e575b5050505050915050919050565b610977612579565b60085482106109bb576040517f08c379a00000000000000000000000000000000000000000000000000000000081526004016109b290613775565b60405180910390fd5b6004600083815260200190815260200160002060405180610120016040529081600082015481526020016001820180546109f490613291565b80601f0160208091040260200160405190810160405280929190818152602001828054610a2090613291565b8015610a6d5780601f10610a4257610100808354040283529160200191610a6d565b820191906000526020600020905b815481529060010190602001808311610a5057829003601f168201915b50505050508152602001600282018054610a8690613291565b80601f0160208091040260200160405190810160405280929190818152602001828054610ab290613291565b8015610aff5780601f10610ad457610100808354040283529160200191610aff565b820191906000526020600020905b815481529060010190602001808311610ae257829003601f168201915b50505050508152602001600382018054610b1890613291565b80601f0160208091040260200160405190810160405280929190818152602001828054610b4490613291565b8015610b915780601f10610b6657610100808354040283529160200191610b91565b820191906000526020600020905b815481529060010190602001808311610b7457829003601f168201915b50505050508152602001600482018054610baa90613291565b80601f0160208091040260200160405190810160405280929190818152602001828054610bd690613291565b8015610c235780601f10610bf857610100808354040283529160200191610c23565b820191906000526020600020905b815481529060010190602001808311610c0657829003601f168201915b50505050508152602001600582018054610c3c90613291565b80601f0160208091040260200160405190810160405280929190818152602001828054610c6890613291565b8015610cb55780601f10610c8a57610100808354040283529160200191610cb5565b820191906000526020600020905b815481529060010190602001808311610c9857829003601f168201915b50505050508152602001600682018054610cce90613291565b80601f0160208091040260200160405190810160405280929190818152602001828054610cfa90613291565b8015610d475780601f10610d1c57610100808354040283529160200191610d47565b820191906000526020600020905b815481529060010190602001808311610d2a57829003601f168201915b50505050508152602001600782015481526020016008820154815250509050919050565b7f000000000000000000000000000000000000000000000000000000000000000073ffffffffffffffffffffffffffffffffffffffff163373ffffffffffffffffffffffffffffffffffffffff1614610df9576040517f08c379a0000000000000000000000000000000000000000000000000000000008152600401610df090613183565b60405180910390fd5b82600081604051610e0a91906131df565b908152602001604051809103902060020160009054906101000a900460ff16610e68576040517f08c379a0000000000000000000000000000000000000000000000000000000008152600401610e5f90613242565b60405180910390fd5b6000835111610eac576040517f08c379a0000000000000000000000000000000000000000000000000000000008152600401610ea3906137e1565b60405180910390fd5b6000825111610ef0576040517f08c379a0000000000000000000000000000000000000000000000000000000008152600401610ee79061384d565b60405180910390fd5b6000610efb84612568565b90506000600286604051610f0f91906131df565b9081526020016040518091039020600083815260200190815260200160002090506000816000018054610f4190613291565b905003610f8e57600186604051610f5891906131df565b90815260200160405180910390208290806001815401808255809150506001900390600052602060002001600090919091909150555b84816000019081610f9f919061346e565b5083816001019081610fb1919061346e565b5060018160020160006101000a81548160ff02191690831515021790555042816003018190555084604051610fe691906131df565b604051809103902086604051610ffc91906131df565b60405180910390207f6cc896fed6368f0600012825740fbeaef868cc0183e0cd77434b9e3ed5d49131864260405161103592919061386d565b60405180910390a3505050505050565b61104d6125c5565b6007600083815260200190815260200160002060070160009054906101000a900460ff166110b0576040517f08c379a00000000000000000000000000000000000000000000000000000000081526004016110a7906138e9565b60405180910390fd5b6007600083815260200190815260200160002060405180610100016040529081600082015481526020016001820180546110e990613291565b80601f016020809104026020016040519081016040528092919081815260200182805461111590613291565b80156111625780601f1061113757610100808354040283529160200191611162565b820191906000526020600020905b81548152906001019060200180831161114557829003601f168201915b5050505050815260200160028201805461117b90613291565b80601f01602080910402602001604051908101604052809291908181526020018280546111a790613291565b80156111f45780601f106111c9576101008083540402835291602001916111f4565b820191906000526020600020905b8154815290600101906020018083116111d757829003601f168201915b5050505050815260200160038201805461120d90613291565b80601f016020809104026020016040519081016040528092919081815260200182805461123990613291565b80156112865780601f1061125b57610100808354040283529160200191611286565b820191906000526020600020905b81548152906001019060200180831161126957829003601f168201915b505050505081526020016004820154815260200160058201548152602001600682015481526020016007820160009054906101000a900460ff1615151515815250509050919050565b60006007600084815260200190815260200160002060070160009054906101000a900460ff16611302576000905061133f565b60056000848152602001908152602001600020600061132084612568565b815260200190815260200160002060009054906101000a900460ff1690505b92915050565b7f000000000000000000000000000000000000000000000000000000000000000073ffffffffffffffffffffffffffffffffffffffff163373ffffffffffffffffffffffffffffffffffffffff16146113d3576040517f08c379a00000000000000000000000000000000000000000000000000000000081526004016113ca90613183565b60405180910390fd5b6000825111611417576040517f08c379a000000000000000000000000000000000000000000000000000000000815260040161140e90613955565b60405180910390fd5b60008260405161142791906131df565b908152602001604051809103902060020160009054906101000a900460ff1615611486576040517f08c379a000000000000000000000000000000000000000000000000000000000815260040161147d906139c1565b60405180910390fd5b6040518060800160405280838152602001828152602001600115158152602001428152506000836040516114ba91906131df565b908152602001604051809103902060008201518160000190816114dd919061346e565b5060208201518160010190816114f3919061346e565b5060408201518160020160006101000a81548160ff021916908315150217905550606082015181600301559050508160405161152f91906131df565b60405180910390207f7a5b6c3b56f3fd96c4145e8d16588d8853fbcfbbca80a8209817253e3d3b32f3824260405161156892919061386d565b60405180910390a25050565b60007f000000000000000000000000000000000000000000000000000000000000000073ffffffffffffffffffffffffffffffffffffffff163373ffffffffffffffffffffffffffffffffffffffff1614611604576040517f08c379a00000000000000000000000000000000000000000000000000000000081526004016115fb90613183565b60405180910390fd5b8760008160405161161591906131df565b908152602001604051809103902060020160009054906101000a900460ff16611673576040517f08c379a000000000000000000000000000000000000000000000000000000000815260040161166a90613242565b60405180910390fd5b60008651116116b7576040517f08c379a00000000000000000000000000000000000000000000000000000000081526004016116ae90613a2d565b60405180910390fd5b60008551116116fb576040517f08c379a00000000000000000000000000000000000000000000000000000000081526004016116f29061358c565b60405180910390fd5b600084511161173f576040517f08c379a000000000000000000000000000000000000000000000000000000000815260040161173690613a99565b60405180910390fd5b600061174a89612568565b9050600060028b60405161175e91906131df565b9081526020016040518091039020600083815260200190815260200160002090508060020160009054906101000a900460ff166117d0576040517f08c379a00000000000000000000000000000000000000000000000000000000081526004016117c790613b05565b60405180910390fd5b600089510361186d578060010180546117e890613291565b80601f016020809104026020016040519081016040528092919081815260200182805461181490613291565b80156118615780601f1061183657610100808354040283529160200191611861565b820191906000526020600020905b81548152906001019060200180831161184457829003601f168201915b505050505098506118cf565b8880519060200120816001016040516118869190613bc8565b6040518091039020146118ce576040517f08c379a00000000000000000000000000000000000000000000000000000000081526004016118c590613c2b565b60405180910390fd5b5b6000600860008154809291906118e490613647565b9190505590506040518061012001604052808281526020018d81526020018c81526020018b81526020018a8152602001898152602001888152602001878152602001428152506004600083815260200190815260200160002060008201518160000155602082015181600101908161195c919061346e565b506040820151816002019081611972919061346e565b506060820151816003019081611988919061346e565b50608082015181600401908161199e919061346e565b5060a08201518160050190816119b4919061346e565b5060c08201518160060190816119ca919061346e565b5060e08201518160070155610100820151816008015590505060038c6040516119f391906131df565b90815260200160405180910390208190806001815401808255809150506001900390600052602060002001600090919091909150558a604051611a3691906131df565b60405180910390208c604051611a4c91906131df565b6040518091039020827fdede3af022c0c1182f1be40127babcdf6f8db18866d079873f2a7c29d3b8ef6a8c8c8c8c42604051611a8c959493929190613c4b565b60405180910390a480945050505050979650505050505050565b7f000000000000000000000000000000000000000000000000000000000000000081565b6000600854905090565b606081600081604051611ae791906131df565b908152602001604051809103902060020160009054906101000a900460ff16611b45576040517f08c379a0000000000000000000000000000000000000000000000000000000008152600401611b3c90613242565b60405180910390fd5b600383604051611b5591906131df565b9081526020016040518091039020805480602002602001604051908101604052809291908181526020018280548015611bad57602002820191906000526020600020905b815481526020019060010190808311611b99575b5050505050915050919050565b611bc261260c565b81600081604051611bd391906131df565b908152602001604051809103902060020160009054906101000a900460ff16611c31576040517f08c379a0000000000000000000000000000000000000000000000000000000008152600401611c2890613242565b60405180910390fd5b600083604051611c4191906131df565b9081526020016040518091039020604051806080016040529081600082018054611c6a90613291565b80601f0160208091040260200160405190810160405280929190818152602001828054611c9690613291565b8015611ce35780601f10611cb857610100808354040283529160200191611ce3565b820191906000526020600020905b815481529060010190602001808311611cc657829003601f168201915b50505050508152602001600182018054611cfc90613291565b80601f0160208091040260200160405190810160405280929190818152602001828054611d2890613291565b8015611d755780601f10611d4a57610100808354040283529160200191611d75565b820191906000526020600020905b815481529060010190602001808311611d5857829003601f168201915b505050505081526020016002820160009054906101000a900460ff16151515158152602001600382015481525050915050919050565b60007f000000000000000000000000000000000000000000000000000000000000000073ffffffffffffffffffffffffffffffffffffffff163373ffffffffffffffffffffffffffffffffffffffff1614611e3b576040517f08c379a0000000000000000000000000000000000000000000000000000000008152600401611e3290613183565b60405180910390fd5b6007600084815260200190815260200160002060070160009054906101000a900460ff16611e9e576040517f08c379a0000000000000000000000000000000000000000000000000000000008152600401611e95906138e9565b60405180910390fd5b6000825111611ee2576040517f08c379a0000000000000000000000000000000000000000000000000000000008152600401611ed990613cff565b60405180910390fd5b6000611eed83612568565b9050600160056000868152602001908152602001600020600083815260200190815260200160002060006101000a81548160ff02191690831515021790555082604051611f3a91906131df565b604051809103902060076000868152602001908152602001600020600101604051611f659190613da2565b6040518091039020857f3dc871a421b0de3bcb519220d648f02efbb6807744382f02d4d4d22e660ad78342604051611f9d9190612946565b60405180910390a4600191505092915050565b6000600954905090565b600081600081604051611fcd91906131df565b908152602001604051809103902060020160009054906101000a900460ff1661202b576040517f08c379a000000000000000000000000000000000000000000000000000000000815260040161202290613242565b60405180910390fd5b60018360405161203b91906131df565b908152602001604051809103902080549050915050919050565b61205d612636565b8260008160405161206e91906131df565b908152602001604051809103902060020160009054906101000a900460ff166120cc576040517f08c379a00000000000000000000000000000000000000000000000000000000081526004016120c390613242565b60405180910390fd5b60006002856040516120de91906131df565b908152602001604051809103902060006120f786612568565b815260200190815260200160002060405180608001604052908160008201805461212090613291565b80601f016020809104026020016040519081016040528092919081815260200182805461214c90613291565b80156121995780601f1061216e57610100808354040283529160200191612199565b820191906000526020600020905b81548152906001019060200180831161217c57829003601f168201915b505050505081526020016001820180546121b290613291565b80601f01602080910402602001604051908101604052809291908181526020018280546121de90613291565b801561222b5780601f106122005761010080835404028352916020019161222b565b820191906000526020600020905b81548152906001019060200180831161220e57829003601f168201915b505050505081526020016002820160009054906101000a900460ff1615151515815260200160038201548152505090506000816000015151116122a3576040517f08c379a000000000000000000000000000000000000000000000000000000000815260040161229a90613e05565b60405180910390fd5b809250505092915050565b60006002836040516122c091906131df565b908152602001604051809103902060006122d984612568565b815260200190815260200160002060020160009054906101000a900460ff16905092915050565b7f000000000000000000000000000000000000000000000000000000000000000073ffffffffffffffffffffffffffffffffffffffff163373ffffffffffffffffffffffffffffffffffffffff161461238e576040517f08c379a000000000000000000000000000000000000000000000000000000000815260040161238590613183565b60405180910390fd5b8160008160405161239f91906131df565b908152602001604051809103902060020160009054906101000a900460ff166123fd576040517f08c379a00000000000000000000000000000000000000000000000000000000081526004016123f490613242565b60405180910390fd5b600061240883612568565b9050600060028560405161241c91906131df565b908152602001604051809103902060008381526020019081526020016000209050600081600001805461244e90613291565b905011612490576040517f08c379a000000000000000000000000000000000000000000000000000000000815260040161248790613e05565b60405180910390fd5b8060020160009054906101000a900460ff166124e1576040517f08c379a00000000000000000000000000000000000000000000000000000000081526004016124d890613e71565b60405180910390fd5b60008160020160006101000a81548160ff0219169083151502179055508360405161250c91906131df565b60405180910390208560405161252291906131df565b60405180910390207f7e0c731807253762ad5c300dc71e21e154e6b5492f7a864d0eb74dd6902b000e426040516125599190612946565b60405180910390a35050505050565b600081805190602001209050919050565b6040518061012001604052806000815260200160608152602001606081526020016060815260200160608152602001606081526020016060815260200160008152602001600081525090565b604051806101000160405280600081526020016060815260200160608152602001606081526020016000815260200160008152602001600081526020016000151581525090565b60405180608001604052806060815260200160608152602001600015158152602001600081525090565b60405180608001604052806060815260200160608152602001600015158152602001600081525090565b6000604051905090565b600080fd5b600080fd5b600080fd5b600080fd5b6000601f19601f8301169050919050565b7f4e487b7100000000000000000000000000000000000000000000000000000000600052604160045260246000fd5b6126c78261267e565b810181811067ffffffffffffffff821117156126e6576126e561268f565b5b80604052505050565b60006126f9612660565b905061270582826126be565b919050565b600067ffffffffffffffff8211156127255761272461268f565b5b61272e8261267e565b9050602081019050919050565b82818337600083830152505050565b600061275d6127588461270a565b6126ef565b90508281526020810184848401111561277957612778612679565b5b61278484828561273b565b509392505050565b600082601f8301126127a1576127a0612674565b5b81356127b184826020860161274a565b91505092915050565b600080604083850312156127d1576127d061266a565b5b600083013567ffffffffffffffff8111156127ef576127ee61266f565b5b6127fb8582860161278c565b925050602083013567ffffffffffffffff81111561281c5761281b61266f565b5b6128288582860161278c565b9150509250929050565b6000819050919050565b61284581612832565b811461285057600080fd5b50565b6000813590506128628161283c565b92915050565b600080600080600060a086880312156128845761288361266a565b5b600086013567ffffffffffffffff8111156128a2576128a161266f565b5b6128ae8882890161278c565b955050602086013567ffffffffffffffff8111156128cf576128ce61266f565b5b6128db8882890161278c565b945050604086013567ffffffffffffffff8111156128fc576128fb61266f565b5b6129088882890161278c565b935050606061291988828901612853565b925050608061292a88828901612853565b9150509295509295909350565b61294081612832565b82525050565b600060208201905061295b6000830184612937565b92915050565b6000602082840312156129775761297661266a565b5b600082013567ffffffffffffffff8111156129955761299461266f565b5b6129a18482850161278c565b91505092915050565b600081519050919050565b600082825260208201905092915050565b6000819050602082019050919050565b6129df81612832565b82525050565b60006129f183836129d6565b60208301905092915050565b6000602082019050919050565b6000612a15826129aa565b612a1f81856129b5565b9350612a2a836129c6565b8060005b83811015612a5b578151612a4288826129e5565b9750612a4d836129fd565b925050600181019050612a2e565b5085935050505092915050565b60006020820190508181036000830152612a828184612a0a565b905092915050565b600060208284031215612aa057612a9f61266a565b5b6000612aae84828501612853565b91505092915050565b600081519050919050565b600082825260208201905092915050565b60005b83811015612af1578082015181840152602081019050612ad6565b60008484015250505050565b6000612b0882612ab7565b612b128185612ac2565b9350612b22818560208601612ad3565b612b2b8161267e565b840191505092915050565b600061012083016000830151612b4f60008601826129d6565b5060208301518482036020860152612b678282612afd565b91505060408301518482036040860152612b818282612afd565b91505060608301518482036060860152612b9b8282612afd565b91505060808301518482036080860152612bb58282612afd565b91505060a083015184820360a0860152612bcf8282612afd565b91505060c083015184820360c0860152612be98282612afd565b91505060e0830151612bfe60e08601826129d6565b50610100830151612c136101008601826129d6565b508091505092915050565b60006020820190508181036000830152612c388184612b36565b905092915050565b600080600060608486031215612c5957612c5861266a565b5b600084013567ffffffffffffffff811115612c7757612c7661266f565b5b612c838682870161278c565b935050602084013567ffffffffffffffff811115612ca457612ca361266f565b5b612cb08682870161278c565b925050604084013567ffffffffffffffff811115612cd157612cd061266f565b5b612cdd8682870161278c565b9150509250925092565b60008115159050919050565b612cfc81612ce7565b82525050565b600061010083016000830151612d1b60008601826129d6565b5060208301518482036020860152612d338282612afd565b91505060408301518482036040860152612d4d8282612afd565b91505060608301518482036060860152612d678282612afd565b9150506080830151612d7c60808601826129d6565b5060a0830151612d8f60a08601826129d6565b5060c0830151612da260c08601826129d6565b5060e0830151612db560e0860182612cf3565b508091505092915050565b60006020820190508181036000830152612dda8184612d02565b905092915050565b60008060408385031215612df957612df861266a565b5b6000612e0785828601612853565b925050602083013567ffffffffffffffff811115612e2857612e2761266f565b5b612e348582860161278c565b9150509250929050565b612e4781612ce7565b82525050565b6000602082019050612e626000830184612e3e565b92915050565b600080600080600080600060e0888a031215612e8757612e8661266a565b5b600088013567ffffffffffffffff811115612ea557612ea461266f565b5b612eb18a828b0161278c565b975050602088013567ffffffffffffffff811115612ed257612ed161266f565b5b612ede8a828b0161278c565b965050604088013567ffffffffffffffff811115612eff57612efe61266f565b5b612f0b8a828b0161278c565b955050606088013567ffffffffffffffff811115612f2c57612f2b61266f565b5b612f388a828b0161278c565b945050608088013567ffffffffffffffff811115612f5957612f5861266f565b5b612f658a828b0161278c565b93505060a088013567ffffffffffffffff811115612f8657612f8561266f565b5b612f928a828b0161278c565b92505060c0612fa38a828b01612853565b91505092959891949750929550565b600073ffffffffffffffffffffffffffffffffffffffff82169050919050565b6000612fdd82612fb2565b9050919050565b612fed81612fd2565b82525050565b60006020820190506130086000830184612fe4565b92915050565b6000608083016000830151848203600086015261302b8282612afd565b915050602083015184820360208601526130458282612afd565b915050604083015161305a6040860182612cf3565b50606083015161306d60608601826129d6565b508091505092915050565b60006020820190508181036000830152613092818461300e565b905092915050565b600060808301600083015184820360008601526130b78282612afd565b915050602083015184820360208601526130d18282612afd565b91505060408301516130e66040860182612cf3565b5060608301516130f960608601826129d6565b508091505092915050565b6000602082019050818103600083015261311e818461309a565b905092915050565b600082825260208201905092915050565b7f4f6e6c79206f776e657200000000000000000000000000000000000000000000600082015250565b600061316d600a83613126565b915061317882613137565b602082019050919050565b6000602082019050818103600083015261319c81613160565b9050919050565b600081905092915050565b60006131b982612ab7565b6131c381856131a3565b93506131d3818560208601612ad3565b80840191505092915050565b60006131eb82846131ae565b915081905092915050565b7f436f6d70616e79206e6f7420666f756e64000000000000000000000000000000600082015250565b600061322c601183613126565b9150613237826131f6565b602082019050919050565b6000602082019050818103600083015261325b8161321f565b9050919050565b7f4e487b7100000000000000000000000000000000000000000000000000000000600052602260045260246000fd5b600060028204905060018216806132a957607f821691505b6020821081036132bc576132bb613262565b5b50919050565b60008190508160005260206000209050919050565b60006020601f8301049050919050565b600082821b905092915050565b6000600883026133247fffffffffffffffffffffffffffffffffffffffffffffffffffffffffffffffff826132e7565b61332e86836132e7565b95508019841693508086168417925050509392505050565b6000819050919050565b600061336b61336661336184612832565b613346565b612832565b9050919050565b6000819050919050565b61338583613350565b61339961339182613372565b8484546132f4565b825550505050565b600090565b6133ae6133a1565b6133b981848461337c565b505050565b5b818110156133dd576133d26000826133a6565b6001810190506133bf565b5050565b601f821115613422576133f3816132c2565b6133fc846132d7565b8101602085101561340b578190505b61341f613417856132d7565b8301826133be565b50505b505050565b600082821c905092915050565b600061344560001984600802613427565b1980831691505092915050565b600061345e8383613434565b9150826002028217905092915050565b61347782612ab7565b67ffffffffffffffff8111156134905761348f61268f565b5b61349a8254613291565b6134a58282856133e1565b600060209050601f8311600181146134d857600084156134c6578287015190505b6134d08582613452565b865550613538565b601f1984166134e6866132c2565b60005b8281101561350e578489015182556001820191506020850194506020810190506134e9565b8683101561352b5784890151613527601f891682613434565b8355505b6001600288020188555050505b505050505050565b7f506572696f642072657175697265640000000000000000000000000000000000600082015250565b6000613576600f83613126565b915061358182613540565b602082019050919050565b600060208201905081810360008301526135a581613569565b9050919050565b7f5265706f72742068617368207265717569726564000000000000000000000000600082015250565b60006135e2601483613126565b91506135ed826135ac565b602082019050919050565b60006020820190508181036000830152613611816135d5565b9050919050565b7f4e487b7100000000000000000000000000000000000000000000000000000000600052601160045260246000fd5b600061365282612832565b91507fffffffffffffffffffffffffffffffffffffffffffffffffffffffffffffffff820361368457613683613618565b5b600182019050919050565b600061369a82612ab7565b6136a48185613126565b93506136b4818560208601612ad3565b6136bd8161267e565b840191505092915050565b600060a08201905081810360008301526136e2818861368f565b905081810360208301526136f6818761368f565b90506137056040830186612937565b6137126060830185612937565b61371f6080830184612937565b9695505050505050565b7f5375626d697373696f6e206e6f7420666f756e64000000000000000000000000600082015250565b600061375f601483613126565b915061376a82613729565b602082019050919050565b6000602082019050818103600083015261378e81613752565b9050919050565b7f5374616b65686f6c646572204944207265717569726564000000000000000000600082015250565b60006137cb601783613126565b91506137d682613795565b602082019050919050565b600060208201905081810360008301526137fa816137be565b9050919050565b7f526f6c6520726571756972656400000000000000000000000000000000000000600082015250565b6000613837600d83613126565b915061384282613801565b602082019050919050565b600060208201905081810360008301526138668161382a565b9050919050565b60006040820190508181036000830152613887818561368f565b90506138966020830184612937565b9392505050565b7f5265706f7274206e6f7420666f756e6400000000000000000000000000000000600082015250565b60006138d3601083613126565b91506138de8261389d565b602082019050919050565b60006020820190508181036000830152613902816138c6565b9050919050565b7f436f6d70616e7920494420726571756972656400000000000000000000000000600082015250565b600061393f601383613126565b915061394a82613909565b602082019050919050565b6000602082019050818103600083015261396e81613932565b9050919050565b7f436f6d70616e7920616c72656164792065786973747300000000000000000000600082015250565b60006139ab601683613126565b91506139b682613975565b602082019050919050565b600060208201905081810360008301526139da8161399e565b9050919050565b7f4163746f72207265717569726564000000000000000000000000000000000000600082015250565b6000613a17600e83613126565b9150613a22826139e1565b602082019050919050565b60006020820190508181036000830152613a4681613a0a565b9050919050565b7f4461746120686173682072657175697265640000000000000000000000000000600082015250565b6000613a83601283613126565b9150613a8e82613a4d565b602082019050919050565b60006020820190508181036000830152613ab281613a76565b9050919050565b7f5374616b65686f6c646572206e6f7420617574686f72697a6564000000000000600082015250565b6000613aef601a83613126565b9150613afa82613ab9565b602082019050919050565b60006020820190508181036000830152613b1e81613ae2565b9050919050565b600081905092915050565b60008190508160005260206000209050919050565b60008154613b5281613291565b613b5c8186613b25565b94506001821660008114613b775760018114613b8c57613bbf565b60ff1983168652811515820286019350613bbf565b613b9585613b30565b60005b83811015613bb757815481890152600182019150602081019050613b98565b838801955050505b50505092915050565b6000613bd48284613b45565b915081905092915050565b7f5374616b65686f6c64657220726f6c65206d69736d6174636800000000000000600082015250565b6000613c15601983613126565b9150613c2082613bdf565b602082019050919050565b60006020820190508181036000830152613c4481613c08565b9050919050565b600060a0820190508181036000830152613c65818861368f565b90508181036020830152613c79818761368f565b90508181036040830152613c8d818661368f565b9050613c9c6060830185612937565b613ca96080830184612937565b9695505050505050565b7f4275796572204944207265717569726564000000000000000000000000000000600082015250565b6000613ce9601183613126565b9150613cf482613cb3565b602082019050919050565b60006020820190508181036000830152613d1881613cdc565b9050919050565b60008154613d2c81613291565b613d3681866131a3565b94506001821660008114613d515760018114613d6657613d99565b60ff1983168652811515820286019350613d99565b613d6f856132c2565b60005b83811015613d9157815481890152600182019150602081019050613d72565b838801955050505b50505092915050565b6000613dae8284613d1f565b915081905092915050565b7f5374616b65686f6c646572206e6f7420666f756e640000000000000000000000600082015250565b6000613def601583613126565b9150613dfa82613db9565b602082019050919050565b60006020820190508181036000830152613e1e81613de2565b9050919050565b7f5374616b65686f6c64657220616c726561647920696e61637469766500000000600082015250565b6000613e5b601c83613126565b9150613e6682613e25565b602082019050919050565b60006020820190508181036000830152613e8a81613e4e565b905091905056fea2646970667358221220ab33bf1ee614e103123694317b4df71be17c17a89d9605f8be41791bf382870b64736f6c634300081c0033","opcodes":"PUSH1 0xA0 PUSH1 0x40 MSTORE CALLVALUE DUP1 ISZERO PUSH2 0x10 JUMPI PUSH1 0x0 DUP1 REVERT JUMPDEST POP CALLER PUSH20 0xFFFFFFFFFFFFFFFFFFFFFFFFFFFFFFFFFFFFFFFF AND PUSH1 0x80 DUP2 PUSH20 0xFFFFFFFFFFFFFFFFFFFFFFFFFFFFFFFFFFFFFFFF AND DUP2 MSTORE POP POP PUSH1 0x80 MLOAD PUSH2 0x3EC7 PUSH2 0x91 PUSH1 0x0 CODECOPY PUSH1 0x0 DUP2 DUP2 PUSH2 0x432 ADD MSTORE DUP2 DUP2 PUSH2 0x565 ADD MSTORE DUP2 DUP2 PUSH2 0xD6D ADD MSTORE DUP2 DUP2 PUSH2 0x1347 ADD MSTORE DUP2 DUP2 PUSH2 0x1578 ADD MSTORE DUP2 DUP2 PUSH2 0x1AA8 ADD MSTORE DUP2 DUP2 PUSH2 0x1DAF ADD MSTORE PUSH2 0x2302 ADD MSTORE PUSH2 0x3EC7 PUSH1 0x0 RETURN INVALID PUSH1 0x80 PUSH1 0x40 MSTORE CALLVALUE DUP1 ISZERO PUSH2 0x10 JUMPI PUSH1 0x0 DUP1 REVERT JUMPDEST POP PUSH1 0x4 CALLDATASIZE LT PUSH2 0x121 JUMPI PUSH1 0x0 CALLDATALOAD PUSH1 0xE0 SHR DUP1 PUSH4 0x8DA5CB5B GT PUSH2 0xAD JUMPI DUP1 PUSH4 0xCAD9642B GT PUSH2 0x71 JUMPI DUP1 PUSH4 0xCAD9642B EQ PUSH2 0x366 JUMPI DUP1 PUSH4 0xCBC07993 EQ PUSH2 0x384 JUMPI DUP1 PUSH4 0xD00BB8B8 EQ PUSH2 0x3B4 JUMPI DUP1 PUSH4 0xFB8C3485 EQ PUSH2 0x3E4 JUMPI DUP1 PUSH4 0xFC7457AB EQ PUSH2 0x414 JUMPI PUSH2 0x121 JUMP JUMPDEST DUP1 PUSH4 0x8DA5CB5B EQ PUSH2 0x29A JUMPI DUP1 PUSH4 0x9999D2AE EQ PUSH2 0x2B8 JUMPI DUP1 PUSH4 0xAE69370B EQ PUSH2 0x2D6 JUMPI DUP1 PUSH4 0xB24A4E52 EQ PUSH2 0x306 JUMPI DUP1 PUSH4 0xB6C33E04 EQ PUSH2 0x336 JUMPI PUSH2 0x121 JUMP JUMPDEST DUP1 PUSH4 0x45DE8853 GT PUSH2 0xF4 JUMPI DUP1 PUSH4 0x45DE8853 EQ PUSH2 0x1D2 JUMPI DUP1 PUSH4 0x4E7F9B19 EQ PUSH2 0x1EE JUMPI DUP1 PUSH4 0x696FD2C1 EQ PUSH2 0x21E JUMPI DUP1 PUSH4 0x74448BA4 EQ PUSH2 0x24E JUMPI DUP1 PUSH4 0x7C59A551 EQ PUSH2 0x26A JUMPI PUSH2 0x121 JUMP JUMPDEST DUP1 PUSH4 0x218A7EC EQ PUSH2 0x126 JUMPI DUP1 PUSH4 0x16C3913F EQ PUSH2 0x142 JUMPI DUP1 PUSH4 0x2C10F557 EQ PUSH2 0x172 JUMPI DUP1 PUSH4 0x3E8686CC EQ PUSH2 0x1A2 JUMPI JUMPDEST PUSH1 0x0 DUP1 REVERT JUMPDEST PUSH2 0x140 PUSH1 0x4 DUP1 CALLDATASIZE SUB DUP2 ADD SWAP1 PUSH2 0x13B SWAP2 SWAP1 PUSH2 0x27BA JUMP JUMPDEST PUSH2 0x430 JUMP JUMPDEST STOP JUMPDEST PUSH2 0x15C PUSH1 0x4 DUP1 CALLDATASIZE SUB DUP2 ADD SWAP1 PUSH2 0x157 SWAP2 SWAP1 PUSH2 0x2868 JUMP JUMPDEST PUSH2 0x561 JUMP JUMPDEST PUSH1 0x40 MLOAD PUSH2 0x169 SWAP2 SWAP1 PUSH2 0x2946 JUMP JUMPDEST PUSH1 0x40 MLOAD DUP1 SWAP2 SUB SWAP1 RETURN JUMPDEST PUSH2 0x18C PUSH1 0x4 DUP1 CALLDATASIZE SUB DUP2 ADD SWAP1 PUSH2 0x187 SWAP2 SWAP1 PUSH2 0x2961 JUMP JUMPDEST PUSH2 0x889 JUMP JUMPDEST PUSH1 0x40 MLOAD PUSH2 0x199 SWAP2 SWAP1 PUSH2 0x2A68 JUMP JUMPDEST PUSH1 0x40 MLOAD DUP1 SWAP2 SUB SWAP1 RETURN JUMPDEST PUSH2 0x1BC PUSH1 0x4 DUP1 CALLDATASIZE SUB DUP2 ADD SWAP1 PUSH2 0x1B7 SWAP2 SWAP1 PUSH2 0x2A8A JUMP JUMPDEST PUSH2 0x96F JUMP JUMPDEST PUSH1 0x40 MLOAD PUSH2 0x1C9 SWAP2 SWAP1 PUSH2 0x2C1E JUMP JUMPDEST PUSH1 0x40 MLOAD DUP1 SWAP2 SUB SWAP1 RETURN JUMPDEST PUSH2 0x1EC PUSH1 0x4 DUP1 CALLDATASIZE SUB DUP2 ADD SWAP1 PUSH2 0x1E7 SWAP2 SWAP1 PUSH2 0x2C40 JUMP JUMPDEST PUSH2 0xD6B JUMP JUMPDEST STOP JUMPDEST PUSH2 0x208 PUSH1 0x4 DUP1 CALLDATASIZE SUB DUP2 ADD SWAP1 PUSH2 0x203 SWAP2 SWAP1 PUSH2 0x2A8A JUMP JUMPDEST PUSH2 0x1045 JUMP JUMPDEST PUSH1 0x40 MLOAD PUSH2 0x215 SWAP2 SWAP1 PUSH2 0x2DC0 JUMP JUMPDEST PUSH1 0x40 MLOAD DUP1 SWAP2 SUB SWAP1 RETURN JUMPDEST PUSH2 0x238 PUSH1 0x4 DUP1 CALLDATASIZE SUB DUP2 ADD SWAP1 PUSH2 0x233 SWAP2 SWAP1 PUSH2 0x2DE2 JUMP JUMPDEST PUSH2 0x12CF JUMP JUMPDEST PUSH1 0x40 MLOAD PUSH2 0x245 SWAP2 SWAP1 PUSH2 0x2E4D JUMP JUMPDEST PUSH1 0x40 MLOAD DUP1 SWAP2 SUB SWAP1 RETURN JUMPDEST PUSH2 0x268 PUSH1 0x4 DUP1 CALLDATASIZE SUB DUP2 ADD SWAP1 PUSH2 0x263 SWAP2 SWAP1 PUSH2 0x27BA JUMP JUMPDEST PUSH2 0x1345 JUMP JUMPDEST STOP JUMPDEST PUSH2 0x284 PUSH1 0x4 DUP1 CALLDATASIZE SUB DUP2 ADD SWAP1 PUSH2 0x27F SWAP2 SWAP1 PUSH2 0x2E68 JUMP JUMPDEST PUSH2 0x1574 JUMP JUMPDEST PUSH1 0x40 MLOAD PUSH2 0x291 SWAP2 SWAP1 PUSH2 0x2946 JUMP JUMPDEST PUSH1 0x40 MLOAD DUP1 SWAP2 SUB SWAP1 RETURN JUMPDEST PUSH2 0x2A2 PUSH2 0x1AA6 JUMP JUMPDEST PUSH1 0x40 MLOAD PUSH2 0x2AF SWAP2 SWAP1 PUSH2 0x2FF3 JUMP JUMPDEST PUSH1 0x40 MLOAD DUP1 SWAP2 SUB SWAP1 RETURN JUMPDEST PUSH2 0x2C0 PUSH2 0x1ACA JUMP JUMPDEST PUSH1 0x40 MLOAD PUSH2 0x2CD SWAP2 SWAP1 PUSH2 0x2946 JUMP JUMPDEST PUSH1 0x40 MLOAD DUP1 SWAP2 SUB SWAP1 RETURN JUMPDEST PUSH2 0x2F0 PUSH1 0x4 DUP1 CALLDATASIZE SUB DUP2 ADD SWAP1 PUSH2 0x2EB SWAP2 SWAP1 PUSH2 0x2961 JUMP JUMPDEST PUSH2 0x1AD4 JUMP JUMPDEST PUSH1 0x40 MLOAD PUSH2 0x2FD SWAP2 SWAP1 PUSH2 0x2A68 JUMP JUMPDEST PUSH1 0x40 MLOAD DUP1 SWAP2 SUB SWAP1 RETURN JUMPDEST PUSH2 0x320 PUSH1 0x4 DUP1 CALLDATASIZE SUB DUP2 ADD SWAP1 PUSH2 0x31B SWAP2 SWAP1 PUSH2 0x2961 JUMP JUMPDEST PUSH2 0x1BBA JUMP JUMPDEST PUSH1 0x40 MLOAD PUSH2 0x32D SWAP2 SWAP1 PUSH2 0x3078 JUMP JUMPDEST PUSH1 0x40 MLOAD DUP1 SWAP2 SUB SWAP1 RETURN JUMPDEST PUSH2 0x350 PUSH1 0x4 DUP1 CALLDATASIZE SUB DUP2 ADD SWAP1 PUSH2 0x34B SWAP2 SWAP1 PUSH2 0x2DE2 JUMP JUMPDEST PUSH2 0x1DAB JUMP JUMPDEST PUSH1 0x40 MLOAD PUSH2 0x35D SWAP2 SWAP1 PUSH2 0x2E4D JUMP JUMPDEST PUSH1 0x40 MLOAD DUP1 SWAP2 SUB SWAP1 RETURN JUMPDEST PUSH2 0x36E PUSH2 0x1FB0 JUMP JUMPDEST PUSH1 0x40 MLOAD PUSH2 0x37B SWAP2 SWAP1 PUSH2 0x2946 JUMP JUMPDEST PUSH1 0x40 MLOAD DUP1 SWAP2 SUB SWAP1 RETURN JUMPDEST PUSH2 0x39E PUSH1 0x4 DUP1 CALLDATASIZE SUB DUP2 ADD SWAP1 PUSH2 0x399 SWAP2 SWAP1 PUSH2 0x2961 JUMP JUMPDEST PUSH2 0x1FBA JUMP JUMPDEST PUSH1 0x40 MLOAD PUSH2 0x3AB SWAP2 SWAP1 PUSH2 0x2946 JUMP JUMPDEST PUSH1 0x40 MLOAD DUP1 SWAP2 SUB SWAP1 RETURN JUMPDEST PUSH2 0x3CE PUSH1 0x4 DUP1 CALLDATASIZE SUB DUP2 ADD SWAP1 PUSH2 0x3C9 SWAP2 SWAP1 PUSH2 0x27BA JUMP JUMPDEST PUSH2 0x2055 JUMP JUMPDEST PUSH1 0x40 MLOAD PUSH2 0x3DB SWAP2 SWAP1 PUSH2 0x3104 JUMP JUMPDEST PUSH1 0x40 MLOAD DUP1 SWAP2 SUB SWAP1 RETURN JUMPDEST PUSH2 0x3FE PUSH1 0x4 DUP1 CALLDATASIZE SUB DUP2 ADD SWAP1 PUSH2 0x3F9 SWAP2 SWAP1 PUSH2 0x27BA JUMP JUMPDEST PUSH2 0x22AE JUMP JUMPDEST PUSH1 0x40 MLOAD PUSH2 0x40B SWAP2 SWAP1 PUSH2 0x2E4D JUMP JUMPDEST PUSH1 0x40 MLOAD DUP1 SWAP2 SUB SWAP1 RETURN JUMPDEST PUSH2 0x42E PUSH1 0x4 DUP1 CALLDATASIZE SUB DUP2 ADD SWAP1 PUSH2 0x429 SWAP2 SWAP1 PUSH2 0x27BA JUMP JUMPDEST PUSH2 0x2300 JUMP JUMPDEST STOP JUMPDEST PUSH32 0x0 PUSH20 0xFFFFFFFFFFFFFFFFFFFFFFFFFFFFFFFFFFFFFFFF AND CALLER PUSH20 0xFFFFFFFFFFFFFFFFFFFFFFFFFFFFFFFFFFFFFFFF AND EQ PUSH2 0x4BE JUMPI PUSH1 0x40 MLOAD PUSH32 0x8C379A000000000000000000000000000000000000000000000000000000000 DUP2 MSTORE PUSH1 0x4 ADD PUSH2 0x4B5 SWAP1 PUSH2 0x3183 JUMP JUMPDEST PUSH1 0x40 MLOAD DUP1 SWAP2 SUB SWAP1 REVERT JUMPDEST DUP2 PUSH1 0x0 DUP2 PUSH1 0x40 MLOAD PUSH2 0x4CF SWAP2 SWAP1 PUSH2 0x31DF JUMP JUMPDEST SWAP1 DUP2 MSTORE PUSH1 0x20 ADD PUSH1 0x40 MLOAD DUP1 SWAP2 SUB SWAP1 KECCAK256 PUSH1 0x2 ADD PUSH1 0x0 SWAP1 SLOAD SWAP1 PUSH2 0x100 EXP SWAP1 DIV PUSH1 0xFF AND PUSH2 0x52D JUMPI PUSH1 0x40 MLOAD PUSH32 0x8C379A000000000000000000000000000000000000000000000000000000000 DUP2 MSTORE PUSH1 0x4 ADD PUSH2 0x524 SWAP1 PUSH2 0x3242 JUMP JUMPDEST PUSH1 0x40 MLOAD DUP1 SWAP2 SUB SWAP1 REVERT JUMPDEST DUP2 PUSH1 0x0 DUP5 PUSH1 0x40 MLOAD PUSH2 0x53E SWAP2 SWAP1 PUSH2 0x31DF JUMP JUMPDEST SWAP1 DUP2 MSTORE PUSH1 0x20 ADD PUSH1 0x40 MLOAD DUP1 SWAP2 SUB SWAP1 KECCAK256 PUSH1 0x1 ADD SWAP1 DUP2 PUSH2 0x55B SWAP2 SWAP1 PUSH2 0x346E JUMP JUMPDEST POP POP POP POP JUMP JUMPDEST PUSH1 0x0 PUSH32 0x0 PUSH20 0xFFFFFFFFFFFFFFFFFFFFFFFFFFFFFFFFFFFFFFFF AND CALLER PUSH20 0xFFFFFFFFFFFFFFFFFFFFFFFFFFFFFFFFFFFFFFFF AND EQ PUSH2 0x5F1 JUMPI PUSH1 0x40 MLOAD PUSH32 0x8C379A000000000000000000000000000000000000000000000000000000000 DUP2 MSTORE PUSH1 0x4 ADD PUSH2 0x5E8 SWAP1 PUSH2 0x3183 JUMP JUMPDEST PUSH1 0x40 MLOAD DUP1 SWAP2 SUB SWAP1 REVERT JUMPDEST DUP6 PUSH1 0x0 DUP2 PUSH1 0x40 MLOAD PUSH2 0x602 SWAP2 SWAP1 PUSH2 0x31DF JUMP JUMPDEST SWAP1 DUP2 MSTORE PUSH1 0x20 ADD PUSH1 0x40 MLOAD DUP1 SWAP2 SUB SWAP1 KECCAK256 PUSH1 0x2 ADD PUSH1 0x0 SWAP1 SLOAD SWAP1 PUSH2 0x100 EXP SWAP1 DIV PUSH1 0xFF AND PUSH2 0x660 JUMPI PUSH1 0x40 MLOAD PUSH32 0x8C379A000000000000000000000000000000000000000000000000000000000 DUP2 MSTORE PUSH1 0x4 ADD PUSH2 0x657 SWAP1 PUSH2 0x3242 JUMP JUMPDEST PUSH1 0x40 MLOAD DUP1 SWAP2 SUB SWAP1 REVERT JUMPDEST PUSH1 0x0 DUP7 MLOAD GT PUSH2 0x6A4 JUMPI PUSH1 0x40 MLOAD PUSH32 0x8C379A000000000000000000000000000000000000000000000000000000000 DUP2 MSTORE PUSH1 0x4 ADD PUSH2 0x69B SWAP1 PUSH2 0x358C JUMP JUMPDEST PUSH1 0x40 MLOAD DUP1 SWAP2 SUB SWAP1 REVERT JUMPDEST PUSH1 0x0 DUP6 MLOAD GT PUSH2 0x6E8 JUMPI PUSH1 0x40 MLOAD PUSH32 0x8C379A000000000000000000000000000000000000000000000000000000000 DUP2 MSTORE PUSH1 0x4 ADD PUSH2 0x6DF SWAP1 PUSH2 0x35F8 JUMP JUMPDEST PUSH1 0x40 MLOAD DUP1 SWAP2 SUB SWAP1 REVERT JUMPDEST PUSH1 0x0 PUSH1 0x9 PUSH1 0x0 DUP2 SLOAD DUP1 SWAP3 SWAP2 SWAP1 PUSH2 0x6FD SWAP1 PUSH2 0x3647 JUMP JUMPDEST SWAP2 SWAP1 POP SSTORE SWAP1 POP PUSH1 0x40 MLOAD DUP1 PUSH2 0x100 ADD PUSH1 0x40 MSTORE DUP1 DUP3 DUP2 MSTORE PUSH1 0x20 ADD DUP10 DUP2 MSTORE PUSH1 0x20 ADD DUP9 DUP2 MSTORE PUSH1 0x20 ADD DUP8 DUP2 MSTORE PUSH1 0x20 ADD DUP7 DUP2 MSTORE PUSH1 0x20 ADD DUP6 DUP2 MSTORE PUSH1 0x20 ADD TIMESTAMP DUP2 MSTORE PUSH1 0x20 ADD PUSH1 0x1 ISZERO ISZERO DUP2 MSTORE POP PUSH1 0x7 PUSH1 0x0 DUP4 DUP2 MSTORE PUSH1 0x20 ADD SWAP1 DUP2 MSTORE PUSH1 0x20 ADD PUSH1 0x0 KECCAK256 PUSH1 0x0 DUP3 ADD MLOAD DUP2 PUSH1 0x0 ADD SSTORE PUSH1 0x20 DUP3 ADD MLOAD DUP2 PUSH1 0x1 ADD SWAP1 DUP2 PUSH2 0x772 SWAP2 SWAP1 PUSH2 0x346E JUMP JUMPDEST POP PUSH1 0x40 DUP3 ADD MLOAD DUP2 PUSH1 0x2 ADD SWAP1 DUP2 PUSH2 0x788 SWAP2 SWAP1 PUSH2 0x346E JUMP JUMPDEST POP PUSH1 0x60 DUP3 ADD MLOAD DUP2 PUSH1 0x3 ADD SWAP1 DUP2 PUSH2 0x79E SWAP2 SWAP1 PUSH2 0x346E JUMP JUMPDEST POP PUSH1 0x80 DUP3 ADD MLOAD DUP2 PUSH1 0x4 ADD SSTORE PUSH1 0xA0 DUP3 ADD MLOAD DUP2 PUSH1 0x5 ADD SSTORE PUSH1 0xC0 DUP3 ADD MLOAD DUP2 PUSH1 0x6 ADD SSTORE PUSH1 0xE0 DUP3 ADD MLOAD DUP2 PUSH1 0x7 ADD PUSH1 0x0 PUSH2 0x100 EXP DUP2 SLOAD DUP2 PUSH1 0xFF MUL NOT AND SWAP1 DUP4 ISZERO ISZERO MUL OR SWAP1 SSTORE POP SWAP1 POP POP PUSH1 0x6 DUP9 PUSH1 0x40 MLOAD PUSH2 0x7F0 SWAP2 SWAP1 PUSH2 0x31DF JUMP JUMPDEST SWAP1 DUP2 MSTORE PUSH1 0x20 ADD PUSH1 0x40 MLOAD DUP1 SWAP2 SUB SWAP1 KECCAK256 DUP2 SWAP1 DUP1 PUSH1 0x1 DUP2 SLOAD ADD DUP1 DUP3 SSTORE DUP1 SWAP2 POP POP PUSH1 0x1 SWAP1 SUB SWAP1 PUSH1 0x0 MSTORE PUSH1 0x20 PUSH1 0x0 KECCAK256 ADD PUSH1 0x0 SWAP1 SWAP2 SWAP1 SWAP2 SWAP1 SWAP2 POP SSTORE DUP8 PUSH1 0x40 MLOAD PUSH2 0x833 SWAP2 SWAP1 PUSH2 0x31DF JUMP JUMPDEST PUSH1 0x40 MLOAD DUP1 SWAP2 SUB SWAP1 KECCAK256 DUP2 PUSH32 0xF6B8C3EE718B848994733F1EAD2F3F0B4B54CCBB772AF4009EDC8CFE95CD299A DUP10 DUP10 DUP10 DUP10 TIMESTAMP PUSH1 0x40 MLOAD PUSH2 0x873 SWAP6 SWAP5 SWAP4 SWAP3 SWAP2 SWAP1 PUSH2 0x36C8 JUMP JUMPDEST PUSH1 0x40 MLOAD DUP1 SWAP2 SUB SWAP1 LOG3 DUP1 SWAP3 POP POP POP SWAP6 SWAP5 POP POP POP POP POP JUMP JUMPDEST PUSH1 0x60 DUP2 PUSH1 0x0 DUP2 PUSH1 0x40 MLOAD PUSH2 0x89C SWAP2 SWAP1 PUSH2 0x31DF JUMP JUMPDEST SWAP1 DUP2 MSTORE PUSH1 0x20 ADD PUSH1 0x40 MLOAD DUP1 SWAP2 SUB SWAP1 KECCAK256 PUSH1 0x2 ADD PUSH1 0x0 SWAP1 SLOAD SWAP1 PUSH2 0x100 EXP SWAP1 DIV PUSH1 0xFF AND PUSH2 0x8FA JUMPI PUSH1 0x40 MLOAD PUSH32 0x8C379A000000000000000000000000000000000000000000000000000000000 DUP2 MSTORE PUSH1 0x4 ADD PUSH2 0x8F1 SWAP1 PUSH2 0x3242 JUMP JUMPDEST PUSH1 0x40 MLOAD DUP1 SWAP2 SUB SWAP1 REVERT JUMPDEST PUSH1 0x6 DUP4 PUSH1 0x40 MLOAD PUSH2 0x90A SWAP2 SWAP1 PUSH2 0x31DF JUMP JUMPDEST SWAP1 DUP2 MSTORE PUSH1 0x20 ADD PUSH1 0x40 MLOAD DUP1 SWAP2 SUB SWAP1 KECCAK256 DUP1 SLOAD DUP1 PUSH1 0x20 MUL PUSH1 0x20 ADD PUSH1 0x40 MLOAD SWAP1 DUP2 ADD PUSH1 0x40 MSTORE DUP1 SWAP3 SWAP2 SWAP1 DUP2 DUP2 MSTORE PUSH1 0x20 ADD DUP3 DUP1 SLOAD DUP1 ISZERO PUSH2 0x962 JUMPI PUSH1 0x20 MUL DUP3 ADD SWAP2 SWAP1 PUSH1 0x0 MSTORE PUSH1 0x20 PUSH1 0x0 KECCAK256 SWAP1 JUMPDEST DUP2 SLOAD DUP2 MSTORE PUSH1 0x20 ADD SWAP1 PUSH1 0x1 ADD SWAP1 DUP1 DUP4 GT PUSH2 0x94E JUMPI JUMPDEST POP POP POP POP POP SWAP2 POP POP SWAP2 SWAP1 POP JUMP JUMPDEST PUSH2 0x977 PUSH2 0x2579 JUMP JUMPDEST PUSH1 0x8 SLOAD DUP3 LT PUSH2 0x9BB JUMPI PUSH1 0x40 MLOAD PUSH32 0x8C379A000000000000000000000000000000000000000000000000000000000 DUP2 MSTORE PUSH1 0x4 ADD PUSH2 0x9B2 SWAP1 PUSH2 0x3775 JUMP JUMPDEST PUSH1 0x40 MLOAD DUP1 SWAP2 SUB SWAP1 REVERT JUMPDEST PUSH1 0x4 PUSH1 0x0 DUP4 DUP2 MSTORE PUSH1 0x20 ADD SWAP1 DUP2 MSTORE PUSH1 0x20 ADD PUSH1 0x0 KECCAK256 PUSH1 0x40 MLOAD DUP1 PUSH2 0x120 ADD PUSH1 0x40 MSTORE SWAP1 DUP2 PUSH1 0x0 DUP3 ADD SLOAD DUP2 MSTORE PUSH1 0x20 ADD PUSH1 0x1 DUP3 ADD DUP1 SLOAD PUSH2 0x9F4 SWAP1 PUSH2 0x3291 JUMP JUMPDEST DUP1 PUSH1 0x1F ADD PUSH1 0x20 DUP1 SWAP2 DIV MUL PUSH1 0x20 ADD PUSH1 0x40 MLOAD SWAP1 DUP2 ADD PUSH1 0x40 MSTORE DUP1 SWAP3 SWAP2 SWAP1 DUP2 DUP2 MSTORE PUSH1 0x20 ADD DUP3 DUP1 SLOAD PUSH2 0xA20 SWAP1 PUSH2 0x3291 JUMP JUMPDEST DUP1 ISZERO PUSH2 0xA6D JUMPI DUP1 PUSH1 0x1F LT PUSH2 0xA42 JUMPI PUSH2 0x100 DUP1 DUP4 SLOAD DIV MUL DUP4 MSTORE SWAP2 PUSH1 0x20 ADD SWAP2 PUSH2 0xA6D JUMP JUMPDEST DUP3 ADD SWAP2 SWAP1 PUSH1 0x0 MSTORE PUSH1 0x20 PUSH1 0x0 KECCAK256 SWAP1 JUMPDEST DUP2 SLOAD DUP2 MSTORE SWAP1 PUSH1 0x1 ADD SWAP1 PUSH1 0x20 ADD DUP1 DUP4 GT PUSH2 0xA50 JUMPI DUP3 SWAP1 SUB PUSH1 0x1F AND DUP3 ADD SWAP2 JUMPDEST POP POP POP POP POP DUP2 MSTORE PUSH1 0x20 ADD PUSH1 0x2 DUP3 ADD DUP1 SLOAD PUSH2 0xA86 SWAP1 PUSH2 0x3291 JUMP JUMPDEST DUP1 PUSH1 0x1F ADD PUSH1 0x20 DUP1 SWAP2 DIV MUL PUSH1 0x20 ADD PUSH1 0x40 MLOAD SWAP1 DUP2 ADD PUSH1 0x40 MSTORE DUP1 SWAP3 SWAP2 SWAP1 DUP2 DUP2 MSTORE PUSH1 0x20 ADD DUP3 DUP1 SLOAD PUSH2 0xAB2 SWAP1 PUSH2 0x3291 JUMP JUMPDEST DUP1 ISZERO PUSH2 0xAFF JUMPI DUP1 PUSH1 0x1F LT PUSH2 0xAD4 JUMPI PUSH2 0x100 DUP1 DUP4 SLOAD DIV MUL DUP4 MSTORE SWAP2 PUSH1 0x20 ADD SWAP2 PUSH2 0xAFF JUMP JUMPDEST DUP3 ADD SWAP2 SWAP1 PUSH1 0x0 MSTORE PUSH1 0x20 PUSH1 0x0 KECCAK256 SWAP1 JUMPDEST DUP2 SLOAD DUP2 MSTORE SWAP1 PUSH1 0x1 ADD SWAP1 PUSH1 0x20 ADD DUP1 DUP4 GT PUSH2 0xAE2 JUMPI DUP3 SWAP1 SUB PUSH1 0x1F AND DUP3 ADD SWAP2 JUMPDEST POP POP POP POP POP DUP2 MSTORE PUSH1 0x20 ADD PUSH1 0x3 DUP3 ADD DUP1 SLOAD PUSH2 0xB18 SWAP1 PUSH2 0x3291 JUMP JUMPDEST DUP1 PUSH1 0x1F ADD PUSH1 0x20 DUP1 SWAP2 DIV MUL PUSH1 0x20 ADD PUSH1 0x40 MLOAD SWAP1 DUP2 ADD PUSH1 0x40 MSTORE DUP1 SWAP3 SWAP2 SWAP1 DUP2 DUP2 MSTORE PUSH1 0x20 ADD DUP3 DUP1 SLOAD PUSH2 0xB44 SWAP1 PUSH2 0x3291 JUMP JUMPDEST DUP1 ISZERO PUSH2 0xB91 JUMPI DUP1 PUSH1 0x1F LT PUSH2 0xB66 JUMPI PUSH2 0x100 DUP1 DUP4 SLOAD DIV MUL DUP4 MSTORE SWAP2 PUSH1 0x20 ADD SWAP2 PUSH2 0xB91 JUMP JUMPDEST DUP3 ADD SWAP2 SWAP1 PUSH1 0x0 MSTORE PUSH1 0x20 PUSH1 0x0 KECCAK256 SWAP1 JUMPDEST DUP2 SLOAD DUP2 MSTORE SWAP1 PUSH1 0x1 ADD SWAP1 PUSH1 0x20 ADD DUP1 DUP4 GT PUSH2 0xB74 JUMPI DUP3 SWAP1 SUB PUSH1 0x1F AND DUP3 ADD SWAP2 JUMPDEST POP POP POP POP POP DUP2 MSTORE PUSH1 0x20 ADD PUSH1 0x4 DUP3 ADD DUP1 SLOAD PUSH2 0xBAA SWAP1 PUSH2 0x3291 JUMP JUMPDEST DUP1 PUSH1 0x1F ADD PUSH1 0x20 DUP1 SWAP2 DIV MUL PUSH1 0x20 ADD PUSH1 0x40 MLOAD SWAP1 DUP2 ADD PUSH1 0x40 MSTORE DUP1 SWAP3 SWAP2 SWAP1 DUP2 DUP2 MSTORE PUSH1 0x20 ADD DUP3 DUP1 SLOAD PUSH2 0xBD6 SWAP1 PUSH2 0x3291 JUMP JUMPDEST DUP1 ISZERO PUSH2 0xC23 JUMPI DUP1 PUSH1 0x1F LT PUSH2 0xBF8 JUMPI PUSH2 0x100 DUP1 DUP4 SLOAD DIV MUL DUP4 MSTORE SWAP2 PUSH1 0x20 ADD SWAP2 PUSH2 0xC23 JUMP JUMPDEST DUP3 ADD SWAP2 SWAP1 PUSH1 0x0 MSTORE PUSH1 0x20 PUSH1 0x0 KECCAK256 SWAP1 JUMPDEST DUP2 SLOAD DUP2 MSTORE SWAP1 PUSH1 0x1 ADD SWAP1 PUSH1 0x20 ADD DUP1 DUP4 GT PUSH2 0xC06 JUMPI DUP3 SWAP1 SUB PUSH1 0x1F AND DUP3 ADD SWAP2 JUMPDEST POP POP POP POP POP DUP2 MSTORE PUSH1 0x20 ADD PUSH1 0x5 DUP3 ADD DUP1 SLOAD PUSH2 0xC3C SWAP1 PUSH2 0x3291 JUMP JUMPDEST DUP1 PUSH1 0x1F ADD PUSH1 0x20 DUP1 SWAP2 DIV MUL PUSH1 0x20 ADD PUSH1 0x40 MLOAD SWAP1 DUP2 ADD PUSH1 0x40 MSTORE DUP1 SWAP3 SWAP2 SWAP1 DUP2 DUP2 MSTORE PUSH1 0x20 ADD DUP3 DUP1 SLOAD PUSH2 0xC68 SWAP1 PUSH2 0x3291 JUMP JUMPDEST DUP1 ISZERO PUSH2 0xCB5 JUMPI DUP1 PUSH1 0x1F LT PUSH2 0xC8A JUMPI PUSH2 0x100 DUP1 DUP4 SLOAD DIV MUL DUP4 MSTORE SWAP2 PUSH1 0x20 ADD SWAP2 PUSH2 0xCB5 JUMP JUMPDEST DUP3 ADD SWAP2 SWAP1 PUSH1 0x0 MSTORE PUSH1 0x20 PUSH1 0x0 KECCAK256 SWAP1 JUMPDEST DUP2 SLOAD DUP2 MSTORE SWAP1 PUSH1 0x1 ADD SWAP1 PUSH1 0x20 ADD DUP1 DUP4 GT PUSH2 0xC98 JUMPI DUP3 SWAP1 SUB PUSH1 0x1F AND DUP3 ADD SWAP2 JUMPDEST POP POP POP POP POP DUP2 MSTORE PUSH1 0x20 ADD PUSH1 0x6 DUP3 ADD DUP1 SLOAD PUSH2 0xCCE SWAP1 PUSH2 0x3291 JUMP JUMPDEST DUP1 PUSH1 0x1F ADD PUSH1 0x20 DUP1 SWAP2 DIV MUL PUSH1 0x20 ADD PUSH1 0x40 MLOAD SWAP1 DUP2 ADD PUSH1 0x40 MSTORE DUP1 SWAP3 SWAP2 SWAP1 DUP2 DUP2 MSTORE PUSH1 0x20 ADD DUP3 DUP1 SLOAD PUSH2 0xCFA SWAP1 PUSH2 0x3291 JUMP JUMPDEST DUP1 ISZERO PUSH2 0xD47 JUMPI DUP1 PUSH1 0x1F LT PUSH2 0xD1C JUMPI PUSH2 0x100 DUP1 DUP4 SLOAD DIV MUL DUP4 MSTORE SWAP2 PUSH1 0x20 ADD SWAP2 PUSH2 0xD47 JUMP JUMPDEST DUP3 ADD SWAP2 SWAP1 PUSH1 0x0 MSTORE PUSH1 0x20 PUSH1 0x0 KECCAK256 SWAP1 JUMPDEST DUP2 SLOAD DUP2 MSTORE SWAP1 PUSH1 0x1 ADD SWAP1 PUSH1 0x20 ADD DUP1 DUP4 GT PUSH2 0xD2A JUMPI DUP3 SWAP1 SUB PUSH1 0x1F AND DUP3 ADD SWAP2 JUMPDEST POP POP POP POP POP DUP2 MSTORE PUSH1 0x20 ADD PUSH1 0x7 DUP3 ADD SLOAD DUP2 MSTORE PUSH1 0x20 ADD PUSH1 0x8 DUP3 ADD SLOAD DUP2 MSTORE POP POP SWAP1 POP SWAP2 SWAP1 POP JUMP JUMPDEST PUSH32 0x0 PUSH20 0xFFFFFFFFFFFFFFFFFFFFFFFFFFFFFFFFFFFFFFFF AND CALLER PUSH20 0xFFFFFFFFFFFFFFFFFFFFFFFFFFFFFFFFFFFFFFFF AND EQ PUSH2 0xDF9 JUMPI PUSH1 0x40 MLOAD PUSH32 0x8C379A000000000000000000000000000000000000000000000000000000000 DUP2 MSTORE PUSH1 0x4 ADD PUSH2 0xDF0 SWAP1 PUSH2 0x3183 JUMP JUMPDEST PUSH1 0x40 MLOAD DUP1 SWAP2 SUB SWAP1 REVERT JUMPDEST DUP3 PUSH1 0x0 DUP2 PUSH1 0x40 MLOAD PUSH2 0xE0A SWAP2 SWAP1 PUSH2 0x31DF JUMP JUMPDEST SWAP1 DUP2 MSTORE PUSH1 0x20 ADD PUSH1 0x40 MLOAD DUP1 SWAP2 SUB SWAP1 KECCAK256 PUSH1 0x2 ADD PUSH1 0x0 SWAP1 SLOAD SWAP1 PUSH2 0x100 EXP SWAP1 DIV PUSH1 0xFF AND PUSH2 0xE68 JUMPI PUSH1 0x40 MLOAD PUSH32 0x8C379A000000000000000000000000000000000000000000000000000000000 DUP2 MSTORE PUSH1 0x4 ADD PUSH2 0xE5F SWAP1 PUSH2 0x3242 JUMP JUMPDEST PUSH1 0x40 MLOAD DUP1 SWAP2 SUB SWAP1 REVERT JUMPDEST PUSH1 0x0 DUP4 MLOAD GT PUSH2 0xEAC JUMPI PUSH1 0x40 MLOAD PUSH32 0x8C379A000000000000000000000000000000000000000000000000000000000 DUP2 MSTORE PUSH1 0x4 ADD PUSH2 0xEA3 SWAP1 PUSH2 0x37E1 JUMP JUMPDEST PUSH1 0x40 MLOAD DUP1 SWAP2 SUB SWAP1 REVERT JUMPDEST PUSH1 0x0 DUP3 MLOAD GT PUSH2 0xEF0 JUMPI PUSH1 0x40 MLOAD PUSH32 0x8C379A000000000000000000000000000000000000000000000000000000000 DUP2 MSTORE PUSH1 0x4 ADD PUSH2 0xEE7 SWAP1 PUSH2 0x384D JUMP JUMPDEST PUSH1 0x40 MLOAD DUP1 SWAP2 SUB SWAP1 REVERT JUMPDEST PUSH1 0x0 PUSH2 0xEFB DUP5 PUSH2 0x2568 JUMP JUMPDEST SWAP1 POP PUSH1 0x0 PUSH1 0x2 DUP7 PUSH1 0x40 MLOAD PUSH2 0xF0F SWAP2 SWAP1 PUSH2 0x31DF JUMP JUMPDEST SWAP1 DUP2 MSTORE PUSH1 0x20 ADD PUSH1 0x40 MLOAD DUP1 SWAP2 SUB SWAP1 KECCAK256 PUSH1 0x0 DUP4 DUP2 MSTORE PUSH1 0x20 ADD SWAP1 DUP2 MSTORE PUSH1 0x20 ADD PUSH1 0x0 KECCAK256 SWAP1 POP PUSH1 0x0 DUP2 PUSH1 0x0 ADD DUP1 SLOAD PUSH2 0xF41 SWAP1 PUSH2 0x3291 JUMP JUMPDEST SWAP1 POP SUB PUSH2 0xF8E JUMPI PUSH1 0x1 DUP7 PUSH1 0x40 MLOAD PUSH2 0xF58 SWAP2 SWAP1 PUSH2 0x31DF JUMP JUMPDEST SWAP1 DUP2 MSTORE PUSH1 0x20 ADD PUSH1 0x40 MLOAD DUP1 SWAP2 SUB SWAP1 KECCAK256 DUP3 SWAP1 DUP1 PUSH1 0x1 DUP2 SLOAD ADD DUP1 DUP3 SSTORE DUP1 SWAP2 POP POP PUSH1 0x1 SWAP1 SUB SWAP1 PUSH1 0x0 MSTORE PUSH1 0x20 PUSH1 0x0 KECCAK256 ADD PUSH1 0x0 SWAP1 SWAP2 SWAP1 SWAP2 SWAP1 SWAP2 POP SSTORE JUMPDEST DUP5 DUP2 PUSH1 0x0 ADD SWAP1 DUP2 PUSH2 0xF9F SWAP2 SWAP1 PUSH2 0x346E JUMP JUMPDEST POP DUP4 DUP2 PUSH1 0x1 ADD SWAP1 DUP2 PUSH2 0xFB1 SWAP2 SWAP1 PUSH2 0x346E JUMP JUMPDEST POP PUSH1 0x1 DUP2 PUSH1 0x2 ADD PUSH1 0x0 PUSH2 0x100 EXP DUP2 SLOAD DUP2 PUSH1 0xFF MUL NOT AND SWAP1 DUP4 ISZERO ISZERO MUL OR SWAP1 SSTORE POP TIMESTAMP DUP2 PUSH1 0x3 ADD DUP2 SWAP1 SSTORE POP DUP5 PUSH1 0x40 MLOAD PUSH2 0xFE6 SWAP2 SWAP1 PUSH2 0x31DF JUMP JUMPDEST PUSH1 0x40 MLOAD DUP1 SWAP2 SUB SWAP1 KECCAK256 DUP7 PUSH1 0x40 MLOAD PUSH2 0xFFC SWAP2 SWAP1 PUSH2 0x31DF JUMP JUMPDEST PUSH1 0x40 MLOAD DUP1 SWAP2 SUB SWAP1 KECCAK256 PUSH32 0x6CC896FED6368F0600012825740FBEAEF868CC0183E0CD77434B9E3ED5D49131 DUP7 TIMESTAMP PUSH1 0x40 MLOAD PUSH2 0x1035 SWAP3 SWAP2 SWAP1 PUSH2 0x386D JUMP JUMPDEST PUSH1 0x40 MLOAD DUP1 SWAP2 SUB SWAP1 LOG3 POP POP POP POP POP POP JUMP JUMPDEST PUSH2 0x104D PUSH2 0x25C5 JUMP JUMPDEST PUSH1 0x7 PUSH1 0x0 DUP4 DUP2 MSTORE PUSH1 0x20 ADD SWAP1 DUP2 MSTORE PUSH1 0x20 ADD PUSH1 0x0 KECCAK256 PUSH1 0x7 ADD PUSH1 0x0 SWAP1 SLOAD SWAP1 PUSH2 0x100 EXP SWAP1 DIV PUSH1 0xFF AND PUSH2 0x10B0 JUMPI PUSH1 0x40 MLOAD PUSH32 0x8C379A000000000000000000000000000000000000000000000000000000000 DUP2 MSTORE PUSH1 0x4 ADD PUSH2 0x10A7 SWAP1 PUSH2 0x38E9 JUMP JUMPDEST PUSH1 0x40 MLOAD DUP1 SWAP2 SUB SWAP1 REVERT JUMPDEST PUSH1 0x7 PUSH1 0x0 DUP4 DUP2 MSTORE PUSH1 0x20 ADD SWAP1 DUP2 MSTORE PUSH1 0x20 ADD PUSH1 0x0 KECCAK256 PUSH1 0x40 MLOAD DUP1 PUSH2 0x100 ADD PUSH1 0x40 MSTORE SWAP1 DUP2 PUSH1 0x0 DUP3 ADD SLOAD DUP2 MSTORE PUSH1 0x20 ADD PUSH1 0x1 DUP3 ADD DUP1 SLOAD PUSH2 0x10E9 SWAP1 PUSH2 0x3291 JUMP JUMPDEST DUP1 PUSH1 0x1F ADD PUSH1 0x20 DUP1 SWAP2 DIV MUL PUSH1 0x20 ADD PUSH1 0x40 MLOAD SWAP1 DUP2 ADD PUSH1 0x40 MSTORE DUP1 SWAP3 SWAP2 SWAP1 DUP2 DUP2 MSTORE PUSH1 0x20 ADD DUP3 DUP1 SLOAD PUSH2 0x1115 SWAP1 PUSH2 0x3291 JUMP JUMPDEST DUP1 ISZERO PUSH2 0x1162 JUMPI DUP1 PUSH1 0x1F LT PUSH2 0x1137 JUMPI PUSH2 0x100 DUP1 DUP4 SLOAD DIV MUL DUP4 MSTORE SWAP2 PUSH1 0x20 ADD SWAP2 PUSH2 0x1162 JUMP JUMPDEST DUP3 ADD SWAP2 SWAP1 PUSH1 0x0 MSTORE PUSH1 0x20 PUSH1 0x0 KECCAK256 SWAP1 JUMPDEST DUP2 SLOAD DUP2 MSTORE SWAP1 PUSH1 0x1 ADD SWAP1 PUSH1 0x20 ADD DUP1 DUP4 GT PUSH2 0x1145 JUMPI DUP3 SWAP1 SUB PUSH1 0x1F AND DUP3 ADD SWAP2 JUMPDEST POP POP POP POP POP DUP2 MSTORE PUSH1 0x20 ADD PUSH1 0x2 DUP3 ADD DUP1 SLOAD PUSH2 0x117B SWAP1 PUSH2 0x3291 JUMP JUMPDEST DUP1 PUSH1 0x1F ADD PUSH1 0x20 DUP1 SWAP2 DIV MUL PUSH1 0x20 ADD PUSH1 0x40 MLOAD SWAP1 DUP2 ADD PUSH1 0x40 MSTORE DUP1 SWAP3 SWAP2 SWAP1 DUP2 DUP2 MSTORE PUSH1 0x20 ADD DUP3 DUP1 SLOAD PUSH2 0x11A7 SWAP1 PUSH2 0x3291 JUMP JUMPDEST DUP1 ISZERO PUSH2 0x11F4 JUMPI DUP1 PUSH1 0x1F LT PUSH2 0x11C9 JUMPI PUSH2 0x100 DUP1 DUP4 SLOAD DIV MUL DUP4 MSTORE SWAP2 PUSH1 0x20 ADD SWAP2 PUSH2 0x11F4 JUMP JUMPDEST DUP3 ADD SWAP2 SWAP1 PUSH1 0x0 MSTORE PUSH1 0x20 PUSH1 0x0 KECCAK256 SWAP1 JUMPDEST DUP2 SLOAD DUP2 MSTORE SWAP1 PUSH1 0x1 ADD SWAP1 PUSH1 0x20 ADD DUP1 DUP4 GT PUSH2 0x11D7 JUMPI DUP3 SWAP1 SUB PUSH1 0x1F AND DUP3 ADD SWAP2 JUMPDEST POP POP POP POP POP DUP2 MSTORE PUSH1 0x20 ADD PUSH1 0x3 DUP3 ADD DUP1 SLOAD PUSH2 0x120D SWAP1 PUSH2 0x3291 JUMP JUMPDEST DUP1 PUSH1 0x1F ADD PUSH1 0x20 DUP1 SWAP2 DIV MUL PUSH1 0x20 ADD PUSH1 0x40 MLOAD SWAP1 DUP2 ADD PUSH1 0x40 MSTORE DUP1 SWAP3 SWAP2 SWAP1 DUP2 DUP2 MSTORE PUSH1 0x20 ADD DUP3 DUP1 SLOAD PUSH2 0x1239 SWAP1 PUSH2 0x3291 JUMP JUMPDEST DUP1 ISZERO PUSH2 0x1286 JUMPI DUP1 PUSH1 0x1F LT PUSH2 0x125B JUMPI PUSH2 0x100 DUP1 DUP4 SLOAD DIV MUL DUP4 MSTORE SWAP2 PUSH1 0x20 ADD SWAP2 PUSH2 0x1286 JUMP JUMPDEST DUP3 ADD SWAP2 SWAP1 PUSH1 0x0 MSTORE PUSH1 0x20 PUSH1 0x0 KECCAK256 SWAP1 JUMPDEST DUP2 SLOAD DUP2 MSTORE SWAP1 PUSH1 0x1 ADD SWAP1 PUSH1 0x20 ADD DUP1 DUP4 GT PUSH2 0x1269 JUMPI DUP3 SWAP1 SUB PUSH1 0x1F AND DUP3 ADD SWAP2 JUMPDEST POP POP POP POP POP DUP2 MSTORE PUSH1 0x20 ADD PUSH1 0x4 DUP3 ADD SLOAD DUP2 MSTORE PUSH1 0x20 ADD PUSH1 0x5 DUP3 ADD SLOAD DUP2 MSTORE PUSH1 0x20 ADD PUSH1 0x6 DUP3 ADD SLOAD DUP2 MSTORE PUSH1 0x20 ADD PUSH1 0x7 DUP3 ADD PUSH1 0x0 SWAP1 SLOAD SWAP1 PUSH2 0x100 EXP SWAP1 DIV PUSH1 0xFF AND ISZERO ISZERO ISZERO ISZERO DUP2 MSTORE POP POP SWAP1 POP SWAP2 SWAP1 POP JUMP JUMPDEST PUSH1 0x0 PUSH1 0x7 PUSH1 0x0 DUP5 DUP2 MSTORE PUSH1 0x20 ADD SWAP1 DUP2 MSTORE PUSH1 0x20 ADD PUSH1 0x0 KECCAK256 PUSH1 0x7 ADD PUSH1 0x0 SWAP1 SLOAD SWAP1 PUSH2 0x100 EXP SWAP1 DIV PUSH1 0xFF AND PUSH2 0x1302 JUMPI PUSH1 0x0 SWAP1 POP PUSH2 0x133F JUMP JUMPDEST PUSH1 0x5 PUSH1 0x0 DUP5 DUP2 MSTORE PUSH1 0x20 ADD SWAP1 DUP2 MSTORE PUSH1 0x20 ADD PUSH1 0x0 KECCAK256 PUSH1 0x0 PUSH2 0x1320 DUP5 PUSH2 0x2568 JUMP JUMPDEST DUP2 MSTORE PUSH1 0x20 ADD SWAP1 DUP2 MSTORE PUSH1 0x20 ADD PUSH1 0x0 KECCAK256 PUSH1 0x0 SWAP1 SLOAD SWAP1 PUSH2 0x100 EXP SWAP1 DIV PUSH1 0xFF AND SWAP1 POP JUMPDEST SWAP3 SWAP2 POP POP JUMP JUMPDEST PUSH32 0x0 PUSH20 0xFFFFFFFFFFFFFFFFFFFFFFFFFFFFFFFFFFFFFFFF AND CALLER PUSH20 0xFFFFFFFFFFFFFFFFFFFFFFFFFFFFFFFFFFFFFFFF AND EQ PUSH2 0x13D3 JUMPI PUSH1 0x40 MLOAD PUSH32 0x8C379A000000000000000000000000000000000000000000000000000000000 DUP2 MSTORE PUSH1 0x4 ADD PUSH2 0x13CA SWAP1 PUSH2 0x3183 JUMP JUMPDEST PUSH1 0x40 MLOAD DUP1 SWAP2 SUB SWAP1 REVERT JUMPDEST PUSH1 0x0 DUP3 MLOAD GT PUSH2 0x1417 JUMPI PUSH1 0x40 MLOAD PUSH32 0x8C379A000000000000000000000000000000000000000000000000000000000 DUP2 MSTORE PUSH1 0x4 ADD PUSH2 0x140E SWAP1 PUSH2 0x3955 JUMP JUMPDEST PUSH1 0x40 MLOAD DUP1 SWAP2 SUB SWAP1 REVERT JUMPDEST PUSH1 0x0 DUP3 PUSH1 0x40 MLOAD PUSH2 0x1427 SWAP2 SWAP1 PUSH2 0x31DF JUMP JUMPDEST SWAP1 DUP2 MSTORE PUSH1 0x20 ADD PUSH1 0x40 MLOAD DUP1 SWAP2 SUB SWAP1 KECCAK256 PUSH1 0x2 ADD PUSH1 0x0 SWAP1 SLOAD SWAP1 PUSH2 0x100 EXP SWAP1 DIV PUSH1 0xFF AND ISZERO PUSH2 0x1486 JUMPI PUSH1 0x40 MLOAD PUSH32 0x8C379A000000000000000000000000000000000000000000000000000000000 DUP2 MSTORE PUSH1 0x4 ADD PUSH2 0x147D SWAP1 PUSH2 0x39C1 JUMP JUMPDEST PUSH1 0x40 MLOAD DUP1 SWAP2 SUB SWAP1 REVERT JUMPDEST PUSH1 0x40 MLOAD DUP1 PUSH1 0x80 ADD PUSH1 0x40 MSTORE DUP1 DUP4 DUP2 MSTORE PUSH1 0x20 ADD DUP3 DUP2 MSTORE PUSH1 0x20 ADD PUSH1 0x1 ISZERO ISZERO DUP2 MSTORE PUSH1 0x20 ADD TIMESTAMP DUP2 MSTORE POP PUSH1 0x0 DUP4 PUSH1 0x40 MLOAD PUSH2 0x14BA SWAP2 SWAP1 PUSH2 0x31DF JUMP JUMPDEST SWAP1 DUP2 MSTORE PUSH1 0x20 ADD PUSH1 0x40 MLOAD DUP1 SWAP2 SUB SWAP1 KECCAK256 PUSH1 0x0 DUP3 ADD MLOAD DUP2 PUSH1 0x0 ADD SWAP1 DUP2 PUSH2 0x14DD SWAP2 SWAP1 PUSH2 0x346E JUMP JUMPDEST POP PUSH1 0x20 DUP3 ADD MLOAD DUP2 PUSH1 0x1 ADD SWAP1 DUP2 PUSH2 0x14F3 SWAP2 SWAP1 PUSH2 0x346E JUMP JUMPDEST POP PUSH1 0x40 DUP3 ADD MLOAD DUP2 PUSH1 0x2 ADD PUSH1 0x0 PUSH2 0x100 EXP DUP2 SLOAD DUP2 PUSH1 0xFF MUL NOT AND SWAP1 DUP4 ISZERO ISZERO MUL OR SWAP1 SSTORE POP PUSH1 0x60 DUP3 ADD MLOAD DUP2 PUSH1 0x3 ADD SSTORE SWAP1 POP POP DUP2 PUSH1 0x40 MLOAD PUSH2 0x152F SWAP2 SWAP1 PUSH2 0x31DF JUMP JUMPDEST PUSH1 0x40 MLOAD DUP1 SWAP2 SUB SWAP1 KECCAK256 PUSH32 0x7A5B6C3B56F3FD96C4145E8D16588D8853FBCFBBCA80A8209817253E3D3B32F3 DUP3 TIMESTAMP PUSH1 0x40 MLOAD PUSH2 0x1568 SWAP3 SWAP2 SWAP1 PUSH2 0x386D JUMP JUMPDEST PUSH1 0x40 MLOAD DUP1 SWAP2 SUB SWAP1 LOG2 POP POP JUMP JUMPDEST PUSH1 0x0 PUSH32 0x0 PUSH20 0xFFFFFFFFFFFFFFFFFFFFFFFFFFFFFFFFFFFFFFFF AND CALLER PUSH20 0xFFFFFFFFFFFFFFFFFFFFFFFFFFFFFFFFFFFFFFFF AND EQ PUSH2 0x1604 JUMPI PUSH1 0x40 MLOAD PUSH32 0x8C379A000000000000000000000000000000000000000000000000000000000 DUP2 MSTORE PUSH1 0x4 ADD PUSH2 0x15FB SWAP1 PUSH2 0x3183 JUMP JUMPDEST PUSH1 0x40 MLOAD DUP1 SWAP2 SUB SWAP1 REVERT JUMPDEST DUP8 PUSH1 0x0 DUP2 PUSH1 0x40 MLOAD PUSH2 0x1615 SWAP2 SWAP1 PUSH2 0x31DF JUMP JUMPDEST SWAP1 DUP2 MSTORE PUSH1 0x20 ADD PUSH1 0x40 MLOAD DUP1 SWAP2 SUB SWAP1 KECCAK256 PUSH1 0x2 ADD PUSH1 0x0 SWAP1 SLOAD SWAP1 PUSH2 0x100 EXP SWAP1 DIV PUSH1 0xFF AND PUSH2 0x1673 JUMPI PUSH1 0x40 MLOAD PUSH32 0x8C379A000000000000000000000000000000000000000000000000000000000 DUP2 MSTORE PUSH1 0x4 ADD PUSH2 0x166A SWAP1 PUSH2 0x3242 JUMP JUMPDEST PUSH1 0x40 MLOAD DUP1 SWAP2 SUB SWAP1 REVERT JUMPDEST PUSH1 0x0 DUP7 MLOAD GT PUSH2 0x16B7 JUMPI PUSH1 0x40 MLOAD PUSH32 0x8C379A000000000000000000000000000000000000000000000000000000000 DUP2 MSTORE PUSH1 0x4 ADD PUSH2 0x16AE SWAP1 PUSH2 0x3A2D JUMP JUMPDEST PUSH1 0x40 MLOAD DUP1 SWAP2 SUB SWAP1 REVERT JUMPDEST PUSH1 0x0 DUP6 MLOAD GT PUSH2 0x16FB JUMPI PUSH1 0x40 MLOAD PUSH32 0x8C379A000000000000000000000000000000000000000000000000000000000 DUP2 MSTORE PUSH1 0x4 ADD PUSH2 0x16F2 SWAP1 PUSH2 0x358C JUMP JUMPDEST PUSH1 0x40 MLOAD DUP1 SWAP2 SUB SWAP1 REVERT JUMPDEST PUSH1 0x0 DUP5 MLOAD GT PUSH2 0x173F JUMPI PUSH1 0x40 MLOAD PUSH32 0x8C379A000000000000000000000000000000000000000000000000000000000 DUP2 MSTORE PUSH1 0x4 ADD PUSH2 0x1736 SWAP1 PUSH2 0x3A99 JUMP JUMPDEST PUSH1 0x40 MLOAD DUP1 SWAP2 SUB SWAP1 REVERT JUMPDEST PUSH1 0x0 PUSH2 0x174A DUP10 PUSH2 0x2568 JUMP JUMPDEST SWAP1 POP PUSH1 0x0 PUSH1 0x2 DUP12 PUSH1 0x40 MLOAD PUSH2 0x175E SWAP2 SWAP1 PUSH2 0x31DF JUMP JUMPDEST SWAP1 DUP2 MSTORE PUSH1 0x20 ADD PUSH1 0x40 MLOAD DUP1 SWAP2 SUB SWAP1 KECCAK256 PUSH1 0x0 DUP4 DUP2 MSTORE PUSH1 0x20 ADD SWAP1 DUP2 MSTORE PUSH1 0x20 ADD PUSH1 0x0 KECCAK256 SWAP1 POP DUP1 PUSH1 0x2 ADD PUSH1 0x0 SWAP1 SLOAD SWAP1 PUSH2 0x100 EXP SWAP1 DIV PUSH1 0xFF AND PUSH2 0x17D0 JUMPI PUSH1 0x40 MLOAD PUSH32 0x8C379A000000000000000000000000000000000000000000000000000000000 DUP2 MSTORE PUSH1 0x4 ADD PUSH2 0x17C7 SWAP1 PUSH2 0x3B05 JUMP JUMPDEST PUSH1 0x40 MLOAD DUP1 SWAP2 SUB SWAP1 REVERT JUMPDEST PUSH1 0x0 DUP10 MLOAD SUB PUSH2 0x186D JUMPI DUP1 PUSH1 0x1 ADD DUP1 SLOAD PUSH2 0x17E8 SWAP1 PUSH2 0x3291 JUMP JUMPDEST DUP1 PUSH1 0x1F ADD PUSH1 0x20 DUP1 SWAP2 DIV MUL PUSH1 0x20 ADD PUSH1 0x40 MLOAD SWAP1 DUP2 ADD PUSH1 0x40 MSTORE DUP1 SWAP3 SWAP2 SWAP1 DUP2 DUP2 MSTORE PUSH1 0x20 ADD DUP3 DUP1 SLOAD PUSH2 0x1814 SWAP1 PUSH2 0x3291 JUMP JUMPDEST DUP1 ISZERO PUSH2 0x1861 JUMPI DUP1 PUSH1 0x1F LT PUSH2 0x1836 JUMPI PUSH2 0x100 DUP1 DUP4 SLOAD DIV MUL DUP4 MSTORE SWAP2 PUSH1 0x20 ADD SWAP2 PUSH2 0x1861 JUMP JUMPDEST DUP3 ADD SWAP2 SWAP1 PUSH1 0x0 MSTORE PUSH1 0x20 PUSH1 0x0 KECCAK256 SWAP1 JUMPDEST DUP2 SLOAD DUP2 MSTORE SWAP1 PUSH1 0x1 ADD SWAP1 PUSH1 0x20 ADD DUP1 DUP4 GT PUSH2 0x1844 JUMPI DUP3 SWAP1 SUB PUSH1 0x1F AND DUP3 ADD SWAP2 JUMPDEST POP POP POP POP POP SWAP9 POP PUSH2 0x18CF JUMP JUMPDEST DUP9 DUP1 MLOAD SWAP1 PUSH1 0x20 ADD KECCAK256 DUP2 PUSH1 0x1 ADD PUSH1 0x40 MLOAD PUSH2 0x1886 SWAP2 SWAP1 PUSH2 0x3BC8 JUMP JUMPDEST PUSH1 0x40 MLOAD DUP1 SWAP2 SUB SWAP1 KECCAK256 EQ PUSH2 0x18CE JUMPI PUSH1 0x40 MLOAD PUSH32 0x8C379A000000000000000000000000000000000000000000000000000000000 DUP2 MSTORE PUSH1 0x4 ADD PUSH2 0x18C5 SWAP1 PUSH2 0x3C2B JUMP JUMPDEST PUSH1 0x40 MLOAD DUP1 SWAP2 SUB SWAP1 REVERT JUMPDEST JUMPDEST PUSH1 0x0 PUSH1 0x8 PUSH1 0x0 DUP2 SLOAD DUP1 SWAP3 SWAP2 SWAP1 PUSH2 0x18E4 SWAP1 PUSH2 0x3647 JUMP JUMPDEST SWAP2 SWAP1 POP SSTORE SWAP1 POP PUSH1 0x40 MLOAD DUP1 PUSH2 0x120 ADD PUSH1 0x40 MSTORE DUP1 DUP3 DUP2 MSTORE PUSH1 0x20 ADD DUP14 DUP2 MSTORE PUSH1 0x20 ADD DUP13 DUP2 MSTORE PUSH1 0x20 ADD DUP12 DUP2 MSTORE PUSH1 0x20 ADD DUP11 DUP2 MSTORE PUSH1 0x20 ADD DUP10 DUP2 MSTORE PUSH1 0x20 ADD DUP9 DUP2 MSTORE PUSH1 0x20 ADD DUP8 DUP2 MSTORE PUSH1 0x20 ADD TIMESTAMP DUP2 MSTORE POP PUSH1 0x4 PUSH1 0x0 DUP4 DUP2 MSTORE PUSH1 0x20 ADD SWAP1 DUP2 MSTORE PUSH1 0x20 ADD PUSH1 0x0 KECCAK256 PUSH1 0x0 DUP3 ADD MLOAD DUP2 PUSH1 0x0 ADD SSTORE PUSH1 0x20 DUP3 ADD MLOAD DUP2 PUSH1 0x1 ADD SWAP1 DUP2 PUSH2 0x195C SWAP2 SWAP1 PUSH2 0x346E JUMP JUMPDEST POP PUSH1 0x40 DUP3 ADD MLOAD DUP2 PUSH1 0x2 ADD SWAP1 DUP2 PUSH2 0x1972 SWAP2 SWAP1 PUSH2 0x346E JUMP JUMPDEST POP PUSH1 0x60 DUP3 ADD MLOAD DUP2 PUSH1 0x3 ADD SWAP1 DUP2 PUSH2 0x1988 SWAP2 SWAP1 PUSH2 0x346E JUMP JUMPDEST POP PUSH1 0x80 DUP3 ADD MLOAD DUP2 PUSH1 0x4 ADD SWAP1 DUP2 PUSH2 0x199E SWAP2 SWAP1 PUSH2 0x346E JUMP JUMPDEST POP PUSH1 0xA0 DUP3 ADD MLOAD DUP2 PUSH1 0x5 ADD SWAP1 DUP2 PUSH2 0x19B4 SWAP2 SWAP1 PUSH2 0x346E JUMP JUMPDEST POP PUSH1 0xC0 DUP3 ADD MLOAD DUP2 PUSH1 0x6 ADD SWAP1 DUP2 PUSH2 0x19CA SWAP2 SWAP1 PUSH2 0x346E JUMP JUMPDEST POP PUSH1 0xE0 DUP3 ADD MLOAD DUP2 PUSH1 0x7 ADD SSTORE PUSH2 0x100 DUP3 ADD MLOAD DUP2 PUSH1 0x8 ADD SSTORE SWAP1 POP POP PUSH1 0x3 DUP13 PUSH1 0x40 MLOAD PUSH2 0x19F3 SWAP2 SWAP1 PUSH2 0x31DF JUMP JUMPDEST SWAP1 DUP2 MSTORE PUSH1 0x20 ADD PUSH1 0x40 MLOAD DUP1 SWAP2 SUB SWAP1 KECCAK256 DUP2 SWAP1 DUP1 PUSH1 0x1 DUP2 SLOAD ADD DUP1 DUP3 SSTORE DUP1 SWAP2 POP POP PUSH1 0x1 SWAP1 SUB SWAP1 PUSH1 0x0 MSTORE PUSH1 0x20 PUSH1 0x0 KECCAK256 ADD PUSH1 0x0 SWAP1 SWAP2 SWAP1 SWAP2 SWAP1 SWAP2 POP SSTORE DUP11 PUSH1 0x40 MLOAD PUSH2 0x1A36 SWAP2 SWAP1 PUSH2 0x31DF JUMP JUMPDEST PUSH1 0x40 MLOAD DUP1 SWAP2 SUB SWAP1 KECCAK256 DUP13 PUSH1 0x40 MLOAD PUSH2 0x1A4C SWAP2 SWAP1 PUSH2 0x31DF JUMP JUMPDEST PUSH1 0x40 MLOAD DUP1 SWAP2 SUB SWAP1 KECCAK256 DUP3 PUSH32 0xDEDE3AF022C0C1182F1BE40127BABCDF6F8DB18866D079873F2A7C29D3B8EF6A DUP13 DUP13 DUP13 DUP13 TIMESTAMP PUSH1 0x40 MLOAD PUSH2 0x1A8C SWAP6 SWAP5 SWAP4 SWAP3 SWAP2 SWAP1 PUSH2 0x3C4B JUMP JUMPDEST PUSH1 0x40 MLOAD DUP1 SWAP2 SUB SWAP1 LOG4 DUP1 SWAP5 POP POP POP POP POP SWAP8 SWAP7 POP POP POP POP POP POP POP JUMP JUMPDEST PUSH32 0x0 DUP2 JUMP JUMPDEST PUSH1 0x0 PUSH1 0x8 SLOAD SWAP1 POP SWAP1 JUMP JUMPDEST PUSH1 0x60 DUP2 PUSH1 0x0 DUP2 PUSH1 0x40 MLOAD PUSH2 0x1AE7 SWAP2 SWAP1 PUSH2 0x31DF JUMP JUMPDEST SWAP1 DUP2 MSTORE PUSH1 0x20 ADD PUSH1 0x40 MLOAD DUP1 SWAP2 SUB SWAP1 KECCAK256 PUSH1 0x2 ADD PUSH1 0x0 SWAP1 SLOAD SWAP1 PUSH2 0x100 EXP SWAP1 DIV PUSH1 0xFF AND PUSH2 0x1B45 JUMPI PUSH1 0x40 MLOAD PUSH32 0x8C379A000000000000000000000000000000000000000000000000000000000 DUP2 MSTORE PUSH1 0x4 ADD PUSH2 0x1B3C SWAP1 PUSH2 0x3242 JUMP JUMPDEST PUSH1 0x40 MLOAD DUP1 SWAP2 SUB SWAP1 REVERT JUMPDEST PUSH1 0x3 DUP4 PUSH1 0x40 MLOAD PUSH2 0x1B55 SWAP2 SWAP1 PUSH2 0x31DF JUMP JUMPDEST SWAP1 DUP2 MSTORE PUSH1 0x20 ADD PUSH1 0x40 MLOAD DUP1 SWAP2 SUB SWAP1 KECCAK256 DUP1 SLOAD DUP1 PUSH1 0x20 MUL PUSH1 0x20 ADD PUSH1 0x40 MLOAD SWAP1 DUP2 ADD PUSH1 0x40 MSTORE DUP1 SWAP3 SWAP2 SWAP1 DUP2 DUP2 MSTORE PUSH1 0x20 ADD DUP3 DUP1 SLOAD DUP1 ISZERO PUSH2 0x1BAD JUMPI PUSH1 0x20 MUL DUP3 ADD SWAP2 SWAP1 PUSH1 0x0 MSTORE PUSH1 0x20 PUSH1 0x0 KECCAK256 SWAP1 JUMPDEST DUP2 SLOAD DUP2 MSTORE PUSH1 0x20 ADD SWAP1 PUSH1 0x1 ADD SWAP1 DUP1 DUP4 GT PUSH2 0x1B99 JUMPI JUMPDEST POP POP POP POP POP SWAP2 POP POP SWAP2 SWAP1 POP JUMP JUMPDEST PUSH2 0x1BC2 PUSH2 0x260C JUMP JUMPDEST DUP2 PUSH1 0x0 DUP2 PUSH1 0x40 MLOAD PUSH2 0x1BD3 SWAP2 SWAP1 PUSH2 0x31DF JUMP JUMPDEST SWAP1 DUP2 MSTORE PUSH1 0x20 ADD PUSH1 0x40 MLOAD DUP1 SWAP2 SUB SWAP1 KECCAK256 PUSH1 0x2 ADD PUSH1 0x0 SWAP1 SLOAD SWAP1 PUSH2 0x100 EXP SWAP1 DIV PUSH1 0xFF AND PUSH2 0x1C31 JUMPI PUSH1 0x40 MLOAD PUSH32 0x8C379A000000000000000000000000000000000000000000000000000000000 DUP2 MSTORE PUSH1 0x4 ADD PUSH2 0x1C28 SWAP1 PUSH2 0x3242 JUMP JUMPDEST PUSH1 0x40 MLOAD DUP1 SWAP2 SUB SWAP1 REVERT JUMPDEST PUSH1 0x0 DUP4 PUSH1 0x40 MLOAD PUSH2 0x1C41 SWAP2 SWAP1 PUSH2 0x31DF JUMP JUMPDEST SWAP1 DUP2 MSTORE PUSH1 0x20 ADD PUSH1 0x40 MLOAD DUP1 SWAP2 SUB SWAP1 KECCAK256 PUSH1 0x40 MLOAD DUP1 PUSH1 0x80 ADD PUSH1 0x40 MSTORE SWAP1 DUP2 PUSH1 0x0 DUP3 ADD DUP1 SLOAD PUSH2 0x1C6A SWAP1 PUSH2 0x3291 JUMP JUMPDEST DUP1 PUSH1 0x1F ADD PUSH1 0x20 DUP1 SWAP2 DIV MUL PUSH1 0x20 ADD PUSH1 0x40 MLOAD SWAP1 DUP2 ADD PUSH1 0x40 MSTORE DUP1 SWAP3 SWAP2 SWAP1 DUP2 DUP2 MSTORE PUSH1 0x20 ADD DUP3 DUP1 SLOAD PUSH2 0x1C96 SWAP1 PUSH2 0x3291 JUMP JUMPDEST DUP1 ISZERO PUSH2 0x1CE3 JUMPI DUP1 PUSH1 0x1F LT PUSH2 0x1CB8 JUMPI PUSH2 0x100 DUP1 DUP4 SLOAD DIV MUL DUP4 MSTORE SWAP2 PUSH1 0x20 ADD SWAP2 PUSH2 0x1CE3 JUMP JUMPDEST DUP3 ADD SWAP2 SWAP1 PUSH1 0x0 MSTORE PUSH1 0x20 PUSH1 0x0 KECCAK256 SWAP1 JUMPDEST DUP2 SLOAD DUP2 MSTORE SWAP1 PUSH1 0x1 ADD SWAP1 PUSH1 0x20 ADD DUP1 DUP4 GT PUSH2 0x1CC6 JUMPI DUP3 SWAP1 SUB PUSH1 0x1F AND DUP3 ADD SWAP2 JUMPDEST POP POP POP POP POP DUP2 MSTORE PUSH1 0x20 ADD PUSH1 0x1 DUP3 ADD DUP1 SLOAD PUSH2 0x1CFC SWAP1 PUSH2 0x3291 JUMP JUMPDEST DUP1 PUSH1 0x1F ADD PUSH1 0x20 DUP1 SWAP2 DIV MUL PUSH1 0x20 ADD PUSH1 0x40 MLOAD SWAP1 DUP2 ADD PUSH1 0x40 MSTORE DUP1 SWAP3 SWAP2 SWAP1 DUP2 DUP2 MSTORE PUSH1 0x20 ADD DUP3 DUP1 SLOAD PUSH2 0x1D28 SWAP1 PUSH2 0x3291 JUMP JUMPDEST DUP1 ISZERO PUSH2 0x1D75 JUMPI DUP1 PUSH1 0x1F LT PUSH2 0x1D4A JUMPI PUSH2 0x100 DUP1 DUP4 SLOAD DIV MUL DUP4 MSTORE SWAP2 PUSH1 0x20 ADD SWAP2 PUSH2 0x1D75 JUMP JUMPDEST DUP3 ADD SWAP2 SWAP1 PUSH1 0x0 MSTORE PUSH1 0x20 PUSH1 0x0 KECCAK256 SWAP1 JUMPDEST DUP2 SLOAD DUP2 MSTORE SWAP1 PUSH1 0x1 ADD SWAP1 PUSH1 0x20 ADD DUP1 DUP4 GT PUSH2 0x1D58 JUMPI DUP3 SWAP1 SUB PUSH1 0x1F AND DUP3 ADD SWAP2 JUMPDEST POP POP POP POP POP DUP2 MSTORE PUSH1 0x20 ADD PUSH1 0x2 DUP3 ADD PUSH1 0x0 SWAP1 SLOAD SWAP1 PUSH2 0x100 EXP SWAP1 DIV PUSH1 0xFF AND ISZERO ISZERO ISZERO ISZERO DUP2 MSTORE PUSH1 0x20 ADD PUSH1 0x3 DUP3 ADD SLOAD DUP2 MSTORE POP POP SWAP2 POP POP SWAP2 SWAP1 POP JUMP JUMPDEST PUSH1 0x0 PUSH32 0x0 PUSH20 0xFFFFFFFFFFFFFFFFFFFFFFFFFFFFFFFFFFFFFFFF AND CALLER PUSH20 0xFFFFFFFFFFFFFFFFFFFFFFFFFFFFFFFFFFFFFFFF AND EQ PUSH2 0x1E3B JUMPI PUSH1 0x40 MLOAD PUSH32 0x8C379A000000000000000000000000000000000000000000000000000000000 DUP2 MSTORE PUSH1 0x4 ADD PUSH2 0x1E32 SWAP1 PUSH2 0x3183 JUMP JUMPDEST PUSH1 0x40 MLOAD DUP1 SWAP2 SUB SWAP1 REVERT JUMPDEST PUSH1 0x7 PUSH1 0x0 DUP5 DUP2 MSTORE PUSH1 0x20 ADD SWAP1 DUP2 MSTORE PUSH1 0x20 ADD PUSH1 0x0 KECCAK256 PUSH1 0x7 ADD PUSH1 0x0 SWAP1 SLOAD SWAP1 PUSH2 0x100 EXP SWAP1 DIV PUSH1 0xFF AND PUSH2 0x1E9E JUMPI PUSH1 0x40 MLOAD PUSH32 0x8C379A000000000000000000000000000000000000000000000000000000000 DUP2 MSTORE PUSH1 0x4 ADD PUSH2 0x1E95 SWAP1 PUSH2 0x38E9 JUMP JUMPDEST PUSH1 0x40 MLOAD DUP1 SWAP2 SUB SWAP1 REVERT JUMPDEST PUSH1 0x0 DUP3 MLOAD GT PUSH2 0x1EE2 JUMPI PUSH1 0x40 MLOAD PUSH32 0x8C379A000000000000000000000000000000000000000000000000000000000 DUP2 MSTORE PUSH1 0x4 ADD PUSH2 0x1ED9 SWAP1 PUSH2 0x3CFF JUMP JUMPDEST PUSH1 0x40 MLOAD DUP1 SWAP2 SUB SWAP1 REVERT JUMPDEST PUSH1 0x0 PUSH2 0x1EED DUP4 PUSH2 0x2568 JUMP JUMPDEST SWAP1 POP PUSH1 0x1 PUSH1 0x5 PUSH1 0x0 DUP7 DUP2 MSTORE PUSH1 0x20 ADD SWAP1 DUP2 MSTORE PUSH1 0x20 ADD PUSH1 0x0 KECCAK256 PUSH1 0x0 DUP4 DUP2 MSTORE PUSH1 0x20 ADD SWAP1 DUP2 MSTORE PUSH1 0x20 ADD PUSH1 0x0 KECCAK256 PUSH1 0x0 PUSH2 0x100 EXP DUP2 SLOAD DUP2 PUSH1 0xFF MUL NOT AND SWAP1 DUP4 ISZERO ISZERO MUL OR SWAP1 SSTORE POP DUP3 PUSH1 0x40 MLOAD PUSH2 0x1F3A SWAP2 SWAP1 PUSH2 0x31DF JUMP JUMPDEST PUSH1 0x40 MLOAD DUP1 SWAP2 SUB SWAP1 KECCAK256 PUSH1 0x7 PUSH1 0x0 DUP7 DUP2 MSTORE PUSH1 0x20 ADD SWAP1 DUP2 MSTORE PUSH1 0x20 ADD PUSH1 0x0 KECCAK256 PUSH1 0x1 ADD PUSH1 0x40 MLOAD PUSH2 0x1F65 SWAP2 SWAP1 PUSH2 0x3DA2 JUMP JUMPDEST PUSH1 0x40 MLOAD DUP1 SWAP2 SUB SWAP1 KECCAK256 DUP6 PUSH32 0x3DC871A421B0DE3BCB519220D648F02EFBB6807744382F02D4D4D22E660AD783 TIMESTAMP PUSH1 0x40 MLOAD PUSH2 0x1F9D SWAP2 SWAP1 PUSH2 0x2946 JUMP JUMPDEST PUSH1 0x40 MLOAD DUP1 SWAP2 SUB SWAP1 LOG4 PUSH1 0x1 SWAP2 POP POP SWAP3 SWAP2 POP POP JUMP JUMPDEST PUSH1 0x0 PUSH1 0x9 SLOAD SWAP1 POP SWAP1 JUMP JUMPDEST PUSH1 0x0 DUP2 PUSH1 0x0 DUP2 PUSH1 0x40 MLOAD PUSH2 0x1FCD SWAP2 SWAP1 PUSH2 0x31DF JUMP JUMPDEST SWAP1 DUP2 MSTORE PUSH1 0x20 ADD PUSH1 0x40 MLOAD DUP1 SWAP2 SUB SWAP1 KECCAK256 PUSH1 0x2 ADD PUSH1 0x0 SWAP1 SLOAD SWAP1 PUSH2 0x100 EXP SWAP1 DIV PUSH1 0xFF AND PUSH2 0x202B JUMPI PUSH1 0x40 MLOAD PUSH32 0x8C379A000000000000000000000000000000000000000000000000000000000 DUP2 MSTORE PUSH1 0x4 ADD PUSH2 0x2022 SWAP1 PUSH2 0x3242 JUMP JUMPDEST PUSH1 0x40 MLOAD DUP1 SWAP2 SUB SWAP1 REVERT JUMPDEST PUSH1 0x1 DUP4 PUSH1 0x40 MLOAD PUSH2 0x203B SWAP2 SWAP1 PUSH2 0x31DF JUMP JUMPDEST SWAP1 DUP2 MSTORE PUSH1 0x20 ADD PUSH1 0x40 MLOAD DUP1 SWAP2 SUB SWAP1 KECCAK256 DUP1 SLOAD SWAP1 POP SWAP2 POP POP SWAP2 SWAP1 POP JUMP JUMPDEST PUSH2 0x205D PUSH2 0x2636 JUMP JUMPDEST DUP3 PUSH1 0x0 DUP2 PUSH1 0x40 MLOAD PUSH2 0x206E SWAP2 SWAP1 PUSH2 0x31DF JUMP JUMPDEST SWAP1 DUP2 MSTORE PUSH1 0x20 ADD PUSH1 0x40 MLOAD DUP1 SWAP2 SUB SWAP1 KECCAK256 PUSH1 0x2 ADD PUSH1 0x0 SWAP1 SLOAD SWAP1 PUSH2 0x100 EXP SWAP1 DIV PUSH1 0xFF AND PUSH2 0x20CC JUMPI PUSH1 0x40 MLOAD PUSH32 0x8C379A000000000000000000000000000000000000000000000000000000000 DUP2 MSTORE PUSH1 0x4 ADD PUSH2 0x20C3 SWAP1 PUSH2 0x3242 JUMP JUMPDEST PUSH1 0x40 MLOAD DUP1 SWAP2 SUB SWAP1 REVERT JUMPDEST PUSH1 0x0 PUSH1 0x2 DUP6 PUSH1 0x40 MLOAD PUSH2 0x20DE SWAP2 SWAP1 PUSH2 0x31DF JUMP JUMPDEST SWAP1 DUP2 MSTORE PUSH1 0x20 ADD PUSH1 0x40 MLOAD DUP1 SWAP2 SUB SWAP1 KECCAK256 PUSH1 0x0 PUSH2 0x20F7 DUP7 PUSH2 0x2568 JUMP JUMPDEST DUP2 MSTORE PUSH1 0x20 ADD SWAP1 DUP2 MSTORE PUSH1 0x20 ADD PUSH1 0x0 KECCAK256 PUSH1 0x40 MLOAD DUP1 PUSH1 0x80 ADD PUSH1 0x40 MSTORE SWAP1 DUP2 PUSH1 0x0 DUP3 ADD DUP1 SLOAD PUSH2 0x2120 SWAP1 PUSH2 0x3291 JUMP JUMPDEST DUP1 PUSH1 0x1F ADD PUSH1 0x20 DUP1 SWAP2 DIV MUL PUSH1 0x20 ADD PUSH1 0x40 MLOAD SWAP1 DUP2 ADD PUSH1 0x40 MSTORE DUP1 SWAP3 SWAP2 SWAP1 DUP2 DUP2 MSTORE PUSH1 0x20 ADD DUP3 DUP1 SLOAD PUSH2 0x214C SWAP1 PUSH2 0x3291 JUMP JUMPDEST DUP1 ISZERO PUSH2 0x2199 JUMPI DUP1 PUSH1 0x1F LT PUSH2 0x216E JUMPI PUSH2 0x100 DUP1 DUP4 SLOAD DIV MUL DUP4 MSTORE SWAP2 PUSH1 0x20 ADD SWAP2 PUSH2 0x2199 JUMP JUMPDEST DUP3 ADD SWAP2 SWAP1 PUSH1 0x0 MSTORE PUSH1 0x20 PUSH1 0x0 KECCAK256 SWAP1 JUMPDEST DUP2 SLOAD DUP2 MSTORE SWAP1 PUSH1 0x1 ADD SWAP1 PUSH1 0x20 ADD DUP1 DUP4 GT PUSH2 0x217C JUMPI DUP3 SWAP1 SUB PUSH1 0x1F AND DUP3 ADD SWAP2 JUMPDEST POP POP POP POP POP DUP2 MSTORE PUSH1 0x20 ADD PUSH1 0x1 DUP3 ADD DUP1 SLOAD PUSH2 0x21B2 SWAP1 PUSH2 0x3291 JUMP JUMPDEST DUP1 PUSH1 0x1F ADD PUSH1 0x20 DUP1 SWAP2 DIV MUL PUSH1 0x20 ADD PUSH1 0x40 MLOAD SWAP1 DUP2 ADD PUSH1 0x40 MSTORE DUP1 SWAP3 SWAP2 SWAP1 DUP2 DUP2 MSTORE PUSH1 0x20 ADD DUP3 DUP1 SLOAD PUSH2 0x21DE SWAP1 PUSH2 0x3291 JUMP JUMPDEST DUP1 ISZERO PUSH2 0x222B JUMPI DUP1 PUSH1 0x1F LT PUSH2 0x2200 JUMPI PUSH2 0x100 DUP1 DUP4 SLOAD DIV MUL DUP4 MSTORE SWAP2 PUSH1 0x20 ADD SWAP2 PUSH2 0x222B JUMP JUMPDEST DUP3 ADD SWAP2 SWAP1 PUSH1 0x0 MSTORE PUSH1 0x20 PUSH1 0x0 KECCAK256 SWAP1 JUMPDEST DUP2 SLOAD DUP2 MSTORE SWAP1 PUSH1 0x1 ADD SWAP1 PUSH1 0x20 ADD DUP1 DUP4 GT PUSH2 0x220E JUMPI DUP3 SWAP1 SUB PUSH1 0x1F AND DUP3 ADD SWAP2 JUMPDEST POP POP POP POP POP DUP2 MSTORE PUSH1 0x20 ADD PUSH1 0x2 DUP3 ADD PUSH1 0x0 SWAP1 SLOAD SWAP1 PUSH2 0x100 EXP SWAP1 DIV PUSH1 0xFF AND ISZERO ISZERO ISZERO ISZERO DUP2 MSTORE PUSH1 0x20 ADD PUSH1 0x3 DUP3 ADD SLOAD DUP2 MSTORE POP POP SWAP1 POP PUSH1 0x0 DUP2 PUSH1 0x0 ADD MLOAD MLOAD GT PUSH2 0x22A3 JUMPI PUSH1 0x40 MLOAD PUSH32 0x8C379A000000000000000000000000000000000000000000000000000000000 DUP2 MSTORE PUSH1 0x4 ADD PUSH2 0x229A SWAP1 PUSH2 0x3E05 JUMP JUMPDEST PUSH1 0x40 MLOAD DUP1 SWAP2 SUB SWAP1 REVERT JUMPDEST DUP1 SWAP3 POP POP POP SWAP3 SWAP2 POP POP JUMP JUMPDEST PUSH1 0x0 PUSH1 0x2 DUP4 PUSH1 0x40 MLOAD PUSH2 0x22C0 SWAP2 SWAP1 PUSH2 0x31DF JUMP JUMPDEST SWAP1 DUP2 MSTORE PUSH1 0x20 ADD PUSH1 0x40 MLOAD DUP1 SWAP2 SUB SWAP1 KECCAK256 PUSH1 0x0 PUSH2 0x22D9 DUP5 PUSH2 0x2568 JUMP JUMPDEST DUP2 MSTORE PUSH1 0x20 ADD SWAP1 DUP2 MSTORE PUSH1 0x20 ADD PUSH1 0x0 KECCAK256 PUSH1 0x2 ADD PUSH1 0x0 SWAP1 SLOAD SWAP1 PUSH2 0x100 EXP SWAP1 DIV PUSH1 0xFF AND SWAP1 POP SWAP3 SWAP2 POP POP JUMP JUMPDEST PUSH32 0x0 PUSH20 0xFFFFFFFFFFFFFFFFFFFFFFFFFFFFFFFFFFFFFFFF AND CALLER PUSH20 0xFFFFFFFFFFFFFFFFFFFFFFFFFFFFFFFFFFFFFFFF AND EQ PUSH2 0x238E JUMPI PUSH1 0x40 MLOAD PUSH32 0x8C379A000000000000000000000000000000000000000000000000000000000 DUP2 MSTORE PUSH1 0x4 ADD PUSH2 0x2385 SWAP1 PUSH2 0x3183 JUMP JUMPDEST PUSH1 0x40 MLOAD DUP1 SWAP2 SUB SWAP1 REVERT JUMPDEST DUP2 PUSH1 0x0 DUP2 PUSH1 0x40 MLOAD PUSH2 0x239F SWAP2 SWAP1 PUSH2 0x31DF JUMP JUMPDEST SWAP1 DUP2 MSTORE PUSH1 0x20 ADD PUSH1 0x40 MLOAD DUP1 SWAP2 SUB SWAP1 KECCAK256 PUSH1 0x2 ADD PUSH1 0x0 SWAP1 SLOAD SWAP1 PUSH2 0x100 EXP SWAP1 DIV PUSH1 0xFF AND PUSH2 0x23FD JUMPI PUSH1 0x40 MLOAD PUSH32 0x8C379A000000000000000000000000000000000000000000000000000000000 DUP2 MSTORE PUSH1 0x4 ADD PUSH2 0x23F4 SWAP1 PUSH2 0x3242 JUMP JUMPDEST PUSH1 0x40 MLOAD DUP1 SWAP2 SUB SWAP1 REVERT JUMPDEST PUSH1 0x0 PUSH2 0x2408 DUP4 PUSH2 0x2568 JUMP JUMPDEST SWAP1 POP PUSH1 0x0 PUSH1 0x2 DUP6 PUSH1 0x40 MLOAD PUSH2 0x241C SWAP2 SWAP1 PUSH2 0x31DF JUMP JUMPDEST SWAP1 DUP2 MSTORE PUSH1 0x20 ADD PUSH1 0x40 MLOAD DUP1 SWAP2 SUB SWAP1 KECCAK256 PUSH1 0x0 DUP4 DUP2 MSTORE PUSH1 0x20 ADD SWAP1 DUP2 MSTORE PUSH1 0x20 ADD PUSH1 0x0 KECCAK256 SWAP1 POP PUSH1 0x0 DUP2 PUSH1 0x0 ADD DUP1 SLOAD PUSH2 0x244E SWAP1 PUSH2 0x3291 JUMP JUMPDEST SWAP1 POP GT PUSH2 0x2490 JUMPI PUSH1 0x40 MLOAD PUSH32 0x8C379A000000000000000000000000000000000000000000000000000000000 DUP2 MSTORE PUSH1 0x4 ADD PUSH2 0x2487 SWAP1 PUSH2 0x3E05 JUMP JUMPDEST PUSH1 0x40 MLOAD DUP1 SWAP2 SUB SWAP1 REVERT JUMPDEST DUP1 PUSH1 0x2 ADD PUSH1 0x0 SWAP1 SLOAD SWAP1 PUSH2 0x100 EXP SWAP1 DIV PUSH1 0xFF AND PUSH2 0x24E1 JUMPI PUSH1 0x40 MLOAD PUSH32 0x8C379A000000000000000000000000000000000000000000000000000000000 DUP2 MSTORE PUSH1 0x4 ADD PUSH2 0x24D8 SWAP1 PUSH2 0x3E71 JUMP JUMPDEST PUSH1 0x40 MLOAD DUP1 SWAP2 SUB SWAP1 REVERT JUMPDEST PUSH1 0x0 DUP2 PUSH1 0x2 ADD PUSH1 0x0 PUSH2 0x100 EXP DUP2 SLOAD DUP2 PUSH1 0xFF MUL NOT AND SWAP1 DUP4 ISZERO ISZERO MUL OR SWAP1 SSTORE POP DUP4 PUSH1 0x40 MLOAD PUSH2 0x250C SWAP2 SWAP1 PUSH2 0x31DF JUMP JUMPDEST PUSH1 0x40 MLOAD DUP1 SWAP2 SUB SWAP1 KECCAK256 DUP6 PUSH1 0x40 MLOAD PUSH2 0x2522 SWAP2 SWAP1 PUSH2 0x31DF JUMP JUMPDEST PUSH1 0x40 MLOAD DUP1 SWAP2 SUB SWAP1 KECCAK256 PUSH32 0x7E0C731807253762AD5C300DC71E21E154E6B5492F7A864D0EB74DD6902B000E TIMESTAMP PUSH1 0x40 MLOAD PUSH2 0x2559 SWAP2 SWAP1 PUSH2 0x2946 JUMP JUMPDEST PUSH1 0x40 MLOAD DUP1 SWAP2 SUB SWAP1 LOG3 POP POP POP POP POP JUMP JUMPDEST PUSH1 0x0 DUP2 DUP1 MLOAD SWAP1 PUSH1 0x20 ADD KECCAK256 SWAP1 POP SWAP2 SWAP1 POP JUMP JUMPDEST PUSH1 0x40 MLOAD DUP1 PUSH2 0x120 ADD PUSH1 0x40 MSTORE DUP1 PUSH1 0x0 DUP2 MSTORE PUSH1 0x20 ADD PUSH1 0x60 DUP2 MSTORE PUSH1 0x20 ADD PUSH1 0x60 DUP2 MSTORE PUSH1 0x20 ADD PUSH1 0x60 DUP2 MSTORE PUSH1 0x20 ADD PUSH1 0x60 DUP2 MSTORE PUSH1 0x20 ADD PUSH1 0x60 DUP2 MSTORE PUSH1 0x20 ADD PUSH1 0x60 DUP2 MSTORE PUSH1 0x20 ADD PUSH1 0x0 DUP2 MSTORE PUSH1 0x20 ADD PUSH1 0x0 DUP2 MSTORE POP SWAP1 JUMP JUMPDEST PUSH1 0x40 MLOAD DUP1 PUSH2 0x100 ADD PUSH1 0x40 MSTORE DUP1 PUSH1 0x0 DUP2 MSTORE PUSH1 0x20 ADD PUSH1 0x60 DUP2 MSTORE PUSH1 0x20 ADD PUSH1 0x60 DUP2 MSTORE PUSH1 0x20 ADD PUSH1 0x60 DUP2 MSTORE PUSH1 0x20 ADD PUSH1 0x0 DUP2 MSTORE PUSH1 0x20 ADD PUSH1 0x0 DUP2 MSTORE PUSH1 0x20 ADD PUSH1 0x0 DUP2 MSTORE PUSH1 0x20 ADD PUSH1 0x0 ISZERO ISZERO DUP2 MSTORE POP SWAP1 JUMP JUMPDEST PUSH1 0x40 MLOAD DUP1 PUSH1 0x80 ADD PUSH1 0x40 MSTORE DUP1 PUSH1 0x60 DUP2 MSTORE PUSH1 0x20 ADD PUSH1 0x60 DUP2 MSTORE PUSH1 0x20 ADD PUSH1 0x0 ISZERO ISZERO DUP2 MSTORE PUSH1 0x20 ADD PUSH1 0x0 DUP2 MSTORE POP SWAP1 JUMP JUMPDEST PUSH1 0x40 MLOAD DUP1 PUSH1 0x80 ADD PUSH1 0x40 MSTORE DUP1 PUSH1 0x60 DUP2 MSTORE PUSH1 0x20 ADD PUSH1 0x60 DUP2 MSTORE PUSH1 0x20 ADD PUSH1 0x0 ISZERO ISZERO DUP2 MSTORE PUSH1 0x20 ADD PUSH1 0x0 DUP2 MSTORE POP SWAP1 JUMP JUMPDEST PUSH1 0x0 PUSH1 0x40 MLOAD SWAP1 POP SWAP1 JUMP JUMPDEST PUSH1 0x0 DUP1 REVERT JUMPDEST PUSH1 0x0 DUP1 REVERT JUMPDEST PUSH1 0x0 DUP1 REVERT JUMPDEST PUSH1 0x0 DUP1 REVERT JUMPDEST PUSH1 0x0 PUSH1 0x1F NOT PUSH1 0x1F DUP4 ADD AND SWAP1 POP SWAP2 SWAP1 POP JUMP JUMPDEST PUSH32 0x4E487B7100000000000000000000000000000000000000000000000000000000 PUSH1 0x0 MSTORE PUSH1 0x41 PUSH1 0x4 MSTORE PUSH1 0x24 PUSH1 0x0 REVERT JUMPDEST PUSH2 0x26C7 DUP3 PUSH2 0x267E JUMP JUMPDEST DUP2 ADD DUP2 DUP2 LT PUSH8 0xFFFFFFFFFFFFFFFF DUP3 GT OR ISZERO PUSH2 0x26E6 JUMPI PUSH2 0x26E5 PUSH2 0x268F JUMP JUMPDEST JUMPDEST DUP1 PUSH1 0x40 MSTORE POP POP POP JUMP JUMPDEST PUSH1 0x0 PUSH2 0x26F9 PUSH2 0x2660 JUMP JUMPDEST SWAP1 POP PUSH2 0x2705 DUP3 DUP3 PUSH2 0x26BE JUMP JUMPDEST SWAP2 SWAP1 POP JUMP JUMPDEST PUSH1 0x0 PUSH8 0xFFFFFFFFFFFFFFFF DUP3 GT ISZERO PUSH2 0x2725 JUMPI PUSH2 0x2724 PUSH2 0x268F JUMP JUMPDEST JUMPDEST PUSH2 0x272E DUP3 PUSH2 0x267E JUMP JUMPDEST SWAP1 POP PUSH1 0x20 DUP2 ADD SWAP1 POP SWAP2 SWAP1 POP JUMP JUMPDEST DUP3 DUP2 DUP4 CALLDATACOPY PUSH1 0x0 DUP4 DUP4 ADD MSTORE POP POP POP JUMP JUMPDEST PUSH1 0x0 PUSH2 0x275D PUSH2 0x2758 DUP5 PUSH2 0x270A JUMP JUMPDEST PUSH2 0x26EF JUMP JUMPDEST SWAP1 POP DUP3 DUP2 MSTORE PUSH1 0x20 DUP2 ADD DUP5 DUP5 DUP5 ADD GT ISZERO PUSH2 0x2779 JUMPI PUSH2 0x2778 PUSH2 0x2679 JUMP JUMPDEST JUMPDEST PUSH2 0x2784 DUP5 DUP3 DUP6 PUSH2 0x273B JUMP JUMPDEST POP SWAP4 SWAP3 POP POP POP JUMP JUMPDEST PUSH1 0x0 DUP3 PUSH1 0x1F DUP4 ADD SLT PUSH2 0x27A1 JUMPI PUSH2 0x27A0 PUSH2 0x2674 JUMP JUMPDEST JUMPDEST DUP2 CALLDATALOAD PUSH2 0x27B1 DUP5 DUP3 PUSH1 0x20 DUP7 ADD PUSH2 0x274A JUMP JUMPDEST SWAP2 POP POP SWAP3 SWAP2 POP POP JUMP JUMPDEST PUSH1 0x0 DUP1 PUSH1 0x40 DUP4 DUP6 SUB SLT ISZERO PUSH2 0x27D1 JUMPI PUSH2 0x27D0 PUSH2 0x266A JUMP JUMPDEST JUMPDEST PUSH1 0x0 DUP4 ADD CALLDATALOAD PUSH8 0xFFFFFFFFFFFFFFFF DUP2 GT ISZERO PUSH2 0x27EF JUMPI PUSH2 0x27EE PUSH2 0x266F JUMP JUMPDEST JUMPDEST PUSH2 0x27FB DUP6 DUP3 DUP7 ADD PUSH2 0x278C JUMP JUMPDEST SWAP3 POP POP PUSH1 0x20 DUP4 ADD CALLDATALOAD PUSH8 0xFFFFFFFFFFFFFFFF DUP2 GT ISZERO PUSH2 0x281C JUMPI PUSH2 0x281B PUSH2 0x266F JUMP JUMPDEST JUMPDEST PUSH2 0x2828 DUP6 DUP3 DUP7 ADD PUSH2 0x278C JUMP JUMPDEST SWAP2 POP POP SWAP3 POP SWAP3 SWAP1 POP JUMP JUMPDEST PUSH1 0x0 DUP2 SWAP1 POP SWAP2 SWAP1 POP JUMP JUMPDEST PUSH2 0x2845 DUP2 PUSH2 0x2832 JUMP JUMPDEST DUP2 EQ PUSH2 0x2850 JUMPI PUSH1 0x0 DUP1 REVERT JUMPDEST POP JUMP JUMPDEST PUSH1 0x0 DUP2 CALLDATALOAD SWAP1 POP PUSH2 0x2862 DUP2 PUSH2 0x283C JUMP JUMPDEST SWAP3 SWAP2 POP POP JUMP JUMPDEST PUSH1 0x0 DUP1 PUSH1 0x0 DUP1 PUSH1 0x0 PUSH1 0xA0 DUP7 DUP9 SUB SLT ISZERO PUSH2 0x2884 JUMPI PUSH2 0x2883 PUSH2 0x266A JUMP JUMPDEST JUMPDEST PUSH1 0x0 DUP7 ADD CALLDATALOAD PUSH8 0xFFFFFFFFFFFFFFFF DUP2 GT ISZERO PUSH2 0x28A2 JUMPI PUSH2 0x28A1 PUSH2 0x266F JUMP JUMPDEST JUMPDEST PUSH2 0x28AE DUP9 DUP3 DUP10 ADD PUSH2 0x278C JUMP JUMPDEST SWAP6 POP POP PUSH1 0x20 DUP7 ADD CALLDATALOAD PUSH8 0xFFFFFFFFFFFFFFFF DUP2 GT ISZERO PUSH2 0x28CF JUMPI PUSH2 0x28CE PUSH2 0x266F JUMP JUMPDEST JUMPDEST PUSH2 0x28DB DUP9 DUP3 DUP10 ADD PUSH2 0x278C JUMP JUMPDEST SWAP5 POP POP PUSH1 0x40 DUP7 ADD CALLDATALOAD PUSH8 0xFFFFFFFFFFFFFFFF DUP2 GT ISZERO PUSH2 0x28FC JUMPI PUSH2 0x28FB PUSH2 0x266F JUMP JUMPDEST JUMPDEST PUSH2 0x2908 DUP9 DUP3 DUP10 ADD PUSH2 0x278C JUMP JUMPDEST SWAP4 POP POP PUSH1 0x60 PUSH2 0x2919 DUP9 DUP3 DUP10 ADD PUSH2 0x2853 JUMP JUMPDEST SWAP3 POP POP PUSH1 0x80 PUSH2 0x292A DUP9 DUP3 DUP10 ADD PUSH2 0x2853 JUMP JUMPDEST SWAP2 POP POP SWAP3 SWAP6 POP SWAP3 SWAP6 SWAP1 SWAP4 POP JUMP JUMPDEST PUSH2 0x2940 DUP2 PUSH2 0x2832 JUMP JUMPDEST DUP3 MSTORE POP POP JUMP JUMPDEST PUSH1 0x0 PUSH1 0x20 DUP3 ADD SWAP1 POP PUSH2 0x295B PUSH1 0x0 DUP4 ADD DUP5 PUSH2 0x2937 JUMP JUMPDEST SWAP3 SWAP2 POP POP JUMP JUMPDEST PUSH1 0x0 PUSH1 0x20 DUP3 DUP5 SUB SLT ISZERO PUSH2 0x2977 JUMPI PUSH2 0x2976 PUSH2 0x266A JUMP JUMPDEST JUMPDEST PUSH1 0x0 DUP3 ADD CALLDATALOAD PUSH8 0xFFFFFFFFFFFFFFFF DUP2 GT ISZERO PUSH2 0x2995 JUMPI PUSH2 0x2994 PUSH2 0x266F JUMP JUMPDEST JUMPDEST PUSH2 0x29A1 DUP5 DUP3 DUP6 ADD PUSH2 0x278C JUMP JUMPDEST SWAP2 POP POP SWAP3 SWAP2 POP POP JUMP JUMPDEST PUSH1 0x0 DUP2 MLOAD SWAP1 POP SWAP2 SWAP1 POP JUMP JUMPDEST PUSH1 0x0 DUP3 DUP3 MSTORE PUSH1 0x20 DUP3 ADD SWAP1 POP SWAP3 SWAP2 POP POP JUMP JUMPDEST PUSH1 0x0 DUP2 SWAP1 POP PUSH1 0x20 DUP3 ADD SWAP1 POP SWAP2 SWAP1 POP JUMP JUMPDEST PUSH2 0x29DF DUP2 PUSH2 0x2832 JUMP JUMPDEST DUP3 MSTORE POP POP JUMP JUMPDEST PUSH1 0x0 PUSH2 0x29F1 DUP4 DUP4 PUSH2 0x29D6 JUMP JUMPDEST PUSH1 0x20 DUP4 ADD SWAP1 POP SWAP3 SWAP2 POP POP JUMP JUMPDEST PUSH1 0x0 PUSH1 0x20 DUP3 ADD SWAP1 POP SWAP2 SWAP1 POP JUMP JUMPDEST PUSH1 0x0 PUSH2 0x2A15 DUP3 PUSH2 0x29AA JUMP JUMPDEST PUSH2 0x2A1F DUP2 DUP6 PUSH2 0x29B5 JUMP JUMPDEST SWAP4 POP PUSH2 0x2A2A DUP4 PUSH2 0x29C6 JUMP JUMPDEST DUP1 PUSH1 0x0 JUMPDEST DUP4 DUP2 LT ISZERO PUSH2 0x2A5B JUMPI DUP2 MLOAD PUSH2 0x2A42 DUP9 DUP3 PUSH2 0x29E5 JUMP JUMPDEST SWAP8 POP PUSH2 0x2A4D DUP4 PUSH2 0x29FD JUMP JUMPDEST SWAP3 POP POP PUSH1 0x1 DUP2 ADD SWAP1 POP PUSH2 0x2A2E JUMP JUMPDEST POP DUP6 SWAP4 POP POP POP POP SWAP3 SWAP2 POP POP JUMP JUMPDEST PUSH1 0x0 PUSH1 0x20 DUP3 ADD SWAP1 POP DUP2 DUP2 SUB PUSH1 0x0 DUP4 ADD MSTORE PUSH2 0x2A82 DUP2 DUP5 PUSH2 0x2A0A JUMP JUMPDEST SWAP1 POP SWAP3 SWAP2 POP POP JUMP JUMPDEST PUSH1 0x0 PUSH1 0x20 DUP3 DUP5 SUB SLT ISZERO PUSH2 0x2AA0 JUMPI PUSH2 0x2A9F PUSH2 0x266A JUMP JUMPDEST JUMPDEST PUSH1 0x0 PUSH2 0x2AAE DUP5 DUP3 DUP6 ADD PUSH2 0x2853 JUMP JUMPDEST SWAP2 POP POP SWAP3 SWAP2 POP POP JUMP JUMPDEST PUSH1 0x0 DUP2 MLOAD SWAP1 POP SWAP2 SWAP1 POP JUMP JUMPDEST PUSH1 0x0 DUP3 DUP3 MSTORE PUSH1 0x20 DUP3 ADD SWAP1 POP SWAP3 SWAP2 POP POP JUMP JUMPDEST PUSH1 0x0 JUMPDEST DUP4 DUP2 LT ISZERO PUSH2 0x2AF1 JUMPI DUP1 DUP3 ADD MLOAD DUP2 DUP5 ADD MSTORE PUSH1 0x20 DUP2 ADD SWAP1 POP PUSH2 0x2AD6 JUMP JUMPDEST PUSH1 0x0 DUP5 DUP5 ADD MSTORE POP POP POP POP JUMP JUMPDEST PUSH1 0x0 PUSH2 0x2B08 DUP3 PUSH2 0x2AB7 JUMP JUMPDEST PUSH2 0x2B12 DUP2 DUP6 PUSH2 0x2AC2 JUMP JUMPDEST SWAP4 POP PUSH2 0x2B22 DUP2 DUP6 PUSH1 0x20 DUP7 ADD PUSH2 0x2AD3 JUMP JUMPDEST PUSH2 0x2B2B DUP2 PUSH2 0x267E JUMP JUMPDEST DUP5 ADD SWAP2 POP POP SWAP3 SWAP2 POP POP JUMP JUMPDEST PUSH1 0x0 PUSH2 0x120 DUP4 ADD PUSH1 0x0 DUP4 ADD MLOAD PUSH2 0x2B4F PUSH1 0x0 DUP7 ADD DUP3 PUSH2 0x29D6 JUMP JUMPDEST POP PUSH1 0x20 DUP4 ADD MLOAD DUP5 DUP3 SUB PUSH1 0x20 DUP7 ADD MSTORE PUSH2 0x2B67 DUP3 DUP3 PUSH2 0x2AFD JUMP JUMPDEST SWAP2 POP POP PUSH1 0x40 DUP4 ADD MLOAD DUP5 DUP3 SUB PUSH1 0x40 DUP7 ADD MSTORE PUSH2 0x2B81 DUP3 DUP3 PUSH2 0x2AFD JUMP JUMPDEST SWAP2 POP POP PUSH1 0x60 DUP4 ADD MLOAD DUP5 DUP3 SUB PUSH1 0x60 DUP7 ADD MSTORE PUSH2 0x2B9B DUP3 DUP3 PUSH2 0x2AFD JUMP JUMPDEST SWAP2 POP POP PUSH1 0x80 DUP4 ADD MLOAD DUP5 DUP3 SUB PUSH1 0x80 DUP7 ADD MSTORE PUSH2 0x2BB5 DUP3 DUP3 PUSH2 0x2AFD JUMP JUMPDEST SWAP2 POP POP PUSH1 0xA0 DUP4 ADD MLOAD DUP5 DUP3 SUB PUSH1 0xA0 DUP7 ADD MSTORE PUSH2 0x2BCF DUP3 DUP3 PUSH2 0x2AFD JUMP JUMPDEST SWAP2 POP POP PUSH1 0xC0 DUP4 ADD MLOAD DUP5 DUP3 SUB PUSH1 0xC0 DUP7 ADD MSTORE PUSH2 0x2BE9 DUP3 DUP3 PUSH2 0x2AFD JUMP JUMPDEST SWAP2 POP POP PUSH1 0xE0 DUP4 ADD MLOAD PUSH2 0x2BFE PUSH1 0xE0 DUP7 ADD DUP3 PUSH2 0x29D6 JUMP JUMPDEST POP PUSH2 0x100 DUP4 ADD MLOAD PUSH2 0x2C13 PUSH2 0x100 DUP7 ADD DUP3 PUSH2 0x29D6 JUMP JUMPDEST POP DUP1 SWAP2 POP POP SWAP3 SWAP2 POP POP JUMP JUMPDEST PUSH1 0x0 PUSH1 0x20 DUP3 ADD SWAP1 POP DUP2 DUP2 SUB PUSH1 0x0 DUP4 ADD MSTORE PUSH2 0x2C38 DUP2 DUP5 PUSH2 0x2B36 JUMP JUMPDEST SWAP1 POP SWAP3 SWAP2 POP POP JUMP JUMPDEST PUSH1 0x0 DUP1 PUSH1 0x0 PUSH1 0x60 DUP5 DUP7 SUB SLT ISZERO PUSH2 0x2C59 JUMPI PUSH2 0x2C58 PUSH2 0x266A JUMP JUMPDEST JUMPDEST PUSH1 0x0 DUP5 ADD CALLDATALOAD PUSH8 0xFFFFFFFFFFFFFFFF DUP2 GT ISZERO PUSH2 0x2C77 JUMPI PUSH2 0x2C76 PUSH2 0x266F JUMP JUMPDEST JUMPDEST PUSH2 0x2C83 DUP7 DUP3 DUP8 ADD PUSH2 0x278C JUMP JUMPDEST SWAP4 POP POP PUSH1 0x20 DUP5 ADD CALLDATALOAD PUSH8 0xFFFFFFFFFFFFFFFF DUP2 GT ISZERO PUSH2 0x2CA4 JUMPI PUSH2 0x2CA3 PUSH2 0x266F JUMP JUMPDEST JUMPDEST PUSH2 0x2CB0 DUP7 DUP3 DUP8 ADD PUSH2 0x278C JUMP JUMPDEST SWAP3 POP POP PUSH1 0x40 DUP5 ADD CALLDATALOAD PUSH8 0xFFFFFFFFFFFFFFFF DUP2 GT ISZERO PUSH2 0x2CD1 JUMPI PUSH2 0x2CD0 PUSH2 0x266F JUMP JUMPDEST JUMPDEST PUSH2 0x2CDD DUP7 DUP3 DUP8 ADD PUSH2 0x278C JUMP JUMPDEST SWAP2 POP POP SWAP3 POP SWAP3 POP SWAP3 JUMP JUMPDEST PUSH1 0x0 DUP2 ISZERO ISZERO SWAP1 POP SWAP2 SWAP1 POP JUMP JUMPDEST PUSH2 0x2CFC DUP2 PUSH2 0x2CE7 JUMP JUMPDEST DUP3 MSTORE POP POP JUMP JUMPDEST PUSH1 0x0 PUSH2 0x100 DUP4 ADD PUSH1 0x0 DUP4 ADD MLOAD PUSH2 0x2D1B PUSH1 0x0 DUP7 ADD DUP3 PUSH2 0x29D6 JUMP JUMPDEST POP PUSH1 0x20 DUP4 ADD MLOAD DUP5 DUP3 SUB PUSH1 0x20 DUP7 ADD MSTORE PUSH2 0x2D33 DUP3 DUP3 PUSH2 0x2AFD JUMP JUMPDEST SWAP2 POP POP PUSH1 0x40 DUP4 ADD MLOAD DUP5 DUP3 SUB PUSH1 0x40 DUP7 ADD MSTORE PUSH2 0x2D4D DUP3 DUP3 PUSH2 0x2AFD JUMP JUMPDEST SWAP2 POP POP PUSH1 0x60 DUP4 ADD MLOAD DUP5 DUP3 SUB PUSH1 0x60 DUP7 ADD MSTORE PUSH2 0x2D67 DUP3 DUP3 PUSH2 0x2AFD JUMP JUMPDEST SWAP2 POP POP PUSH1 0x80 DUP4 ADD MLOAD PUSH2 0x2D7C PUSH1 0x80 DUP7 ADD DUP3 PUSH2 0x29D6 JUMP JUMPDEST POP PUSH1 0xA0 DUP4 ADD MLOAD PUSH2 0x2D8F PUSH1 0xA0 DUP7 ADD DUP3 PUSH2 0x29D6 JUMP JUMPDEST POP PUSH1 0xC0 DUP4 ADD MLOAD PUSH2 0x2DA2 PUSH1 0xC0 DUP7 ADD DUP3 PUSH2 0x29D6 JUMP JUMPDEST POP PUSH1 0xE0 DUP4 ADD MLOAD PUSH2 0x2DB5 PUSH1 0xE0 DUP7 ADD DUP3 PUSH2 0x2CF3 JUMP JUMPDEST POP DUP1 SWAP2 POP POP SWAP3 SWAP2 POP POP JUMP JUMPDEST PUSH1 0x0 PUSH1 0x20 DUP3 ADD SWAP1 POP DUP2 DUP2 SUB PUSH1 0x0 DUP4 ADD MSTORE PUSH2 0x2DDA DUP2 DUP5 PUSH2 0x2D02 JUMP JUMPDEST SWAP1 POP SWAP3 SWAP2 POP POP JUMP JUMPDEST PUSH1 0x0 DUP1 PUSH1 0x40 DUP4 DUP6 SUB SLT ISZERO PUSH2 0x2DF9 JUMPI PUSH2 0x2DF8 PUSH2 0x266A JUMP JUMPDEST JUMPDEST PUSH1 0x0 PUSH2 0x2E07 DUP6 DUP3 DUP7 ADD PUSH2 0x2853 JUMP JUMPDEST SWAP3 POP POP PUSH1 0x20 DUP4 ADD CALLDATALOAD PUSH8 0xFFFFFFFFFFFFFFFF DUP2 GT ISZERO PUSH2 0x2E28 JUMPI PUSH2 0x2E27 PUSH2 0x266F JUMP JUMPDEST JUMPDEST PUSH2 0x2E34 DUP6 DUP3 DUP7 ADD PUSH2 0x278C JUMP JUMPDEST SWAP2 POP POP SWAP3 POP SWAP3 SWAP1 POP JUMP JUMPDEST PUSH2 0x2E47 DUP2 PUSH2 0x2CE7 JUMP JUMPDEST DUP3 MSTORE POP POP JUMP JUMPDEST PUSH1 0x0 PUSH1 0x20 DUP3 ADD SWAP1 POP PUSH2 0x2E62 PUSH1 0x0 DUP4 ADD DUP5 PUSH2 0x2E3E JUMP JUMPDEST SWAP3 SWAP2 POP POP JUMP JUMPDEST PUSH1 0x0 DUP1 PUSH1 0x0 DUP1 PUSH1 0x0 DUP1 PUSH1 0x0 PUSH1 0xE0 DUP9 DUP11 SUB SLT ISZERO PUSH2 0x2E87 JUMPI PUSH2 0x2E86 PUSH2 0x266A JUMP JUMPDEST JUMPDEST PUSH1 0x0 DUP9 ADD CALLDATALOAD PUSH8 0xFFFFFFFFFFFFFFFF DUP2 GT ISZERO PUSH2 0x2EA5 JUMPI PUSH2 0x2EA4 PUSH2 0x266F JUMP JUMPDEST JUMPDEST PUSH2 0x2EB1 DUP11 DUP3 DUP12 ADD PUSH2 0x278C JUMP JUMPDEST SWAP8 POP POP PUSH1 0x20 DUP9 ADD CALLDATALOAD PUSH8 0xFFFFFFFFFFFFFFFF DUP2 GT ISZERO PUSH2 0x2ED2 JUMPI PUSH2 0x2ED1 PUSH2 0x266F JUMP JUMPDEST JUMPDEST PUSH2 0x2EDE DUP11 DUP3 DUP12 ADD PUSH2 0x278C JUMP JUMPDEST SWAP7 POP POP PUSH1 0x40 DUP9 ADD CALLDATALOAD PUSH8 0xFFFFFFFFFFFFFFFF DUP2 GT ISZERO PUSH2 0x2EFF JUMPI PUSH2 0x2EFE PUSH2 0x266F JUMP JUMPDEST JUMPDEST PUSH2 0x2F0B DUP11 DUP3 DUP12 ADD PUSH2 0x278C JUMP JUMPDEST SWAP6 POP POP PUSH1 0x60 DUP9 ADD CALLDATALOAD PUSH8 0xFFFFFFFFFFFFFFFF DUP2 GT ISZERO PUSH2 0x2F2C JUMPI PUSH2 0x2F2B PUSH2 0x266F JUMP JUMPDEST JUMPDEST PUSH2 0x2F38 DUP11 DUP3 DUP12 ADD PUSH2 0x278C JUMP JUMPDEST SWAP5 POP POP PUSH1 0x80 DUP9 ADD CALLDATALOAD PUSH8 0xFFFFFFFFFFFFFFFF DUP2 GT ISZERO PUSH2 0x2F59 JUMPI PUSH2 0x2F58 PUSH2 0x266F JUMP JUMPDEST JUMPDEST PUSH2 0x2F65 DUP11 DUP3 DUP12 ADD PUSH2 0x278C JUMP JUMPDEST SWAP4 POP POP PUSH1 0xA0 DUP9 ADD CALLDATALOAD PUSH8 0xFFFFFFFFFFFFFFFF DUP2 GT ISZERO PUSH2 0x2F86 JUMPI PUSH2 0x2F85 PUSH2 0x266F JUMP JUMPDEST JUMPDEST PUSH2 0x2F92 DUP11 DUP3 DUP12 ADD PUSH2 0x278C JUMP JUMPDEST SWAP3 POP POP PUSH1 0xC0 PUSH2 0x2FA3 DUP11 DUP3 DUP12 ADD PUSH2 0x2853 JUMP JUMPDEST SWAP2 POP POP SWAP3 SWAP6 SWAP9 SWAP2 SWAP5 SWAP8 POP SWAP3 SWAP6 POP JUMP JUMPDEST PUSH1 0x0 PUSH20 0xFFFFFFFFFFFFFFFFFFFFFFFFFFFFFFFFFFFFFFFF DUP3 AND SWAP1 POP SWAP2 SWAP1 POP JUMP JUMPDEST PUSH1 0x0 PUSH2 0x2FDD DUP3 PUSH2 0x2FB2 JUMP JUMPDEST SWAP1 POP SWAP2 SWAP1 POP JUMP JUMPDEST PUSH2 0x2FED DUP2 PUSH2 0x2FD2 JUMP JUMPDEST DUP3 MSTORE POP POP JUMP JUMPDEST PUSH1 0x0 PUSH1 0x20 DUP3 ADD SWAP1 POP PUSH2 0x3008 PUSH1 0x0 DUP4 ADD DUP5 PUSH2 0x2FE4 JUMP JUMPDEST SWAP3 SWAP2 POP POP JUMP JUMPDEST PUSH1 0x0 PUSH1 0x80 DUP4 ADD PUSH1 0x0 DUP4 ADD MLOAD DUP5 DUP3 SUB PUSH1 0x0 DUP7 ADD MSTORE PUSH2 0x302B DUP3 DUP3 PUSH2 0x2AFD JUMP JUMPDEST SWAP2 POP POP PUSH1 0x20 DUP4 ADD MLOAD DUP5 DUP3 SUB PUSH1 0x20 DUP7 ADD MSTORE PUSH2 0x3045 DUP3 DUP3 PUSH2 0x2AFD JUMP JUMPDEST SWAP2 POP POP PUSH1 0x40 DUP4 ADD MLOAD PUSH2 0x305A PUSH1 0x40 DUP7 ADD DUP3 PUSH2 0x2CF3 JUMP JUMPDEST POP PUSH1 0x60 DUP4 ADD MLOAD PUSH2 0x306D PUSH1 0x60 DUP7 ADD DUP3 PUSH2 0x29D6 JUMP JUMPDEST POP DUP1 SWAP2 POP POP SWAP3 SWAP2 POP POP JUMP JUMPDEST PUSH1 0x0 PUSH1 0x20 DUP3 ADD SWAP1 POP DUP2 DUP2 SUB PUSH1 0x0 DUP4 ADD MSTORE PUSH2 0x3092 DUP2 DUP5 PUSH2 0x300E JUMP JUMPDEST SWAP1 POP SWAP3 SWAP2 POP POP JUMP JUMPDEST PUSH1 0x0 PUSH1 0x80 DUP4 ADD PUSH1 0x0 DUP4 ADD MLOAD DUP5 DUP3 SUB PUSH1 0x0 DUP7 ADD MSTORE PUSH2 0x30B7 DUP3 DUP3 PUSH2 0x2AFD JUMP JUMPDEST SWAP2 POP POP PUSH1 0x20 DUP4 ADD MLOAD DUP5 DUP3 SUB PUSH1 0x20 DUP7 ADD MSTORE PUSH2 0x30D1 DUP3 DUP3 PUSH2 0x2AFD JUMP JUMPDEST SWAP2 POP POP PUSH1 0x40 DUP4 ADD MLOAD PUSH2 0x30E6 PUSH1 0x40 DUP7 ADD DUP3 PUSH2 0x2CF3 JUMP JUMPDEST POP PUSH1 0x60 DUP4 ADD MLOAD PUSH2 0x30F9 PUSH1 0x60 DUP7 ADD DUP3 PUSH2 0x29D6 JUMP JUMPDEST POP DUP1 SWAP2 POP POP SWAP3 SWAP2 POP POP JUMP JUMPDEST PUSH1 0x0 PUSH1 0x20 DUP3 ADD SWAP1 POP DUP2 DUP2 SUB PUSH1 0x0 DUP4 ADD MSTORE PUSH2 0x311E DUP2 DUP5 PUSH2 0x309A JUMP JUMPDEST SWAP1 POP SWAP3 SWAP2 POP POP JUMP JUMPDEST PUSH1 0x0 DUP3 DUP3 MSTORE PUSH1 0x20 DUP3 ADD SWAP1 POP SWAP3 SWAP2 POP POP JUMP JUMPDEST PUSH32 0x4F6E6C79206F776E657200000000000000000000000000000000000000000000 PUSH1 0x0 DUP3 ADD MSTORE POP JUMP JUMPDEST PUSH1 0x0 PUSH2 0x316D PUSH1 0xA DUP4 PUSH2 0x3126 JUMP JUMPDEST SWAP2 POP PUSH2 0x3178 DUP3 PUSH2 0x3137 JUMP JUMPDEST PUSH1 0x20 DUP3 ADD SWAP1 POP SWAP2 SWAP1 POP JUMP JUMPDEST PUSH1 0x0 PUSH1 0x20 DUP3 ADD SWAP1 POP DUP2 DUP2 SUB PUSH1 0x0 DUP4 ADD MSTORE PUSH2 0x319C DUP2 PUSH2 0x3160 JUMP JUMPDEST SWAP1 POP SWAP2 SWAP1 POP JUMP JUMPDEST PUSH1 0x0 DUP2 SWAP1 POP SWAP3 SWAP2 POP POP JUMP JUMPDEST PUSH1 0x0 PUSH2 0x31B9 DUP3 PUSH2 0x2AB7 JUMP JUMPDEST PUSH2 0x31C3 DUP2 DUP6 PUSH2 0x31A3 JUMP JUMPDEST SWAP4 POP PUSH2 0x31D3 DUP2 DUP6 PUSH1 0x20 DUP7 ADD PUSH2 0x2AD3 JUMP JUMPDEST DUP1 DUP5 ADD SWAP2 POP POP SWAP3 SWAP2 POP POP JUMP JUMPDEST PUSH1 0x0 PUSH2 0x31EB DUP3 DUP5 PUSH2 0x31AE JUMP JUMPDEST SWAP2 POP DUP2 SWAP1 POP SWAP3 SWAP2 POP POP JUMP JUMPDEST PUSH32 0x436F6D70616E79206E6F7420666F756E64000000000000000000000000000000 PUSH1 0x0 DUP3 ADD MSTORE POP JUMP JUMPDEST PUSH1 0x0 PUSH2 0x322C PUSH1 0x11 DUP4 PUSH2 0x3126 JUMP JUMPDEST SWAP2 POP PUSH2 0x3237 DUP3 PUSH2 0x31F6 JUMP JUMPDEST PUSH1 0x20 DUP3 ADD SWAP1 POP SWAP2 SWAP1 POP JUMP JUMPDEST PUSH1 0x0 PUSH1 0x20 DUP3 ADD SWAP1 POP DUP2 DUP2 SUB PUSH1 0x0 DUP4 ADD MSTORE PUSH2 0x325B DUP2 PUSH2 0x321F JUMP JUMPDEST SWAP1 POP SWAP2 SWAP1 POP JUMP JUMPDEST PUSH32 0x4E487B7100000000000000000000000000000000000000000000000000000000 PUSH1 0x0 MSTORE PUSH1 0x22 PUSH1 0x4 MSTORE PUSH1 0x24 PUSH1 0x0 REVERT JUMPDEST PUSH1 0x0 PUSH1 0x2 DUP3 DIV SWAP1 POP PUSH1 0x1 DUP3 AND DUP1 PUSH2 0x32A9 JUMPI PUSH1 0x7F DUP3 AND SWAP2 POP JUMPDEST PUSH1 0x20 DUP3 LT DUP2 SUB PUSH2 0x32BC JUMPI PUSH2 0x32BB PUSH2 0x3262 JUMP JUMPDEST JUMPDEST POP SWAP2 SWAP1 POP JUMP JUMPDEST PUSH1 0x0 DUP2 SWAP1 POP DUP2 PUSH1 0x0 MSTORE PUSH1 0x20 PUSH1 0x0 KECCAK256 SWAP1 POP SWAP2 SWAP1 POP JUMP JUMPDEST PUSH1 0x0 PUSH1 0x20 PUSH1 0x1F DUP4 ADD DIV SWAP1 POP SWAP2 SWAP1 POP JUMP JUMPDEST PUSH1 0x0 DUP3 DUP3 SHL SWAP1 POP SWAP3 SWAP2 POP POP JUMP JUMPDEST PUSH1 0x0 PUSH1 0x8 DUP4 MUL PUSH2 0x3324 PUSH32 0xFFFFFFFFFFFFFFFFFFFFFFFFFFFFFFFFFFFFFFFFFFFFFFFFFFFFFFFFFFFFFFFF DUP3 PUSH2 0x32E7 JUMP JUMPDEST PUSH2 0x332E DUP7 DUP4 PUSH2 0x32E7 JUMP JUMPDEST SWAP6 POP DUP1 NOT DUP5 AND SWAP4 POP DUP1 DUP7 AND DUP5 OR SWAP3 POP POP POP SWAP4 SWAP3 POP POP POP JUMP JUMPDEST PUSH1 0x0 DUP2 SWAP1 POP SWAP2 SWAP1 POP JUMP JUMPDEST PUSH1 0x0 PUSH2 0x336B PUSH2 0x3366 PUSH2 0x3361 DUP5 PUSH2 0x2832 JUMP JUMPDEST PUSH2 0x3346 JUMP JUMPDEST PUSH2 0x2832 JUMP JUMPDEST SWAP1 POP SWAP2 SWAP1 POP JUMP JUMPDEST PUSH1 0x0 DUP2 SWAP1 POP SWAP2 SWAP1 POP JUMP JUMPDEST PUSH2 0x3385 DUP4 PUSH2 0x3350 JUMP JUMPDEST PUSH2 0x3399 PUSH2 0x3391 DUP3 PUSH2 0x3372 JUMP JUMPDEST DUP5 DUP5 SLOAD PUSH2 0x32F4 JUMP JUMPDEST DUP3 SSTORE POP POP POP POP JUMP JUMPDEST PUSH1 0x0 SWAP1 JUMP JUMPDEST PUSH2 0x33AE PUSH2 0x33A1 JUMP JUMPDEST PUSH2 0x33B9 DUP2 DUP5 DUP5 PUSH2 0x337C JUMP JUMPDEST POP POP POP JUMP JUMPDEST JUMPDEST DUP2 DUP2 LT ISZERO PUSH2 0x33DD JUMPI PUSH2 0x33D2 PUSH1 0x0 DUP3 PUSH2 0x33A6 JUMP JUMPDEST PUSH1 0x1 DUP2 ADD SWAP1 POP PUSH2 0x33BF JUMP JUMPDEST POP POP JUMP JUMPDEST PUSH1 0x1F DUP3 GT ISZERO PUSH2 0x3422 JUMPI PUSH2 0x33F3 DUP2 PUSH2 0x32C2 JUMP JUMPDEST PUSH2 0x33FC DUP5 PUSH2 0x32D7 JUMP JUMPDEST DUP2 ADD PUSH1 0x20 DUP6 LT ISZERO PUSH2 0x340B JUMPI DUP2 SWAP1 POP JUMPDEST PUSH2 0x341F PUSH2 0x3417 DUP6 PUSH2 0x32D7 JUMP JUMPDEST DUP4 ADD DUP3 PUSH2 0x33BE JUMP JUMPDEST POP POP JUMPDEST POP POP POP JUMP JUMPDEST PUSH1 0x0 DUP3 DUP3 SHR SWAP1 POP SWAP3 SWAP2 POP POP JUMP JUMPDEST PUSH1 0x0 PUSH2 0x3445 PUSH1 0x0 NOT DUP5 PUSH1 0x8 MUL PUSH2 0x3427 JUMP JUMPDEST NOT DUP1 DUP4 AND SWAP2 POP POP SWAP3 SWAP2 POP POP JUMP JUMPDEST PUSH1 0x0 PUSH2 0x345E DUP4 DUP4 PUSH2 0x3434 JUMP JUMPDEST SWAP2 POP DUP3 PUSH1 0x2 MUL DUP3 OR SWAP1 POP SWAP3 SWAP2 POP POP JUMP JUMPDEST PUSH2 0x3477 DUP3 PUSH2 0x2AB7 JUMP JUMPDEST PUSH8 0xFFFFFFFFFFFFFFFF DUP2 GT ISZERO PUSH2 0x3490 JUMPI PUSH2 0x348F PUSH2 0x268F JUMP JUMPDEST JUMPDEST PUSH2 0x349A DUP3 SLOAD PUSH2 0x3291 JUMP JUMPDEST PUSH2 0x34A5 DUP3 DUP3 DUP6 PUSH2 0x33E1 JUMP JUMPDEST PUSH1 0x0 PUSH1 0x20 SWAP1 POP PUSH1 0x1F DUP4 GT PUSH1 0x1 DUP2 EQ PUSH2 0x34D8 JUMPI PUSH1 0x0 DUP5 ISZERO PUSH2 0x34C6 JUMPI DUP3 DUP8 ADD MLOAD SWAP1 POP JUMPDEST PUSH2 0x34D0 DUP6 DUP3 PUSH2 0x3452 JUMP JUMPDEST DUP7 SSTORE POP PUSH2 0x3538 JUMP JUMPDEST PUSH1 0x1F NOT DUP5 AND PUSH2 0x34E6 DUP7 PUSH2 0x32C2 JUMP JUMPDEST PUSH1 0x0 JUMPDEST DUP3 DUP2 LT ISZERO PUSH2 0x350E JUMPI DUP5 DUP10 ADD MLOAD DUP3 SSTORE PUSH1 0x1 DUP3 ADD SWAP2 POP PUSH1 0x20 DUP6 ADD SWAP5 POP PUSH1 0x20 DUP2 ADD SWAP1 POP PUSH2 0x34E9 JUMP JUMPDEST DUP7 DUP4 LT ISZERO PUSH2 0x352B JUMPI DUP5 DUP10 ADD MLOAD PUSH2 0x3527 PUSH1 0x1F DUP10 AND DUP3 PUSH2 0x3434 JUMP JUMPDEST DUP4 SSTORE POP JUMPDEST PUSH1 0x1 PUSH1 0x2 DUP9 MUL ADD DUP9 SSTORE POP POP POP JUMPDEST POP POP POP POP POP POP JUMP JUMPDEST PUSH32 0x506572696F642072657175697265640000000000000000000000000000000000 PUSH1 0x0 DUP3 ADD MSTORE POP JUMP JUMPDEST PUSH1 0x0 PUSH2 0x3576 PUSH1 0xF DUP4 PUSH2 0x3126 JUMP JUMPDEST SWAP2 POP PUSH2 0x3581 DUP3 PUSH2 0x3540 JUMP JUMPDEST PUSH1 0x20 DUP3 ADD SWAP1 POP SWAP2 SWAP1 POP JUMP JUMPDEST PUSH1 0x0 PUSH1 0x20 DUP3 ADD SWAP1 POP DUP2 DUP2 SUB PUSH1 0x0 DUP4 ADD MSTORE PUSH2 0x35A5 DUP2 PUSH2 0x3569 JUMP JUMPDEST SWAP1 POP SWAP2 SWAP1 POP JUMP JUMPDEST PUSH32 0x5265706F72742068617368207265717569726564000000000000000000000000 PUSH1 0x0 DUP3 ADD MSTORE POP JUMP JUMPDEST PUSH1 0x0 PUSH2 0x35E2 PUSH1 0x14 DUP4 PUSH2 0x3126 JUMP JUMPDEST SWAP2 POP PUSH2 0x35ED DUP3 PUSH2 0x35AC JUMP JUMPDEST PUSH1 0x20 DUP3 ADD SWAP1 POP SWAP2 SWAP1 POP JUMP JUMPDEST PUSH1 0x0 PUSH1 0x20 DUP3 ADD SWAP1 POP DUP2 DUP2 SUB PUSH1 0x0 DUP4 ADD MSTORE PUSH2 0x3611 DUP2 PUSH2 0x35D5 JUMP JUMPDEST SWAP1 POP SWAP2 SWAP1 POP JUMP JUMPDEST PUSH32 0x4E487B7100000000000000000000000000000000000000000000000000000000 PUSH1 0x0 MSTORE PUSH1 0x11 PUSH1 0x4 MSTORE PUSH1 0x24 PUSH1 0x0 REVERT JUMPDEST PUSH1 0x0 PUSH2 0x3652 DUP3 PUSH2 0x2832 JUMP JUMPDEST SWAP2 POP PUSH32 0xFFFFFFFFFFFFFFFFFFFFFFFFFFFFFFFFFFFFFFFFFFFFFFFFFFFFFFFFFFFFFFFF DUP3 SUB PUSH2 0x3684 JUMPI PUSH2 0x3683 PUSH2 0x3618 JUMP JUMPDEST JUMPDEST PUSH1 0x1 DUP3 ADD SWAP1 POP SWAP2 SWAP1 POP JUMP JUMPDEST PUSH1 0x0 PUSH2 0x369A DUP3 PUSH2 0x2AB7 JUMP JUMPDEST PUSH2 0x36A4 DUP2 DUP6 PUSH2 0x3126 JUMP JUMPDEST SWAP4 POP PUSH2 0x36B4 DUP2 DUP6 PUSH1 0x20 DUP7 ADD PUSH2 0x2AD3 JUMP JUMPDEST PUSH2 0x36BD DUP2 PUSH2 0x267E JUMP JUMPDEST DUP5 ADD SWAP2 POP POP SWAP3 SWAP2 POP POP JUMP JUMPDEST PUSH1 0x0 PUSH1 0xA0 DUP3 ADD SWAP1 POP DUP2 DUP2 SUB PUSH1 0x0 DUP4 ADD MSTORE PUSH2 0x36E2 DUP2 DUP9 PUSH2 0x368F JUMP JUMPDEST SWAP1 POP DUP2 DUP2 SUB PUSH1 0x20 DUP4 ADD MSTORE PUSH2 0x36F6 DUP2 DUP8 PUSH2 0x368F JUMP JUMPDEST SWAP1 POP PUSH2 0x3705 PUSH1 0x40 DUP4 ADD DUP7 PUSH2 0x2937 JUMP JUMPDEST PUSH2 0x3712 PUSH1 0x60 DUP4 ADD DUP6 PUSH2 0x2937 JUMP JUMPDEST PUSH2 0x371F PUSH1 0x80 DUP4 ADD DUP5 PUSH2 0x2937 JUMP JUMPDEST SWAP7 SWAP6 POP POP POP POP POP POP JUMP JUMPDEST PUSH32 0x5375626D697373696F6E206E6F7420666F756E64000000000000000000000000 PUSH1 0x0 DUP3 ADD MSTORE POP JUMP JUMPDEST PUSH1 0x0 PUSH2 0x375F PUSH1 0x14 DUP4 PUSH2 0x3126 JUMP JUMPDEST SWAP2 POP PUSH2 0x376A DUP3 PUSH2 0x3729 JUMP JUMPDEST PUSH1 0x20 DUP3 ADD SWAP1 POP SWAP2 SWAP1 POP JUMP JUMPDEST PUSH1 0x0 PUSH1 0x20 DUP3 ADD SWAP1 POP DUP2 DUP2 SUB PUSH1 0x0 DUP4 ADD MSTORE PUSH2 0x378E DUP2 PUSH2 0x3752 JUMP JUMPDEST SWAP1 POP SWAP2 SWAP1 POP JUMP JUMPDEST PUSH32 0x5374616B65686F6C646572204944207265717569726564000000000000000000 PUSH1 0x0 DUP3 ADD MSTORE POP JUMP JUMPDEST PUSH1 0x0 PUSH2 0x37CB PUSH1 0x17 DUP4 PUSH2 0x3126 JUMP JUMPDEST SWAP2 POP PUSH2 0x37D6 DUP3 PUSH2 0x3795 JUMP JUMPDEST PUSH1 0x20 DUP3 ADD SWAP1 POP SWAP2 SWAP1 POP JUMP JUMPDEST PUSH1 0x0 PUSH1 0x20 DUP3 ADD SWAP1 POP DUP2 DUP2 SUB PUSH1 0x0 DUP4 ADD MSTORE PUSH2 0x37FA DUP2 PUSH2 0x37BE JUMP JUMPDEST SWAP1 POP SWAP2 SWAP1 POP JUMP JUMPDEST PUSH32 0x526F6C6520726571756972656400000000000000000000000000000000000000 PUSH1 0x0 DUP3 ADD MSTORE POP JUMP JUMPDEST PUSH1 0x0 PUSH2 0x3837 PUSH1 0xD DUP4 PUSH2 0x3126 JUMP JUMPDEST SWAP2 POP PUSH2 0x3842 DUP3 PUSH2 0x3801 JUMP JUMPDEST PUSH1 0x20 DUP3 ADD SWAP1 POP SWAP2 SWAP1 POP JUMP JUMPDEST PUSH1 0x0 PUSH1 0x20 DUP3 ADD SWAP1 POP DUP2 DUP2 SUB PUSH1 0x0 DUP4 ADD MSTORE PUSH2 0x3866 DUP2 PUSH2 0x382A JUMP JUMPDEST SWAP1 POP SWAP2 SWAP1 POP JUMP JUMPDEST PUSH1 0x0 PUSH1 0x40 DUP3 ADD SWAP1 POP DUP2 DUP2 SUB PUSH1 0x0 DUP4 ADD MSTORE PUSH2 0x3887 DUP2 DUP6 PUSH2 0x368F JUMP JUMPDEST SWAP1 POP PUSH2 0x3896 PUSH1 0x20 DUP4 ADD DUP5 PUSH2 0x2937 JUMP JUMPDEST SWAP4 SWAP3 POP POP POP JUMP JUMPDEST PUSH32 0x5265706F7274206E6F7420666F756E6400000000000000000000000000000000 PUSH1 0x0 DUP3 ADD MSTORE POP JUMP JUMPDEST PUSH1 0x0 PUSH2 0x38D3 PUSH1 0x10 DUP4 PUSH2 0x3126 JUMP JUMPDEST SWAP2 POP PUSH2 0x38DE DUP3 PUSH2 0x389D JUMP JUMPDEST PUSH1 0x20 DUP3 ADD SWAP1 POP SWAP2 SWAP1 POP JUMP JUMPDEST PUSH1 0x0 PUSH1 0x20 DUP3 ADD SWAP1 POP DUP2 DUP2 SUB PUSH1 0x0 DUP4 ADD MSTORE PUSH2 0x3902 DUP2 PUSH2 0x38C6 JUMP JUMPDEST SWAP1 POP SWAP2 SWAP1 POP JUMP JUMPDEST PUSH32 0x436F6D70616E7920494420726571756972656400000000000000000000000000 PUSH1 0x0 DUP3 ADD MSTORE POP JUMP JUMPDEST PUSH1 0x0 PUSH2 0x393F PUSH1 0x13 DUP4 PUSH2 0x3126 JUMP JUMPDEST SWAP2 POP PUSH2 0x394A DUP3 PUSH2 0x3909 JUMP JUMPDEST PUSH1 0x20 DUP3 ADD SWAP1 POP SWAP2 SWAP1 POP JUMP JUMPDEST PUSH1 0x0 PUSH1 0x20 DUP3 ADD SWAP1 POP DUP2 DUP2 SUB PUSH1 0x0 DUP4 ADD MSTORE PUSH2 0x396E DUP2 PUSH2 0x3932 JUMP JUMPDEST SWAP1 POP SWAP2 SWAP1 POP JUMP JUMPDEST PUSH32 0x436F6D70616E7920616C72656164792065786973747300000000000000000000 PUSH1 0x0 DUP3 ADD MSTORE POP JUMP JUMPDEST PUSH1 0x0 PUSH2 0x39AB PUSH1 0x16 DUP4 PUSH2 0x3126 JUMP JUMPDEST SWAP2 POP PUSH2 0x39B6 DUP3 PUSH2 0x3975 JUMP JUMPDEST PUSH1 0x20 DUP3 ADD SWAP1 POP SWAP2 SWAP1 POP JUMP JUMPDEST PUSH1 0x0 PUSH1 0x20 DUP3 ADD SWAP1 POP DUP2 DUP2 SUB PUSH1 0x0 DUP4 ADD MSTORE PUSH2 0x39DA DUP2 PUSH2 0x399E JUMP JUMPDEST SWAP1 POP SWAP2 SWAP1 POP JUMP JUMPDEST PUSH32 0x4163746F72207265717569726564000000000000000000000000000000000000 PUSH1 0x0 DUP3 ADD MSTORE POP JUMP JUMPDEST PUSH1 0x0 PUSH2 0x3A17 PUSH1 0xE DUP4 PUSH2 0x3126 JUMP JUMPDEST SWAP2 POP PUSH2 0x3A22 DUP3 PUSH2 0x39E1 JUMP JUMPDEST PUSH1 0x20 DUP3 ADD SWAP1 POP SWAP2 SWAP1 POP JUMP JUMPDEST PUSH1 0x0 PUSH1 0x20 DUP3 ADD SWAP1 POP DUP2 DUP2 SUB PUSH1 0x0 DUP4 ADD MSTORE PUSH2 0x3A46 DUP2 PUSH2 0x3A0A JUMP JUMPDEST SWAP1 POP SWAP2 SWAP1 POP JUMP JUMPDEST PUSH32 0x4461746120686173682072657175697265640000000000000000000000000000 PUSH1 0x0 DUP3 ADD MSTORE POP JUMP JUMPDEST PUSH1 0x0 PUSH2 0x3A83 PUSH1 0x12 DUP4 PUSH2 0x3126 JUMP JUMPDEST SWAP2 POP PUSH2 0x3A8E DUP3 PUSH2 0x3A4D JUMP JUMPDEST PUSH1 0x20 DUP3 ADD SWAP1 POP SWAP2 SWAP1 POP JUMP JUMPDEST PUSH1 0x0 PUSH1 0x20 DUP3 ADD SWAP1 POP DUP2 DUP2 SUB PUSH1 0x0 DUP4 ADD MSTORE PUSH2 0x3AB2 DUP2 PUSH2 0x3A76 JUMP JUMPDEST SWAP1 POP SWAP2 SWAP1 POP JUMP JUMPDEST PUSH32 0x5374616B65686F6C646572206E6F7420617574686F72697A6564000000000000 PUSH1 0x0 DUP3 ADD MSTORE POP JUMP JUMPDEST PUSH1 0x0 PUSH2 0x3AEF PUSH1 0x1A DUP4 PUSH2 0x3126 JUMP JUMPDEST SWAP2 POP PUSH2 0x3AFA DUP3 PUSH2 0x3AB9 JUMP JUMPDEST PUSH1 0x20 DUP3 ADD SWAP1 POP SWAP2 SWAP1 POP JUMP JUMPDEST PUSH1 0x0 PUSH1 0x20 DUP3 ADD SWAP1 POP DUP2 DUP2 SUB PUSH1 0x0 DUP4 ADD MSTORE PUSH2 0x3B1E DUP2 PUSH2 0x3AE2 JUMP JUMPDEST SWAP1 POP SWAP2 SWAP1 POP JUMP JUMPDEST PUSH1 0x0 DUP2 SWAP1 POP SWAP3 SWAP2 POP POP JUMP JUMPDEST PUSH1 0x0 DUP2 SWAP1 POP DUP2 PUSH1 0x0 MSTORE PUSH1 0x20 PUSH1 0x0 KECCAK256 SWAP1 POP SWAP2 SWAP1 POP JUMP JUMPDEST PUSH1 0x0 DUP2 SLOAD PUSH2 0x3B52 DUP2 PUSH2 0x3291 JUMP JUMPDEST PUSH2 0x3B5C DUP2 DUP7 PUSH2 0x3B25 JUMP JUMPDEST SWAP5 POP PUSH1 0x1 DUP3 AND PUSH1 0x0 DUP2 EQ PUSH2 0x3B77 JUMPI PUSH1 0x1 DUP2 EQ PUSH2 0x3B8C JUMPI PUSH2 0x3BBF JUMP JUMPDEST PUSH1 0xFF NOT DUP4 AND DUP7 MSTORE DUP2 ISZERO ISZERO DUP3 MUL DUP7 ADD SWAP4 POP PUSH2 0x3BBF JUMP JUMPDEST PUSH2 0x3B95 DUP6 PUSH2 0x3B30 JUMP JUMPDEST PUSH1 0x0 JUMPDEST DUP4 DUP2 LT ISZERO PUSH2 0x3BB7 JUMPI DUP2 SLOAD DUP2 DUP10 ADD MSTORE PUSH1 0x1 DUP3 ADD SWAP2 POP PUSH1 0x20 DUP2 ADD SWAP1 POP PUSH2 0x3B98 JUMP JUMPDEST DUP4 DUP9 ADD SWAP6 POP POP POP JUMPDEST POP POP POP SWAP3 SWAP2 POP POP JUMP JUMPDEST PUSH1 0x0 PUSH2 0x3BD4 DUP3 DUP5 PUSH2 0x3B45 JUMP JUMPDEST SWAP2 POP DUP2 SWAP1 POP SWAP3 SWAP2 POP POP JUMP JUMPDEST PUSH32 0x5374616B65686F6C64657220726F6C65206D69736D6174636800000000000000 PUSH1 0x0 DUP3 ADD MSTORE POP JUMP JUMPDEST PUSH1 0x0 PUSH2 0x3C15 PUSH1 0x19 DUP4 PUSH2 0x3126 JUMP JUMPDEST SWAP2 POP PUSH2 0x3C20 DUP3 PUSH2 0x3BDF JUMP JUMPDEST PUSH1 0x20 DUP3 ADD SWAP1 POP SWAP2 SWAP1 POP JUMP JUMPDEST PUSH1 0x0 PUSH1 0x20 DUP3 ADD SWAP1 POP DUP2 DUP2 SUB PUSH1 0x0 DUP4 ADD MSTORE PUSH2 0x3C44 DUP2 PUSH2 0x3C08 JUMP JUMPDEST SWAP1 POP SWAP2 SWAP1 POP JUMP JUMPDEST PUSH1 0x0 PUSH1 0xA0 DUP3 ADD SWAP1 POP DUP2 DUP2 SUB PUSH1 0x0 DUP4 ADD MSTORE PUSH2 0x3C65 DUP2 DUP9 PUSH2 0x368F JUMP JUMPDEST SWAP1 POP DUP2 DUP2 SUB PUSH1 0x20 DUP4 ADD MSTORE PUSH2 0x3C79 DUP2 DUP8 PUSH2 0x368F JUMP JUMPDEST SWAP1 POP DUP2 DUP2 SUB PUSH1 0x40 DUP4 ADD MSTORE PUSH2 0x3C8D DUP2 DUP7 PUSH2 0x368F JUMP JUMPDEST SWAP1 POP PUSH2 0x3C9C PUSH1 0x60 DUP4 ADD DUP6 PUSH2 0x2937 JUMP JUMPDEST PUSH2 0x3CA9 PUSH1 0x80 DUP4 ADD DUP5 PUSH2 0x2937 JUMP JUMPDEST SWAP7 SWAP6 POP POP POP POP POP POP JUMP JUMPDEST PUSH32 0x4275796572204944207265717569726564000000000000000000000000000000 PUSH1 0x0 DUP3 ADD MSTORE POP JUMP JUMPDEST PUSH1 0x0 PUSH2 0x3CE9 PUSH1 0x11 DUP4 PUSH2 0x3126 JUMP JUMPDEST SWAP2 POP PUSH2 0x3CF4 DUP3 PUSH2 0x3CB3 JUMP JUMPDEST PUSH1 0x20 DUP3 ADD SWAP1 POP SWAP2 SWAP1 POP JUMP JUMPDEST PUSH1 0x0 PUSH1 0x20 DUP3 ADD SWAP1 POP DUP2 DUP2 SUB PUSH1 0x0 DUP4 ADD MSTORE PUSH2 0x3D18 DUP2 PUSH2 0x3CDC JUMP JUMPDEST SWAP1 POP SWAP2 SWAP1 POP JUMP JUMPDEST PUSH1 0x0 DUP2 SLOAD PUSH2 0x3D2C DUP2 PUSH2 0x3291 JUMP JUMPDEST PUSH2 0x3D36 DUP2 DUP7 PUSH2 0x31A3 JUMP JUMPDEST SWAP5 POP PUSH1 0x1 DUP3 AND PUSH1 0x0 DUP2 EQ PUSH2 0x3D51 JUMPI PUSH1 0x1 DUP2 EQ PUSH2 0x3D66 JUMPI PUSH2 0x3D99 JUMP JUMPDEST PUSH1 0xFF NOT DUP4 AND DUP7 MSTORE DUP2 ISZERO ISZERO DUP3 MUL DUP7 ADD SWAP4 POP PUSH2 0x3D99 JUMP JUMPDEST PUSH2 0x3D6F DUP6 PUSH2 0x32C2 JUMP JUMPDEST PUSH1 0x0 JUMPDEST DUP4 DUP2 LT ISZERO PUSH2 0x3D91 JUMPI DUP2 SLOAD DUP2 DUP10 ADD MSTORE PUSH1 0x1 DUP3 ADD SWAP2 POP PUSH1 0x20 DUP2 ADD SWAP1 POP PUSH2 0x3D72 JUMP JUMPDEST DUP4 DUP9 ADD SWAP6 POP POP POP JUMPDEST POP POP POP SWAP3 SWAP2 POP POP JUMP JUMPDEST PUSH1 0x0 PUSH2 0x3DAE DUP3 DUP5 PUSH2 0x3D1F JUMP JUMPDEST SWAP2 POP DUP2 SWAP1 POP SWAP3 SWAP2 POP POP JUMP JUMPDEST PUSH32 0x5374616B65686F6C646572206E6F7420666F756E640000000000000000000000 PUSH1 0x0 DUP3 ADD MSTORE POP JUMP JUMPDEST PUSH1 0x0 PUSH2 0x3DEF PUSH1 0x15 DUP4 PUSH2 0x3126 JUMP JUMPDEST SWAP2 POP PUSH2 0x3DFA DUP3 PUSH2 0x3DB9 JUMP JUMPDEST PUSH1 0x20 DUP3 ADD SWAP1 POP SWAP2 SWAP1 POP JUMP JUMPDEST PUSH1 0x0 PUSH1 0x20 DUP3 ADD SWAP1 POP DUP2 DUP2 SUB PUSH1 0x0 DUP4 ADD MSTORE PUSH2 0x3E1E DUP2 PUSH2 0x3DE2 JUMP JUMPDEST SWAP1 POP SWAP2 SWAP1 POP JUMP JUMPDEST PUSH32 0x5374616B65686F6C64657220616C726561647920696E61637469766500000000 PUSH1 0x0 DUP3 ADD MSTORE POP JUMP JUMPDEST PUSH1 0x0 PUSH2 0x3E5B PUSH1 0x1C DUP4 PUSH2 0x3126 JUMP JUMPDEST SWAP2 POP PUSH2 0x3E66 DUP3 PUSH2 0x3E25 JUMP JUMPDEST PUSH1 0x20 DUP3 ADD SWAP1 POP SWAP2 SWAP1 POP JUMP JUMPDEST PUSH1 0x0 PUSH1 0x20 DUP3 ADD SWAP1 POP DUP2 DUP2 SUB PUSH1 0x0 DUP4 ADD MSTORE PUSH2 0x3E8A DUP2 PUSH2 0x3E4E JUMP JUMPDEST SWAP1 POP SWAP2 SWAP1 POP JUMP INVALID LOG2 PUSH5 0x6970667358 0x22 SLT KECCAK256 0xAB CALLER 0xBF 0x1E 0xE6 EQ 0xE1 SUB SLT CALLDATASIZE SWAP5 BALANCE PUSH28 0x4DF71BE17C17A89D9605F8BE41791BF382870B64736F6C634300081C STOP CALLER "},"methodIdentifiers":{"authorizeStakeholder(string,string,string)":"45de8853","generateReport(string,string,string,uint256,uint256)":"16c3913f","getCompany(string)":"b24a4e52","getCompanyReportIds(string)":"2c10f557","getCompanySubmissionIds(string)":"ae69370b","getReport(uint256)":"4e7f9b19","getReportCount()":"cad9642b","getStakeholder(string,string)":"d00bb8b8","getStakeholderCount(string)":"cbc07993","getSubmission(uint256)":"3e8686cc","getSubmissionCount()":"9999d2ae","hasReportAccess(uint256,string)":"696fd2c1","isStakeholderAuthorized(string,string)":"fb8c3485","owner()":"8da5cb5b","purchaseReportAccess(uint256,string)":"b6c33e04","registerCompany(string,string)":"74448ba4","revokeStakeholder(string,string)":"fc7457ab","submitESGData(string,string,string,string,string,string,uint256)":"7c59a551","updateCompanyMetadata(string,string)":"0218a7ec"}}}}}