{"contracts/ESGStorage.sol":{"ESGStorage":{"abi":[{"inputs":[],"stateMutability":"nonpayable","type":"constructor"},{"anonymous":false,"inputs":[{"indexed":true,"internalType":"string","name":"companyId","type":"string"},{"indexed":false,"internalType":"string","name":"metadataHash","type":"string"},{"indexed":false,"internalType":"uint256","name":"timestamp","type":"uint256"}],"name":"CompanyRegistered","type":"event"},{"anonymous":false,"inputs":[{"indexed":true,"internalType":"uint256","name":"submissionId","type":"uint256"},{"indexed":true,"internalType":"string","name":"companyId","type":"string"},{"indexed":true,"internalType":"string","name":"stakeholderId","type":"string"},{"indexed":false,"internalType":"string","name":"actor","type":"string"},{"indexed":false,"internalType":"string","name":"period","type":"string"},{"indexed":false,"internalType":"string","name":"dataHash","type":"string"},{"indexed":false,"internalType":"uint256","name":"co2Value","type":"uint256"},{"indexed":false,"internalType":"uint256","name":"timestamp","type":"uint256"}],"name":"ESGDataSubmitted","type":"event"},{"anonymous":false,"inputs":[{"indexed":true,"internalType":"uint256","name":"reportId","type":"uint256"},{"indexed":true,"internalType":"string","name":"companyId","type":"string"},{"indexed":false,"internalType":"string","name":"period","type":"string"},{"indexed":false,"internalType":"string","name":"reportHash","type":"string"},{"indexed":false,"internalType":"uint256","name":"totalCo2Value","type":"uint256"},{"indexed":false,"internalType":"uint256","name":"score","type":"uint256"},{"indexed":false,"internalType":"uint256","name":"timestamp","type":"uint256"}],"name":"ReportGenerated","type":"event"},{"anonymous":false,"inputs":[{"indexed":true,"internalType":"uint256","name":"reportId","type":"uint256"},{"indexed":true,"internalType":"string","name":"companyId","type":"string"},{"indexed":true,"internalType":"string","name":"buyerId","type":"string"},{"indexed":false,"internalType":"uint256","name":"timestamp","type":"uint256"}],"name":"ReportPurchased","type":"event"},{"anonymous":false,"inputs":[{"indexed":true,"internalType":"string","name":"companyId","type":"string"},{"indexed":true,"internalType":"string","name":"stakeholderId","type":"string"},{"indexed":true,"internalType":"address","name":"walletAddress","type":"address"},{"indexed":false,"internalType":"string","name":"role","type":"string"},{"indexed":false,"internalType":"uint256","name":"timestamp","type":"uint256"}],"name":"StakeholderAuthorized","type":"event"},{"anonymous":false,"inputs":[{"indexed":true,"internalType":"string","name":"companyId","type":"string"},{"indexed":true,"internalType":"string","name":"stakeholderId","type":"string"},{"indexed":false,"internalType":"uint256","name":"timestamp","type":"uint256"}],"name":"StakeholderRevoked","type":"event"},{"inputs":[{"internalType":"string","name":"companyId","type":"string"},{"internalType":"string","name":"stakeholderId","type":"string"},{"internalType":"string","name":"role","type":"string"},{"internalType":"address","name":"walletAddress","type":"address"}],"name":"authorizeStakeholder","outputs":[],"stateMutability":"nonpayable","type":"function"},{"inputs":[{"internalType":"string","name":"companyId","type":"string"},{"internalType":"string","name":"period","type":"string"},{"internalType":"string","name":"reportHash","type":"string"},{"internalType":"uint256","name":"totalCo2Value","type":"uint256"},{"internalType":"uint256","name":"score","type":"uint256"}],"name":"generateReport","outputs":[{"internalType":"uint256","name":"","type":"uint256"}],"stateMutability":"nonpayable","type":"function"},{"inputs":[{"internalType":"string","name":"companyId","type":"string"}],"name":"getCompany","outputs":[{"components":[{"internalType":"string","name":"companyId","type":"string"},{"internalType":"string","name":"metadataHash","type":"string"},{"internalType":"bool","name":"exists","type":"bool"},{"internalType":"uint256","name":"createdAt","type":"uint256"}],"internalType":"struct ESGStorage.Company","name":"","type":"tuple"}],"stateMutability":"view","type":"function"},{"inputs":[{"internalType":"string","name":"companyId","type":"string"}],"name":"getCompanyReportIds","outputs":[{"internalType":"uint256[]","name":"","type":"uint256[]"}],"stateMutability":"view","type":"function"},{"inputs":[{"internalType":"string","name":"companyId","type":"string"}],"name":"getCompanySubmissionIds","outputs":[{"internalType":"uint256[]","name":"","type":"uint256[]"}],"stateMutability":"view","type":"function"},{"inputs":[{"internalType":"uint256","name":"reportId","type":"uint256"}],"name":"getReport","outputs":[{"components":[{"internalType":"uint256","name":"id","type":"uint256"},{"internalType":"string","name":"companyId","type":"string"},{"internalType":"string","name":"period","type":"string"},{"internalType":"string","name":"reportHash","type":"string"},{"internalType":"uint256","name":"totalCo2Value","type":"uint256"},{"internalType":"uint256","name":"score","type":"uint256"},{"internalType":"uint256","name":"generatedAt","type":"uint256"},{"internalType":"bool","name":"exists","type":"bool"}],"internalType":"struct ESGStorage.Report","name":"","type":"tuple"}],"stateMutability":"view","type":"function"},{"inputs":[],"name":"getReportCount","outputs":[{"internalType":"uint256","name":"","type":"uint256"}],"stateMutability":"view","type":"function"},{"inputs":[{"internalType":"string","name":"companyId","type":"string"},{"internalType":"string","name":"stakeholderId","type":"string"}],"name":"getStakeholder","outputs":[{"components":[{"internalType":"string","name":"stakeholderId","type":"string"},{"internalType":"string","name":"role","type":"string"},{"internalType":"address","name":"walletAddress","type":"address"},{"internalType":"bool","name":"active","type":"bool"},{"internalType":"uint256","name":"authorizedAt","type":"uint256"}],"internalType":"struct ESGStorage.Stakeholder","name":"","type":"tuple"}],"stateMutability":"view","type":"function"},{"inputs":[{"internalType":"string","name":"companyId","type":"string"}],"name":"getStakeholderCount","outputs":[{"internalType":"uint256","name":"","type":"uint256"}],"stateMutability":"view","type":"function"},{"inputs":[{"internalType":"uint256","name":"submissionId","type":"uint256"}],"name":"getSubmission","outputs":[{"components":[{"internalType":"uint256","name":"id","type":"uint256"},{"internalType":"string","name":"companyId","type":"string"},{"internalType":"string","name":"stakeholderId","type":"string"},{"internalType":"string","name":"stakeholderRole","type":"string"},{"internalType":"address","name":"submitterWallet","type":"address"},{"internalType":"string","name":"actor","type":"string"},{"internalType":"string","name":"period","type":"string"},{"internalType":"string","name":"dataHash","type":"string"},{"internalType":"uint256","name":"co2Value","type":"uint256"},{"internalType":"uint256","name":"timestamp","type":"uint256"}],"internalType":"struct ESGStorage.Submission","name":"","type":"tuple"}],"stateMutability":"view","type":"function"},{"inputs":[],"name":"getSubmissionCount","outputs":[{"internalType":"uint256","name":"","type":"uint256"}],"stateMutability":"view","type":"function"},{"inputs":[{"internalType":"uint256","name":"reportId","type":"uint256"},{"internalType":"string","name":"buyerId","type":"string"}],"name":"hasReportAccess","outputs":[{"internalType":"bool","name":"","type":"bool"}],"stateMutability":"view","type":"function"},{"inputs":[{"internalType":"string","name":"companyId","type":"string"},{"internalType":"string","name":"stakeholderId","type":"string"}],"name":"isStakeholderAuthorized","outputs":[{"internalType":"bool","name":"","type":"bool"}],"stateMutability":"view","type":"function"},{"inputs":[{"internalType":"string","name":"companyId","type":"string"},{"internalType":"address","name":"walletAddress","type":"address"}],"name":"isWalletAuthorized","outputs":[{"internalType":"bool","name":"","type":"bool"}],"stateMutability":"view","type":"function"},{"inputs":[],"name":"owner","outputs":[{"internalType":"address","name":"","type":"address"}],"stateMutability":"view","type":"function"},{"inputs":[{"internalType":"uint256","name":"reportId","type":"uint256"},{"internalType":"string","name":"buyerId","type":"string"}],"name":"purchaseReportAccess","outputs":[{"internalType":"bool","name":"","type":"bool"}],"stateMutability":"nonpayable","type":"function"},{"inputs":[{"internalType":"string","name":"companyId","type":"string"},{"internalType":"string","name":"metadataHash","type":"string"}],"name":"registerCompany","outputs":[],"stateMutability":"nonpayable","type":"function"},{"inputs":[{"internalType":"string","name":"companyId","type":"string"},{"internalType":"string","name":"stakeholderId","type":"string"}],"name":"revokeStakeholder","outputs":[],"stateMutability":"nonpayable","type":"function"},{"inputs":[{"internalType":"string","name":"companyId","type":"string"},{"internalType":"string","name":"stakeholderId","type":"string"},{"internalType":"string","name":"stakeholderRole","type":"string"},{"internalType":"string","name":"actor","type":"string"},{"internalType":"string","name":"period","type":"string"},{"internalType":"string","name":"dataHash","type":"string"},{"internalType":"uint256","name":"co2Value","type":"uint256"}],"name":"submitESGData","outputs":[{"internalType":"uint256","name":"","type":"uint256"}],"stateMutability":"nonpayable","type":"function"},{"inputs":[{"internalType":"string","name":"companyId","type":"string"},{"internalType":"string","name":"actor","type":"string"},{"internalType":"string","name":"period","type":"string"},{"internalType":"string","name":"dataHash","type":"string"},{"internalType":"uint256","name":"co2Value","type":"uint256"}],"name":"submitESGDataAsStakeholder","outputs":[{"internalType":"uint256","name":"","type":"uint256"}],"stateMutability":"nonpayable","type":"function"},{"inputs":[{"internalType":"string","name":"companyId","type":"string"},{"internalType":"string","name":"metadataHash","type":"string"}],"name":"updateCompanyMetadata","outputs":[],"stateMutability":"nonpayable","type":"function"}],"evm":{"bytecode":{"linkReferences":{},"object":"60a060405234801561001057600080fd5b503373ffffffffffffffffffffffffffffffffffffffff1660808173ffffffffffffffffffffffffffffffffffffffff1681525050608051614c4f610091600039600081816104a80152818161069a015281816117b2015281816119e301528181611f9b01528181611fc90152818161278a0152612d330152614c4f6000f3fe608060405234801561001057600080fd5b50600436106101375760003560e01c80638da5cb5b116100b8578063b6c33e041161007c578063b6c33e04146103ac578063cad9642b146103dc578063cbc07993146103fa578063d00bb8b81461042a578063fb8c34851461045a578063fc7457ab1461048a57610137565b80638da5cb5b146102f45780639999d2ae14610312578063a0d05fa114610330578063ae69370b1461034c578063b24a4e521461037c57610137565b80634c74f74e116100ff5780634c74f74e146102185780634e7f9b1914610248578063696fd2c11461027857806374448ba4146102a85780637c59a551146102c457610137565b80630218a7ec1461013c5780630e4ff8d01461015857806316c3913f146101885780632c10f557146101b85780633e8686cc146101e8575b600080fd5b610156600480360381019061015191906132ac565b6104a6565b005b610172600480360381019061016d9190613382565b6105d7565b60405161017f91906133f9565b60405180910390f35b6101a2600480360381019061019d919061344a565b610696565b6040516101af9190613528565b60405180910390f35b6101d260048036038101906101cd9190613543565b6109be565b6040516101df919061364a565b60405180910390f35b61020260048036038101906101fd919061366c565b610aa4565b60405161020f9190613824565b60405180910390f35b610232600480360381019061022d9190613846565b610ef6565b60405161023f9190613528565b60405180910390f35b610262600480360381019061025d919061366c565b6114b0565b60405161026f91906139fe565b60405180910390f35b610292600480360381019061028d9190613a20565b61173a565b60405161029f91906133f9565b60405180910390f35b6102c260048036038101906102bd91906132ac565b6117b0565b005b6102de60048036038101906102d99190613a7c565b6119df565b6040516102eb9190613528565b60405180910390f35b6102fc611f99565b6040516103099190613bd5565b60405180910390f35b61031a611fbd565b6040516103279190613528565b60405180910390f35b61034a60048036038101906103459190613bf0565b611fc7565b005b61036660048036038101906103619190613543565b6124af565b604051610373919061364a565b60405180910390f35b61039660048036038101906103919190613543565b612595565b6040516103a39190613d15565b60405180910390f35b6103c660048036038101906103c19190613a20565b612786565b6040516103d391906133f9565b60405180910390f35b6103e461298b565b6040516103f19190613528565b60405180910390f35b610414600480360381019061040f9190613543565b612995565b6040516104219190613528565b60405180910390f35b610444600480360381019061043f91906132ac565b612a30565b6040516104519190613db4565b60405180910390f35b610474600480360381019061046f91906132ac565b612cdf565b60405161048191906133f9565b60405180910390f35b6104a4600480360381019061049f91906132ac565b612d31565b005b7f000000000000000000000000000000000000000000000000000000000000000073ffffffffffffffffffffffffffffffffffffffff163373ffffffffffffffffffffffffffffffffffffffff1614610534576040517f08c379a000000000000000000000000000000000000000000000000000000000815260040161052b90613e33565b60405180910390fd5b816000816040516105459190613e8f565b908152602001604051809103902060020160009054906101000a900460ff166105a3576040517f08c379a000000000000000000000000000000000000000000000000000000000815260040161059a90613ef2565b60405180910390fd5b816000846040516105b49190613e8f565b908152602001604051809103902060010190816105d1919061411e565b50505050565b6000806003846040516105ea9190613e8f565b908152602001604051809103902060008473ffffffffffffffffffffffffffffffffffffffff1673ffffffffffffffffffffffffffffffffffffffff1681526020019081526020016000205490506000801b810361064c576000915050610690565b60028460405161065c9190613e8f565b9081526020016040518091039020600082815260200190815260200160002060020160149054906101000a900460ff169150505b92915050565b60007f000000000000000000000000000000000000000000000000000000000000000073ffffffffffffffffffffffffffffffffffffffff163373ffffffffffffffffffffffffffffffffffffffff1614610726576040517f08c379a000000000000000000000000000000000000000000000000000000000815260040161071d90613e33565b60405180910390fd5b856000816040516107379190613e8f565b908152602001604051809103902060020160009054906101000a900460ff16610795576040517f08c379a000000000000000000000000000000000000000000000000000000000815260040161078c90613ef2565b60405180910390fd5b60008651116107d9576040517f08c379a00000000000000000000000000000000000000000000000000000000081526004016107d09061423c565b60405180910390fd5b600085511161081d576040517f08c379a0000000000000000000000000000000000000000000000000000000008152600401610814906142a8565b60405180910390fd5b6000600a6000815480929190610832906142f7565b91905055905060405180610100016040528082815260200189815260200188815260200187815260200186815260200185815260200142815260200160011515815250600860008381526020019081526020016000206000820151816000015560208201518160010190816108a7919061411e565b5060408201518160020190816108bd919061411e565b5060608201518160030190816108d3919061411e565b506080820151816004015560a0820151816005015560c0820151816006015560e08201518160070160006101000a81548160ff0219169083151502179055509050506007886040516109259190613e8f565b9081526020016040518091039020819080600181540180825580915050600190039060005260206000200160009091909190915055876040516109689190613e8f565b6040518091039020817ff6b8c3ee718b848994733f1ead2f3f0b4b54ccbb772af4009edc8cfe95cd299a89898989426040516109a8959493929190614378565b60405180910390a3809250505095945050505050565b6060816000816040516109d19190613e8f565b908152602001604051809103902060020160009054906101000a900460ff16610a2f576040517f08c379a0000000000000000000000000000000000000000000000000000000008152600401610a2690613ef2565b60405180910390fd5b600783604051610a3f9190613e8f565b9081526020016040518091039020805480602002602001604051908101604052809291908181526020018280548015610a9757602002820191906000526020600020905b815481526020019060010190808311610a83575b5050505050915050919050565b610aac613031565b6009548210610af0576040517f08c379a0000000000000000000000000000000000000000000000000000000008152600401610ae790614425565b60405180910390fd5b600560008381526020019081526020016000206040518061014001604052908160008201548152602001600182018054610b2990613f41565b80601f0160208091040260200160405190810160405280929190818152602001828054610b5590613f41565b8015610ba25780601f10610b7757610100808354040283529160200191610ba2565b820191906000526020600020905b815481529060010190602001808311610b8557829003601f168201915b50505050508152602001600282018054610bbb90613f41565b80601f0160208091040260200160405190810160405280929190818152602001828054610be790613f41565b8015610c345780601f10610c0957610100808354040283529160200191610c34565b820191906000526020600020905b815481529060010190602001808311610c1757829003601f168201915b50505050508152602001600382018054610c4d90613f41565b80601f0160208091040260200160405190810160405280929190818152602001828054610c7990613f41565b8015610cc65780601f10610c9b57610100808354040283529160200191610cc6565b820191906000526020600020905b815481529060010190602001808311610ca957829003601f168201915b505050505081526020016004820160009054906101000a900473ffffffffffffffffffffffffffffffffffffffff1673ffffffffffffffffffffffffffffffffffffffff1673ffffffffffffffffffffffffffffffffffffffff168152602001600582018054610d3590613f41565b80601f0160208091040260200160405190810160405280929190818152602001828054610d6190613f41565b8015610dae5780601f10610d8357610100808354040283529160200191610dae565b820191906000526020600020905b815481529060010190602001808311610d9157829003601f168201915b50505050508152602001600682018054610dc790613f41565b80601f0160208091040260200160405190810160405280929190818152602001828054610df390613f41565b8015610e405780601f10610e1557610100808354040283529160200191610e40565b820191906000526020600020905b815481529060010190602001808311610e2357829003601f168201915b50505050508152602001600782018054610e5990613f41565b80601f0160208091040260200160405190810160405280929190818152602001828054610e8590613f41565b8015610ed25780601f10610ea757610100808354040283529160200191610ed2565b820191906000526020600020905b815481529060010190602001808311610eb557829003601f168201915b50505050508152602001600882015481526020016009820154815250509050919050565b600085600081604051610f099190613e8f565b908152602001604051809103902060020160009054906101000a900460ff16610f67576040517f08c379a0000000000000000000000000000000000000000000000000000000008152600401610f5e90613ef2565b60405180910390fd5b6000865111610fab576040517f08c379a0000000000000000000000000000000000000000000000000000000008152600401610fa290614491565b60405180910390fd5b6000855111610fef576040517f08c379a0000000000000000000000000000000000000000000000000000000008152600401610fe69061423c565b60405180910390fd5b6000845111611033576040517f08c379a000000000000000000000000000000000000000000000000000000000815260040161102a906144fd565b60405180910390fd5b60006003886040516110459190613e8f565b908152602001604051809103902060003373ffffffffffffffffffffffffffffffffffffffff1673ffffffffffffffffffffffffffffffffffffffff1681526020019081526020016000205490506000801b81036110d8576040517f08c379a00000000000000000000000000000000000000000000000000000000081526004016110cf90614569565b60405180910390fd5b60006002896040516110ea9190613e8f565b9081526020016040518091039020600083815260200190815260200160002090508060020160149054906101000a900460ff1661115c576040517f08c379a0000000000000000000000000000000000000000000000000000000008152600401611153906145d5565b60405180910390fd5b600060096000815480929190611171906142f7565b9190505590506040518061014001604052808281526020018b815260200183600001805461119e90613f41565b80601f01602080910402602001604051908101604052809291908181526020018280546111ca90613f41565b80156112175780601f106111ec57610100808354040283529160200191611217565b820191906000526020600020905b8154815290600101906020018083116111fa57829003601f168201915b5050505050815260200183600101805461123090613f41565b80601f016020809104026020016040519081016040528092919081815260200182805461125c90613f41565b80156112a95780601f1061127e576101008083540402835291602001916112a9565b820191906000526020600020905b81548152906001019060200180831161128c57829003601f168201915b505050505081526020013373ffffffffffffffffffffffffffffffffffffffff1681526020018a8152602001898152602001888152602001878152602001428152506005600083815260200190815260200160002060008201518160000155602082015181600101908161131d919061411e565b506040820151816002019081611333919061411e565b506060820151816003019081611349919061411e565b5060808201518160040160006101000a81548173ffffffffffffffffffffffffffffffffffffffff021916908373ffffffffffffffffffffffffffffffffffffffff16021790555060a08201518160050190816113a6919061411e565b5060c08201518160060190816113bc919061411e565b5060e08201518160070190816113d2919061411e565b506101008201518160080155610120820151816009015590505060048a6040516113fc9190613e8f565b9081526020016040518091039020819080600181540180825580915050600190039060005260206000200160009091909190915055816000016040516114429190614678565b60405180910390208a6040516114589190613e8f565b6040518091039020827fdede3af022c0c1182f1be40127babcdf6f8db18866d079873f2a7c29d3b8ef6a8c8c8c8c4260405161149895949392919061468f565b60405180910390a48094505050505095945050505050565b6114b861309a565b6008600083815260200190815260200160002060070160009054906101000a900460ff1661151b576040517f08c379a000000000000000000000000000000000000000000000000000000000815260040161151290614743565b60405180910390fd5b60086000838152602001908152602001600020604051806101000160405290816000820154815260200160018201805461155490613f41565b80601f016020809104026020016040519081016040528092919081815260200182805461158090613f41565b80156115cd5780601f106115a2576101008083540402835291602001916115cd565b820191906000526020600020905b8154815290600101906020018083116115b057829003601f168201915b505050505081526020016002820180546115e690613f41565b80601f016020809104026020016040519081016040528092919081815260200182805461161290613f41565b801561165f5780601f106116345761010080835404028352916020019161165f565b820191906000526020600020905b81548152906001019060200180831161164257829003601f168201915b5050505050815260200160038201805461167890613f41565b80601f01602080910402602001604051908101604052809291908181526020018280546116a490613f41565b80156116f15780601f106116c6576101008083540402835291602001916116f1565b820191906000526020600020905b8154815290600101906020018083116116d457829003601f168201915b505050505081526020016004820154815260200160058201548152602001600682015481526020016007820160009054906101000a900460ff1615151515815250509050919050565b60006008600084815260200190815260200160002060070160009054906101000a900460ff1661176d57600090506117aa565b60066000848152602001908152602001600020600061178b84613020565b815260200190815260200160002060009054906101000a900460ff1690505b92915050565b7f000000000000000000000000000000000000000000000000000000000000000073ffffffffffffffffffffffffffffffffffffffff163373ffffffffffffffffffffffffffffffffffffffff161461183e576040517f08c379a000000000000000000000000000000000000000000000000000000000815260040161183590613e33565b60405180910390fd5b6000825111611882576040517f08c379a0000000000000000000000000000000000000000000000000000000008152600401611879906147af565b60405180910390fd5b6000826040516118929190613e8f565b908152602001604051809103902060020160009054906101000a900460ff16156118f1576040517f08c379a00000000000000000000000000000000000000000000000000000000081526004016118e89061481b565b60405180910390fd5b6040518060800160405280838152602001828152602001600115158152602001428152506000836040516119259190613e8f565b90815260200160405180910390206000820151816000019081611948919061411e565b50602082015181600101908161195e919061411e565b5060408201518160020160006101000a81548160ff021916908315150217905550606082015181600301559050508160405161199a9190613e8f565b60405180910390207f7a5b6c3b56f3fd96c4145e8d16588d8853fbcfbbca80a8209817253e3d3b32f382426040516119d392919061483b565b60405180910390a25050565b60007f000000000000000000000000000000000000000000000000000000000000000073ffffffffffffffffffffffffffffffffffffffff163373ffffffffffffffffffffffffffffffffffffffff1614611a6f576040517f08c379a0000000000000000000000000000000000000000000000000000000008152600401611a6690613e33565b60405180910390fd5b87600081604051611a809190613e8f565b908152602001604051809103902060020160009054906101000a900460ff16611ade576040517f08c379a0000000000000000000000000000000000000000000000000000000008152600401611ad590613ef2565b60405180910390fd5b6000865111611b22576040517f08c379a0000000000000000000000000000000000000000000000000000000008152600401611b1990614491565b60405180910390fd5b6000855111611b66576040517f08c379a0000000000000000000000000000000000000000000000000000000008152600401611b5d9061423c565b60405180910390fd5b6000845111611baa576040517f08c379a0000000000000000000000000000000000000000000000000000000008152600401611ba1906144fd565b60405180910390fd5b6000611bb589613020565b9050600060028b604051611bc99190613e8f565b9081526020016040518091039020600083815260200190815260200160002090508060020160149054906101000a900460ff16611c3b576040517f08c379a0000000000000000000000000000000000000000000000000000000008152600401611c32906145d5565b60405180910390fd5b6000895103611cd857806001018054611c5390613f41565b80601f0160208091040260200160405190810160405280929190818152602001828054611c7f90613f41565b8015611ccc5780601f10611ca157610100808354040283529160200191611ccc565b820191906000526020600020905b815481529060010190602001808311611caf57829003601f168201915b50505050509850611d3a565b888051906020012081600101604051611cf1919061490e565b604051809103902014611d39576040517f08c379a0000000000000000000000000000000000000000000000000000000008152600401611d3090614971565b60405180910390fd5b5b600060096000815480929190611d4f906142f7565b9190505590506040518061014001604052808281526020018d81526020018c81526020018b81526020018360020160009054906101000a900473ffffffffffffffffffffffffffffffffffffffff1673ffffffffffffffffffffffffffffffffffffffff1681526020018a81526020018981526020018881526020018781526020014281525060056000838152602001908152602001600020600082015181600001556020820151816001019081611e07919061411e565b506040820151816002019081611e1d919061411e565b506060820151816003019081611e33919061411e565b5060808201518160040160006101000a81548173ffffffffffffffffffffffffffffffffffffffff021916908373ffffffffffffffffffffffffffffffffffffffff16021790555060a0820151816005019081611e90919061411e565b5060c0820151816006019081611ea6919061411e565b5060e0820151816007019081611ebc919061411e565b506101008201518160080155610120820151816009015590505060048c604051611ee69190613e8f565b90815260200160405180910390208190806001815401808255809150506001900390600052602060002001600090919091909150558a604051611f299190613e8f565b60405180910390208c604051611f3f9190613e8f565b6040518091039020827fdede3af022c0c1182f1be40127babcdf6f8db18866d079873f2a7c29d3b8ef6a8c8c8c8c42604051611f7f95949392919061468f565b60405180910390a480945050505050979650505050505050565b7f000000000000000000000000000000000000000000000000000000000000000081565b6000600954905090565b7f000000000000000000000000000000000000000000000000000000000000000073ffffffffffffffffffffffffffffffffffffffff163373ffffffffffffffffffffffffffffffffffffffff1614612055576040517f08c379a000000000000000000000000000000000000000000000000000000000815260040161204c90613e33565b60405180910390fd5b836000816040516120669190613e8f565b908152602001604051809103902060020160009054906101000a900460ff166120c4576040517f08c379a00000000000000000000000000000000000000000000000000000000081526004016120bb90613ef2565b60405180910390fd5b6000845111612108576040517f08c379a00000000000000000000000000000000000000000000000000000000081526004016120ff906149dd565b60405180910390fd5b600083511161214c576040517f08c379a000000000000000000000000000000000000000000000000000000000815260040161214390614a49565b60405180910390fd5b600073ffffffffffffffffffffffffffffffffffffffff168273ffffffffffffffffffffffffffffffffffffffff16036121bb576040517f08c379a00000000000000000000000000000000000000000000000000000000081526004016121b290614ab5565b60405180910390fd5b60006121c685613020565b905060006002876040516121da9190613e8f565b908152602001604051809103902060008381526020019081526020016000209050600081600001805461220c90613f41565b90500361225d576001876040516122239190613e8f565b908152602001604051809103902082908060018154018082558091505060019003906000526020600020016000909190919091505561233d565b8373ffffffffffffffffffffffffffffffffffffffff168160020160009054906101000a900473ffffffffffffffffffffffffffffffffffffffff1673ffffffffffffffffffffffffffffffffffffffff161461233c576000801b6003886040516122c89190613e8f565b908152602001604051809103902060008360020160009054906101000a900473ffffffffffffffffffffffffffffffffffffffff1673ffffffffffffffffffffffffffffffffffffffff1673ffffffffffffffffffffffffffffffffffffffff168152602001908152602001600020819055505b5b8581600001908161234e919061411e565b5084816001019081612360919061411e565b50838160020160006101000a81548173ffffffffffffffffffffffffffffffffffffffff021916908373ffffffffffffffffffffffffffffffffffffffff16021790555060018160020160146101000a81548160ff021916908315150217905550428160030181905550816003886040516123db9190613e8f565b908152602001604051809103902060008673ffffffffffffffffffffffffffffffffffffffff1673ffffffffffffffffffffffffffffffffffffffff168152602001908152602001600020819055508373ffffffffffffffffffffffffffffffffffffffff168660405161244f9190613e8f565b6040518091039020886040516124659190613e8f565b60405180910390207f7f32e1de1c19ad349406ebb07f08dcf4ff3a5bd591b0ef876773cf26f5c11c40884260405161249e92919061483b565b60405180910390a450505050505050565b6060816000816040516124c29190613e8f565b908152602001604051809103902060020160009054906101000a900460ff16612520576040517f08c379a000000000000000000000000000000000000000000000000000000000815260040161251790613ef2565b60405180910390fd5b6004836040516125309190613e8f565b908152602001604051809103902080548060200260200160405190810160405280929190818152602001828054801561258857602002820191906000526020600020905b815481526020019060010190808311612574575b5050505050915050919050565b61259d6130e1565b816000816040516125ae9190613e8f565b908152602001604051809103902060020160009054906101000a900460ff1661260c576040517f08c379a000000000000000000000000000000000000000000000000000000000815260040161260390613ef2565b60405180910390fd5b60008360405161261c9190613e8f565b908152602001604051809103902060405180608001604052908160008201805461264590613f41565b80601f016020809104026020016040519081016040528092919081815260200182805461267190613f41565b80156126be5780601f10612693576101008083540402835291602001916126be565b820191906000526020600020905b8154815290600101906020018083116126a157829003601f168201915b505050505081526020016001820180546126d790613f41565b80601f016020809104026020016040519081016040528092919081815260200182805461270390613f41565b80156127505780601f1061272557610100808354040283529160200191612750565b820191906000526020600020905b81548152906001019060200180831161273357829003601f168201915b505050505081526020016002820160009054906101000a900460ff16151515158152602001600382015481525050915050919050565b60007f000000000000000000000000000000000000000000000000000000000000000073ffffffffffffffffffffffffffffffffffffffff163373ffffffffffffffffffffffffffffffffffffffff1614612816576040517f08c379a000000000000000000000000000000000000000000000000000000000815260040161280d90613e33565b60405180910390fd5b6008600084815260200190815260200160002060070160009054906101000a900460ff16612879576040517f08c379a000000000000000000000000000000000000000000000000000000000815260040161287090614743565b60405180910390fd5b60008251116128bd576040517f08c379a00000000000000000000000000000000000000000000000000000000081526004016128b490614b21565b60405180910390fd5b60006128c883613020565b9050600160066000868152602001908152602001600020600083815260200190815260200160002060006101000a81548160ff021916908315150217905550826040516129159190613e8f565b6040518091039020600860008681526020019081526020016000206001016040516129409190614678565b6040518091039020857f3dc871a421b0de3bcb519220d648f02efbb6807744382f02d4d4d22e660ad783426040516129789190613528565b60405180910390a4600191505092915050565b6000600a54905090565b6000816000816040516129a89190613e8f565b908152602001604051809103902060020160009054906101000a900460ff16612a06576040517f08c379a00000000000000000000000000000000000000000000000000000000081526004016129fd90613ef2565b60405180910390fd5b600183604051612a169190613e8f565b908152602001604051809103902080549050915050919050565b612a3861310b565b82600081604051612a499190613e8f565b908152602001604051809103902060020160009054906101000a900460ff16612aa7576040517f08c379a0000000000000000000000000000000000000000000000000000000008152600401612a9e90613ef2565b60405180910390fd5b6000600285604051612ab99190613e8f565b90815260200160405180910390206000612ad286613020565b81526020019081526020016000206040518060a0016040529081600082018054612afb90613f41565b80601f0160208091040260200160405190810160405280929190818152602001828054612b2790613f41565b8015612b745780601f10612b4957610100808354040283529160200191612b74565b820191906000526020600020905b815481529060010190602001808311612b5757829003601f168201915b50505050508152602001600182018054612b8d90613f41565b80601f0160208091040260200160405190810160405280929190818152602001828054612bb990613f41565b8015612c065780601f10612bdb57610100808354040283529160200191612c06565b820191906000526020600020905b815481529060010190602001808311612be957829003601f168201915b505050505081526020016002820160009054906101000a900473ffffffffffffffffffffffffffffffffffffffff1673ffffffffffffffffffffffffffffffffffffffff1673ffffffffffffffffffffffffffffffffffffffff1681526020016002820160149054906101000a900460ff161515151581526020016003820154815250509050600081600001515111612cd4576040517f08c379a0000000000000000000000000000000000000000000000000000000008152600401612ccb90614b8d565b60405180910390fd5b809250505092915050565b6000600283604051612cf19190613e8f565b90815260200160405180910390206000612d0a84613020565b815260200190815260200160002060020160149054906101000a900460ff16905092915050565b7f000000000000000000000000000000000000000000000000000000000000000073ffffffffffffffffffffffffffffffffffffffff163373ffffffffffffffffffffffffffffffffffffffff1614612dbf576040517f08c379a0000000000000000000000000000000000000000000000000000000008152600401612db690613e33565b60405180910390fd5b81600081604051612dd09190613e8f565b908152602001604051809103902060020160009054906101000a900460ff16612e2e576040517f08c379a0000000000000000000000000000000000000000000000000000000008152600401612e2590613ef2565b60405180910390fd5b6000612e3983613020565b90506000600285604051612e4d9190613e8f565b9081526020016040518091039020600083815260200190815260200160002090506000816000018054612e7f90613f41565b905011612ec1576040517f08c379a0000000000000000000000000000000000000000000000000000000008152600401612eb890614b8d565b60405180910390fd5b8060020160149054906101000a900460ff16612f12576040517f08c379a0000000000000000000000000000000000000000000000000000000008152600401612f0990614bf9565b60405180910390fd5b6000801b600386604051612f269190613e8f565b908152602001604051809103902060008360020160009054906101000a900473ffffffffffffffffffffffffffffffffffffffff1673ffffffffffffffffffffffffffffffffffffffff1673ffffffffffffffffffffffffffffffffffffffff1681526020019081526020016000208190555060008160020160146101000a81548160ff02191690831515021790555083604051612fc49190613e8f565b604051809103902085604051612fda9190613e8f565b60405180910390207f7e0c731807253762ad5c300dc71e21e154e6b5492f7a864d0eb74dd6902b000e426040516130119190613528565b60405180910390a35050505050565b600081805190602001209050919050565b60405180610140016040528060008152602001606081526020016060815260200160608152602001600073ffffffffffffffffffffffffffffffffffffffff16815260200160608152602001606081526020016060815260200160008152602001600081525090565b604051806101000160405280600081526020016060815260200160608152602001606081526020016000815260200160008152602001600081526020016000151581525090565b60405180608001604052806060815260200160608152602001600015158152602001600081525090565b6040518060a001604052806060815260200160608152602001600073ffffffffffffffffffffffffffffffffffffffff168152602001600015158152602001600081525090565b6000604051905090565b600080fd5b600080fd5b600080fd5b600080fd5b6000601f19601f8301169050919050565b7f4e487b7100000000000000000000000000000000000000000000000000000000600052604160045260246000fd5b6131b982613170565b810181811067ffffffffffffffff821117156131d8576131d7613181565b5b80604052505050565b60006131eb613152565b90506131f782826131b0565b919050565b600067ffffffffffffffff82111561321757613216613181565b5b61322082613170565b9050602081019050919050565b82818337600083830152505050565b600061324f61324a846131fc565b6131e1565b90508281526020810184848401111561326b5761326a61316b565b5b61327684828561322d565b509392505050565b600082601f83011261329357613292613166565b5b81356132a384826020860161323c565b91505092915050565b600080604083850312156132c3576132c261315c565b5b600083013567ffffffffffffffff8111156132e1576132e0613161565b5b6132ed8582860161327e565b925050602083013567ffffffffffffffff81111561330e5761330d613161565b5b61331a8582860161327e565b9150509250929050565b600073ffffffffffffffffffffffffffffffffffffffff82169050919050565b600061334f82613324565b9050919050565b61335f81613344565b811461336a57600080fd5b50565b60008135905061337c81613356565b92915050565b600080604083850312156133995761339861315c565b5b600083013567ffffffffffffffff8111156133b7576133b6613161565b5b6133c38582860161327e565b92505060206133d48582860161336d565b9150509250929050565b60008115159050919050565b6133f3816133de565b82525050565b600060208201905061340e60008301846133ea565b92915050565b6000819050919050565b61342781613414565b811461343257600080fd5b50565b6000813590506134448161341e565b92915050565b600080600080600060a086880312156134665761346561315c565b5b600086013567ffffffffffffffff81111561348457613483613161565b5b6134908882890161327e565b955050602086013567ffffffffffffffff8111156134b1576134b0613161565b5b6134bd8882890161327e565b945050604086013567ffffffffffffffff8111156134de576134dd613161565b5b6134ea8882890161327e565b93505060606134fb88828901613435565b925050608061350c88828901613435565b9150509295509295909350565b61352281613414565b82525050565b600060208201905061353d6000830184613519565b92915050565b6000602082840312156135595761355861315c565b5b600082013567ffffffffffffffff81111561357757613576613161565b5b6135838482850161327e565b91505092915050565b600081519050919050565b600082825260208201905092915050565b6000819050602082019050919050565b6135c181613414565b82525050565b60006135d383836135b8565b60208301905092915050565b6000602082019050919050565b60006135f78261358c565b6136018185613597565b935061360c836135a8565b8060005b8381101561363d57815161362488826135c7565b975061362f836135df565b925050600181019050613610565b5085935050505092915050565b6000602082019050818103600083015261366481846135ec565b905092915050565b6000602082840312156136825761368161315c565b5b600061369084828501613435565b91505092915050565b600081519050919050565b600082825260208201905092915050565b60005b838110156136d35780820151818401526020810190506136b8565b60008484015250505050565b60006136ea82613699565b6136f481856136a4565b93506137048185602086016136b5565b61370d81613170565b840191505092915050565b61372181613344565b82525050565b60006101408301600083015161374060008601826135b8565b506020830151848203602086015261375882826136df565b9150506040830151848203604086015261377282826136df565b9150506060830151848203606086015261378c82826136df565b91505060808301516137a16080860182613718565b5060a083015184820360a08601526137b982826136df565b91505060c083015184820360c08601526137d382826136df565b91505060e083015184820360e08601526137ed82826136df565b9150506101008301516138046101008601826135b8565b506101208301516138196101208601826135b8565b508091505092915050565b6000602082019050818103600083015261383e8184613727565b905092915050565b600080600080600060a086880312156138625761386161315c565b5b600086013567ffffffffffffffff8111156138805761387f613161565b5b61388c8882890161327e565b955050602086013567ffffffffffffffff8111156138ad576138ac613161565b5b6138b98882890161327e565b945050604086013567ffffffffffffffff8111156138da576138d9613161565b5b6138e68882890161327e565b935050606086013567ffffffffffffffff81111561390757613906613161565b5b6139138882890161327e565b925050608061392488828901613435565b9150509295509295909350565b61393a816133de565b82525050565b60006101008301600083015161395960008601826135b8565b506020830151848203602086015261397182826136df565b9150506040830151848203604086015261398b82826136df565b915050606083015184820360608601526139a582826136df565b91505060808301516139ba60808601826135b8565b5060a08301516139cd60a08601826135b8565b5060c08301516139e060c08601826135b8565b5060e08301516139f360e0860182613931565b508091505092915050565b60006020820190508181036000830152613a188184613940565b905092915050565b60008060408385031215613a3757613a3661315c565b5b6000613a4585828601613435565b925050602083013567ffffffffffffffff811115613a6657613a65613161565b5b613a728582860161327e565b9150509250929050565b600080600080600080600060e0888a031215613a9b57613a9a61315c565b5b600088013567ffffffffffffffff811115613ab957613ab8613161565b5b613ac58a828b0161327e565b975050602088013567ffffffffffffffff811115613ae657613ae5613161565b5b613af28a828b0161327e565b965050604088013567ffffffffffffffff811115613b1357613b12613161565b5b613b1f8a828b0161327e565b955050606088013567ffffffffffffffff811115613b4057613b3f613161565b5b613b4c8a828b0161327e565b945050608088013567ffffffffffffffff811115613b6d57613b6c613161565b5b613b798a828b0161327e565b93505060a088013567ffffffffffffffff811115613b9a57613b99613161565b5b613ba68a828b0161327e565b92505060c0613bb78a828b01613435565b91505092959891949750929550565b613bcf81613344565b82525050565b6000602082019050613bea6000830184613bc6565b92915050565b60008060008060808587031215613c0a57613c0961315c565b5b600085013567ffffffffffffffff811115613c2857613c27613161565b5b613c348782880161327e565b945050602085013567ffffffffffffffff811115613c5557613c54613161565b5b613c618782880161327e565b935050604085013567ffffffffffffffff811115613c8257613c81613161565b5b613c8e8782880161327e565b9250506060613c9f8782880161336d565b91505092959194509250565b60006080830160008301518482036000860152613cc882826136df565b91505060208301518482036020860152613ce282826136df565b9150506040830151613cf76040860182613931565b506060830151613d0a60608601826135b8565b508091505092915050565b60006020820190508181036000830152613d2f8184613cab565b905092915050565b600060a0830160008301518482036000860152613d5482826136df565b91505060208301518482036020860152613d6e82826136df565b9150506040830151613d836040860182613718565b506060830151613d966060860182613931565b506080830151613da960808601826135b8565b508091505092915050565b60006020820190508181036000830152613dce8184613d37565b905092915050565b600082825260208201905092915050565b7f4f6e6c79206f776e657200000000000000000000000000000000000000000000600082015250565b6000613e1d600a83613dd6565b9150613e2882613de7565b602082019050919050565b60006020820190508181036000830152613e4c81613e10565b9050919050565b600081905092915050565b6000613e6982613699565b613e738185613e53565b9350613e838185602086016136b5565b80840191505092915050565b6000613e9b8284613e5e565b915081905092915050565b7f436f6d70616e79206e6f7420666f756e64000000000000000000000000000000600082015250565b6000613edc601183613dd6565b9150613ee782613ea6565b602082019050919050565b60006020820190508181036000830152613f0b81613ecf565b9050919050565b7f4e487b7100000000000000000000000000000000000000000000000000000000600052602260045260246000fd5b60006002820490506001821680613f5957607f821691505b602082108103613f6c57613f6b613f12565b5b50919050565b60008190508160005260206000209050919050565b60006020601f8301049050919050565b600082821b905092915050565b600060088302613fd47fffffffffffffffffffffffffffffffffffffffffffffffffffffffffffffffff82613f97565b613fde8683613f97565b95508019841693508086168417925050509392505050565b6000819050919050565b600061401b61401661401184613414565b613ff6565b613414565b9050919050565b6000819050919050565b61403583614000565b61404961404182614022565b848454613fa4565b825550505050565b600090565b61405e614051565b61406981848461402c565b505050565b5b8181101561408d57614082600082614056565b60018101905061406f565b5050565b601f8211156140d2576140a381613f72565b6140ac84613f87565b810160208510156140bb578190505b6140cf6140c785613f87565b83018261406e565b50505b505050565b600082821c905092915050565b60006140f5600019846008026140d7565b1980831691505092915050565b600061410e83836140e4565b9150826002028217905092915050565b61412782613699565b67ffffffffffffffff8111156141405761413f613181565b5b61414a8254613f41565b614155828285614091565b600060209050601f8311600181146141885760008415614176578287015190505b6141808582614102565b8655506141e8565b601f19841661419686613f72565b60005b828110156141be57848901518255600182019150602085019450602081019050614199565b868310156141db57848901516141d7601f8916826140e4565b8355505b6001600288020188555050505b505050505050565b7f506572696f642072657175697265640000000000000000000000000000000000600082015250565b6000614226600f83613dd6565b9150614231826141f0565b602082019050919050565b6000602082019050818103600083015261425581614219565b9050919050565b7f5265706f72742068617368207265717569726564000000000000000000000000600082015250565b6000614292601483613dd6565b915061429d8261425c565b602082019050919050565b600060208201905081810360008301526142c181614285565b9050919050565b7f4e487b7100000000000000000000000000000000000000000000000000000000600052601160045260246000fd5b600061430282613414565b91507fffffffffffffffffffffffffffffffffffffffffffffffffffffffffffffffff8203614334576143336142c8565b5b600182019050919050565b600061434a82613699565b6143548185613dd6565b93506143648185602086016136b5565b61436d81613170565b840191505092915050565b600060a0820190508181036000830152614392818861433f565b905081810360208301526143a6818761433f565b90506143b56040830186613519565b6143c26060830185613519565b6143cf6080830184613519565b9695505050505050565b7f5375626d697373696f6e206e6f7420666f756e64000000000000000000000000600082015250565b600061440f601483613dd6565b915061441a826143d9565b602082019050919050565b6000602082019050818103600083015261443e81614402565b9050919050565b7f4163746f72207265717569726564000000000000000000000000000000000000600082015250565b600061447b600e83613dd6565b915061448682614445565b602082019050919050565b600060208201905081810360008301526144aa8161446e565b9050919050565b7f4461746120686173682072657175697265640000000000000000000000000000600082015250565b60006144e7601283613dd6565b91506144f2826144b1565b602082019050919050565b60006020820190508181036000830152614516816144da565b9050919050565b7f57616c6c6574206e6f7420617574686f72697a65640000000000000000000000600082015250565b6000614553601583613dd6565b915061455e8261451d565b602082019050919050565b6000602082019050818103600083015261458281614546565b9050919050565b7f5374616b65686f6c646572206e6f7420617574686f72697a6564000000000000600082015250565b60006145bf601a83613dd6565b91506145ca82614589565b602082019050919050565b600060208201905081810360008301526145ee816145b2565b9050919050565b6000815461460281613f41565b61460c8186613e53565b94506001821660008114614627576001811461463c5761466f565b60ff198316865281151582028601935061466f565b61464585613f72565b60005b8381101561466757815481890152600182019150602081019050614648565b838801955050505b50505092915050565b600061468482846145f5565b915081905092915050565b600060a08201905081810360008301526146a9818861433f565b905081810360208301526146bd818761433f565b905081810360408301526146d1818661433f565b90506146e06060830185613519565b6146ed6080830184613519565b9695505050505050565b7f5265706f7274206e6f7420666f756e6400000000000000000000000000000000600082015250565b600061472d601083613dd6565b9150614738826146f7565b602082019050919050565b6000602082019050818103600083015261475c81614720565b9050919050565b7f436f6d70616e7920494420726571756972656400000000000000000000000000600082015250565b6000614799601383613dd6565b91506147a482614763565b602082019050919050565b600060208201905081810360008301526147c88161478c565b9050919050565b7f436f6d70616e7920616c72656164792065786973747300000000000000000000600082015250565b6000614805601683613dd6565b9150614810826147cf565b602082019050919050565b60006020820190508181036000830152614834816147f8565b9050919050565b60006040820190508181036000830152614855818561433f565b90506148646020830184613519565b9392505050565b600081905092915050565b60008190508160005260206000209050919050565b6000815461489881613f41565b6148a2818661486b565b945060018216600081146148bd57600181146148d257614905565b60ff1983168652811515820286019350614905565b6148db85614876565b60005b838110156148fd578154818901526001820191506020810190506148de565b838801955050505b50505092915050565b600061491a828461488b565b915081905092915050565b7f5374616b65686f6c64657220726f6c65206d69736d6174636800000000000000600082015250565b600061495b601983613dd6565b915061496682614925565b602082019050919050565b6000602082019050818103600083015261498a8161494e565b9050919050565b7f5374616b65686f6c646572204944207265717569726564000000000000000000600082015250565b60006149c7601783613dd6565b91506149d282614991565b602082019050919050565b600060208201905081810360008301526149f6816149ba565b9050919050565b7f526f6c6520726571756972656400000000000000000000000000000000000000600082015250565b6000614a33600d83613dd6565b9150614a3e826149fd565b602082019050919050565b60006020820190508181036000830152614a6281614a26565b9050919050565b7f57616c6c65742061646472657373207265717569726564000000000000000000600082015250565b6000614a9f601783613dd6565b9150614aaa82614a69565b602082019050919050565b60006020820190508181036000830152614ace81614a92565b9050919050565b7f4275796572204944207265717569726564000000000000000000000000000000600082015250565b6000614b0b601183613dd6565b9150614b1682614ad5565b602082019050919050565b60006020820190508181036000830152614b3a81614afe565b9050919050565b7f5374616b65686f6c646572206e6f7420666f756e640000000000000000000000600082015250565b6000614b77601583613dd6565b9150614b8282614b41565b602082019050919050565b60006020820190508181036000830152614ba681614b6a565b9050919050565b7f5374616b65686f6c64657220616c726561647920696e61637469766500000000600082015250565b6000614be3601c83613dd6565b9150614bee82614bad565b602082019050919050565b60006020820190508181036000830152614c1281614bd6565b905091905056fea2646970667358221220d49c454e942ee93c5fa383003c98a3818c4d029c93291bc5aa5acbad26143ebc64736f6c634300081c0033","opcodes":"PUSH1 0xA0 PUSH1 0x40 MSTORE CALLVALUE DUP1 ISZERO PUSH2 0x10 JUMPI PUSH1 0x0 DUP1 REVERT JUMPDEST POP CALLER PUSH20 0xFFFFFFFFFFFFFFFFFFFFFFFFFFFFFFFFFFFFFFFF AND PUSH1 0x80 DUP2 PUSH20 0xFFFFFFFFFFFFFFFFFFFFFFFFFFFFFFFFFFFFFFFF AND DUP2 MSTORE POP POP PUSH1 0x80 MLOAD PUSH2 0x4C4F PUSH2 0x91 PUSH1 0x0 CODECOPY PUSH1 0x0 DUP2 DUP2 PUSH2 0x4A8 ADD MSTORE DUP2 DUP2 PUSH2 0x69A ADD MSTORE DUP2 DUP2 PUSH2 0x17B2 ADD MSTORE DUP2 DUP2 PUSH2 0x19E3 ADD MSTORE DUP2 DUP2 PUSH2 0x1F9B ADD MSTORE DUP2 DUP2 PUSH2 0x1FC9 ADD MSTORE DUP2 DUP2 PUSH2 0x278A ADD MSTORE PUSH2 0x2D33 ADD MSTORE PUSH2 0x4C4F PUSH1 0x0 RETURN INVALID PUSH1 0x80 PUSH1 0x40 MSTORE CALLVALUE DUP1 ISZERO PUSH2 0x10 JUMPI PUSH1 0x0 DUP1 REVERT JUMPDEST POP PUSH1 0x4 CALLDATASIZE LT PUSH2 0x137 JUMPI PUSH1 0x0 CALLDATALOAD PUSH1 0xE0 SHR DUP1 PUSH4 0x8DA5CB5B GT PUSH2 0xB8 JUMPI DUP1 PUSH4 0xB6C33E04 GT PUSH2 0x7C JUMPI DUP1 PUSH4 0xB6C33E04 EQ PUSH2 0x3AC JUMPI DUP1 PUSH4 0xCAD9642B EQ PUSH2 0x3DC JUMPI DUP1 PUSH4 0xCBC07993 EQ PUSH2 0x3FA JUMPI DUP1 PUSH4 0xD00BB8B8 EQ PUSH2 0x42A JUMPI DUP1 PUSH4 0xFB8C3485 EQ PUSH2 0x45A JUMPI DUP1 PUSH4 0xFC7457AB EQ PUSH2 0x48A JUMPI PUSH2 0x137 JUMP JUMPDEST DUP1 PUSH4 0x8DA5CB5B EQ PUSH2 0x2F4 JUMPI DUP1 PUSH4 0x9999D2AE EQ PUSH2 0x312 JUMPI DUP1 PUSH4 0xA0D05FA1 EQ PUSH2 0x330 JUMPI DUP1 PUSH4 0xAE69370B EQ PUSH2 0x34C JUMPI DUP1 PUSH4 0xB24A4E52 EQ PUSH2 0x37C JUMPI PUSH2 0x137 JUMP JUMPDEST DUP1 PUSH4 0x4C74F74E GT PUSH2 0xFF JUMPI DUP1 PUSH4 0x4C74F74E EQ PUSH2 0x218 JUMPI DUP1 PUSH4 0x4E7F9B19 EQ PUSH2 0x248 JUMPI DUP1 PUSH4 0x696FD2C1 EQ PUSH2 0x278 JUMPI DUP1 PUSH4 0x74448BA4 EQ PUSH2 0x2A8 JUMPI DUP1 PUSH4 0x7C59A551 EQ PUSH2 0x2C4 JUMPI PUSH2 0x137 JUMP JUMPDEST DUP1 PUSH4 0x218A7EC EQ PUSH2 0x13C JUMPI DUP1 PUSH4 0xE4FF8D0 EQ PUSH2 0x158 JUMPI DUP1 PUSH4 0x16C3913F EQ PUSH2 0x188 JUMPI DUP1 PUSH4 0x2C10F557 EQ PUSH2 0x1B8 JUMPI DUP1 PUSH4 0x3E8686CC EQ PUSH2 0x1E8 JUMPI JUMPDEST PUSH1 0x0 DUP1 REVERT JUMPDEST PUSH2 0x156 PUSH1 0x4 DUP1 CALLDATASIZE SUB DUP2 ADD SWAP1 PUSH2 0x151 SWAP2 SWAP1 PUSH2 0x32AC JUMP JUMPDEST PUSH2 0x4A6 JUMP JUMPDEST STOP JUMPDEST PUSH2 0x172 PUSH1 0x4 DUP1 CALLDATASIZE SUB DUP2 ADD SWAP1 PUSH2 0x16D SWAP2 SWAP1 PUSH2 0x3382 JUMP JUMPDEST PUSH2 0x5D7 JUMP JUMPDEST PUSH1 0x40 MLOAD PUSH2 0x17F SWAP2 SWAP1 PUSH2 0x33F9 JUMP JUMPDEST PUSH1 0x40 MLOAD DUP1 SWAP2 SUB SWAP1 RETURN JUMPDEST PUSH2 0x1A2 PUSH1 0x4 DUP1 CALLDATASIZE SUB DUP2 ADD SWAP1 PUSH2 0x19D SWAP2 SWAP1 PUSH2 0x344A JUMP JUMPDEST PUSH2 0x696 JUMP JUMPDEST PUSH1 0x40 MLOAD PUSH2 0x1AF SWAP2 SWAP1 PUSH2 0x3528 JUMP JUMPDEST PUSH1 0x40 MLOAD DUP1 SWAP2 SUB SWAP1 RETURN JUMPDEST PUSH2 0x1D2 PUSH1 0x4 DUP1 CALLDATASIZE SUB DUP2 ADD SWAP1 PUSH2 0x1CD SWAP2 SWAP1 PUSH2 0x3543 JUMP JUMPDEST PUSH2 0x9BE JUMP JUMPDEST PUSH1 0x40 MLOAD PUSH2 0x1DF SWAP2 SWAP1 PUSH2 0x364A JUMP JUMPDEST PUSH1 0x40 MLOAD DUP1 SWAP2 SUB SWAP1 RETURN JUMPDEST PUSH2 0x202 PUSH1 0x4 DUP1 CALLDATASIZE SUB DUP2 ADD SWAP1 PUSH2 0x1FD SWAP2 SWAP1 PUSH2 0x366C JUMP JUMPDEST PUSH2 0xAA4 JUMP JUMPDEST PUSH1 0x40 MLOAD PUSH2 0x20F SWAP2 SWAP1 PUSH2 0x3824 JUMP JUMPDEST PUSH1 0x40 MLOAD DUP1 SWAP2 SUB SWAP1 RETURN JUMPDEST PUSH2 0x232 PUSH1 0x4 DUP1 CALLDATASIZE SUB DUP2 ADD SWAP1 PUSH2 0x22D SWAP2 SWAP1 PUSH2 0x3846 JUMP JUMPDEST PUSH2 0xEF6 JUMP JUMPDEST PUSH1 0x40 MLOAD PUSH2 0x23F SWAP2 SWAP1 PUSH2 0x3528 JUMP JUMPDEST PUSH1 0x40 MLOAD DUP1 SWAP2 SUB SWAP1 RETURN JUMPDEST PUSH2 0x262 PUSH1 0x4 DUP1 CALLDATASIZE SUB DUP2 ADD SWAP1 PUSH2 0x25D SWAP2 SWAP1 PUSH2 0x366C JUMP JUMPDEST PUSH2 0x14B0 JUMP JUMPDEST PUSH1 0x40 MLOAD PUSH2 0x26F SWAP2 SWAP1 PUSH2 0x39FE JUMP JUMPDEST PUSH1 0x40 MLOAD DUP1 SWAP2 SUB SWAP1 RETURN JUMPDEST PUSH2 0x292 PUSH1 0x4 DUP1 CALLDATASIZE SUB DUP2 ADD SWAP1 PUSH2 0x28D SWAP2 SWAP1 PUSH2 0x3A20 JUMP JUMPDEST PUSH2 0x173A JUMP JUMPDEST PUSH1 0x40 MLOAD PUSH2 0x29F SWAP2 SWAP1 PUSH2 0x33F9 JUMP JUMPDEST PUSH1 0x40 MLOAD DUP1 SWAP2 SUB SWAP1 RETURN JUMPDEST PUSH2 0x2C2 PUSH1 0x4 DUP1 CALLDATASIZE SUB DUP2 ADD SWAP1 PUSH2 0x2BD SWAP2 SWAP1 PUSH2 0x32AC JUMP JUMPDEST PUSH2 0x17B0 JUMP JUMPDEST STOP JUMPDEST PUSH2 0x2DE PUSH1 0x4 DUP1 CALLDATASIZE SUB DUP2 ADD SWAP1 PUSH2 0x2D9 SWAP2 SWAP1 PUSH2 0x3A7C JUMP JUMPDEST PUSH2 0x19DF JUMP JUMPDEST PUSH1 0x40 MLOAD PUSH2 0x2EB SWAP2 SWAP1 PUSH2 0x3528 JUMP JUMPDEST PUSH1 0x40 MLOAD DUP1 SWAP2 SUB SWAP1 RETURN JUMPDEST PUSH2 0x2FC PUSH2 0x1F99 JUMP JUMPDEST PUSH1 0x40 MLOAD PUSH2 0x309 SWAP2 SWAP1 PUSH2 0x3BD5 JUMP JUMPDEST PUSH1 0x40 MLOAD DUP1 SWAP2 SUB SWAP1 RETURN JUMPDEST PUSH2 0x31A PUSH2 0x1FBD JUMP JUMPDEST PUSH1 0x40 MLOAD PUSH2 0x327 SWAP2 SWAP1 PUSH2 0x3528 JUMP JUMPDEST PUSH1 0x40 MLOAD DUP1 SWAP2 SUB SWAP1 RETURN JUMPDEST PUSH2 0x34A PUSH1 0x4 DUP1 CALLDATASIZE SUB DUP2 ADD SWAP1 PUSH2 0x345 SWAP2 SWAP1 PUSH2 0x3BF0 JUMP JUMPDEST PUSH2 0x1FC7 JUMP JUMPDEST STOP JUMPDEST PUSH2 0x366 PUSH1 0x4 DUP1 CALLDATASIZE SUB DUP2 ADD SWAP1 PUSH2 0x361 SWAP2 SWAP1 PUSH2 0x3543 JUMP JUMPDEST PUSH2 0x24AF JUMP JUMPDEST PUSH1 0x40 MLOAD PUSH2 0x373 SWAP2 SWAP1 PUSH2 0x364A JUMP JUMPDEST PUSH1 0x40 MLOAD DUP1 SWAP2 SUB SWAP1 RETURN JUMPDEST PUSH2 0x396 PUSH1 0x4 DUP1 CALLDATASIZE SUB DUP2 ADD SWAP1 PUSH2 0x391 SWAP2 SWAP1 PUSH2 0x3543 JUMP JUMPDEST PUSH2 0x2595 JUMP JUMPDEST PUSH1 0x40 MLOAD PUSH2 0x3A3 SWAP2 SWAP1 PUSH2 0x3D15 JUMP JUMPDEST PUSH1 0x40 MLOAD DUP1 SWAP2 SUB SWAP1 RETURN JUMPDEST PUSH2 0x3C6 PUSH1 0x4 DUP1 CALLDATASIZE SUB DUP2 ADD SWAP1 PUSH2 0x3C1 SWAP2 SWAP1 PUSH2 0x3A20 JUMP JUMPDEST PUSH2 0x2786 JUMP JUMPDEST PUSH1 0x40 MLOAD PUSH2 0x3D3 SWAP2 SWAP1 PUSH2 0x33F9 JUMP JUMPDEST PUSH1 0x40 MLOAD DUP1 SWAP2 SUB SWAP1 RETURN JUMPDEST PUSH2 0x3E4 PUSH2 0x298B JUMP JUMPDEST PUSH1 0x40 MLOAD PUSH2 0x3F1 SWAP2 SWAP1 PUSH2 0x3528 JUMP JUMPDEST PUSH1 0x40 MLOAD DUP1 SWAP2 SUB SWAP1 RETURN JUMPDEST PUSH2 0x414 PUSH1 0x4 DUP1 CALLDATASIZE SUB DUP2 ADD SWAP1 PUSH2 0x40F SWAP2 SWAP1 PUSH2 0x3543 JUMP JUMPDEST PUSH2 0x2995 JUMP JUMPDEST PUSH1 0x40 MLOAD PUSH2 0x421 SWAP2 SWAP1 PUSH2 0x3528 JUMP JUMPDEST PUSH1 0x40 MLOAD DUP1 SWAP2 SUB SWAP1 RETURN JUMPDEST PUSH2 0x444 PUSH1 0x4 DUP1 CALLDATASIZE SUB DUP2 ADD SWAP1 PUSH2 0x43F SWAP2 SWAP1 PUSH2 0x32AC JUMP JUMPDEST PUSH2 0x2A30 JUMP JUMPDEST PUSH1 0x40 MLOAD PUSH2 0x451 SWAP2 SWAP1 PUSH2 0x3DB4 JUMP JUMPDEST PUSH1 0x40 MLOAD DUP1 SWAP2 SUB SWAP1 RETURN JUMPDEST PUSH2 0x474 PUSH1 0x4 DUP1 CALLDATASIZE SUB DUP2 ADD SWAP1 PUSH2 0x46F SWAP2 SWAP1 PUSH2 0x32AC JUMP JUMPDEST PUSH2 0x2CDF JUMP JUMPDEST PUSH1 0x40 MLOAD PUSH2 0x481 SWAP2 SWAP1 PUSH2 0x33F9 JUMP JUMPDEST PUSH1 0x40 MLOAD DUP1 SWAP2 SUB SWAP1 RETURN JUMPDEST PUSH2 0x4A4 PUSH1 0x4 DUP1 CALLDATASIZE SUB DUP2 ADD SWAP1 PUSH2 0x49F SWAP2 SWAP1 PUSH2 0x32AC JUMP JUMPDEST PUSH2 0x2D31 JUMP JUMPDEST STOP JUMPDEST PUSH32 0x0 PUSH20 0xFFFFFFFFFFFFFFFFFFFFFFFFFFFFFFFFFFFFFFFF AND CALLER PUSH20 0xFFFFFFFFFFFFFFFFFFFFFFFFFFFFFFFFFFFFFFFF AND EQ PUSH2 0x534 JUMPI PUSH1 0x40 MLOAD PUSH32 0x8C379A000000000000000000000000000000000000000000000000000000000 DUP2 MSTORE PUSH1 0x4 ADD PUSH2 0x52B SWAP1 PUSH2 0x3E33 JUMP JUMPDEST PUSH1 0x40 MLOAD DUP1 SWAP2 SUB SWAP1 REVERT JUMPDEST DUP2 PUSH1 0x0 DUP2 PUSH1 0x40 MLOAD PUSH2 0x545 SWAP2 SWAP1 PUSH2 0x3E8F JUMP JUMPDEST SWAP1 DUP2 MSTORE PUSH1 0x20 ADD PUSH1 0x40 MLOAD DUP1 SWAP2 SUB SWAP1 KECCAK256 PUSH1 0x2 ADD PUSH1 0x0 SWAP1 SLOAD SWAP1 PUSH2 0x100 EXP SWAP1 DIV PUSH1 0xFF AND PUSH2 0x5A3 JUMPI PUSH1 0x40 MLOAD PUSH32 0x8C379A000000000000000000000000000000000000000000000000000000000 DUP2 MSTORE PUSH1 0x4 ADD PUSH2 0x59A SWAP1 PUSH2 0x3EF2 JUMP JUMPDEST PUSH1 0x40 MLOAD DUP1 SWAP2 SUB SWAP1 REVERT JUMPDEST DUP2 PUSH1 0x0 DUP5 PUSH1 0x40 MLOAD PUSH2 0x5B4 SWAP2 SWAP1 PUSH2 0x3E8F JUMP JUMPDEST SWAP1 DUP2 MSTORE PUSH1 0x20 ADD PUSH1 0x40 MLOAD DUP1 SWAP2 SUB SWAP1 KECCAK256 PUSH1 0x1 ADD SWAP1 DUP2 PUSH2 0x5D1 SWAP2 SWAP1 PUSH2 0x411E JUMP JUMPDEST POP POP POP POP JUMP JUMPDEST PUSH1 0x0 DUP1 PUSH1 0x3 DUP5 PUSH1 0x40 MLOAD PUSH2 0x5EA SWAP2 SWAP1 PUSH2 0x3E8F JUMP JUMPDEST SWAP1 DUP2 MSTORE PUSH1 0x20 ADD PUSH1 0x40 MLOAD DUP1 SWAP2 SUB SWAP1 KECCAK256 PUSH1 0x0 DUP5 PUSH20 0xFFFFFFFFFFFFFFFFFFFFFFFFFFFFFFFFFFFFFFFF AND PUSH20 0xFFFFFFFFFFFFFFFFFFFFFFFFFFFFFFFFFFFFFFFF AND DUP2 MSTORE PUSH1 0x20 ADD SWAP1 DUP2 MSTORE PUSH1 0x20 ADD PUSH1 0x0 KECCAK256 SLOAD SWAP1 POP PUSH1 0x0 DUP1 SHL DUP2 SUB PUSH2 0x64C JUMPI PUSH1 0x0 SWAP2 POP POP PUSH2 0x690 JUMP JUMPDEST PUSH1 0x2 DUP5 PUSH1 0x40 MLOAD PUSH2 0x65C SWAP2 SWAP1 PUSH2 0x3E8F JUMP JUMPDEST SWAP1 DUP2 MSTORE PUSH1 0x20 ADD PUSH1 0x40 MLOAD DUP1 SWAP2 SUB SWAP1 KECCAK256 PUSH1 0x0 DUP3 DUP2 MSTORE PUSH1 0x20 ADD SWAP1 DUP2 MSTORE PUSH1 0x20 ADD PUSH1 0x0 KECCAK256 PUSH1 0x2 ADD PUSH1 0x14 SWAP1 SLOAD SWAP1 PUSH2 0x100 EXP SWAP1 DIV PUSH1 0xFF AND SWAP2 POP POP JUMPDEST SWAP3 SWAP2 POP POP JUMP JUMPDEST PUSH1 0x0 PUSH32 0x0 PUSH20 0xFFFFFFFFFFFFFFFFFFFFFFFFFFFFFFFFFFFFFFFF AND CALLER PUSH20 0xFFFFFFFFFFFFFFFFFFFFFFFFFFFFFFFFFFFFFFFF AND EQ PUSH2 0x726 JUMPI PUSH1 0x40 MLOAD PUSH32 0x8C379A000000000000000000000000000000000000000000000000000000000 DUP2 MSTORE PUSH1 0x4 ADD PUSH2 0x71D SWAP1 PUSH2 0x3E33 JUMP JUMPDEST PUSH1 0x40 MLOAD DUP1 SWAP2 SUB SWAP1 REVERT JUMPDEST DUP6 PUSH1 0x0 DUP2 PUSH1 0x40 MLOAD PUSH2 0x737 SWAP2 SWAP1 PUSH2 0x3E8F JUMP JUMPDEST SWAP1 DUP2 MSTORE PUSH1 0x20 ADD PUSH1 0x40 MLOAD DUP1 SWAP2 SUB SWAP1 KECCAK256 PUSH1 0x2 ADD PUSH1 0x0 SWAP1 SLOAD SWAP1 PUSH2 0x100 EXP SWAP1 DIV PUSH1 0xFF AND PUSH2 0x795 JUMPI PUSH1 0x40 MLOAD PUSH32 0x8C379A000000000000000000000000000000000000000000000000000000000 DUP2 MSTORE PUSH1 0x4 ADD PUSH2 0x78C SWAP1 PUSH2 0x3EF2 JUMP JUMPDEST PUSH1 0x40 MLOAD DUP1 SWAP2 SUB SWAP1 REVERT JUMPDEST PUSH1 0x0 DUP7 MLOAD GT PUSH2 0x7D9 JUMPI PUSH1 0x40 MLOAD PUSH32 0x8C379A000000000000000000000000000000000000000000000000000000000 DUP2 MSTORE PUSH1 0x4 ADD PUSH2 0x7D0 SWAP1 PUSH2 0x423C JUMP JUMPDEST PUSH1 0x40 MLOAD DUP1 SWAP2 SUB SWAP1 REVERT JUMPDEST PUSH1 0x0 DUP6 MLOAD GT PUSH2 0x81D JUMPI PUSH1 0x40 MLOAD PUSH32 0x8C379A000000000000000000000000000000000000000000000000000000000 DUP2 MSTORE PUSH1 0x4 ADD PUSH2 0x814 SWAP1 PUSH2 0x42A8 JUMP JUMPDEST PUSH1 0x40 MLOAD DUP1 SWAP2 SUB SWAP1 REVERT JUMPDEST PUSH1 0x0 PUSH1 0xA PUSH1 0x0 DUP2 SLOAD DUP1 SWAP3 SWAP2 SWAP1 PUSH2 0x832 SWAP1 PUSH2 0x42F7 JUMP JUMPDEST SWAP2 SWAP1 POP SSTORE SWAP1 POP PUSH1 0x40 MLOAD DUP1 PUSH2 0x100 ADD PUSH1 0x40 MSTORE DUP1 DUP3 DUP2 MSTORE PUSH1 0x20 ADD DUP10 DUP2 MSTORE PUSH1 0x20 ADD DUP9 DUP2 MSTORE PUSH1 0x20 ADD DUP8 DUP2 MSTORE PUSH1 0x20 ADD DUP7 DUP2 MSTORE PUSH1 0x20 ADD DUP6 DUP2 MSTORE PUSH1 0x20 ADD TIMESTAMP DUP2 MSTORE PUSH1 0x20 ADD PUSH1 0x1 ISZERO ISZERO DUP2 MSTORE POP PUSH1 0x8 PUSH1 0x0 DUP4 DUP2 MSTORE PUSH1 0x20 ADD SWAP1 DUP2 MSTORE PUSH1 0x20 ADD PUSH1 0x0 KECCAK256 PUSH1 0x0 DUP3 ADD MLOAD DUP2 PUSH1 0x0 ADD SSTORE PUSH1 0x20 DUP3 ADD MLOAD DUP2 PUSH1 0x1 ADD SWAP1 DUP2 PUSH2 0x8A7 SWAP2 SWAP1 PUSH2 0x411E JUMP JUMPDEST POP PUSH1 0x40 DUP3 ADD MLOAD DUP2 PUSH1 0x2 ADD SWAP1 DUP2 PUSH2 0x8BD SWAP2 SWAP1 PUSH2 0x411E JUMP JUMPDEST POP PUSH1 0x60 DUP3 ADD MLOAD DUP2 PUSH1 0x3 ADD SWAP1 DUP2 PUSH2 0x8D3 SWAP2 SWAP1 PUSH2 0x411E JUMP JUMPDEST POP PUSH1 0x80 DUP3 ADD MLOAD DUP2 PUSH1 0x4 ADD SSTORE PUSH1 0xA0 DUP3 ADD MLOAD DUP2 PUSH1 0x5 ADD SSTORE PUSH1 0xC0 DUP3 ADD MLOAD DUP2 PUSH1 0x6 ADD SSTORE PUSH1 0xE0 DUP3 ADD MLOAD DUP2 PUSH1 0x7 ADD PUSH1 0x0 PUSH2 0x100 EXP DUP2 SLOAD DUP2 PUSH1 0xFF MUL NOT AND SWAP1 DUP4 ISZERO ISZERO MUL OR SWAP1 SSTORE POP SWAP1 POP POP PUSH1 0x7 DUP9 PUSH1 0x40 MLOAD PUSH2 0x925 SWAP2 SWAP1 PUSH2 0x3E8F JUMP JUMPDEST SWAP1 DUP2 MSTORE PUSH1 0x20 ADD PUSH1 0x40 MLOAD DUP1 SWAP2 SUB SWAP1 KECCAK256 DUP2 SWAP1 DUP1 PUSH1 0x1 DUP2 SLOAD ADD DUP1 DUP3 SSTORE DUP1 SWAP2 POP POP PUSH1 0x1 SWAP1 SUB SWAP1 PUSH1 0x0 MSTORE PUSH1 0x20 PUSH1 0x0 KECCAK256 ADD PUSH1 0x0 SWAP1 SWAP2 SWAP1 SWAP2 SWAP1 SWAP2 POP SSTORE DUP8 PUSH1 0x40 MLOAD PUSH2 0x968 SWAP2 SWAP1 PUSH2 0x3E8F JUMP JUMPDEST PUSH1 0x40 MLOAD DUP1 SWAP2 SUB SWAP1 KECCAK256 DUP2 PUSH32 0xF6B8C3EE718B848994733F1EAD2F3F0B4B54CCBB772AF4009EDC8CFE95CD299A DUP10 DUP10 DUP10 DUP10 TIMESTAMP PUSH1 0x40 MLOAD PUSH2 0x9A8 SWAP6 SWAP5 SWAP4 SWAP3 SWAP2 SWAP1 PUSH2 0x4378 JUMP JUMPDEST PUSH1 0x40 MLOAD DUP1 SWAP2 SUB SWAP1 LOG3 DUP1 SWAP3 POP POP POP SWAP6 SWAP5 POP POP POP POP POP JUMP JUMPDEST PUSH1 0x60 DUP2 PUSH1 0x0 DUP2 PUSH1 0x40 MLOAD PUSH2 0x9D1 SWAP2 SWAP1 PUSH2 0x3E8F JUMP JUMPDEST SWAP1 DUP2 MSTORE PUSH1 0x20 ADD PUSH1 0x40 MLOAD DUP1 SWAP2 SUB SWAP1 KECCAK256 PUSH1 0x2 ADD PUSH1 0x0 SWAP1 SLOAD SWAP1 PUSH2 0x100 EXP SWAP1 DIV PUSH1 0xFF AND PUSH2 0xA2F JUMPI PUSH1 0x40 MLOAD PUSH32 0x8C379A000000000000000000000000000000000000000000000000000000000 DUP2 MSTORE PUSH1 0x4 ADD PUSH2 0xA26 SWAP1 PUSH2 0x3EF2 JUMP JUMPDEST PUSH1 0x40 MLOAD DUP1 SWAP2 SUB SWAP1 REVERT JUMPDEST PUSH1 0x7 DUP4 PUSH1 0x40 MLOAD PUSH2 0xA3F SWAP2 SWAP1 PUSH2 0x3E8F JUMP JUMPDEST SWAP1 DUP2 MSTORE PUSH1 0x20 ADD PUSH1 0x40 MLOAD DUP1 SWAP2 SUB SWAP1 KECCAK256 DUP1 SLOAD DUP1 PUSH1 0x20 MUL PUSH1 0x20 ADD PUSH1 0x40 MLOAD SWAP1 DUP2 ADD PUSH1 0x40 MSTORE DUP1 SWAP3 SWAP2 SWAP1 DUP2 DUP2 MSTORE PUSH1 0x20 ADD DUP3 DUP1 SLOAD DUP1 ISZERO PUSH2 0xA97 JUMPI PUSH1 0x20 MUL DUP3 ADD SWAP2 SWAP1 PUSH1 0x0 MSTORE PUSH1 0x20 PUSH1 0x0 KECCAK256 SWAP1 JUMPDEST DUP2 SLOAD DUP2 MSTORE PUSH1 0x20 ADD SWAP1 PUSH1 0x1 ADD SWAP1 DUP1 DUP4 GT PUSH2 0xA83 JUMPI JUMPDEST POP POP POP POP POP SWAP2 POP POP SWAP2 SWAP1 POP JUMP JUMPDEST PUSH2 0xAAC PUSH2 0x3031 JUMP JUMPDEST PUSH1 0x9 SLOAD DUP3 LT PUSH2 0xAF0 JUMPI PUSH1 0x40 MLOAD PUSH32 0x8C379A000000000000000000000000000000000000000000000000000000000 DUP2 MSTORE PUSH1 0x4 ADD PUSH2 0xAE7 SWAP1 PUSH2 0x4425 JUMP JUMPDEST PUSH1 0x40 MLOAD DUP1 SWAP2 SUB SWAP1 REVERT JUMPDEST PUSH1 0x5 PUSH1 0x0 DUP4 DUP2 MSTORE PUSH1 0x20 ADD SWAP1 DUP2 MSTORE PUSH1 0x20 ADD PUSH1 0x0 KECCAK256 PUSH1 0x40 MLOAD DUP1 PUSH2 0x140 ADD PUSH1 0x40 MSTORE SWAP1 DUP2 PUSH1 0x0 DUP3 ADD SLOAD DUP2 MSTORE PUSH1 0x20 ADD PUSH1 0x1 DUP3 ADD DUP1 SLOAD PUSH2 0xB29 SWAP1 PUSH2 0x3F41 JUMP JUMPDEST DUP1 PUSH1 0x1F ADD PUSH1 0x20 DUP1 SWAP2 DIV MUL PUSH1 0x20 ADD PUSH1 0x40 MLOAD SWAP1 DUP2 ADD PUSH1 0x40 MSTORE DUP1 SWAP3 SWAP2 SWAP1 DUP2 DUP2 MSTORE PUSH1 0x20 ADD DUP3 DUP1 SLOAD PUSH2 0xB55 SWAP1 PUSH2 0x3F41 JUMP JUMPDEST DUP1 ISZERO PUSH2 0xBA2 JUMPI DUP1 PUSH1 0x1F LT PUSH2 0xB77 JUMPI PUSH2 0x100 DUP1 DUP4 SLOAD DIV MUL DUP4 MSTORE SWAP2 PUSH1 0x20 ADD SWAP2 PUSH2 0xBA2 JUMP JUMPDEST DUP3 ADD SWAP2 SWAP1 PUSH1 0x0 MSTORE PUSH1 0x20 PUSH1 0x0 KECCAK256 SWAP1 JUMPDEST DUP2 SLOAD DUP2 MSTORE SWAP1 PUSH1 0x1 ADD SWAP1 PUSH1 0x20 ADD DUP1 DUP4 GT PUSH2 0xB85 JUMPI DUP3 SWAP1 SUB PUSH1 0x1F AND DUP3 ADD SWAP2 JUMPDEST POP POP POP POP POP DUP2 MSTORE PUSH1 0x20 ADD PUSH1 0x2 DUP3 ADD DUP1 SLOAD PUSH2 0xBBB SWAP1 PUSH2 0x3F41 JUMP JUMPDEST DUP1 PUSH1 0x1F ADD PUSH1 0x20 DUP1 SWAP2 DIV MUL PUSH1 0x20 ADD PUSH1 0x40 MLOAD SWAP1 DUP2 ADD PUSH1 0x40 MSTORE DUP1 SWAP3 SWAP2 SWAP1 DUP2 DUP2 MSTORE PUSH1 0x20 ADD DUP3 DUP1 SLOAD PUSH2 0xBE7 SWAP1 PUSH2 0x3F41 JUMP JUMPDEST DUP1 ISZERO PUSH2 0xC34 JUMPI DUP1 PUSH1 0x1F LT PUSH2 0xC09 JUMPI PUSH2 0x100 DUP1 DUP4 SLOAD DIV MUL DUP4 MSTORE SWAP2 PUSH1 0x20 ADD SWAP2 PUSH2 0xC34 JUMP JUMPDEST DUP3 ADD SWAP2 SWAP1 PUSH1 0x0 MSTORE PUSH1 0x20 PUSH1 0x0 KECCAK256 SWAP1 JUMPDEST DUP2 SLOAD DUP2 MSTORE SWAP1 PUSH1 0x1 ADD SWAP1 PUSH1 0x20 ADD DUP1 DUP4 GT PUSH2 0xC17 JUMPI DUP3 SWAP1 SUB PUSH1 0x1F AND DUP3 ADD SWAP2 JUMPDEST POP POP POP POP POP DUP2 MSTORE PUSH1 0x20 ADD PUSH1 0x3 DUP3 ADD DUP1 SLOAD PUSH2 0xC4D SWAP1 PUSH2 0x3F41 JUMP JUMPDEST DUP1 PUSH1 0x1F ADD PUSH1 0x20 DUP1 SWAP2 DIV MUL PUSH1 0x20 ADD PUSH1 0x40 MLOAD SWAP1 DUP2 ADD PUSH1 0x40 MSTORE DUP1 SWAP3 SWAP2 SWAP1 DUP2 DUP2 MSTORE PUSH1 0x20 ADD DUP3 DUP1 SLOAD PUSH2 0xC79 SWAP1 PUSH2 0x3F41 JUMP JUMPDEST DUP1 ISZERO PUSH2 0xCC6 JUMPI DUP1 PUSH1 0x1F LT PUSH2 0xC9B JUMPI PUSH2 0x100 DUP1 DUP4 SLOAD DIV MUL DUP4 MSTORE SWAP2 PUSH1 0x20 ADD SWAP2 PUSH2 0xCC6 JUMP JUMPDEST DUP3 ADD SWAP2 SWAP1 PUSH1 0x0 MSTORE PUSH1 0x20 PUSH1 0x0 KECCAK256 SWAP1 JUMPDEST DUP2 SLOAD DUP2 MSTORE SWAP1 PUSH1 0x1 ADD SWAP1 PUSH1 0x20 ADD DUP1 DUP4 GT PUSH2 0xCA9 JUMPI DUP3 SWAP1 SUB PUSH1 0x1F AND DUP3 ADD SWAP2 JUMPDEST POP POP POP POP POP DUP2 MSTORE PUSH1 0x20 ADD PUSH1 0x4 DUP3 ADD PUSH1 0x0 SWAP1 SLOAD SWAP1 PUSH2 0x100 EXP SWAP1 DIV PUSH20 0xFFFFFFFFFFFFFFFFFFFFFFFFFFFFFFFFFFFFFFFF AND PUSH20 0xFFFFFFFFFFFFFFFFFFFFFFFFFFFFFFFFFFFFFFFF AND PUSH20 0xFFFFFFFFFFFFFFFFFFFFFFFFFFFFFFFFFFFFFFFF AND DUP2 MSTORE PUSH1 0x20 ADD PUSH1 0x5 DUP3 ADD DUP1 SLOAD PUSH2 0xD35 SWAP1 PUSH2 0x3F41 JUMP JUMPDEST DUP1 PUSH1 0x1F ADD PUSH1 0x20 DUP1 SWAP2 DIV MUL PUSH1 0x20 ADD PUSH1 0x40 MLOAD SWAP1 DUP2 ADD PUSH1 0x40 MSTORE DUP1 SWAP3 SWAP2 SWAP1 DUP2 DUP2 MSTORE PUSH1 0x20 ADD DUP3 DUP1 SLOAD PUSH2 0xD61 SWAP1 PUSH2 0x3F41 JUMP JUMPDEST DUP1 ISZERO PUSH2 0xDAE JUMPI DUP1 PUSH1 0x1F LT PUSH2 0xD83 JUMPI PUSH2 0x100 DUP1 DUP4 SLOAD DIV MUL DUP4 MSTORE SWAP2 PUSH1 0x20 ADD SWAP2 PUSH2 0xDAE JUMP JUMPDEST DUP3 ADD SWAP2 SWAP1 PUSH1 0x0 MSTORE PUSH1 0x20 PUSH1 0x0 KECCAK256 SWAP1 JUMPDEST DUP2 SLOAD DUP2 MSTORE SWAP1 PUSH1 0x1 ADD SWAP1 PUSH1 0x20 ADD DUP1 DUP4 GT PUSH2 0xD91 JUMPI DUP3 SWAP1 SUB PUSH1 0x1F AND DUP3 ADD SWAP2 JUMPDEST POP POP POP POP POP DUP2 MSTORE PUSH1 0x20 ADD PUSH1 0x6 DUP3 ADD DUP1 SLOAD PUSH2 0xDC7 SWAP1 PUSH2 0x3F41 JUMP JUMPDEST DUP1 PUSH1 0x1F ADD PUSH1 0x20 DUP1 SWAP2 DIV MUL PUSH1 0x20 ADD PUSH1 0x40 MLOAD SWAP1 DUP2 ADD PUSH1 0x40 MSTORE DUP1 SWAP3 SWAP2 SWAP1 DUP2 DUP2 MSTORE PUSH1 0x20 ADD DUP3 DUP1 SLOAD PUSH2 0xDF3 SWAP1 PUSH2 0x3F41 JUMP JUMPDEST DUP1 ISZERO PUSH2 0xE40 JUMPI DUP1 PUSH1 0x1F LT PUSH2 0xE15 JUMPI PUSH2 0x100 DUP1 DUP4 SLOAD DIV MUL DUP4 MSTORE SWAP2 PUSH1 0x20 ADD SWAP2 PUSH2 0xE40 JUMP JUMPDEST DUP3 ADD SWAP2 SWAP1 PUSH1 0x0 MSTORE PUSH1 0x20 PUSH1 0x0 KECCAK256 SWAP1 JUMPDEST DUP2 SLOAD DUP2 MSTORE SWAP1 PUSH1 0x1 ADD SWAP1 PUSH1 0x20 ADD DUP1 DUP4 GT PUSH2 0xE23 JUMPI DUP3 SWAP1 SUB PUSH1 0x1F AND DUP3 ADD SWAP2 JUMPDEST POP POP POP POP POP DUP2 MSTORE PUSH1 0x20 ADD PUSH1 0x7 DUP3 ADD DUP1 SLOAD PUSH2 0xE59 SWAP1 PUSH2 0x3F41 JUMP JUMPDEST DUP1 PUSH1 0x1F ADD PUSH1 0x20 DUP1 SWAP2 DIV MUL PUSH1 0x20 ADD PUSH1 0x40 MLOAD SWAP1 DUP2 ADD PUSH1 0x40 MSTORE DUP1 SWAP3 SWAP2 SWAP1 DUP2 DUP2 MSTORE PUSH1 0x20 ADD DUP3 DUP1 SLOAD PUSH2 0xE85 SWAP1 PUSH2 0x3F41 JUMP JUMPDEST DUP1 ISZERO PUSH2 0xED2 JUMPI DUP1 PUSH1 0x1F LT PUSH2 0xEA7 JUMPI PUSH2 0x100 DUP1 DUP4 SLOAD DIV MUL DUP4 MSTORE SWAP2 PUSH1 0x20 ADD SWAP2 PUSH2 0xED2 JUMP JUMPDEST DUP3 ADD SWAP2 SWAP1 PUSH1 0x0 MSTORE PUSH1 0x20 PUSH1 0x0 KECCAK256 SWAP1 JUMPDEST DUP2 SLOAD DUP2 MSTORE SWAP1 PUSH1 0x1 ADD SWAP1 PUSH1 0x20 ADD DUP1 DUP4 GT PUSH2 0xEB5 JUMPI DUP3 SWAP1 SUB PUSH1 0x1F AND DUP3 ADD SWAP2 JUMPDEST POP POP POP POP POP DUP2 MSTORE PUSH1 0x20 ADD PUSH1 0x8 DUP3 ADD SLOAD DUP2 MSTORE PUSH1 0x20 ADD PUSH1 0x9 DUP3 ADD SLOAD DUP2 MSTORE POP POP SWAP1 POP SWAP2 SWAP1 POP JUMP JUMPDEST PUSH1 0x0 DUP6 PUSH1 0x0 DUP2 PUSH1 0x40 MLOAD PUSH2 0xF09 SWAP2 SWAP1 PUSH2 0x3E8F JUMP JUMPDEST SWAP1 DUP2 MSTORE PUSH1 0x20 ADD PUSH1 0x40 MLOAD DUP1 SWAP2 SUB SWAP1 KECCAK256 PUSH1 0x2 ADD PUSH1 0x0 SWAP1 SLOAD SWAP1 PUSH2 0x100 EXP SWAP1 DIV PUSH1 0xFF AND PUSH2 0xF67 JUMPI PUSH1 0x40 MLOAD PUSH32 0x8C379A000000000000000000000000000000000000000000000000000000000 DUP2 MSTORE PUSH1 0x4 ADD PUSH2 0xF5E SWAP1 PUSH2 0x3EF2 JUMP JUMPDEST PUSH1 0x40 MLOAD DUP1 SWAP2 SUB SWAP1 REVERT JUMPDEST PUSH1 0x0 DUP7 MLOAD GT PUSH2 0xFAB JUMPI PUSH1 0x40 MLOAD PUSH32 0x8C379A000000000000000000000000000000000000000000000000000000000 DUP2 MSTORE PUSH1 0x4 ADD PUSH2 0xFA2 SWAP1 PUSH2 0x4491 JUMP JUMPDEST PUSH1 0x40 MLOAD DUP1 SWAP2 SUB SWAP1 REVERT JUMPDEST PUSH1 0x0 DUP6 MLOAD GT PUSH2 0xFEF JUMPI PUSH1 0x40 MLOAD PUSH32 0x8C379A000000000000000000000000000000000000000000000000000000000 DUP2 MSTORE PUSH1 0x4 ADD PUSH2 0xFE6 SWAP1 PUSH2 0x423C JUMP JUMPDEST PUSH1 0x40 MLOAD DUP1 SWAP2 SUB SWAP1 REVERT JUMPDEST PUSH1 0x0 DUP5 MLOAD GT PUSH2 0x1033 JUMPI PUSH1 0x40 MLOAD PUSH32 0x8C379A000000000000000000000000000000000000000000000000000000000 DUP2 MSTORE PUSH1 0x4 ADD PUSH2 0x102A SWAP1 PUSH2 0x44FD JUMP JUMPDEST PUSH1 0x40 MLOAD DUP1 SWAP2 SUB SWAP1 REVERT JUMPDEST PUSH1 0x0 PUSH1 0x3 DUP9 PUSH1 0x40 MLOAD PUSH2 0x1045 SWAP2 SWAP1 PUSH2 0x3E8F JUMP JUMPDEST SWAP1 DUP2 MSTORE PUSH1 0x20 ADD PUSH1 0x40 MLOAD DUP1 SWAP2 SUB SWAP1 KECCAK256 PUSH1 0x0 CALLER PUSH20 0xFFFFFFFFFFFFFFFFFFFFFFFFFFFFFFFFFFFFFFFF AND PUSH20 0xFFFFFFFFFFFFFFFFFFFFFFFFFFFFFFFFFFFFFFFF AND DUP2 MSTORE PUSH1 0x20 ADD SWAP1 DUP2 MSTORE PUSH1 0x20 ADD PUSH1 0x0 KECCAK256 SLOAD SWAP1 POP PUSH1 0x0 DUP1 SHL DUP2 SUB PUSH2 0x10D8 JUMPI PUSH1 0x40 MLOAD PUSH32 0x8C379A000000000000000000000000000000000000000000000000000000000 DUP2 MSTORE PUSH1 0x4 ADD PUSH2 0x10CF SWAP1 PUSH2 0x4569 JUMP JUMPDEST PUSH1 0x40 MLOAD DUP1 SWAP2 SUB SWAP1 REVERT JUMPDEST PUSH1 0x0 PUSH1 0x2 DUP10 PUSH1 0x40 MLOAD PUSH2 0x10EA SWAP2 SWAP1 PUSH2 0x3E8F JUMP JUMPDEST SWAP1 DUP2 MSTORE PUSH1 0x20 ADD PUSH1 0x40 MLOAD DUP1 SWAP2 SUB SWAP1 KECCAK256 PUSH1 0x0 DUP4 DUP2 MSTORE PUSH1 0x20 ADD SWAP1 DUP2 MSTORE PUSH1 0x20 ADD PUSH1 0x0 KECCAK256 SWAP1 POP DUP1 PUSH1 0x2 ADD PUSH1 0x14 SWAP1 SLOAD SWAP1 PUSH2 0x100 EXP SWAP1 DIV PUSH1 0xFF AND PUSH2 0x115C JUMPI PUSH1 0x40 MLOAD PUSH32 0x8C379A000000000000000000000000000000000000000000000000000000000 DUP2 MSTORE PUSH1 0x4 ADD PUSH2 0x1153 SWAP1 PUSH2 0x45D5 JUMP JUMPDEST PUSH1 0x40 MLOAD DUP1 SWAP2 SUB SWAP1 REVERT JUMPDEST PUSH1 0x0 PUSH1 0x9 PUSH1 0x0 DUP2 SLOAD DUP1 SWAP3 SWAP2 SWAP1 PUSH2 0x1171 SWAP1 PUSH2 0x42F7 JUMP JUMPDEST SWAP2 SWAP1 POP SSTORE SWAP1 POP PUSH1 0x40 MLOAD DUP1 PUSH2 0x140 ADD PUSH1 0x40 MSTORE DUP1 DUP3 DUP2 MSTORE PUSH1 0x20 ADD DUP12 DUP2 MSTORE PUSH1 0x20 ADD DUP4 PUSH1 0x0 ADD DUP1 SLOAD PUSH2 0x119E SWAP1 PUSH2 0x3F41 JUMP JUMPDEST DUP1 PUSH1 0x1F ADD PUSH1 0x20 DUP1 SWAP2 DIV MUL PUSH1 0x20 ADD PUSH1 0x40 MLOAD SWAP1 DUP2 ADD PUSH1 0x40 MSTORE DUP1 SWAP3 SWAP2 SWAP1 DUP2 DUP2 MSTORE PUSH1 0x20 ADD DUP3 DUP1 SLOAD PUSH2 0x11CA SWAP1 PUSH2 0x3F41 JUMP JUMPDEST DUP1 ISZERO PUSH2 0x1217 JUMPI DUP1 PUSH1 0x1F LT PUSH2 0x11EC JUMPI PUSH2 0x100 DUP1 DUP4 SLOAD DIV MUL DUP4 MSTORE SWAP2 PUSH1 0x20 ADD SWAP2 PUSH2 0x1217 JUMP JUMPDEST DUP3 ADD SWAP2 SWAP1 PUSH1 0x0 MSTORE PUSH1 0x20 PUSH1 0x0 KECCAK256 SWAP1 JUMPDEST DUP2 SLOAD DUP2 MSTORE SWAP1 PUSH1 0x1 ADD SWAP1 PUSH1 0x20 ADD DUP1 DUP4 GT PUSH2 0x11FA JUMPI DUP3 SWAP1 SUB PUSH1 0x1F AND DUP3 ADD SWAP2 JUMPDEST POP POP POP POP POP DUP2 MSTORE PUSH1 0x20 ADD DUP4 PUSH1 0x1 ADD DUP1 SLOAD PUSH2 0x1230 SWAP1 PUSH2 0x3F41 JUMP JUMPDEST DUP1 PUSH1 0x1F ADD PUSH1 0x20 DUP1 SWAP2 DIV MUL PUSH1 0x20 ADD PUSH1 0x40 MLOAD SWAP1 DUP2 ADD PUSH1 0x40 MSTORE DUP1 SWAP3 SWAP2 SWAP1 DUP2 DUP2 MSTORE PUSH1 0x20 ADD DUP3 DUP1 SLOAD PUSH2 0x125C SWAP1 PUSH2 0x3F41 JUMP JUMPDEST DUP1 ISZERO PUSH2 0x12A9 JUMPI DUP1 PUSH1 0x1F LT PUSH2 0x127E JUMPI PUSH2 0x100 DUP1 DUP4 SLOAD DIV MUL DUP4 MSTORE SWAP2 PUSH1 0x20 ADD SWAP2 PUSH2 0x12A9 JUMP JUMPDEST DUP3 ADD SWAP2 SWAP1 PUSH1 0x0 MSTORE PUSH1 0x20 PUSH1 0x0 KECCAK256 SWAP1 JUMPDEST DUP2 SLOAD DUP2 MSTORE SWAP1 PUSH1 0x1 ADD SWAP1 PUSH1 0x20 ADD DUP1 DUP4 GT PUSH2 0x128C JUMPI DUP3 SWAP1 SUB PUSH1 0x1F AND DUP3 ADD SWAP2 JUMPDEST POP POP POP POP POP DUP2 MSTORE PUSH1 0x20 ADD CALLER PUSH20 0xFFFFFFFFFFFFFFFFFFFFFFFFFFFFFFFFFFFFFFFF AND DUP2 MSTORE PUSH1 0x20 ADD DUP11 DUP2 MSTORE PUSH1 0x20 ADD DUP10 DUP2 MSTORE PUSH1 0x20 ADD DUP9 DUP2 MSTORE PUSH1 0x20 ADD DUP8 DUP2 MSTORE PUSH1 0x20 ADD TIMESTAMP DUP2 MSTORE POP PUSH1 0x5 PUSH1 0x0 DUP4 DUP2 MSTORE PUSH1 0x20 ADD SWAP1 DUP2 MSTORE PUSH1 0x20 ADD PUSH1 0x0 KECCAK256 PUSH1 0x0 DUP3 ADD MLOAD DUP2 PUSH1 0x0 ADD SSTORE PUSH1 0x20 DUP3 ADD MLOAD DUP2 PUSH1 0x1 ADD SWAP1 DUP2 PUSH2 0x131D SWAP2 SWAP1 PUSH2 0x411E JUMP JUMPDEST POP PUSH1 0x40 DUP3 ADD MLOAD DUP2 PUSH1 0x2 ADD SWAP1 DUP2 PUSH2 0x1333 SWAP2 SWAP1 PUSH2 0x411E JUMP JUMPDEST POP PUSH1 0x60 DUP3 ADD MLOAD DUP2 PUSH1 0x3 ADD SWAP1 DUP2 PUSH2 0x1349 SWAP2 SWAP1 PUSH2 0x411E JUMP JUMPDEST POP PUSH1 0x80 DUP3 ADD MLOAD DUP2 PUSH1 0x4 ADD PUSH1 0x0 PUSH2 0x100 EXP DUP2 SLOAD DUP2 PUSH20 0xFFFFFFFFFFFFFFFFFFFFFFFFFFFFFFFFFFFFFFFF MUL NOT AND SWAP1 DUP4 PUSH20 0xFFFFFFFFFFFFFFFFFFFFFFFFFFFFFFFFFFFFFFFF AND MUL OR SWAP1 SSTORE POP PUSH1 0xA0 DUP3 ADD MLOAD DUP2 PUSH1 0x5 ADD SWAP1 DUP2 PUSH2 0x13A6 SWAP2 SWAP1 PUSH2 0x411E JUMP JUMPDEST POP PUSH1 0xC0 DUP3 ADD MLOAD DUP2 PUSH1 0x6 ADD SWAP1 DUP2 PUSH2 0x13BC SWAP2 SWAP1 PUSH2 0x411E JUMP JUMPDEST POP PUSH1 0xE0 DUP3 ADD MLOAD DUP2 PUSH1 0x7 ADD SWAP1 DUP2 PUSH2 0x13D2 SWAP2 SWAP1 PUSH2 0x411E JUMP JUMPDEST POP PUSH2 0x100 DUP3 ADD MLOAD DUP2 PUSH1 0x8 ADD SSTORE PUSH2 0x120 DUP3 ADD MLOAD DUP2 PUSH1 0x9 ADD SSTORE SWAP1 POP POP PUSH1 0x4 DUP11 PUSH1 0x40 MLOAD PUSH2 0x13FC SWAP2 SWAP1 PUSH2 0x3E8F JUMP JUMPDEST SWAP1 DUP2 MSTORE PUSH1 0x20 ADD PUSH1 0x40 MLOAD DUP1 SWAP2 SUB SWAP1 KECCAK256 DUP2 SWAP1 DUP1 PUSH1 0x1 DUP2 SLOAD ADD DUP1 DUP3 SSTORE DUP1 SWAP2 POP POP PUSH1 0x1 SWAP1 SUB SWAP1 PUSH1 0x0 MSTORE PUSH1 0x20 PUSH1 0x0 KECCAK256 ADD PUSH1 0x0 SWAP1 SWAP2 SWAP1 SWAP2 SWAP1 SWAP2 POP SSTORE DUP2 PUSH1 0x0 ADD PUSH1 0x40 MLOAD PUSH2 0x1442 SWAP2 SWAP1 PUSH2 0x4678 JUMP JUMPDEST PUSH1 0x40 MLOAD DUP1 SWAP2 SUB SWAP1 KECCAK256 DUP11 PUSH1 0x40 MLOAD PUSH2 0x1458 SWAP2 SWAP1 PUSH2 0x3E8F JUMP JUMPDEST PUSH1 0x40 MLOAD DUP1 SWAP2 SUB SWAP1 KECCAK256 DUP3 PUSH32 0xDEDE3AF022C0C1182F1BE40127BABCDF6F8DB18866D079873F2A7C29D3B8EF6A DUP13 DUP13 DUP13 DUP13 TIMESTAMP PUSH1 0x40 MLOAD PUSH2 0x1498 SWAP6 SWAP5 SWAP4 SWAP3 SWAP2 SWAP1 PUSH2 0x468F JUMP JUMPDEST PUSH1 0x40 MLOAD DUP1 SWAP2 SUB SWAP1 LOG4 DUP1 SWAP5 POP POP POP POP POP SWAP6 SWAP5 POP POP POP POP POP JUMP JUMPDEST PUSH2 0x14B8 PUSH2 0x309A JUMP JUMPDEST PUSH1 0x8 PUSH1 0x0 DUP4 DUP2 MSTORE PUSH1 0x20 ADD SWAP1 DUP2 MSTORE PUSH1 0x20 ADD PUSH1 0x0 KECCAK256 PUSH1 0x7 ADD PUSH1 0x0 SWAP1 SLOAD SWAP1 PUSH2 0x100 EXP SWAP1 DIV PUSH1 0xFF AND PUSH2 0x151B JUMPI PUSH1 0x40 MLOAD PUSH32 0x8C379A000000000000000000000000000000000000000000000000000000000 DUP2 MSTORE PUSH1 0x4 ADD PUSH2 0x1512 SWAP1 PUSH2 0x4743 JUMP JUMPDEST PUSH1 0x40 MLOAD DUP1 SWAP2 SUB SWAP1 REVERT JUMPDEST PUSH1 0x8 PUSH1 0x0 DUP4 DUP2 MSTORE PUSH1 0x20 ADD SWAP1 DUP2 MSTORE PUSH1 0x20 ADD PUSH1 0x0 KECCAK256 PUSH1 0x40 MLOAD DUP1 PUSH2 0x100 ADD PUSH1 0x40 MSTORE SWAP1 DUP2 PUSH1 0x0 DUP3 ADD SLOAD DUP2 MSTORE PUSH1 0x20 ADD PUSH1 0x1 DUP3 ADD DUP1 SLOAD PUSH2 0x1554 SWAP1 PUSH2 0x3F41 JUMP JUMPDEST DUP1 PUSH1 0x1F ADD PUSH1 0x20 DUP1 SWAP2 DIV MUL PUSH1 0x20 ADD PUSH1 0x40 MLOAD SWAP1 DUP2 ADD PUSH1 0x40 MSTORE DUP1 SWAP3 SWAP2 SWAP1 DUP2 DUP2 MSTORE PUSH1 0x20 ADD DUP3 DUP1 SLOAD PUSH2 0x1580 SWAP1 PUSH2 0x3F41 JUMP JUMPDEST DUP1 ISZERO PUSH2 0x15CD JUMPI DUP1 PUSH1 0x1F LT PUSH2 0x15A2 JUMPI PUSH2 0x100 DUP1 DUP4 SLOAD DIV MUL DUP4 MSTORE SWAP2 PUSH1 0x20 ADD SWAP2 PUSH2 0x15CD JUMP JUMPDEST DUP3 ADD SWAP2 SWAP1 PUSH1 0x0 MSTORE PUSH1 0x20 PUSH1 0x0 KECCAK256 SWAP1 JUMPDEST DUP2 SLOAD DUP2 MSTORE SWAP1 PUSH1 0x1 ADD SWAP1 PUSH1 0x20 ADD DUP1 DUP4 GT PUSH2 0x15B0 JUMPI DUP3 SWAP1 SUB PUSH1 0x1F AND DUP3 ADD SWAP2 JUMPDEST POP POP POP POP POP DUP2 MSTORE PUSH1 0x20 ADD PUSH1 0x2 DUP3 ADD DUP1 SLOAD PUSH2 0x15E6 SWAP1 PUSH2 0x3F41 JUMP JUMPDEST DUP1 PUSH1 0x1F ADD PUSH1 0x20 DUP1 SWAP2 DIV MUL PUSH1 0x20 ADD PUSH1 0x40 MLOAD SWAP1 DUP2 ADD PUSH1 0x40 MSTORE DUP1 SWAP3 SWAP2 SWAP1 DUP2 DUP2 MSTORE PUSH1 0x20 ADD DUP3 DUP1 SLOAD PUSH2 0x1612 SWAP1 PUSH2 0x3F41 JUMP JUMPDEST DUP1 ISZERO PUSH2 0x165F JUMPI DUP1 PUSH1 0x1F LT PUSH2 0x1634 JUMPI PUSH2 0x100 DUP1 DUP4 SLOAD DIV MUL DUP4 MSTORE SWAP2 PUSH1 0x20 ADD SWAP2 PUSH2 0x165F JUMP JUMPDEST DUP3 ADD SWAP2 SWAP1 PUSH1 0x0 MSTORE PUSH1 0x20 PUSH1 0x0 KECCAK256 SWAP1 JUMPDEST DUP2 SLOAD DUP2 MSTORE SWAP1 PUSH1 0x1 ADD SWAP1 PUSH1 0x20 ADD DUP1 DUP4 GT PUSH2 0x1642 JUMPI DUP3 SWAP1 SUB PUSH1 0x1F AND DUP3 ADD SWAP2 JUMPDEST POP POP POP POP POP DUP2 MSTORE PUSH1 0x20 ADD PUSH1 0x3 DUP3 ADD DUP1 SLOAD PUSH2 0x1678 SWAP1 PUSH2 0x3F41 JUMP JUMPDEST DUP1 PUSH1 0x1F ADD PUSH1 0x20 DUP1 SWAP2 DIV MUL PUSH1 0x20 ADD PUSH1 0x40 MLOAD SWAP1 DUP2 ADD PUSH1 0x40 MSTORE DUP1 SWAP3 SWAP2 SWAP1 DUP2 DUP2 MSTORE PUSH1 0x20 ADD DUP3 DUP1 SLOAD PUSH2 0x16A4 SWAP1 PUSH2 0x3F41 JUMP JUMPDEST DUP1 ISZERO PUSH2 0x16F1 JUMPI DUP1 PUSH1 0x1F LT PUSH2 0x16C6 JUMPI PUSH2 0x100 DUP1 DUP4 SLOAD DIV MUL DUP4 MSTORE SWAP2 PUSH1 0x20 ADD SWAP2 PUSH2 0x16F1 JUMP JUMPDEST DUP3 ADD SWAP2 SWAP1 PUSH1 0x0 MSTORE PUSH1 0x20 PUSH1 0x0 KECCAK256 SWAP1 JUMPDEST DUP2 SLOAD DUP2 MSTORE SWAP1 PUSH1 0x1 ADD SWAP1 PUSH1 0x20 ADD DUP1 DUP4 GT PUSH2 0x16D4 JUMPI DUP3 SWAP1 SUB PUSH1 0x1F AND DUP3 ADD SWAP2 JUMPDEST POP POP POP POP POP DUP2 MSTORE PUSH1 0x20 ADD PUSH1 0x4 DUP3 ADD SLOAD DUP2 MSTORE PUSH1 0x20 ADD PUSH1 0x5 DUP3 ADD SLOAD DUP2 MSTORE PUSH1 0x20 ADD PUSH1 0x6 DUP3 ADD SLOAD DUP2 MSTORE PUSH1 0x20 ADD PUSH1 0x7 DUP3 ADD PUSH1 0x0 SWAP1 SLOAD SWAP1 PUSH2 0x100 EXP SWAP1 DIV PUSH1 0xFF AND ISZERO ISZERO ISZERO ISZERO DUP2 MSTORE POP POP SWAP1 POP SWAP2 SWAP1 POP JUMP JUMPDEST PUSH1 0x0 PUSH1 0x8 PUSH1 0x0 DUP5 DUP2 MSTORE PUSH1 0x20 ADD SWAP1 DUP2 MSTORE PUSH1 0x20 ADD PUSH1 0x0 KECCAK256 PUSH1 0x7 ADD PUSH1 0x0 SWAP1 SLOAD SWAP1 PUSH2 0x100 EXP SWAP1 DIV PUSH1 0xFF AND PUSH2 0x176D JUMPI PUSH1 0x0 SWAP1 POP PUSH2 0x17AA JUMP JUMPDEST PUSH1 0x6 PUSH1 0x0 DUP5 DUP2 MSTORE PUSH1 0x20 ADD SWAP1 DUP2 MSTORE PUSH1 0x20 ADD PUSH1 0x0 KECCAK256 PUSH1 0x0 PUSH2 0x178B DUP5 PUSH2 0x3020 JUMP JUMPDEST DUP2 MSTORE PUSH1 0x20 ADD SWAP1 DUP2 MSTORE PUSH1 0x20 ADD PUSH1 0x0 KECCAK256 PUSH1 0x0 SWAP1 SLOAD SWAP1 PUSH2 0x100 EXP SWAP1 DIV PUSH1 0xFF AND SWAP1 POP JUMPDEST SWAP3 SWAP2 POP POP JUMP JUMPDEST PUSH32 0x0 PUSH20 0xFFFFFFFFFFFFFFFFFFFFFFFFFFFFFFFFFFFFFFFF AND CALLER PUSH20 0xFFFFFFFFFFFFFFFFFFFFFFFFFFFFFFFFFFFFFFFF AND EQ PUSH2 0x183E JUMPI PUSH1 0x40 MLOAD PUSH32 0x8C379A000000000000000000000000000000000000000000000000000000000 DUP2 MSTORE PUSH1 0x4 ADD PUSH2 0x1835 SWAP1 PUSH2 0x3E33 JUMP JUMPDEST PUSH1 0x40 MLOAD DUP1 SWAP2 SUB SWAP1 REVERT JUMPDEST PUSH1 0x0 DUP3 MLOAD GT PUSH2 0x1882 JUMPI PUSH1 0x40 MLOAD PUSH32 0x8C379A000000000000000000000000000000000000000000000000000000000 DUP2 MSTORE PUSH1 0x4 ADD PUSH2 0x1879 SWAP1 PUSH2 0x47AF JUMP JUMPDEST PUSH1 0x40 MLOAD DUP1 SWAP2 SUB SWAP1 REVERT JUMPDEST PUSH1 0x0 DUP3 PUSH1 0x40 MLOAD PUSH2 0x1892 SWAP2 SWAP1 PUSH2 0x3E8F JUMP JUMPDEST SWAP1 DUP2 MSTORE PUSH1 0x20 ADD PUSH1 0x40 MLOAD DUP1 SWAP2 SUB SWAP1 KECCAK256 PUSH1 0x2 ADD PUSH1 0x0 SWAP1 SLOAD SWAP1 PUSH2 0x100 EXP SWAP1 DIV PUSH1 0xFF AND ISZERO PUSH2 0x18F1 JUMPI PUSH1 0x40 MLOAD PUSH32 0x8C379A000000000000000000000000000000000000000000000000000000000 DUP2 MSTORE PUSH1 0x4 ADD PUSH2 0x18E8 SWAP1 PUSH2 0x481B JUMP JUMPDEST PUSH1 0x40 MLOAD DUP1 SWAP2 SUB SWAP1 REVERT JUMPDEST PUSH1 0x40 MLOAD DUP1 PUSH1 0x80 ADD PUSH1 0x40 MSTORE DUP1 DUP4 DUP2 MSTORE PUSH1 0x20 ADD DUP3 DUP2 MSTORE PUSH1 0x20 ADD PUSH1 0x1 ISZERO ISZERO DUP2 MSTORE PUSH1 0x20 ADD TIMESTAMP DUP2 MSTORE POP PUSH1 0x0 DUP4 PUSH1 0x40 MLOAD PUSH2 0x1925 SWAP2 SWAP1 PUSH2 0x3E8F JUMP JUMPDEST SWAP1 DUP2 MSTORE PUSH1 0x20 ADD PUSH1 0x40 MLOAD DUP1 SWAP2 SUB SWAP1 KECCAK256 PUSH1 0x0 DUP3 ADD MLOAD DUP2 PUSH1 0x0 ADD SWAP1 DUP2 PUSH2 0x1948 SWAP2 SWAP1 PUSH2 0x411E JUMP JUMPDEST POP PUSH1 0x20 DUP3 ADD MLOAD DUP2 PUSH1 0x1 ADD SWAP1 DUP2 PUSH2 0x195E SWAP2 SWAP1 PUSH2 0x411E JUMP JUMPDEST POP PUSH1 0x40 DUP3 ADD MLOAD DUP2 PUSH1 0x2 ADD PUSH1 0x0 PUSH2 0x100 EXP DUP2 SLOAD DUP2 PUSH1 0xFF MUL NOT AND SWAP1 DUP4 ISZERO ISZERO MUL OR SWAP1 SSTORE POP PUSH1 0x60 DUP3 ADD MLOAD DUP2 PUSH1 0x3 ADD SSTORE SWAP1 POP POP DUP2 PUSH1 0x40 MLOAD PUSH2 0x199A SWAP2 SWAP1 PUSH2 0x3E8F JUMP JUMPDEST PUSH1 0x40 MLOAD DUP1 SWAP2 SUB SWAP1 KECCAK256 PUSH32 0x7A5B6C3B56F3FD96C4145E8D16588D8853FBCFBBCA80A8209817253E3D3B32F3 DUP3 TIMESTAMP PUSH1 0x40 MLOAD PUSH2 0x19D3 SWAP3 SWAP2 SWAP1 PUSH2 0x483B JUMP JUMPDEST PUSH1 0x40 MLOAD DUP1 SWAP2 SUB SWAP1 LOG2 POP POP JUMP JUMPDEST PUSH1 0x0 PUSH32 0x0 PUSH20 0xFFFFFFFFFFFFFFFFFFFFFFFFFFFFFFFFFFFFFFFF AND CALLER PUSH20 0xFFFFFFFFFFFFFFFFFFFFFFFFFFFFFFFFFFFFFFFF AND EQ PUSH2 0x1A6F JUMPI PUSH1 0x40 MLOAD PUSH32 0x8C379A000000000000000000000000000000000000000000000000000000000 DUP2 MSTORE PUSH1 0x4 ADD PUSH2 0x1A66 SWAP1 PUSH2 0x3E33 JUMP JUMPDEST PUSH1 0x40 MLOAD DUP1 SWAP2 SUB SWAP1 REVERT JUMPDEST DUP8 PUSH1 0x0 DUP2 PUSH1 0x40 MLOAD PUSH2 0x1A80 SWAP2 SWAP1 PUSH2 0x3E8F JUMP JUMPDEST SWAP1 DUP2 MSTORE PUSH1 0x20 ADD PUSH1 0x40 MLOAD DUP1 SWAP2 SUB SWAP1 KECCAK256 PUSH1 0x2 ADD PUSH1 0x0 SWAP1 SLOAD SWAP1 PUSH2 0x100 EXP SWAP1 DIV PUSH1 0xFF AND PUSH2 0x1ADE JUMPI PUSH1 0x40 MLOAD PUSH32 0x8C379A000000000000000000000000000000000000000000000000000000000 DUP2 MSTORE PUSH1 0x4 ADD PUSH2 0x1AD5 SWAP1 PUSH2 0x3EF2 JUMP JUMPDEST PUSH1 0x40 MLOAD DUP1 SWAP2 SUB SWAP1 REVERT JUMPDEST PUSH1 0x0 DUP7 MLOAD GT PUSH2 0x1B22 JUMPI PUSH1 0x40 MLOAD PUSH32 0x8C379A000000000000000000000000000000000000000000000000000000000 DUP2 MSTORE PUSH1 0x4 ADD PUSH2 0x1B19 SWAP1 PUSH2 0x4491 JUMP JUMPDEST PUSH1 0x40 MLOAD DUP1 SWAP2 SUB SWAP1 REVERT JUMPDEST PUSH1 0x0 DUP6 MLOAD GT PUSH2 0x1B66 JUMPI PUSH1 0x40 MLOAD PUSH32 0x8C379A000000000000000000000000000000000000000000000000000000000 DUP2 MSTORE PUSH1 0x4 ADD PUSH2 0x1B5D SWAP1 PUSH2 0x423C JUMP JUMPDEST PUSH1 0x40 MLOAD DUP1 SWAP2 SUB SWAP1 REVERT JUMPDEST PUSH1 0x0 DUP5 MLOAD GT PUSH2 0x1BAA JUMPI PUSH1 0x40 MLOAD PUSH32 0x8C379A000000000000000000000000000000000000000000000000000000000 DUP2 MSTORE PUSH1 0x4 ADD PUSH2 0x1BA1 SWAP1 PUSH2 0x44FD JUMP JUMPDEST PUSH1 0x40 MLOAD DUP1 SWAP2 SUB SWAP1 REVERT JUMPDEST PUSH1 0x0 PUSH2 0x1BB5 DUP10 PUSH2 0x3020 JUMP JUMPDEST SWAP1 POP PUSH1 0x0 PUSH1 0x2 DUP12 PUSH1 0x40 MLOAD PUSH2 0x1BC9 SWAP2 SWAP1 PUSH2 0x3E8F JUMP JUMPDEST SWAP1 DUP2 MSTORE PUSH1 0x20 ADD PUSH1 0x40 MLOAD DUP1 SWAP2 SUB SWAP1 KECCAK256 PUSH1 0x0 DUP4 DUP2 MSTORE PUSH1 0x20 ADD SWAP1 DUP2 MSTORE PUSH1 0x20 ADD PUSH1 0x0 KECCAK256 SWAP1 POP DUP1 PUSH1 0x2 ADD PUSH1 0x14 SWAP1 SLOAD SWAP1 PUSH2 0x100 EXP SWAP1 DIV PUSH1 0xFF AND PUSH2 0x1C3B JUMPI PUSH1 0x40 MLOAD PUSH32 0x8C379A000000000000000000000000000000000000000000000000000000000 DUP2 MSTORE PUSH1 0x4 ADD PUSH2 0x1C32 SWAP1 PUSH2 0x45D5 JUMP JUMPDEST PUSH1 0x40 MLOAD DUP1 SWAP2 SUB SWAP1 REVERT JUMPDEST PUSH1 0x0 DUP10 MLOAD SUB PUSH2 0x1CD8 JUMPI DUP1 PUSH1 0x1 ADD DUP1 SLOAD PUSH2 0x1C53 SWAP1 PUSH2 0x3F41 JUMP JUMPDEST DUP1 PUSH1 0x1F ADD PUSH1 0x20 DUP1 SWAP2 DIV MUL PUSH1 0x20 ADD PUSH1 0x40 MLOAD SWAP1 DUP2 ADD PUSH1 0x40 MSTORE DUP1 SWAP3 SWAP2 SWAP1 DUP2 DUP2 MSTORE PUSH1 0x20 ADD DUP3 DUP1 SLOAD PUSH2 0x1C7F SWAP1 PUSH2 0x3F41 JUMP JUMPDEST DUP1 ISZERO PUSH2 0x1CCC JUMPI DUP1 PUSH1 0x1F LT PUSH2 0x1CA1 JUMPI PUSH2 0x100 DUP1 DUP4 SLOAD DIV MUL DUP4 MSTORE SWAP2 PUSH1 0x20 ADD SWAP2 PUSH2 0x1CCC JUMP JUMPDEST DUP3 ADD SWAP2 SWAP1 PUSH1 0x0 MSTORE PUSH1 0x20 PUSH1 0x0 KECCAK256 SWAP1 JUMPDEST DUP2 SLOAD DUP2 MSTORE SWAP1 PUSH1 0x1 ADD SWAP1 PUSH1 0x20 ADD DUP1 DUP4 GT PUSH2 0x1CAF JUMPI DUP3 SWAP1 SUB PUSH1 0x1F AND DUP3 ADD SWAP2 JUMPDEST POP POP POP POP POP SWAP9 POP PUSH2 0x1D3A JUMP JUMPDEST DUP9 DUP1 MLOAD SWAP1 PUSH1 0x20 ADD KECCAK256 DUP2 PUSH1 0x1 ADD PUSH1 0x40 MLOAD PUSH2 0x1CF1 SWAP2 SWAP1 PUSH2 0x490E JUMP JUMPDEST PUSH1 0x40 MLOAD DUP1 SWAP2 SUB SWAP1 KECCAK256 EQ PUSH2 0x1D39 JUMPI PUSH1 0x40 MLOAD PUSH32 0x8C379A000000000000000000000000000000000000000000000000000000000 DUP2 MSTORE PUSH1 0x4 ADD PUSH2 0x1D30 SWAP1 PUSH2 0x4971 JUMP JUMPDEST PUSH1 0x40 MLOAD DUP1 SWAP2 SUB SWAP1 REVERT JUMPDEST JUMPDEST PUSH1 0x0 PUSH1 0x9 PUSH1 0x0 DUP2 SLOAD DUP1 SWAP3 SWAP2 SWAP1 PUSH2 0x1D4F SWAP1 PUSH2 0x42F7 JUMP JUMPDEST SWAP2 SWAP1 POP SSTORE SWAP1 POP PUSH1 0x40 MLOAD DUP1 PUSH2 0x140 ADD PUSH1 0x40 MSTORE DUP1 DUP3 DUP2 MSTORE PUSH1 0x20 ADD DUP14 DUP2 MSTORE PUSH1 0x20 ADD DUP13 DUP2 MSTORE PUSH1 0x20 ADD DUP12 DUP2 MSTORE PUSH1 0x20 ADD DUP4 PUSH1 0x2 ADD PUSH1 0x0 SWAP1 SLOAD SWAP1 PUSH2 0x100 EXP SWAP1 DIV PUSH20 0xFFFFFFFFFFFFFFFFFFFFFFFFFFFFFFFFFFFFFFFF AND PUSH20 0xFFFFFFFFFFFFFFFFFFFFFFFFFFFFFFFFFFFFFFFF AND DUP2 MSTORE PUSH1 0x20 ADD DUP11 DUP2 MSTORE PUSH1 0x20 ADD DUP10 DUP2 MSTORE PUSH1 0x20 ADD DUP9 DUP2 MSTORE PUSH1 0x20 ADD DUP8 DUP2 MSTORE PUSH1 0x20 ADD TIMESTAMP DUP2 MSTORE POP PUSH1 0x5 PUSH1 0x0 DUP4 DUP2 MSTORE PUSH1 0x20 ADD SWAP1 DUP2 MSTORE PUSH1 0x20 ADD PUSH1 0x0 KECCAK256 PUSH1 0x0 DUP3 ADD MLOAD DUP2 PUSH1 0x0 ADD SSTORE PUSH1 0x20 DUP3 ADD MLOAD DUP2 PUSH1 0x1 ADD SWAP1 DUP2 PUSH2 0x1E07 SWAP2 SWAP1 PUSH2 0x411E JUMP JUMPDEST POP PUSH1 0x40 DUP3 ADD MLOAD DUP2 PUSH1 0x2 ADD SWAP1 DUP2 PUSH2 0x1E1D SWAP2 SWAP1 PUSH2 0x411E JUMP JUMPDEST POP PUSH1 0x60 DUP3 ADD MLOAD DUP2 PUSH1 0x3 ADD SWAP1 DUP2 PUSH2 0x1E33 SWAP2 SWAP1 PUSH2 0x411E JUMP JUMPDEST POP PUSH1 0x80 DUP3 ADD MLOAD DUP2 PUSH1 0x4 ADD PUSH1 0x0 PUSH2 0x100 EXP DUP2 SLOAD DUP2 PUSH20 0xFFFFFFFFFFFFFFFFFFFFFFFFFFFFFFFFFFFFFFFF MUL NOT AND SWAP1 DUP4 PUSH20 0xFFFFFFFFFFFFFFFFFFFFFFFFFFFFFFFFFFFFFFFF AND MUL OR SWAP1 SSTORE POP PUSH1 0xA0 DUP3 ADD MLOAD DUP2 PUSH1 0x5 ADD SWAP1 DUP2 PUSH2 0x1E90 SWAP2 SWAP1 PUSH2 0x411E JUMP JUMPDEST POP PUSH1 0xC0 DUP3 ADD MLOAD DUP2 PUSH1 0x6 ADD SWAP1 DUP2 PUSH2 0x1EA6 SWAP2 SWAP1 PUSH2 0x411E JUMP JUMPDEST POP PUSH1 0xE0 DUP3 ADD MLOAD DUP2 PUSH1 0x7 ADD SWAP1 DUP2 PUSH2 0x1EBC SWAP2 SWAP1 PUSH2 0x411E JUMP JUMPDEST POP PUSH2 0x100 DUP3 ADD MLOAD DUP2 PUSH1 0x8 ADD SSTORE PUSH2 0x120 DUP3 ADD MLOAD DUP2 PUSH1 0x9 ADD SSTORE SWAP1 POP POP PUSH1 0x4 DUP13 PUSH1 0x40 MLOAD PUSH2 0x1EE6 SWAP2 SWAP1 PUSH2 0x3E8F JUMP JUMPDEST SWAP1 DUP2 MSTORE PUSH1 0x20 ADD PUSH1 0x40 MLOAD DUP1 SWAP2 SUB SWAP1 KECCAK256 DUP2 SWAP1 DUP1 PUSH1 0x1 DUP2 SLOAD ADD DUP1 DUP3 SSTORE DUP1 SWAP2 POP POP PUSH1 0x1 SWAP1 SUB SWAP1 PUSH1 0x0 MSTORE PUSH1 0x20 PUSH1 0x0 KECCAK256 ADD PUSH1 0x0 SWAP1 SWAP2 SWAP1 SWAP2 SWAP1 SWAP2 POP SSTORE DUP11 PUSH1 0x40 MLOAD PUSH2 0x1F29 SWAP2 SWAP1 PUSH2 0x3E8F JUMP JUMPDEST PUSH1 0x40 MLOAD DUP1 SWAP2 SUB SWAP1 KECCAK256 DUP13 PUSH1 0x40 MLOAD PUSH2 0x1F3F SWAP2 SWAP1 PUSH2 0x3E8F JUMP JUMPDEST PUSH1 0x40 MLOAD DUP1 SWAP2 SUB SWAP1 KECCAK256 DUP3 PUSH32 0xDEDE3AF022C0C1182F1BE40127BABCDF6F8DB18866D079873F2A7C29D3B8EF6A DUP13 DUP13 DUP13 DUP13 TIMESTAMP PUSH1 0x40 MLOAD PUSH2 0x1F7F SWAP6 SWAP5 SWAP4 SWAP3 SWAP2 SWAP1 PUSH2 0x468F JUMP JUMPDEST PUSH1 0x40 MLOAD DUP1 SWAP2 SUB SWAP1 LOG4 DUP1 SWAP5 POP POP POP POP POP SWAP8 SWAP7 POP POP POP POP POP POP POP JUMP JUMPDEST PUSH32 0x0 DUP2 JUMP JUMPDEST PUSH1 0x0 PUSH1 0x9 SLOAD SWAP1 POP SWAP1 JUMP JUMPDEST PUSH32 0x0 PUSH20 0xFFFFFFFFFFFFFFFFFFFFFFFFFFFFFFFFFFFFFFFF AND CALLER PUSH20 0xFFFFFFFFFFFFFFFFFFFFFFFFFFFFFFFFFFFFFFFF AND EQ PUSH2 0x2055 JUMPI PUSH1 0x40 MLOAD PUSH32 0x8C379A000000000000000000000000000000000000000000000000000000000 DUP2 MSTORE PUSH1 0x4 ADD PUSH2 0x204C SWAP1 PUSH2 0x3E33 JUMP JUMPDEST PUSH1 0x40 MLOAD DUP1 SWAP2 SUB SWAP1 REVERT JUMPDEST DUP4 PUSH1 0x0 DUP2 PUSH1 0x40 MLOAD PUSH2 0x2066 SWAP2 SWAP1 PUSH2 0x3E8F JUMP JUMPDEST SWAP1 DUP2 MSTORE PUSH1 0x20 ADD PUSH1 0x40 MLOAD DUP1 SWAP2 SUB SWAP1 KECCAK256 PUSH1 0x2 ADD PUSH1 0x0 SWAP1 SLOAD SWAP1 PUSH2 0x100 EXP SWAP1 DIV PUSH1 0xFF AND PUSH2 0x20C4 JUMPI PUSH1 0x40 MLOAD PUSH32 0x8C379A000000000000000000000000000000000000000000000000000000000 DUP2 MSTORE PUSH1 0x4 ADD PUSH2 0x20BB SWAP1 PUSH2 0x3EF2 JUMP JUMPDEST PUSH1 0x40 MLOAD DUP1 SWAP2 SUB SWAP1 REVERT JUMPDEST PUSH1 0x0 DUP5 MLOAD GT PUSH2 0x2108 JUMPI PUSH1 0x40 MLOAD PUSH32 0x8C379A000000000000000000000000000000000000000000000000000000000 DUP2 MSTORE PUSH1 0x4 ADD PUSH2 0x20FF SWAP1 PUSH2 0x49DD JUMP JUMPDEST PUSH1 0x40 MLOAD DUP1 SWAP2 SUB SWAP1 REVERT JUMPDEST PUSH1 0x0 DUP4 MLOAD GT PUSH2 0x214C JUMPI PUSH1 0x40 MLOAD PUSH32 0x8C379A000000000000000000000000000000000000000000000000000000000 DUP2 MSTORE PUSH1 0x4 ADD PUSH2 0x2143 SWAP1 PUSH2 0x4A49 JUMP JUMPDEST PUSH1 0x40 MLOAD DUP1 SWAP2 SUB SWAP1 REVERT JUMPDEST PUSH1 0x0 PUSH20 0xFFFFFFFFFFFFFFFFFFFFFFFFFFFFFFFFFFFFFFFF AND DUP3 PUSH20 0xFFFFFFFFFFFFFFFFFFFFFFFFFFFFFFFFFFFFFFFF AND SUB PUSH2 0x21BB JUMPI PUSH1 0x40 MLOAD PUSH32 0x8C379A000000000000000000000000000000000000000000000000000000000 DUP2 MSTORE PUSH1 0x4 ADD PUSH2 0x21B2 SWAP1 PUSH2 0x4AB5 JUMP JUMPDEST PUSH1 0x40 MLOAD DUP1 SWAP2 SUB SWAP1 REVERT JUMPDEST PUSH1 0x0 PUSH2 0x21C6 DUP6 PUSH2 0x3020 JUMP JUMPDEST SWAP1 POP PUSH1 0x0 PUSH1 0x2 DUP8 PUSH1 0x40 MLOAD PUSH2 0x21DA SWAP2 SWAP1 PUSH2 0x3E8F JUMP JUMPDEST SWAP1 DUP2 MSTORE PUSH1 0x20 ADD PUSH1 0x40 MLOAD DUP1 SWAP2 SUB SWAP1 KECCAK256 PUSH1 0x0 DUP4 DUP2 MSTORE PUSH1 0x20 ADD SWAP1 DUP2 MSTORE PUSH1 0x20 ADD PUSH1 0x0 KECCAK256 SWAP1 POP PUSH1 0x0 DUP2 PUSH1 0x0 ADD DUP1 SLOAD PUSH2 0x220C SWAP1 PUSH2 0x3F41 JUMP JUMPDEST SWAP1 POP SUB PUSH2 0x225D JUMPI PUSH1 0x1 DUP8 PUSH1 0x40 MLOAD PUSH2 0x2223 SWAP2 SWAP1 PUSH2 0x3E8F JUMP JUMPDEST SWAP1 DUP2 MSTORE PUSH1 0x20 ADD PUSH1 0x40 MLOAD DUP1 SWAP2 SUB SWAP1 KECCAK256 DUP3 SWAP1 DUP1 PUSH1 0x1 DUP2 SLOAD ADD DUP1 DUP3 SSTORE DUP1 SWAP2 POP POP PUSH1 0x1 SWAP1 SUB SWAP1 PUSH1 0x0 MSTORE PUSH1 0x20 PUSH1 0x0 KECCAK256 ADD PUSH1 0x0 SWAP1 SWAP2 SWAP1 SWAP2 SWAP1 SWAP2 POP SSTORE PUSH2 0x233D JUMP JUMPDEST DUP4 PUSH20 0xFFFFFFFFFFFFFFFFFFFFFFFFFFFFFFFFFFFFFFFF AND DUP2 PUSH1 0x2 ADD PUSH1 0x0 SWAP1 SLOAD SWAP1 PUSH2 0x100 EXP SWAP1 DIV PUSH20 0xFFFFFFFFFFFFFFFFFFFFFFFFFFFFFFFFFFFFFFFF AND PUSH20 0xFFFFFFFFFFFFFFFFFFFFFFFFFFFFFFFFFFFFFFFF AND EQ PUSH2 0x233C JUMPI PUSH1 0x0 DUP1 SHL PUSH1 0x3 DUP9 PUSH1 0x40 MLOAD PUSH2 0x22C8 SWAP2 SWAP1 PUSH2 0x3E8F JUMP JUMPDEST SWAP1 DUP2 MSTORE PUSH1 0x20 ADD PUSH1 0x40 MLOAD DUP1 SWAP2 SUB SWAP1 KECCAK256 PUSH1 0x0 DUP4 PUSH1 0x2 ADD PUSH1 0x0 SWAP1 SLOAD SWAP1 PUSH2 0x100 EXP SWAP1 DIV PUSH20 0xFFFFFFFFFFFFFFFFFFFFFFFFFFFFFFFFFFFFFFFF AND PUSH20 0xFFFFFFFFFFFFFFFFFFFFFFFFFFFFFFFFFFFFFFFF AND PUSH20 0xFFFFFFFFFFFFFFFFFFFFFFFFFFFFFFFFFFFFFFFF AND DUP2 MSTORE PUSH1 0x20 ADD SWAP1 DUP2 MSTORE PUSH1 0x20 ADD PUSH1 0x0 KECCAK256 DUP2 SWAP1 SSTORE POP JUMPDEST JUMPDEST DUP6 DUP2 PUSH1 0x0 ADD SWAP1 DUP2 PUSH2 0x234E SWAP2 SWAP1 PUSH2 0x411E JUMP JUMPDEST POP DUP5 DUP2 PUSH1 0x1 ADD SWAP1 DUP2 PUSH2 0x2360 SWAP2 SWAP1 PUSH2 0x411E JUMP JUMPDEST POP DUP4 DUP2 PUSH1 0x2 ADD PUSH1 0x0 PUSH2 0x100 EXP DUP2 SLOAD DUP2 PUSH20 0xFFFFFFFFFFFFFFFFFFFFFFFFFFFFFFFFFFFFFFFF MUL NOT AND SWAP1 DUP4 PUSH20 0xFFFFFFFFFFFFFFFFFFFFFFFFFFFFFFFFFFFFFFFF AND MUL OR SWAP1 SSTORE POP PUSH1 0x1 DUP2 PUSH1 0x2 ADD PUSH1 0x14 PUSH2 0x100 EXP DUP2 SLOAD DUP2 PUSH1 0xFF MUL NOT AND SWAP1 DUP4 ISZERO ISZERO MUL OR SWAP1 SSTORE POP TIMESTAMP DUP2 PUSH1 0x3 ADD DUP2 SWAP1 SSTORE POP DUP2 PUSH1 0x3 DUP9 PUSH1 0x40 MLOAD PUSH2 0x23DB SWAP2 SWAP1 PUSH2 0x3E8F JUMP JUMPDEST SWAP1 DUP2 MSTORE PUSH1 0x20 ADD PUSH1 0x40 MLOAD DUP1 SWAP2 SUB SWAP1 KECCAK256 PUSH1 0x0 DUP7 PUSH20 0xFFFFFFFFFFFFFFFFFFFFFFFFFFFFFFFFFFFFFFFF AND PUSH20 0xFFFFFFFFFFFFFFFFFFFFFFFFFFFFFFFFFFFFFFFF AND DUP2 MSTORE PUSH1 0x20 ADD SWAP1 DUP2 MSTORE PUSH1 0x20 ADD PUSH1 0x0 KECCAK256 DUP2 SWAP1 SSTORE POP DUP4 PUSH20 0xFFFFFFFFFFFFFFFFFFFFFFFFFFFFFFFFFFFFFFFF AND DUP7 PUSH1 0x40 MLOAD PUSH2 0x244F SWAP2 SWAP1 PUSH2 0x3E8F JUMP JUMPDEST PUSH1 0x40 MLOAD DUP1 SWAP2 SUB SWAP1 KECCAK256 DUP9 PUSH1 0x40 MLOAD PUSH2 0x2465 SWAP2 SWAP1 PUSH2 0x3E8F JUMP JUMPDEST PUSH1 0x40 MLOAD DUP1 SWAP2 SUB SWAP1 KECCAK256 PUSH32 0x7F32E1DE1C19AD349406EBB07F08DCF4FF3A5BD591B0EF876773CF26F5C11C40 DUP9 TIMESTAMP PUSH1 0x40 MLOAD PUSH2 0x249E SWAP3 SWAP2 SWAP1 PUSH2 0x483B JUMP JUMPDEST PUSH1 0x40 MLOAD DUP1 SWAP2 SUB SWAP1 LOG4 POP POP POP POP POP POP POP JUMP JUMPDEST PUSH1 0x60 DUP2 PUSH1 0x0 DUP2 PUSH1 0x40 MLOAD PUSH2 0x24C2 SWAP2 SWAP1 PUSH2 0x3E8F JUMP JUMPDEST SWAP1 DUP2 MSTORE PUSH1 0x20 ADD PUSH1 0x40 MLOAD DUP1 SWAP2 SUB SWAP1 KECCAK256 PUSH1 0x2 ADD PUSH1 0x0 SWAP1 SLOAD SWAP1 PUSH2 0x100 EXP SWAP1 DIV PUSH1 0xFF AND PUSH2 0x2520 JUMPI PUSH1 0x40 MLOAD PUSH32 0x8C379A000000000000000000000000000000000000000000000000000000000 DUP2 MSTORE PUSH1 0x4 ADD PUSH2 0x2517 SWAP1 PUSH2 0x3EF2 JUMP JUMPDEST PUSH1 0x40 MLOAD DUP1 SWAP2 SUB SWAP1 REVERT JUMPDEST PUSH1 0x4 DUP4 PUSH1 0x40 MLOAD PUSH2 0x2530 SWAP2 SWAP1 PUSH2 0x3E8F JUMP JUMPDEST SWAP1 DUP2 MSTORE PUSH1 0x20 ADD PUSH1 0x40 MLOAD DUP1 SWAP2 SUB SWAP1 KECCAK256 DUP1 SLOAD DUP1 PUSH1 0x20 MUL PUSH1 0x20 ADD PUSH1 0x40 MLOAD SWAP1 DUP2 ADD PUSH1 0x40 MSTORE DUP1 SWAP3 SWAP2 SWAP1 DUP2 DUP2 MSTORE PUSH1 0x20 ADD DUP3 DUP1 SLOAD DUP1 ISZERO PUSH2 0x2588 JUMPI PUSH1 0x20 MUL DUP3 ADD SWAP2 SWAP1 PUSH1 0x0 MSTORE PUSH1 0x20 PUSH1 0x0 KECCAK256 SWAP1 JUMPDEST DUP2 SLOAD DUP2 MSTORE PUSH1 0x20 ADD SWAP1 PUSH1 0x1 ADD SWAP1 DUP1 DUP4 GT PUSH2 0x2574 JUMPI JUMPDEST POP POP POP POP POP SWAP2 POP POP SWAP2 SWAP1 POP JUMP JUMPDEST PUSH2 0x259D PUSH2 0x30E1 JUMP JUMPDEST DUP2 PUSH1 0x0 DUP2 PUSH1 0x40 MLOAD PUSH2 0x25AE SWAP2 SWAP1 PUSH2 0x3E8F JUMP JUMPDEST SWAP1 DUP2 MSTORE PUSH1 0x20 ADD PUSH1 0x40 MLOAD DUP1 SWAP2 SUB SWAP1 KECCAK256 PUSH1 0x2 ADD PUSH1 0x0 SWAP1 SLOAD SWAP1 PUSH2 0x100 EXP SWAP1 DIV PUSH1 0xFF AND PUSH2 0x260C JUMPI PUSH1 0x40 MLOAD PUSH32 0x8C379A000000000000000000000000000000000000000000000000000000000 DUP2 MSTORE PUSH1 0x4 ADD PUSH2 0x2603 SWAP1 PUSH2 0x3EF2 JUMP JUMPDEST PUSH1 0x40 MLOAD DUP1 SWAP2 SUB SWAP1 REVERT JUMPDEST PUSH1 0x0 DUP4 PUSH1 0x40 MLOAD PUSH2 0x261C SWAP2 SWAP1 PUSH2 0x3E8F JUMP JUMPDEST SWAP1 DUP2 MSTORE PUSH1 0x20 ADD PUSH1 0x40 MLOAD DUP1 SWAP2 SUB SWAP1 KECCAK256 PUSH1 0x40 MLOAD DUP1 PUSH1 0x80 ADD PUSH1 0x40 MSTORE SWAP1 DUP2 PUSH1 0x0 DUP3 ADD DUP1 SLOAD PUSH2 0x2645 SWAP1 PUSH2 0x3F41 JUMP JUMPDEST DUP1 PUSH1 0x1F ADD PUSH1 0x20 DUP1 SWAP2 DIV MUL PUSH1 0x20 ADD PUSH1 0x40 MLOAD SWAP1 DUP2 ADD PUSH1 0x40 MSTORE DUP1 SWAP3 SWAP2 SWAP1 DUP2 DUP2 MSTORE PUSH1 0x20 ADD DUP3 DUP1 SLOAD PUSH2 0x2671 SWAP1 PUSH2 0x3F41 JUMP JUMPDEST DUP1 ISZERO PUSH2 0x26BE JUMPI DUP1 PUSH1 0x1F LT PUSH2 0x2693 JUMPI PUSH2 0x100 DUP1 DUP4 SLOAD DIV MUL DUP4 MSTORE SWAP2 PUSH1 0x20 ADD SWAP2 PUSH2 0x26BE JUMP JUMPDEST DUP3 ADD SWAP2 SWAP1 PUSH1 0x0 MSTORE PUSH1 0x20 PUSH1 0x0 KECCAK256 SWAP1 JUMPDEST DUP2 SLOAD DUP2 MSTORE SWAP1 PUSH1 0x1 ADD SWAP1 PUSH1 0x20 ADD DUP1 DUP4 GT PUSH2 0x26A1 JUMPI DUP3 SWAP1 SUB PUSH1 0x1F AND DUP3 ADD SWAP2 JUMPDEST POP POP POP POP POP DUP2 MSTORE PUSH1 0x20 ADD PUSH1 0x1 DUP3 ADD DUP1 SLOAD PUSH2 0x26D7 SWAP1 PUSH2 0x3F41 JUMP JUMPDEST DUP1 PUSH1 0x1F ADD PUSH1 0x20 DUP1 SWAP2 DIV MUL PUSH1 0x20 ADD PUSH1 0x40 MLOAD SWAP1 DUP2 ADD PUSH1 0x40 MSTORE DUP1 SWAP3 SWAP2 SWAP1 DUP2 DUP2 MSTORE PUSH1 0x20 ADD DUP3 DUP1 SLOAD PUSH2 0x2703 SWAP1 PUSH2 0x3F41 JUMP JUMPDEST DUP1 ISZERO PUSH2 0x2750 JUMPI DUP1 PUSH1 0x1F LT PUSH2 0x2725 JUMPI PUSH2 0x100 DUP1 DUP4 SLOAD DIV MUL DUP4 MSTORE SWAP2 PUSH1 0x20 ADD SWAP2 PUSH2 0x2750 JUMP JUMPDEST DUP3 ADD SWAP2 SWAP1 PUSH1 0x0 MSTORE PUSH1 0x20 PUSH1 0x0 KECCAK256 SWAP1 JUMPDEST DUP2 SLOAD DUP2 MSTORE SWAP1 PUSH1 0x1 ADD SWAP1 PUSH1 0x20 ADD DUP1 DUP4 GT PUSH2 0x2733 JUMPI DUP3 SWAP1 SUB PUSH1 0x1F AND DUP3 ADD SWAP2 JUMPDEST POP POP POP POP POP DUP2 MSTORE PUSH1 0x20 ADD PUSH1 0x2 DUP3 ADD PUSH1 0x0 SWAP1 SLOAD SWAP1 PUSH2 0x100 EXP SWAP1 DIV PUSH1 0xFF AND ISZERO ISZERO ISZERO ISZERO DUP2 MSTORE PUSH1 0x20 ADD PUSH1 0x3 DUP3 ADD SLOAD DUP2 MSTORE POP POP SWAP2 POP POP SWAP2 SWAP1 POP JUMP JUMPDEST PUSH1 0x0 PUSH32 0x0 PUSH20 0xFFFFFFFFFFFFFFFFFFFFFFFFFFFFFFFFFFFFFFFF AND CALLER PUSH20 0xFFFFFFFFFFFFFFFFFFFFFFFFFFFFFFFFFFFFFFFF AND EQ PUSH2 0x2816 JUMPI PUSH1 0x40 MLOAD PUSH32 0x8C379A000000000000000000000000000000000000000000000000000000000 DUP2 MSTORE PUSH1 0x4 ADD PUSH2 0x280D SWAP1 PUSH2 0x3E33 JUMP JUMPDEST PUSH1 0x40 MLOAD DUP1 SWAP2 SUB SWAP1 REVERT JUMPDEST PUSH1 0x8 PUSH1 0x0 DUP5 DUP2 MSTORE PUSH1 0x20 ADD SWAP1 DUP2 MSTORE PUSH1 0x20 ADD PUSH1 0x0 KECCAK256 PUSH1 0x7 ADD PUSH1 0x0 SWAP1 SLOAD SWAP1 PUSH2 0x100 EXP SWAP1 DIV PUSH1 0xFF AND PUSH2 0x2879 JUMPI PUSH1 0x40 MLOAD PUSH32 0x8C379A000000000000000000000000000000000000000000000000000000000 DUP2 MSTORE PUSH1 0x4 ADD PUSH2 0x2870 SWAP1 PUSH2 0x4743 JUMP JUMPDEST PUSH1 0x40 MLOAD DUP1 SWAP2 SUB SWAP1 REVERT JUMPDEST PUSH1 0x0 DUP3 MLOAD GT PUSH2 0x28BD JUMPI PUSH1 0x40 MLOAD PUSH32 0x8C379A000000000000000000000000000000000000000000000000000000000 DUP2 MSTORE PUSH1 0x4 ADD PUSH2 0x28B4 SWAP1 PUSH2 0x4B21 JUMP JUMPDEST PUSH1 0x40 MLOAD DUP1 SWAP2 SUB SWAP1 REVERT JUMPDEST PUSH1 0x0 PUSH2 0x28C8 DUP4 PUSH2 0x3020 JUMP JUMPDEST SWAP1 POP PUSH1 0x1 PUSH1 0x6 PUSH1 0x0 DUP7 DUP2 MSTORE PUSH1 0x20 ADD SWAP1 DUP2 MSTORE PUSH1 0x20 ADD PUSH1 0x0 KECCAK256 PUSH1 0x0 DUP4 DUP2 MSTORE PUSH1 0x20 ADD SWAP1 DUP2 MSTORE PUSH1 0x20 ADD PUSH1 0x0 KECCAK256 PUSH1 0x0 PUSH2 0x100 EXP DUP2 SLOAD DUP2 PUSH1 0xFF MUL NOT AND SWAP1 DUP4 ISZERO ISZERO MUL OR SWAP1 SSTORE POP DUP3 PUSH1 0x40 MLOAD PUSH2 0x2915 SWAP2 SWAP1 PUSH2 0x3E8F JUMP JUMPDEST PUSH1 0x40 MLOAD DUP1 SWAP2 SUB SWAP1 KECCAK256 PUSH1 0x8 PUSH1 0x0 DUP7 DUP2 MSTORE PUSH1 0x20 ADD SWAP1 DUP2 MSTORE PUSH1 0x20 ADD PUSH1 0x0 KECCAK256 PUSH1 0x1 ADD PUSH1 0x40 MLOAD PUSH2 0x2940 SWAP2 SWAP1 PUSH2 0x4678 JUMP JUMPDEST PUSH1 0x40 MLOAD DUP1 SWAP2 SUB SWAP1 KECCAK256 DUP6 PUSH32 0x3DC871A421B0DE3BCB519220D648F02EFBB6807744382F02D4D4D22E660AD783 TIMESTAMP PUSH1 0x40 MLOAD PUSH2 0x2978 SWAP2 SWAP1 PUSH2 0x3528 JUMP JUMPDEST PUSH1 0x40 MLOAD DUP1 SWAP2 SUB SWAP1 LOG4 PUSH1 0x1 SWAP2 POP POP SWAP3 SWAP2 POP POP JUMP JUMPDEST PUSH1 0x0 PUSH1 0xA SLOAD SWAP1 POP SWAP1 JUMP JUMPDEST PUSH1 0x0 DUP2 PUSH1 0x0 DUP2 PUSH1 0x40 MLOAD PUSH2 0x29A8 SWAP2 SWAP1 PUSH2 0x3E8F JUMP JUMPDEST SWAP1 DUP2 MSTORE PUSH1 0x20 ADD PUSH1 0x40 MLOAD DUP1 SWAP2 SUB SWAP1 KECCAK256 PUSH1 0x2 ADD PUSH1 0x0 SWAP1 SLOAD SWAP1 PUSH2 0x100 EXP SWAP1 DIV PUSH1 0xFF AND PUSH2 0x2A06 JUMPI PUSH1 0x40 MLOAD PUSH32 0x8C379A000000000000000000000000000000000000000000000000000000000 DUP2 MSTORE PUSH1 0x4 ADD PUSH2 0x29FD SWAP1 PUSH2 0x3EF2 JUMP JUMPDEST PUSH1 0x40 MLOAD DUP1 SWAP2 SUB SWAP1 REVERT JUMPDEST PUSH1 0x1 DUP4 PUSH1 0x40 MLOAD PUSH2 0x2A16 SWAP2 SWAP1 PUSH2 0x3E8F JUMP JUMPDEST SWAP1 DUP2 MSTORE PUSH1 0x20 ADD PUSH1 0x40 MLOAD DUP1 SWAP2 SUB SWAP1 KECCAK256 DUP1 SLOAD SWAP1 POP SWAP2 POP POP SWAP2 SWAP1 POP JUMP JUMPDEST PUSH2 0x2A38 PUSH2 0x310B JUMP JUMPDEST DUP3 PUSH1 0x0 DUP2 PUSH1 0x40 MLOAD PUSH2 0x2A49 SWAP2 SWAP1 PUSH2 0x3E8F JUMP JUMPDEST SWAP1 DUP2 MSTORE PUSH1 0x20 ADD PUSH1 0x40 MLOAD DUP1 SWAP2 SUB SWAP1 KECCAK256 PUSH1 0x2 ADD PUSH1 0x0 SWAP1 SLOAD SWAP1 PUSH2 0x100 EXP SWAP1 DIV PUSH1 0xFF AND PUSH2 0x2AA7 JUMPI PUSH1 0x40 MLOAD PUSH32 0x8C379A000000000000000000000000000000000000000000000000000000000 DUP2 MSTORE PUSH1 0x4 ADD PUSH2 0x2A9E SWAP1 PUSH2 0x3EF2 JUMP JUMPDEST PUSH1 0x40 MLOAD DUP1 SWAP2 SUB SWAP1 REVERT JUMPDEST PUSH1 0x0 PUSH1 0x2 DUP6 PUSH1 0x40 MLOAD PUSH2 0x2AB9 SWAP2 SWAP1 PUSH2 0x3E8F JUMP JUMPDEST SWAP1 DUP2 MSTORE PUSH1 0x20 ADD PUSH1 0x40 MLOAD DUP1 SWAP2 SUB SWAP1 KECCAK256 PUSH1 0x0 PUSH2 0x2AD2 DUP7 PUSH2 0x3020 JUMP JUMPDEST DUP2 MSTORE PUSH1 0x20 ADD SWAP1 DUP2 MSTORE PUSH1 0x20 ADD PUSH1 0x0 KECCAK256 PUSH1 0x40 MLOAD DUP1 PUSH1 0xA0 ADD PUSH1 0x40 MSTORE SWAP1 DUP2 PUSH1 0x0 DUP3 ADD DUP1 SLOAD PUSH2 0x2AFB SWAP1 PUSH2 0x3F41 JUMP JUMPDEST DUP1 PUSH1 0x1F ADD PUSH1 0x20 DUP1 SWAP2 DIV MUL PUSH1 0x20 ADD PUSH1 0x40 MLOAD SWAP1 DUP2 ADD PUSH1 0x40 MSTORE DUP1 SWAP3 SWAP2 SWAP1 DUP2 DUP2 MSTORE PUSH1 0x20 ADD DUP3 DUP1 SLOAD PUSH2 0x2B27 SWAP1 PUSH2 0x3F41 JUMP JUMPDEST DUP1 ISZERO PUSH2 0x2B74 JUMPI DUP1 PUSH1 0x1F LT PUSH2 0x2B49 JUMPI PUSH2 0x100 DUP1 DUP4 SLOAD DIV MUL DUP4 MSTORE SWAP2 PUSH1 0x20 ADD SWAP2 PUSH2 0x2B74 JUMP JUMPDEST DUP3 ADD SWAP2 SWAP1 PUSH1 0x0 MSTORE PUSH1 0x20 PUSH1 0x0 KECCAK256 SWAP1 JUMPDEST DUP2 SLOAD DUP2 MSTORE SWAP1 PUSH1 0x1 ADD SWAP1 PUSH1 0x20 ADD DUP1 DUP4 GT PUSH2 0x2B57 JUMPI DUP3 SWAP1 SUB PUSH1 0x1F AND DUP3 ADD SWAP2 JUMPDEST POP POP POP POP POP DUP2 MSTORE PUSH1 0x20 ADD PUSH1 0x1 DUP3 ADD DUP1 SLOAD PUSH2 0x2B8D SWAP1 PUSH2 0x3F41 JUMP JUMPDEST DUP1 PUSH1 0x1F ADD PUSH1 0x20 DUP1 SWAP2 DIV MUL PUSH1 0x20 ADD PUSH1 0x40 MLOAD SWAP1 DUP2 ADD PUSH1 0x40 MSTORE DUP1 SWAP3 SWAP2 SWAP1 DUP2 DUP2 MSTORE PUSH1 0x20 ADD DUP3 DUP1 SLOAD PUSH2 0x2BB9 SWAP1 PUSH2 0x3F41 JUMP JUMPDEST DUP1 ISZERO PUSH2 0x2C06 JUMPI DUP1 PUSH1 0x1F LT PUSH2 0x2BDB JUMPI PUSH2 0x100 DUP1 DUP4 SLOAD DIV MUL DUP4 MSTORE SWAP2 PUSH1 0x20 ADD SWAP2 PUSH2 0x2C06 JUMP JUMPDEST DUP3 ADD SWAP2 SWAP1 PUSH1 0x0 MSTORE PUSH1 0x20 PUSH1 0x0 KECCAK256 SWAP1 JUMPDEST DUP2 SLOAD DUP2 MSTORE SWAP1 PUSH1 0x1 ADD SWAP1 PUSH1 0x20 ADD DUP1 DUP4 GT PUSH2 0x2BE9 JUMPI DUP3 SWAP1 SUB PUSH1 0x1F AND DUP3 ADD SWAP2 JUMPDEST POP POP POP POP POP DUP2 MSTORE PUSH1 0x20 ADD PUSH1 0x2 DUP3 ADD PUSH1 0x0 SWAP1 SLOAD SWAP1 PUSH2 0x100 EXP SWAP1 DIV PUSH20 0xFFFFFFFFFFFFFFFFFFFFFFFFFFFFFFFFFFFFFFFF AND PUSH20 0xFFFFFFFFFFFFFFFFFFFFFFFFFFFFFFFFFFFFFFFF AND PUSH20 0xFFFFFFFFFFFFFFFFFFFFFFFFFFFFFFFFFFFFFFFF AND DUP2 MSTORE PUSH1 0x20 ADD PUSH1 0x2 DUP3 ADD PUSH1 0x14 SWAP1 SLOAD SWAP1 PUSH2 0x100 EXP SWAP1 DIV PUSH1 0xFF AND ISZERO ISZERO ISZERO ISZERO DUP2 MSTORE PUSH1 0x20 ADD PUSH1 0x3 DUP3 ADD SLOAD DUP2 MSTORE POP POP SWAP1 POP PUSH1 0x0 DUP2 PUSH1 0x0 ADD MLOAD MLOAD GT PUSH2 0x2CD4 JUMPI PUSH1 0x40 MLOAD PUSH32 0x8C379A000000000000000000000000000000000000000000000000000000000 DUP2 MSTORE PUSH1 0x4 ADD PUSH2 0x2CCB SWAP1 PUSH2 0x4B8D JUMP JUMPDEST PUSH1 0x40 MLOAD DUP1 SWAP2 SUB SWAP1 REVERT JUMPDEST DUP1 SWAP3 POP POP POP SWAP3 SWAP2 POP POP JUMP JUMPDEST PUSH1 0x0 PUSH1 0x2 DUP4 PUSH1 0x40 MLOAD PUSH2 0x2CF1 SWAP2 SWAP1 PUSH2 0x3E8F JUMP JUMPDEST SWAP1 DUP2 MSTORE PUSH1 0x20 ADD PUSH1 0x40 MLOAD DUP1 SWAP2 SUB SWAP1 KECCAK256 PUSH1 0x0 PUSH2 0x2D0A DUP5 PUSH2 0x3020 JUMP JUMPDEST DUP2 MSTORE PUSH1 0x20 ADD SWAP1 DUP2 MSTORE PUSH1 0x20 ADD PUSH1 0x0 KECCAK256 PUSH1 0x2 ADD PUSH1 0x14 SWAP1 SLOAD SWAP1 PUSH2 0x100 EXP SWAP1 DIV PUSH1 0xFF AND SWAP1 POP SWAP3 SWAP2 POP POP JUMP JUMPDEST PUSH32 0x0 PUSH20 0xFFFFFFFFFFFFFFFFFFFFFFFFFFFFFFFFFFFFFFFF AND CALLER PUSH20 0xFFFFFFFFFFFFFFFFFFFFFFFFFFFFFFFFFFFFFFFF AND EQ PUSH2 0x2DBF JUMPI PUSH1 0x40 MLOAD PUSH32 0x8C379A000000000000000000000000000000000000000000000000000000000 DUP2 MSTORE PUSH1 0x4 ADD PUSH2 0x2DB6 SWAP1 PUSH2 0x3E33 JUMP JUMPDEST PUSH1 0x40 MLOAD DUP1 SWAP2 SUB SWAP1 REVERT JUMPDEST DUP2 PUSH1 0x0 DUP2 PUSH1 0x40 MLOAD PUSH2 0x2DD0 SWAP2 SWAP1 PUSH2 0x3E8F JUMP JUMPDEST SWAP1 DUP2 MSTORE PUSH1 0x20 ADD PUSH1 0x40 MLOAD DUP1 SWAP2 SUB SWAP1 KECCAK256 PUSH1 0x2 ADD PUSH1 0x0 SWAP1 SLOAD SWAP1 PUSH2 0x100 EXP SWAP1 DIV PUSH1 0xFF AND PUSH2 0x2E2E JUMPI PUSH1 0x40 MLOAD PUSH32 0x8C379A000000000000000000000000000000000000000000000000000000000 DUP2 MSTORE PUSH1 0x4 ADD PUSH2 0x2E25 SWAP1 PUSH2 0x3EF2 JUMP JUMPDEST PUSH1 0x40 MLOAD DUP1 SWAP2 SUB SWAP1 REVERT JUMPDEST PUSH1 0x0 PUSH2 0x2E39 DUP4 PUSH2 0x3020 JUMP JUMPDEST SWAP1 POP PUSH1 0x0 PUSH1 0x2 DUP6 PUSH1 0x40 MLOAD PUSH2 0x2E4D SWAP2 SWAP1 PUSH2 0x3E8F JUMP JUMPDEST SWAP1 DUP2 MSTORE PUSH1 0x20 ADD PUSH1 0x40 MLOAD DUP1 SWAP2 SUB SWAP1 KECCAK256 PUSH1 0x0 DUP4 DUP2 MSTORE PUSH1 0x20 ADD SWAP1 DUP2 MSTORE PUSH1 0x20 ADD PUSH1 0x0 KECCAK256 SWAP1 POP PUSH1 0x0 DUP2 PUSH1 0x0 ADD DUP1 SLOAD PUSH2 0x2E7F SWAP1 PUSH2 0x3F41 JUMP JUMPDEST SWAP1 POP GT PUSH2 0x2EC1 JUMPI PUSH1 0x40 MLOAD PUSH32 0x8C379A000000000000000000000000000000000000000000000000000000000 DUP2 MSTORE PUSH1 0x4 ADD PUSH2 0x2EB8 SWAP1 PUSH2 0x4B8D JUMP JUMPDEST PUSH1 0x40 MLOAD DUP1 SWAP2 SUB SWAP1 REVERT JUMPDEST DUP1 PUSH1 0x2 ADD PUSH1 0x14 SWAP1 SLOAD SWAP1 PUSH2 0x100 EXP SWAP1 DIV PUSH1 0xFF AND PUSH2 0x2F12 JUMPI PUSH1 0x40 MLOAD PUSH32 0x8C379A000000000000000000000000000000000000000000000000000000000 DUP2 MSTORE PUSH1 0x4 ADD PUSH2 0x2F09 SWAP1 PUSH2 0x4BF9 JUMP JUMPDEST PUSH1 0x40 MLOAD DUP1 SWAP2 SUB SWAP1 REVERT JUMPDEST PUSH1 0x0 DUP1 SHL PUSH1 0x3 DUP7 PUSH1 0x40 MLOAD PUSH2 0x2F26 SWAP2 SWAP1 PUSH2 0x3E8F JUMP JUMPDEST SWAP1 DUP2 MSTORE PUSH1 0x20 ADD PUSH1 0x40 MLOAD DUP1 SWAP2 SUB SWAP1 KECCAK256 PUSH1 0x0 DUP4 PUSH1 0x2 ADD PUSH1 0x0 SWAP1 SLOAD SWAP1 PUSH2 0x100 EXP SWAP1 DIV PUSH20 0xFFFFFFFFFFFFFFFFFFFFFFFFFFFFFFFFFFFFFFFF AND PUSH20 0xFFFFFFFFFFFFFFFFFFFFFFFFFFFFFFFFFFFFFFFF AND PUSH20 0xFFFFFFFFFFFFFFFFFFFFFFFFFFFFFFFFFFFFFFFF AND DUP2 MSTORE PUSH1 0x20 ADD SWAP1 DUP2 MSTORE PUSH1 0x20 ADD PUSH1 0x0 KECCAK256 DUP2 SWAP1 SSTORE POP PUSH1 0x0 DUP2 PUSH1 0x2 ADD PUSH1 0x14 PUSH2 0x100 EXP DUP2 SLOAD DUP2 PUSH1 0xFF MUL NOT AND SWAP1 DUP4 ISZERO ISZERO MUL OR SWAP1 SSTORE POP DUP4 PUSH1 0x40 MLOAD PUSH2 0x2FC4 SWAP2 SWAP1 PUSH2 0x3E8F JUMP JUMPDEST PUSH1 0x40 MLOAD DUP1 SWAP2 SUB SWAP1 KECCAK256 DUP6 PUSH1 0x40 MLOAD PUSH2 0x2FDA SWAP2 SWAP1 PUSH2 0x3E8F JUMP JUMPDEST PUSH1 0x40 MLOAD DUP1 SWAP2 SUB SWAP1 KECCAK256 PUSH32 0x7E0C731807253762AD5C300DC71E21E154E6B5492F7A864D0EB74DD6902B000E TIMESTAMP PUSH1 0x40 MLOAD PUSH2 0x3011 SWAP2 SWAP1 PUSH2 0x3528 JUMP JUMPDEST PUSH1 0x40 MLOAD DUP1 SWAP2 SUB SWAP1 LOG3 POP POP POP POP POP JUMP JUMPDEST PUSH1 0x0 DUP2 DUP1 MLOAD SWAP1 PUSH1 0x20 ADD KECCAK256 SWAP1 POP SWAP2 SWAP1 POP JUMP JUMPDEST PUSH1 0x40 MLOAD DUP1 PUSH2 0x140 ADD PUSH1 0x40 MSTORE DUP1 PUSH1 0x0 DUP2 MSTORE PUSH1 0x20 ADD PUSH1 0x60 DUP2 MSTORE PUSH1 0x20 ADD PUSH1 0x60 DUP2 MSTORE PUSH1 0x20 ADD PUSH1 0x60 DUP2 MSTORE PUSH1 0x20 ADD PUSH1 0x0 PUSH20 0xFFFFFFFFFFFFFFFFFFFFFFFFFFFFFFFFFFFFFFFF AND DUP2 MSTORE PUSH1 0x20 ADD PUSH1 0x60 DUP2 MSTORE PUSH1 0x20 ADD PUSH1 0x60 DUP2 MSTORE PUSH1 0x20 ADD PUSH1 0x60 DUP2 MSTORE PUSH1 0x20 ADD PUSH1 0x0 DUP2 MSTORE PUSH1 0x20 ADD PUSH1 0x0 DUP2 MSTORE POP SWAP1 JUMP JUMPDEST PUSH1 0x40 MLOAD DUP1 PUSH2 0x100 ADD PUSH1 0x40 MSTORE DUP1 PUSH1 0x0 DUP2 MSTORE PUSH1 0x20 ADD PUSH1 0x60 DUP2 MSTORE PUSH1 0x20 ADD PUSH1 0x60 DUP2 MSTORE PUSH1 0x20 ADD PUSH1 0x60 DUP2 MSTORE PUSH1 0x20 ADD PUSH1 0x0 DUP2 MSTORE PUSH1 0x20 ADD PUSH1 0x0 DUP2 MSTORE PUSH1 0x20 ADD PUSH1 0x0 DUP2 MSTORE PUSH1 0x20 ADD PUSH1 0x0 ISZERO ISZERO DUP2 MSTORE POP SWAP1 JUMP JUMPDEST PUSH1 0x40 MLOAD DUP1 PUSH1 0x80 ADD PUSH1 0x40 MSTORE DUP1 PUSH1 0x60 DUP2 MSTORE PUSH1 0x20 ADD PUSH1 0x60 DUP2 MSTORE PUSH1 0x20 ADD PUSH1 0x0 ISZERO ISZERO DUP2 MSTORE PUSH1 0x20 ADD PUSH1 0x0 DUP2 MSTORE POP SWAP1 JUMP JUMPDEST PUSH1 0x40 MLOAD DUP1 PUSH1 0xA0 ADD PUSH1 0x40 MSTORE DUP1 PUSH1 0x60 DUP2 MSTORE PUSH1 0x20 ADD PUSH1 0x60 DUP2 MSTORE PUSH1 0x20 ADD PUSH1 0x0 PUSH20 0xFFFFFFFFFFFFFFFFFFFFFFFFFFFFFFFFFFFFFFFF AND DUP2 MSTORE PUSH1 0x20 ADD PUSH1 0x0 ISZERO ISZERO DUP2 MSTORE PUSH1 0x20 ADD PUSH1 0x0 DUP2 MSTORE POP SWAP1 JUMP JUMPDEST PUSH1 0x0 PUSH1 0x40 MLOAD SWAP1 POP SWAP1 JUMP JUMPDEST PUSH1 0x0 DUP1 REVERT JUMPDEST PUSH1 0x0 DUP1 REVERT JUMPDEST PUSH1 0x0 DUP1 REVERT JUMPDEST PUSH1 0x0 DUP1 REVERT JUMPDEST PUSH1 0x0 PUSH1 0x1F NOT PUSH1 0x1F DUP4 ADD AND SWAP1 POP SWAP2 SWAP1 POP JUMP JUMPDEST PUSH32 0x4E487B7100000000000000000000000000000000000000000000000000000000 PUSH1 0x0 MSTORE PUSH1 0x41 PUSH1 0x4 MSTORE PUSH1 0x24 PUSH1 0x0 REVERT JUMPDEST PUSH2 0x31B9 DUP3 PUSH2 0x3170 JUMP JUMPDEST DUP2 ADD DUP2 DUP2 LT PUSH8 0xFFFFFFFFFFFFFFFF DUP3 GT OR ISZERO PUSH2 0x31D8 JUMPI PUSH2 0x31D7 PUSH2 0x3181 JUMP JUMPDEST JUMPDEST DUP1 PUSH1 0x40 MSTORE POP POP POP JUMP JUMPDEST PUSH1 0x0 PUSH2 0x31EB PUSH2 0x3152 JUMP JUMPDEST SWAP1 POP PUSH2 0x31F7 DUP3 DUP3 PUSH2 0x31B0 JUMP JUMPDEST SWAP2 SWAP1 POP JUMP JUMPDEST PUSH1 0x0 PUSH8 0xFFFFFFFFFFFFFFFF DUP3 GT ISZERO PUSH2 0x3217 JUMPI PUSH2 0x3216 PUSH2 0x3181 JUMP JUMPDEST JUMPDEST PUSH2 0x3220 DUP3 PUSH2 0x3170 JUMP JUMPDEST SWAP1 POP PUSH1 0x20 DUP2 ADD SWAP1 POP SWAP2 SWAP1 POP JUMP JUMPDEST DUP3 DUP2 DUP4 CALLDATACOPY PUSH1 0x0 DUP4 DUP4 ADD MSTORE POP POP POP JUMP JUMPDEST PUSH1 0x0 PUSH2 0x324F PUSH2 0x324A DUP5 PUSH2 0x31FC JUMP JUMPDEST PUSH2 0x31E1 JUMP JUMPDEST SWAP1 POP DUP3 DUP2 MSTORE PUSH1 0x20 DUP2 ADD DUP5 DUP5 DUP5 ADD GT ISZERO PUSH2 0x326B JUMPI PUSH2 0x326A PUSH2 0x316B JUMP JUMPDEST JUMPDEST PUSH2 0x3276 DUP5 DUP3 DUP6 PUSH2 0x322D JUMP JUMPDEST POP SWAP4 SWAP3 POP POP POP JUMP JUMPDEST PUSH1 0x0 DUP3 PUSH1 0x1F DUP4 ADD SLT PUSH2 0x3293 JUMPI PUSH2 0x3292 PUSH2 0x3166 JUMP JUMPDEST JUMPDEST DUP2 CALLDATALOAD PUSH2 0x32A3 DUP5 DUP3 PUSH1 0x20 DUP7 ADD PUSH2 0x323C JUMP JUMPDEST SWAP2 POP POP SWAP3 SWAP2 POP POP JUMP JUMPDEST PUSH1 0x0 DUP1 PUSH1 0x40 DUP4 DUP6 SUB SLT ISZERO PUSH2 0x32C3 JUMPI PUSH2 0x32C2 PUSH2 0x315C JUMP JUMPDEST JUMPDEST PUSH1 0x0 DUP4 ADD CALLDATALOAD PUSH8 0xFFFFFFFFFFFFFFFF DUP2 GT ISZERO PUSH2 0x32E1 JUMPI PUSH2 0x32E0 PUSH2 0x3161 JUMP JUMPDEST JUMPDEST PUSH2 0x32ED DUP6 DUP3 DUP7 ADD PUSH2 0x327E JUMP JUMPDEST SWAP3 POP POP PUSH1 0x20 DUP4 ADD CALLDATALOAD PUSH8 0xFFFFFFFFFFFFFFFF DUP2 GT ISZERO PUSH2 0x330E JUMPI PUSH2 0x330D PUSH2 0x3161 JUMP JUMPDEST JUMPDEST PUSH2 0x331A DUP6 DUP3 DUP7 ADD PUSH2 0x327E JUMP JUMPDEST SWAP2 POP POP SWAP3 POP SWAP3 SWAP1 POP JUMP JUMPDEST PUSH1 0x0 PUSH20 0xFFFFFFFFFFFFFFFFFFFFFFFFFFFFFFFFFFFFFFFF DUP3 AND SWAP1 POP SWAP2 SWAP1 POP JUMP JUMPDEST PUSH1 0x0 PUSH2 0x334F DUP3 PUSH2 0x3324 JUMP JUMPDEST SWAP1 POP SWAP2 SWAP1 POP JUMP JUMPDEST PUSH2 0x335F DUP2 PUSH2 0x3344 JUMP JUMPDEST DUP2 EQ PUSH2 0x336A JUMPI PUSH1 0x0 DUP1 REVERT JUMPDEST POP JUMP JUMPDEST PUSH1 0x0 DUP2 CALLDATALOAD SWAP1 POP PUSH2 0x337C DUP2 PUSH2 0x3356 JUMP JUMPDEST SWAP3 SWAP2 POP POP JUMP JUMPDEST PUSH1 0x0 DUP1 PUSH1 0x40 DUP4 DUP6 SUB SLT ISZERO PUSH2 0x3399 JUMPI PUSH2 0x3398 PUSH2 0x315C JUMP JUMPDEST JUMPDEST PUSH1 0x0 DUP4 ADD CALLDATALOAD PUSH8 0xFFFFFFFFFFFFFFFF DUP2 GT ISZERO PUSH2 0x33B7 JUMPI PUSH2 0x33B6 PUSH2 0x3161 JUMP JUMPDEST JUMPDEST PUSH2 0x33C3 DUP6 DUP3 DUP7 ADD PUSH2 0x327E JUMP JUMPDEST SWAP3 POP POP PUSH1 0x20 PUSH2 0x33D4 DUP6 DUP3 DUP7 ADD PUSH2 0x336D JUMP JUMPDEST SWAP2 POP POP SWAP3 POP SWAP3 SWAP1 POP JUMP JUMPDEST PUSH1 0x0 DUP2 ISZERO ISZERO SWAP1 POP SWAP2 SWAP1 POP JUMP JUMPDEST PUSH2 0x33F3 DUP2 PUSH2 0x33DE JUMP JUMPDEST DUP3 MSTORE POP POP JUMP JUMPDEST PUSH1 0x0 PUSH1 0x20 DUP3 ADD SWAP1 POP PUSH2 0x340E PUSH1 0x0 DUP4 ADD DUP5 PUSH2 0x33EA JUMP JUMPDEST SWAP3 SWAP2 POP POP JUMP JUMPDEST PUSH1 0x0 DUP2 SWAP1 POP SWAP2 SWAP1 POP JUMP JUMPDEST PUSH2 0x3427 DUP2 PUSH2 0x3414 JUMP JUMPDEST DUP2 EQ PUSH2 0x3432 JUMPI PUSH1 0x0 DUP1 REVERT JUMPDEST POP JUMP JUMPDEST PUSH1 0x0 DUP2 CALLDATALOAD SWAP1 POP PUSH2 0x3444 DUP2 PUSH2 0x341E JUMP JUMPDEST SWAP3 SWAP2 POP POP JUMP JUMPDEST PUSH1 0x0 DUP1 PUSH1 0x0 DUP1 PUSH1 0x0 PUSH1 0xA0 DUP7 DUP9 SUB SLT ISZERO PUSH2 0x3466 JUMPI PUSH2 0x3465 PUSH2 0x315C JUMP JUMPDEST JUMPDEST PUSH1 0x0 DUP7 ADD CALLDATALOAD PUSH8 0xFFFFFFFFFFFFFFFF DUP2 GT ISZERO PUSH2 0x3484 JUMPI PUSH2 0x3483 PUSH2 0x3161 JUMP JUMPDEST JUMPDEST PUSH2 0x3490 DUP9 DUP3 DUP10 ADD PUSH2 0x327E JUMP JUMPDEST SWAP6 POP POP PUSH1 0x20 DUP7 ADD CALLDATALOAD PUSH8 0xFFFFFFFFFFFFFFFF DUP2 GT ISZERO PUSH2 0x34B1 JUMPI PUSH2 0x34B0 PUSH2 0x3161 JUMP JUMPDEST JUMPDEST PUSH2 0x34BD DUP9 DUP3 DUP10 ADD PUSH2 0x327E JUMP JUMPDEST SWAP5 POP POP PUSH1 0x40 DUP7 ADD CALLDATALOAD PUSH8 0xFFFFFFFFFFFFFFFF DUP2 GT ISZERO PUSH2 0x34DE JUMPI PUSH2 0x34DD PUSH2 0x3161 JUMP JUMPDEST JUMPDEST PUSH2 0x34EA DUP9 DUP3 DUP10 ADD PUSH2 0x327E JUMP JUMPDEST SWAP4 POP POP PUSH1 0x60 PUSH2 0x34FB DUP9 DUP3 DUP10 ADD PUSH2 0x3435 JUMP JUMPDEST SWAP3 POP POP PUSH1 0x80 PUSH2 0x350C DUP9 DUP3 DUP10 ADD PUSH2 0x3435 JUMP JUMPDEST SWAP2 POP POP SWAP3 SWAP6 POP SWAP3 SWAP6 SWAP1 SWAP4 POP JUMP JUMPDEST PUSH2 0x3522 DUP2 PUSH2 0x3414 JUMP JUMPDEST DUP3 MSTORE POP POP JUMP JUMPDEST PUSH1 0x0 PUSH1 0x20 DUP3 ADD SWAP1 POP PUSH2 0x353D PUSH1 0x0 DUP4 ADD DUP5 PUSH2 0x3519 JUMP JUMPDEST SWAP3 SWAP2 POP POP JUMP JUMPDEST PUSH1 0x0 PUSH1 0x20 DUP3 DUP5 SUB SLT ISZERO PUSH2 0x3559 JUMPI PUSH2 0x3558 PUSH2 0x315C JUMP JUMPDEST JUMPDEST PUSH1 0x0 DUP3 ADD CALLDATALOAD PUSH8 0xFFFFFFFFFFFFFFFF DUP2 GT ISZERO PUSH2 0x3577 JUMPI PUSH2 0x3576 PUSH2 0x3161 JUMP JUMPDEST JUMPDEST PUSH2 0x3583 DUP5 DUP3 DUP6 ADD PUSH2 0x327E JUMP JUMPDEST SWAP2 POP POP SWAP3 SWAP2 POP POP JUMP JUMPDEST PUSH1 0x0 DUP2 MLOAD SWAP1 POP SWAP2 SWAP1 POP JUMP JUMPDEST PUSH1 0x0 DUP3 DUP3 MSTORE PUSH1 0x20 DUP3 ADD SWAP1 POP SWAP3 SWAP2 POP POP JUMP JUMPDEST PUSH1 0x0 DUP2 SWAP1 POP PUSH1 0x20 DUP3 ADD SWAP1 POP SWAP2 SWAP1 POP JUMP JUMPDEST PUSH2 0x35C1 DUP2 PUSH2 0x3414 JUMP JUMPDEST DUP3 MSTORE POP POP JUMP JUMPDEST PUSH1 0x0 PUSH2 0x35D3 DUP4 DUP4 PUSH2 0x35B8 JUMP JUMPDEST PUSH1 0x20 DUP4 ADD SWAP1 POP SWAP3 SWAP2 POP POP JUMP JUMPDEST PUSH1 0x0 PUSH1 0x20 DUP3 ADD SWAP1 POP SWAP2 SWAP1 POP JUMP JUMPDEST PUSH1 0x0 PUSH2 0x35F7 DUP3 PUSH2 0x358C JUMP JUMPDEST PUSH2 0x3601 DUP2 DUP6 PUSH2 0x3597 JUMP JUMPDEST SWAP4 POP PUSH2 0x360C DUP4 PUSH2 0x35A8 JUMP JUMPDEST DUP1 PUSH1 0x0 JUMPDEST DUP4 DUP2 LT ISZERO PUSH2 0x363D JUMPI DUP2 MLOAD PUSH2 0x3624 DUP9 DUP3 PUSH2 0x35C7 JUMP JUMPDEST SWAP8 POP PUSH2 0x362F DUP4 PUSH2 0x35DF JUMP JUMPDEST SWAP3 POP POP PUSH1 0x1 DUP2 ADD SWAP1 POP PUSH2 0x3610 JUMP JUMPDEST POP DUP6 SWAP4 POP POP POP POP SWAP3 SWAP2 POP POP JUMP JUMPDEST PUSH1 0x0 PUSH1 0x20 DUP3 ADD SWAP1 POP DUP2 DUP2 SUB PUSH1 0x0 DUP4 ADD MSTORE PUSH2 0x3664 DUP2 DUP5 PUSH2 0x35EC JUMP JUMPDEST SWAP1 POP SWAP3 SWAP2 POP POP JUMP JUMPDEST PUSH1 0x0 PUSH1 0x20 DUP3 DUP5 SUB SLT ISZERO PUSH2 0x3682 JUMPI PUSH2 0x3681 PUSH2 0x315C JUMP JUMPDEST JUMPDEST PUSH1 0x0 PUSH2 0x3690 DUP5 DUP3 DUP6 ADD PUSH2 0x3435 JUMP JUMPDEST SWAP2 POP POP SWAP3 SWAP2 POP POP JUMP JUMPDEST PUSH1 0x0 DUP2 MLOAD SWAP1 POP SWAP2 SWAP1 POP JUMP JUMPDEST PUSH1 0x0 DUP3 DUP3 MSTORE PUSH1 0x20 DUP3 ADD SWAP1 POP SWAP3 SWAP2 POP POP JUMP JUMPDEST PUSH1 0x0 JUMPDEST DUP4 DUP2 LT ISZERO PUSH2 0x36D3 JUMPI DUP1 DUP3 ADD MLOAD DUP2 DUP5 ADD MSTORE PUSH1 0x20 DUP2 ADD SWAP1 POP PUSH2 0x36B8 JUMP JUMPDEST PUSH1 0x0 DUP5 DUP5 ADD MSTORE POP POP POP POP JUMP JUMPDEST PUSH1 0x0 PUSH2 0x36EA DUP3 PUSH2 0x3699 JUMP JUMPDEST PUSH2 0x36F4 DUP2 DUP6 PUSH2 0x36A4 JUMP JUMPDEST SWAP4 POP PUSH2 0x3704 DUP2 DUP6 PUSH1 0x20 DUP7 ADD PUSH2 0x36B5 JUMP JUMPDEST PUSH2 0x370D DUP2 PUSH2 0x3170 JUMP JUMPDEST DUP5 ADD SWAP2 POP POP SWAP3 SWAP2 POP POP JUMP JUMPDEST PUSH2 0x3721 DUP2 PUSH2 0x3344 JUMP JUMPDEST DUP3 MSTORE POP POP JUMP JUMPDEST PUSH1 0x0 PUSH2 0x140 DUP4 ADD PUSH1 0x0 DUP4 ADD MLOAD PUSH2 0x3740 PUSH1 0x0 DUP7 ADD DUP3 PUSH2 0x35B8 JUMP JUMPDEST POP PUSH1 0x20 DUP4 ADD MLOAD DUP5 DUP3 SUB PUSH1 0x20 DUP7 ADD MSTORE PUSH2 0x3758 DUP3 DUP3 PUSH2 0x36DF JUMP JUMPDEST SWAP2 POP POP PUSH1 0x40 DUP4 ADD MLOAD DUP5 DUP3 SUB PUSH1 0x40 DUP7 ADD MSTORE PUSH2 0x3772 DUP3 DUP3 PUSH2 0x36DF JUMP JUMPDEST SWAP2 POP POP PUSH1 0x60 DUP4 ADD MLOAD DUP5 DUP3 SUB PUSH1 0x60 DUP7 ADD MSTORE PUSH2 0x378C DUP3 DUP3 PUSH2 0x36DF JUMP JUMPDEST SWAP2 POP POP PUSH1 0x80 DUP4 ADD MLOAD PUSH2 0x37A1 PUSH1 0x80 DUP7 ADD DUP3 PUSH2 0x3718 JUMP JUMPDEST POP PUSH1 0xA0 DUP4 ADD MLOAD DUP5 DUP3 SUB PUSH1 0xA0 DUP7 ADD MSTORE PUSH2 0x37B9 DUP3 DUP3 PUSH2 0x36DF JUMP JUMPDEST SWAP2 POP POP PUSH1 0xC0 DUP4 ADD MLOAD DUP5 DUP3 SUB PUSH1 0xC0 DUP7 ADD MSTORE PUSH2 0x37D3 DUP3 DUP3 PUSH2 0x36DF JUMP JUMPDEST SWAP2 POP POP PUSH1 0xE0 DUP4 ADD MLOAD DUP5 DUP3 SUB PUSH1 0xE0 DUP7 ADD MSTORE PUSH2 0x37ED DUP3 DUP3 PUSH2 0x36DF JUMP JUMPDEST SWAP2 POP POP PUSH2 0x100 DUP4 ADD MLOAD PUSH2 0x3804 PUSH2 0x100 DUP7 ADD DUP3 PUSH2 0x35B8 JUMP JUMPDEST POP PUSH2 0x120 DUP4 ADD MLOAD PUSH2 0x3819 PUSH2 0x120 DUP7 ADD DUP3 PUSH2 0x35B8 JUMP JUMPDEST POP DUP1 SWAP2 POP POP SWAP3 SWAP2 POP POP JUMP JUMPDEST PUSH1 0x0 PUSH1 0x20 DUP3 ADD SWAP1 POP DUP2 DUP2 SUB PUSH1 0x0 DUP4 ADD MSTORE PUSH2 0x383E DUP2 DUP5 PUSH2 0x3727 JUMP JUMPDEST SWAP1 POP SWAP3 SWAP2 POP POP JUMP JUMPDEST PUSH1 0x0 DUP1 PUSH1 0x0 DUP1 PUSH1 0x0 PUSH1 0xA0 DUP7 DUP9 SUB SLT ISZERO PUSH2 0x3862 JUMPI PUSH2 0x3861 PUSH2 0x315C JUMP JUMPDEST JUMPDEST PUSH1 0x0 DUP7 ADD CALLDATALOAD PUSH8 0xFFFFFFFFFFFFFFFF DUP2 GT ISZERO PUSH2 0x3880 JUMPI PUSH2 0x387F PUSH2 0x3161 JUMP JUMPDEST JUMPDEST PUSH2 0x388C DUP9 DUP3 DUP10 ADD PUSH2 0x327E JUMP JUMPDEST SWAP6 POP POP PUSH1 0x20 DUP7 ADD CALLDATALOAD PUSH8 0xFFFFFFFFFFFFFFFF DUP2 GT ISZERO PUSH2 0x38AD JUMPI PUSH2 0x38AC PUSH2 0x3161 JUMP JUMPDEST JUMPDEST PUSH2 0x38B9 DUP9 DUP3 DUP10 ADD PUSH2 0x327E JUMP JUMPDEST SWAP5 POP POP PUSH1 0x40 DUP7 ADD CALLDATALOAD PUSH8 0xFFFFFFFFFFFFFFFF DUP2 GT ISZERO PUSH2 0x38DA JUMPI PUSH2 0x38D9 PUSH2 0x3161 JUMP JUMPDEST JUMPDEST PUSH2 0x38E6 DUP9 DUP3 DUP10 ADD PUSH2 0x327E JUMP JUMPDEST SWAP4 POP POP PUSH1 0x60 DUP7 ADD CALLDATALOAD PUSH8 0xFFFFFFFFFFFFFFFF DUP2 GT ISZERO PUSH2 0x3907 JUMPI PUSH2 0x3906 PUSH2 0x3161 JUMP JUMPDEST JUMPDEST PUSH2 0x3913 DUP9 DUP3 DUP10 ADD PUSH2 0x327E JUMP JUMPDEST SWAP3 POP POP PUSH1 0x80 PUSH2 0x3924 DUP9 DUP3 DUP10 ADD PUSH2 0x3435 JUMP JUMPDEST SWAP2 POP POP SWAP3 SWAP6 POP SWAP3 SWAP6 SWAP1 SWAP4 POP JUMP JUMPDEST PUSH2 0x393A DUP2 PUSH2 0x33DE JUMP JUMPDEST DUP3 MSTORE POP POP JUMP JUMPDEST PUSH1 0x0 PUSH2 0x100 DUP4 ADD PUSH1 0x0 DUP4 ADD MLOAD PUSH2 0x3959 PUSH1 0x0 DUP7 ADD DUP3 PUSH2 0x35B8 JUMP JUMPDEST POP PUSH1 0x20 DUP4 ADD MLOAD DUP5 DUP3 SUB PUSH1 0x20 DUP7 ADD MSTORE PUSH2 0x3971 DUP3 DUP3 PUSH2 0x36DF JUMP JUMPDEST SWAP2 POP POP PUSH1 0x40 DUP4 ADD MLOAD DUP5 DUP3 SUB PUSH1 0x40 DUP7 ADD MSTORE PUSH2 0x398B DUP3 DUP3 PUSH2 0x36DF JUMP JUMPDEST SWAP2 POP POP PUSH1 0x60 DUP4 ADD MLOAD DUP5 DUP3 SUB PUSH1 0x60 DUP7 ADD MSTORE PUSH2 0x39A5 DUP3 DUP3 PUSH2 0x36DF JUMP JUMPDEST SWAP2 POP POP PUSH1 0x80 DUP4 ADD MLOAD PUSH2 0x39BA PUSH1 0x80 DUP7 ADD DUP3 PUSH2 0x35B8 JUMP JUMPDEST POP PUSH1 0xA0 DUP4 ADD MLOAD PUSH2 0x39CD PUSH1 0xA0 DUP7 ADD DUP3 PUSH2 0x35B8 JUMP JUMPDEST POP PUSH1 0xC0 DUP4 ADD MLOAD PUSH2 0x39E0 PUSH1 0xC0 DUP7 ADD DUP3 PUSH2 0x35B8 JUMP JUMPDEST POP PUSH1 0xE0 DUP4 ADD MLOAD PUSH2 0x39F3 PUSH1 0xE0 DUP7 ADD DUP3 PUSH2 0x3931 JUMP JUMPDEST POP DUP1 SWAP2 POP POP SWAP3 SWAP2 POP POP JUMP JUMPDEST PUSH1 0x0 PUSH1 0x20 DUP3 ADD SWAP1 POP DUP2 DUP2 SUB PUSH1 0x0 DUP4 ADD MSTORE PUSH2 0x3A18 DUP2 DUP5 PUSH2 0x3940 JUMP JUMPDEST SWAP1 POP SWAP3 SWAP2 POP POP JUMP JUMPDEST PUSH1 0x0 DUP1 PUSH1 0x40 DUP4 DUP6 SUB SLT ISZERO PUSH2 0x3A37 JUMPI PUSH2 0x3A36 PUSH2 0x315C JUMP JUMPDEST JUMPDEST PUSH1 0x0 PUSH2 0x3A45 DUP6 DUP3 DUP7 ADD PUSH2 0x3435 JUMP JUMPDEST SWAP3 POP POP PUSH1 0x20 DUP4 ADD CALLDATALOAD PUSH8 0xFFFFFFFFFFFFFFFF DUP2 GT ISZERO PUSH2 0x3A66 JUMPI PUSH2 0x3A65 PUSH2 0x3161 JUMP JUMPDEST JUMPDEST PUSH2 0x3A72 DUP6 DUP3 DUP7 ADD PUSH2 0x327E JUMP JUMPDEST SWAP2 POP POP SWAP3 POP SWAP3 SWAP1 POP JUMP JUMPDEST PUSH1 0x0 DUP1 PUSH1 0x0 DUP1 PUSH1 0x0 DUP1 PUSH1 0x0 PUSH1 0xE0 DUP9 DUP11 SUB SLT ISZERO PUSH2 0x3A9B JUMPI PUSH2 0x3A9A PUSH2 0x315C JUMP JUMPDEST JUMPDEST PUSH1 0x0 DUP9 ADD CALLDATALOAD PUSH8 0xFFFFFFFFFFFFFFFF DUP2 GT ISZERO PUSH2 0x3AB9 JUMPI PUSH2 0x3AB8 PUSH2 0x3161 JUMP JUMPDEST JUMPDEST PUSH2 0x3AC5 DUP11 DUP3 DUP12 ADD PUSH2 0x327E JUMP JUMPDEST SWAP8 POP POP PUSH1 0x20 DUP9 ADD CALLDATALOAD PUSH8 0xFFFFFFFFFFFFFFFF DUP2 GT ISZERO PUSH2 0x3AE6 JUMPI PUSH2 0x3AE5 PUSH2 0x3161 JUMP JUMPDEST JUMPDEST PUSH2 0x3AF2 DUP11 DUP3 DUP12 ADD PUSH2 0x327E JUMP JUMPDEST SWAP7 POP POP PUSH1 0x40 DUP9 ADD CALLDATALOAD PUSH8 0xFFFFFFFFFFFFFFFF DUP2 GT ISZERO PUSH2 0x3B13 JUMPI PUSH2 0x3B12 PUSH2 0x3161 JUMP JUMPDEST JUMPDEST PUSH2 0x3B1F DUP11 DUP3 DUP12 ADD PUSH2 0x327E JUMP JUMPDEST SWAP6 POP POP PUSH1 0x60 DUP9 ADD CALLDATALOAD PUSH8 0xFFFFFFFFFFFFFFFF DUP2 GT ISZERO PUSH2 0x3B40 JUMPI PUSH2 0x3B3F PUSH2 0x3161 JUMP JUMPDEST JUMPDEST PUSH2 0x3B4C DUP11 DUP3 DUP12 ADD PUSH2 0x327E JUMP JUMPDEST SWAP5 POP POP PUSH1 0x80 DUP9 ADD CALLDATALOAD PUSH8 0xFFFFFFFFFFFFFFFF DUP2 GT ISZERO PUSH2 0x3B6D JUMPI PUSH2 0x3B6C PUSH2 0x3161 JUMP JUMPDEST JUMPDEST PUSH2 0x3B79 DUP11 DUP3 DUP12 ADD PUSH2 0x327E JUMP JUMPDEST SWAP4 POP POP PUSH1 0xA0 DUP9 ADD CALLDATALOAD PUSH8 0xFFFFFFFFFFFFFFFF DUP2 GT ISZERO PUSH2 0x3B9A JUMPI PUSH2 0x3B99 PUSH2 0x3161 JUMP JUMPDEST JUMPDEST PUSH2 0x3BA6 DUP11 DUP3 DUP12 ADD PUSH2 0x327E JUMP JUMPDEST SWAP3 POP POP PUSH1 0xC0 PUSH2 0x3BB7 DUP11 DUP3 DUP12 ADD PUSH2 0x3435 JUMP JUMPDEST SWAP2 POP POP SWAP3 SWAP6 SWAP9 SWAP2 SWAP5 SWAP8 POP SWAP3 SWAP6 POP JUMP JUMPDEST PUSH2 0x3BCF DUP2 PUSH2 0x3344 JUMP JUMPDEST DUP3 MSTORE POP POP JUMP JUMPDEST PUSH1 0x0 PUSH1 0x20 DUP3 ADD SWAP1 POP PUSH2 0x3BEA PUSH1 0x0 DUP4 ADD DUP5 PUSH2 0x3BC6 JUMP JUMPDEST SWAP3 SWAP2 POP POP JUMP JUMPDEST PUSH1 0x0 DUP1 PUSH1 0x0 DUP1 PUSH1 0x80 DUP6 DUP8 SUB SLT ISZERO PUSH2 0x3C0A JUMPI PUSH2 0x3C09 PUSH2 0x315C JUMP JUMPDEST JUMPDEST PUSH1 0x0 DUP6 ADD CALLDATALOAD PUSH8 0xFFFFFFFFFFFFFFFF DUP2 GT ISZERO PUSH2 0x3C28 JUMPI PUSH2 0x3C27 PUSH2 0x3161 JUMP JUMPDEST JUMPDEST PUSH2 0x3C34 DUP8 DUP3 DUP9 ADD PUSH2 0x327E JUMP JUMPDEST SWAP5 POP POP PUSH1 0x20 DUP6 ADD CALLDATALOAD PUSH8 0xFFFFFFFFFFFFFFFF DUP2 GT ISZERO PUSH2 0x3C55 JUMPI PUSH2 0x3C54 PUSH2 0x3161 JUMP JUMPDEST JUMPDEST PUSH2 0x3C61 DUP8 DUP3 DUP9 ADD PUSH2 0x327E JUMP JUMPDEST SWAP4 POP POP PUSH1 0x40 DUP6 ADD CALLDATALOAD PUSH8 0xFFFFFFFFFFFFFFFF DUP2 GT ISZERO PUSH2 0x3C82 JUMPI PUSH2 0x3C81 PUSH2 0x3161 JUMP JUMPDEST JUMPDEST PUSH2 0x3C8E DUP8 DUP3 DUP9 ADD PUSH2 0x327E JUMP JUMPDEST SWAP3 POP POP PUSH1 0x60 PUSH2 0x3C9F DUP8 DUP3 DUP9 ADD PUSH2 0x336D JUMP JUMPDEST SWAP2 POP POP SWAP3 SWAP6 SWAP2 SWAP5 POP SWAP3 POP JUMP JUMPDEST PUSH1 0x0 PUSH1 0x80 DUP4 ADD PUSH1 0x0 DUP4 ADD MLOAD DUP5 DUP3 SUB PUSH1 0x0 DUP7 ADD MSTORE PUSH2 0x3CC8 DUP3 DUP3 PUSH2 0x36DF JUMP JUMPDEST SWAP2 POP POP PUSH1 0x20 DUP4 ADD MLOAD DUP5 DUP3 SUB PUSH1 0x20 DUP7 ADD MSTORE PUSH2 0x3CE2 DUP3 DUP3 PUSH2 0x36DF JUMP JUMPDEST SWAP2 POP POP PUSH1 0x40 DUP4 ADD MLOAD PUSH2 0x3CF7 PUSH1 0x40 DUP7 ADD DUP3 PUSH2 0x3931 JUMP JUMPDEST POP PUSH1 0x60 DUP4 ADD MLOAD PUSH2 0x3D0A PUSH1 0x60 DUP7 ADD DUP3 PUSH2 0x35B8 JUMP JUMPDEST POP DUP1 SWAP2 POP POP SWAP3 SWAP2 POP POP JUMP JUMPDEST PUSH1 0x0 PUSH1 0x20 DUP3 ADD SWAP1 POP DUP2 DUP2 SUB PUSH1 0x0 DUP4 ADD MSTORE PUSH2 0x3D2F DUP2 DUP5 PUSH2 0x3CAB JUMP JUMPDEST SWAP1 POP SWAP3 SWAP2 POP POP JUMP JUMPDEST PUSH1 0x0 PUSH1 0xA0 DUP4 ADD PUSH1 0x0 DUP4 ADD MLOAD DUP5 DUP3 SUB PUSH1 0x0 DUP7 ADD MSTORE PUSH2 0x3D54 DUP3 DUP3 PUSH2 0x36DF JUMP JUMPDEST SWAP2 POP POP PUSH1 0x20 DUP4 ADD MLOAD DUP5 DUP3 SUB PUSH1 0x20 DUP7 ADD MSTORE PUSH2 0x3D6E DUP3 DUP3 PUSH2 0x36DF JUMP JUMPDEST SWAP2 POP POP PUSH1 0x40 DUP4 ADD MLOAD PUSH2 0x3D83 PUSH1 0x40 DUP7 ADD DUP3 PUSH2 0x3718 JUMP JUMPDEST POP PUSH1 0x60 DUP4 ADD MLOAD PUSH2 0x3D96 PUSH1 0x60 DUP7 ADD DUP3 PUSH2 0x3931 JUMP JUMPDEST POP PUSH1 0x80 DUP4 ADD MLOAD PUSH2 0x3DA9 PUSH1 0x80 DUP7 ADD DUP3 PUSH2 0x35B8 JUMP JUMPDEST POP DUP1 SWAP2 POP POP SWAP3 SWAP2 POP POP JUMP JUMPDEST PUSH1 0x0 PUSH1 0x20 DUP3 ADD SWAP1 POP DUP2 DUP2 SUB PUSH1 0x0 DUP4 ADD MSTORE PUSH2 0x3DCE DUP2 DUP5 PUSH2 0x3D37 JUMP JUMPDEST SWAP1 POP SWAP3 SWAP2 POP POP JUMP JUMPDEST PUSH1 0x0 DUP3 DUP3 MSTORE PUSH1 0x20 DUP3 ADD SWAP1 POP SWAP3 SWAP2 POP POP JUMP JUMPDEST PUSH32 0x4F6E6C79206F776E657200000000000000000000000000000000000000000000 PUSH1 0x0 DUP3 ADD MSTORE POP JUMP JUMPDEST PUSH1 0x0 PUSH2 0x3E1D PUSH1 0xA DUP4 PUSH2 0x3DD6 JUMP JUMPDEST SWAP2 POP PUSH2 0x3E28 DUP3 PUSH2 0x3DE7 JUMP JUMPDEST PUSH1 0x20 DUP3 ADD SWAP1 POP SWAP2 SWAP1 POP JUMP JUMPDEST PUSH1 0x0 PUSH1 0x20 DUP3 ADD SWAP1 POP DUP2 DUP2 SUB PUSH1 0x0 DUP4 ADD MSTORE PUSH2 0x3E4C DUP2 PUSH2 0x3E10 JUMP JUMPDEST SWAP1 POP SWAP2 SWAP1 POP JUMP JUMPDEST PUSH1 0x0 DUP2 SWAP1 POP SWAP3 SWAP2 POP POP JUMP JUMPDEST PUSH1 0x0 PUSH2 0x3E69 DUP3 PUSH2 0x3699 JUMP JUMPDEST PUSH2 0x3E73 DUP2 DUP6 PUSH2 0x3E53 JUMP JUMPDEST SWAP4 POP PUSH2 0x3E83 DUP2 DUP6 PUSH1 0x20 DUP7 ADD PUSH2 0x36B5 JUMP JUMPDEST DUP1 DUP5 ADD SWAP2 POP POP SWAP3 SWAP2 POP POP JUMP JUMPDEST PUSH1 0x0 PUSH2 0x3E9B DUP3 DUP5 PUSH2 0x3E5E JUMP JUMPDEST SWAP2 POP DUP2 SWAP1 POP SWAP3 SWAP2 POP POP JUMP JUMPDEST PUSH32 0x436F6D70616E79206E6F7420666F756E64000000000000000000000000000000 PUSH1 0x0 DUP3 ADD MSTORE POP JUMP JUMPDEST PUSH1 0x0 PUSH2 0x3EDC PUSH1 0x11 DUP4 PUSH2 0x3DD6 JUMP JUMPDEST SWAP2 POP PUSH2 0x3EE7 DUP3 PUSH2 0x3EA6 JUMP JUMPDEST PUSH1 0x20 DUP3 ADD SWAP1 POP SWAP2 SWAP1 POP JUMP JUMPDEST PUSH1 0x0 PUSH1 0x20 DUP3 ADD SWAP1 POP DUP2 DUP2 SUB PUSH1 0x0 DUP4 ADD MSTORE PUSH2 0x3F0B DUP2 PUSH2 0x3ECF JUMP JUMPDEST SWAP1 POP SWAP2 SWAP1 POP JUMP JUMPDEST PUSH32 0x4E487B7100000000000000000000000000000000000000000000000000000000 PUSH1 0x0 MSTORE PUSH1 0x22 PUSH1 0x4 MSTORE PUSH1 0x24 PUSH1 0x0 REVERT JUMPDEST PUSH1 0x0 PUSH1 0x2 DUP3 DIV SWAP1 POP PUSH1 0x1 DUP3 AND DUP1 PUSH2 0x3F59 JUMPI PUSH1 0x7F DUP3 AND SWAP2 POP JUMPDEST PUSH1 0x20 DUP3 LT DUP2 SUB PUSH2 0x3F6C JUMPI PUSH2 0x3F6B PUSH2 0x3F12 JUMP JUMPDEST JUMPDEST POP SWAP2 SWAP1 POP JUMP JUMPDEST PUSH1 0x0 DUP2 SWAP1 POP DUP2 PUSH1 0x0 MSTORE PUSH1 0x20 PUSH1 0x0 KECCAK256 SWAP1 POP SWAP2 SWAP1 POP JUMP JUMPDEST PUSH1 0x0 PUSH1 0x20 PUSH1 0x1F DUP4 ADD DIV SWAP1 POP SWAP2 SWAP1 POP JUMP JUMPDEST PUSH1 0x0 DUP3 DUP3 SHL SWAP1 POP SWAP3 SWAP2 POP POP JUMP JUMPDEST PUSH1 0x0 PUSH1 0x8 DUP4 MUL PUSH2 0x3FD4 PUSH32 0xFFFFFFFFFFFFFFFFFFFFFFFFFFFFFFFFFFFFFFFFFFFFFFFFFFFFFFFFFFFFFFFF DUP3 PUSH2 0x3F97 JUMP JUMPDEST PUSH2 0x3FDE DUP7 DUP4 PUSH2 0x3F97 JUMP JUMPDEST SWAP6 POP DUP1 NOT DUP5 AND SWAP4 POP DUP1 DUP7 AND DUP5 OR SWAP3 POP POP POP SWAP4 SWAP3 POP POP POP JUMP JUMPDEST PUSH1 0x0 DUP2 SWAP1 POP SWAP2 SWAP1 POP JUMP JUMPDEST PUSH1 0x0 PUSH2 0x401B PUSH2 0x4016 PUSH2 0x4011 DUP5 PUSH2 0x3414 JUMP JUMPDEST PUSH2 0x3FF6 JUMP JUMPDEST PUSH2 0x3414 JUMP JUMPDEST SWAP1 POP SWAP2 SWAP1 POP JUMP JUMPDEST PUSH1 0x0 DUP2 SWAP1 POP SWAP2 SWAP1 POP JUMP JUMPDEST PUSH2 0x4035 DUP4 PUSH2 0x4000 JUMP JUMPDEST PUSH2 0x4049 PUSH2 0x4041 DUP3 PUSH2 0x4022 JUMP JUMPDEST DUP5 DUP5 SLOAD PUSH2 0x3FA4 JUMP JUMPDEST DUP3 SSTORE POP POP POP POP JUMP JUMPDEST PUSH1 0x0 SWAP1 JUMP JUMPDEST PUSH2 0x405E PUSH2 0x4051 JUMP JUMPDEST PUSH2 0x4069 DUP2 DUP5 DUP5 PUSH2 0x402C JUMP JUMPDEST POP POP POP JUMP JUMPDEST JUMPDEST DUP2 DUP2 LT ISZERO PUSH2 0x408D JUMPI PUSH2 0x4082 PUSH1 0x0 DUP3 PUSH2 0x4056 JUMP JUMPDEST PUSH1 0x1 DUP2 ADD SWAP1 POP PUSH2 0x406F JUMP JUMPDEST POP POP JUMP JUMPDEST PUSH1 0x1F DUP3 GT ISZERO PUSH2 0x40D2 JUMPI PUSH2 0x40A3 DUP2 PUSH2 0x3F72 JUMP JUMPDEST PUSH2 0x40AC DUP5 PUSH2 0x3F87 JUMP JUMPDEST DUP2 ADD PUSH1 0x20 DUP6 LT ISZERO PUSH2 0x40BB JUMPI DUP2 SWAP1 POP JUMPDEST PUSH2 0x40CF PUSH2 0x40C7 DUP6 PUSH2 0x3F87 JUMP JUMPDEST DUP4 ADD DUP3 PUSH2 0x406E JUMP JUMPDEST POP POP JUMPDEST POP POP POP JUMP JUMPDEST PUSH1 0x0 DUP3 DUP3 SHR SWAP1 POP SWAP3 SWAP2 POP POP JUMP JUMPDEST PUSH1 0x0 PUSH2 0x40F5 PUSH1 0x0 NOT DUP5 PUSH1 0x8 MUL PUSH2 0x40D7 JUMP JUMPDEST NOT DUP1 DUP4 AND SWAP2 POP POP SWAP3 SWAP2 POP POP JUMP JUMPDEST PUSH1 0x0 PUSH2 0x410E DUP4 DUP4 PUSH2 0x40E4 JUMP JUMPDEST SWAP2 POP DUP3 PUSH1 0x2 MUL DUP3 OR SWAP1 POP SWAP3 SWAP2 POP POP JUMP JUMPDEST PUSH2 0x4127 DUP3 PUSH2 0x3699 JUMP JUMPDEST PUSH8 0xFFFFFFFFFFFFFFFF DUP2 GT ISZERO PUSH2 0x4140 JUMPI PUSH2 0x413F PUSH2 0x3181 JUMP JUMPDEST JUMPDEST PUSH2 0x414A DUP3 SLOAD PUSH2 0x3F41 JUMP JUMPDEST PUSH2 0x4155 DUP3 DUP3 DUP6 PUSH2 0x4091 JUMP JUMPDEST PUSH1 0x0 PUSH1 0x20 SWAP1 POP PUSH1 0x1F DUP4 GT PUSH1 0x1 DUP2 EQ PUSH2 0x4188 JUMPI PUSH1 0x0 DUP5 ISZERO PUSH2 0x4176 JUMPI DUP3 DUP8 ADD MLOAD SWAP1 POP JUMPDEST PUSH2 0x4180 DUP6 DUP3 PUSH2 0x4102 JUMP JUMPDEST DUP7 SSTORE POP PUSH2 0x41E8 JUMP JUMPDEST PUSH1 0x1F NOT DUP5 AND PUSH2 0x4196 DUP7 PUSH2 0x3F72 JUMP JUMPDEST PUSH1 0x0 JUMPDEST DUP3 DUP2 LT ISZERO PUSH2 0x41BE JUMPI DUP5 DUP10 ADD MLOAD DUP3 SSTORE PUSH1 0x1 DUP3 ADD SWAP2 POP PUSH1 0x20 DUP6 ADD SWAP5 POP PUSH1 0x20 DUP2 ADD SWAP1 POP PUSH2 0x4199 JUMP JUMPDEST DUP7 DUP4 LT ISZERO PUSH2 0x41DB JUMPI DUP5 DUP10 ADD MLOAD PUSH2 0x41D7 PUSH1 0x1F DUP10 AND DUP3 PUSH2 0x40E4 JUMP JUMPDEST DUP4 SSTORE POP JUMPDEST PUSH1 0x1 PUSH1 0x2 DUP9 MUL ADD DUP9 SSTORE POP POP POP JUMPDEST POP POP POP POP POP POP JUMP JUMPDEST PUSH32 0x506572696F642072657175697265640000000000000000000000000000000000 PUSH1 0x0 DUP3 ADD MSTORE POP JUMP JUMPDEST PUSH1 0x0 PUSH2 0x4226 PUSH1 0xF DUP4 PUSH2 0x3DD6 JUMP JUMPDEST SWAP2 POP PUSH2 0x4231 DUP3 PUSH2 0x41F0 JUMP JUMPDEST PUSH1 0x20 DUP3 ADD SWAP1 POP SWAP2 SWAP1 POP JUMP JUMPDEST PUSH1 0x0 PUSH1 0x20 DUP3 ADD SWAP1 POP DUP2 DUP2 SUB PUSH1 0x0 DUP4 ADD MSTORE PUSH2 0x4255 DUP2 PUSH2 0x4219 JUMP JUMPDEST SWAP1 POP SWAP2 SWAP1 POP JUMP JUMPDEST PUSH32 0x5265706F72742068617368207265717569726564000000000000000000000000 PUSH1 0x0 DUP3 ADD MSTORE POP JUMP JUMPDEST PUSH1 0x0 PUSH2 0x4292 PUSH1 0x14 DUP4 PUSH2 0x3DD6 JUMP JUMPDEST SWAP2 POP PUSH2 0x429D DUP3 PUSH2 0x425C JUMP JUMPDEST PUSH1 0x20 DUP3 ADD SWAP1 POP SWAP2 SWAP1 POP JUMP JUMPDEST PUSH1 0x0 PUSH1 0x20 DUP3 ADD SWAP1 POP DUP2 DUP2 SUB PUSH1 0x0 DUP4 ADD MSTORE PUSH2 0x42C1 DUP2 PUSH2 0x4285 JUMP JUMPDEST SWAP1 POP SWAP2 SWAP1 POP JUMP JUMPDEST PUSH32 0x4E487B7100000000000000000000000000000000000000000000000000000000 PUSH1 0x0 MSTORE PUSH1 0x11 PUSH1 0x4 MSTORE PUSH1 0x24 PUSH1 0x0 REVERT JUMPDEST PUSH1 0x0 PUSH2 0x4302 DUP3 PUSH2 0x3414 JUMP JUMPDEST SWAP2 POP PUSH32 0xFFFFFFFFFFFFFFFFFFFFFFFFFFFFFFFFFFFFFFFFFFFFFFFFFFFFFFFFFFFFFFFF DUP3 SUB PUSH2 0x4334 JUMPI PUSH2 0x4333 PUSH2 0x42C8 JUMP JUMPDEST JUMPDEST PUSH1 0x1 DUP3 ADD SWAP1 POP SWAP2 SWAP1 POP JUMP JUMPDEST PUSH1 0x0 PUSH2 0x434A DUP3 PUSH2 0x3699 JUMP JUMPDEST PUSH2 0x4354 DUP2 DUP6 PUSH2 0x3DD6 JUMP JUMPDEST SWAP4 POP PUSH2 0x4364 DUP2 DUP6 PUSH1 0x20 DUP7 ADD PUSH2 0x36B5 JUMP JUMPDEST PUSH2 0x436D DUP2 PUSH2 0x3170 JUMP JUMPDEST DUP5 ADD SWAP2 POP POP SWAP3 SWAP2 POP POP JUMP JUMPDEST PUSH1 0x0 PUSH1 0xA0 DUP3 ADD SWAP1 POP DUP2 DUP2 SUB PUSH1 0x0 DUP4 ADD MSTORE PUSH2 0x4392 DUP2 DUP9 PUSH2 0x433F JUMP JUMPDEST SWAP1 POP DUP2 DUP2 SUB PUSH1 0x20 DUP4 ADD MSTORE PUSH2 0x43A6 DUP2 DUP8 PUSH2 0x433F JUMP JUMPDEST SWAP1 POP PUSH2 0x43B5 PUSH1 0x40 DUP4 ADD DUP7 PUSH2 0x3519 JUMP JUMPDEST PUSH2 0x43C2 PUSH1 0x60 DUP4 ADD DUP6 PUSH2 0x3519 JUMP JUMPDEST PUSH2 0x43CF PUSH1 0x80 DUP4 ADD DUP5 PUSH2 0x3519 JUMP JUMPDEST SWAP7 SWAP6 POP POP POP POP POP POP JUMP JUMPDEST PUSH32 0x5375626D697373696F6E206E6F7420666F756E64000000000000000000000000 PUSH1 0x0 DUP3 ADD MSTORE POP JUMP JUMPDEST PUSH1 0x0 PUSH2 0x440F PUSH1 0x14 DUP4 PUSH2 0x3DD6 JUMP JUMPDEST SWAP2 POP PUSH2 0x441A DUP3 PUSH2 0x43D9 JUMP JUMPDEST PUSH1 0x20 DUP3 ADD SWAP1 POP SWAP2 SWAP1 POP JUMP JUMPDEST PUSH1 0x0 PUSH1 0x20 DUP3 ADD SWAP1 POP DUP2 DUP2 SUB PUSH1 0x0 DUP4 ADD MSTORE PUSH2 0x443E DUP2 PUSH2 0x4402 JUMP JUMPDEST SWAP1 POP SWAP2 SWAP1 POP JUMP JUMPDEST PUSH32 0x4163746F72207265717569726564000000000000000000000000000000000000 PUSH1 0x0 DUP3 ADD MSTORE POP JUMP JUMPDEST PUSH1 0x0 PUSH2 0x447B PUSH1 0xE DUP4 PUSH2 0x3DD6 JUMP JUMPDEST SWAP2 POP PUSH2 0x4486 DUP3 PUSH2 0x4445 JUMP JUMPDEST PUSH1 0x20 DUP3 ADD SWAP1 POP SWAP2 SWAP1 POP JUMP JUMPDEST PUSH1 0x0 PUSH1 0x20 DUP3 ADD SWAP1 POP DUP2 DUP2 SUB PUSH1 0x0 DUP4 ADD MSTORE PUSH2 0x44AA DUP2 PUSH2 0x446E JUMP JUMPDEST SWAP1 POP SWAP2 SWAP1 POP JUMP JUMPDEST PUSH32 0x4461746120686173682072657175697265640000000000000000000000000000 PUSH1 0x0 DUP3 ADD MSTORE POP JUMP JUMPDEST PUSH1 0x0 PUSH2 0x44E7 PUSH1 0x12 DUP4 PUSH2 0x3DD6 JUMP JUMPDEST SWAP2 POP PUSH2 0x44F2 DUP3 PUSH2 0x44B1 JUMP JUMPDEST PUSH1 0x20 DUP3 ADD SWAP1 POP SWAP2 SWAP1 POP JUMP JUMPDEST PUSH1 0x0 PUSH1 0x20 DUP3 ADD SWAP1 POP DUP2 DUP2 SUB PUSH1 0x0 DUP4 ADD MSTORE PUSH2 0x4516 DUP2 PUSH2 0x44DA JUMP JUMPDEST SWAP1 POP SWAP2 SWAP1 POP JUMP JUMPDEST PUSH32 0x57616C6C6574206E6F7420617574686F72697A65640000000000000000000000 PUSH1 0x0 DUP3 ADD MSTORE POP JUMP JUMPDEST PUSH1 0x0 PUSH2 0x4553 PUSH1 0x15 DUP4 PUSH2 0x3DD6 JUMP JUMPDEST SWAP2 POP PUSH2 0x455E DUP3 PUSH2 0x451D JUMP JUMPDEST PUSH1 0x20 DUP3 ADD SWAP1 POP SWAP2 SWAP1 POP JUMP JUMPDEST PUSH1 0x0 PUSH1 0x20 DUP3 ADD SWAP1 POP DUP2 DUP2 SUB PUSH1 0x0 DUP4 ADD MSTORE PUSH2 0x4582 DUP2 PUSH2 0x4546 JUMP JUMPDEST SWAP1 POP SWAP2 SWAP1 POP JUMP JUMPDEST PUSH32 0x5374616B65686F6C646572206E6F7420617574686F72697A6564000000000000 PUSH1 0x0 DUP3 ADD MSTORE POP JUMP JUMPDEST PUSH1 0x0 PUSH2 0x45BF PUSH1 0x1A DUP4 PUSH2 0x3DD6 JUMP JUMPDEST SWAP2 POP PUSH2 0x45CA DUP3 PUSH2 0x4589 JUMP JUMPDEST PUSH1 0x20 DUP3 ADD SWAP1 POP SWAP2 SWAP1 POP JUMP JUMPDEST PUSH1 0x0 PUSH1 0x20 DUP3 ADD SWAP1 POP DUP2 DUP2 SUB PUSH1 0x0 DUP4 ADD MSTORE PUSH2 0x45EE DUP2 PUSH2 0x45B2 JUMP JUMPDEST SWAP1 POP SWAP2 SWAP1 POP JUMP JUMPDEST PUSH1 0x0 DUP2 SLOAD PUSH2 0x4602 DUP2 PUSH2 0x3F41 JUMP JUMPDEST PUSH2 0x460C DUP2 DUP7 PUSH2 0x3E53 JUMP JUMPDEST SWAP5 POP PUSH1 0x1 DUP3 AND PUSH1 0x0 DUP2 EQ PUSH2 0x4627 JUMPI PUSH1 0x1 DUP2 EQ PUSH2 0x463C JUMPI PUSH2 0x466F JUMP JUMPDEST PUSH1 0xFF NOT DUP4 AND DUP7 MSTORE DUP2 ISZERO ISZERO DUP3 MUL DUP7 ADD SWAP4 POP PUSH2 0x466F JUMP JUMPDEST PUSH2 0x4645 DUP6 PUSH2 0x3F72 JUMP JUMPDEST PUSH1 0x0 JUMPDEST DUP4 DUP2 LT ISZERO PUSH2 0x4667 JUMPI DUP2 SLOAD DUP2 DUP10 ADD MSTORE PUSH1 0x1 DUP3 ADD SWAP2 POP PUSH1 0x20 DUP2 ADD SWAP1 POP PUSH2 0x4648 JUMP JUMPDEST DUP4 DUP9 ADD SWAP6 POP POP POP JUMPDEST POP POP POP SWAP3 SWAP2 POP POP JUMP JUMPDEST PUSH1 0x0 PUSH2 0x4684 DUP3 DUP5 PUSH2 0x45F5 JUMP JUMPDEST SWAP2 POP DUP2 SWAP1 POP SWAP3 SWAP2 POP POP JUMP JUMPDEST PUSH1 0x0 PUSH1 0xA0 DUP3 ADD SWAP1 POP DUP2 DUP2 SUB PUSH1 0x0 DUP4 ADD MSTORE PUSH2 0x46A9 DUP2 DUP9 PUSH2 0x433F JUMP JUMPDEST SWAP1 POP DUP2 DUP2 SUB PUSH1 0x20 DUP4 ADD MSTORE PUSH2 0x46BD DUP2 DUP8 PUSH2 0x433F JUMP JUMPDEST SWAP1 POP DUP2 DUP2 SUB PUSH1 0x40 DUP4 ADD MSTORE PUSH2 0x46D1 DUP2 DUP7 PUSH2 0x433F JUMP JUMPDEST SWAP1 POP PUSH2 0x46E0 PUSH1 0x60 DUP4 ADD DUP6 PUSH2 0x3519 JUMP JUMPDEST PUSH2 0x46ED PUSH1 0x80 DUP4 ADD DUP5 PUSH2 0x3519 JUMP JUMPDEST SWAP7 SWAP6 POP POP POP POP POP POP JUMP JUMPDEST PUSH32 0x5265706F7274206E6F7420666F756E6400000000000000000000000000000000 PUSH1 0x0 DUP3 ADD MSTORE POP JUMP JUMPDEST PUSH1 0x0 PUSH2 0x472D PUSH1 0x10 DUP4 PUSH2 0x3DD6 JUMP JUMPDEST SWAP2 POP PUSH2 0x4738 DUP3 PUSH2 0x46F7 JUMP JUMPDEST PUSH1 0x20 DUP3 ADD SWAP1 POP SWAP2 SWAP1 POP JUMP JUMPDEST PUSH1 0x0 PUSH1 0x20 DUP3 ADD SWAP1 POP DUP2 DUP2 SUB PUSH1 0x0 DUP4 ADD MSTORE PUSH2 0x475C DUP2 PUSH2 0x4720 JUMP JUMPDEST SWAP1 POP SWAP2 SWAP1 POP JUMP JUMPDEST PUSH32 0x436F6D70616E7920494420726571756972656400000000000000000000000000 PUSH1 0x0 DUP3 ADD MSTORE POP JUMP JUMPDEST PUSH1 0x0 PUSH2 0x4799 PUSH1 0x13 DUP4 PUSH2 0x3DD6 JUMP JUMPDEST SWAP2 POP PUSH2 0x47A4 DUP3 PUSH2 0x4763 JUMP JUMPDEST PUSH1 0x20 DUP3 ADD SWAP1 POP SWAP2 SWAP1 POP JUMP JUMPDEST PUSH1 0x0 PUSH1 0x20 DUP3 ADD SWAP1 POP DUP2 DUP2 SUB PUSH1 0x0 DUP4 ADD MSTORE PUSH2 0x47C8 DUP2 PUSH2 0x478C JUMP JUMPDEST SWAP1 POP SWAP2 SWAP1 POP JUMP JUMPDEST PUSH32 0x436F6D70616E7920616C72656164792065786973747300000000000000000000 PUSH1 0x0 DUP3 ADD MSTORE POP JUMP JUMPDEST PUSH1 0x0 PUSH2 0x4805 PUSH1 0x16 DUP4 PUSH2 0x3DD6 JUMP JUMPDEST SWAP2 POP PUSH2 0x4810 DUP3 PUSH2 0x47CF JUMP JUMPDEST PUSH1 0x20 DUP3 ADD SWAP1 POP SWAP2 SWAP1 POP JUMP JUMPDEST PUSH1 0x0 PUSH1 0x20 DUP3 ADD SWAP1 POP DUP2 DUP2 SUB PUSH1 0x0 DUP4 ADD MSTORE PUSH2 0x4834 DUP2 PUSH2 0x47F8 JUMP JUMPDEST SWAP1 POP SWAP2 SWAP1 POP JUMP JUMPDEST PUSH1 0x0 PUSH1 0x40 DUP3 ADD SWAP1 POP DUP2 DUP2 SUB PUSH1 0x0 DUP4 ADD MSTORE PUSH2 0x4855 DUP2 DUP6 PUSH2 0x433F JUMP JUMPDEST SWAP1 POP PUSH2 0x4864 PUSH1 0x20 DUP4 ADD DUP5 PUSH2 0x3519 JUMP JUMPDEST SWAP4 SWAP3 POP POP POP JUMP JUMPDEST PUSH1 0x0 DUP2 SWAP1 POP SWAP3 SWAP2 POP POP JUMP JUMPDEST PUSH1 0x0 DUP2 SWAP1 POP DUP2 PUSH1 0x0 MSTORE PUSH1 0x20 PUSH1 0x0 KECCAK256 SWAP1 POP SWAP2 SWAP1 POP JUMP JUMPDEST PUSH1 0x0 DUP2 SLOAD PUSH2 0x4898 DUP2 PUSH2 0x3F41 JUMP JUMPDEST PUSH2 0x48A2 DUP2 DUP7 PUSH2 0x486B JUMP JUMPDEST SWAP5 POP PUSH1 0x1 DUP3 AND PUSH1 0x0 DUP2 EQ PUSH2 0x48BD JUMPI PUSH1 0x1 DUP2 EQ PUSH2 0x48D2 JUMPI PUSH2 0x4905 JUMP JUMPDEST PUSH1 0xFF NOT DUP4 AND DUP7 MSTORE DUP2 ISZERO ISZERO DUP3 MUL DUP7 ADD SWAP4 POP PUSH2 0x4905 JUMP JUMPDEST PUSH2 0x48DB DUP6 PUSH2 0x4876 JUMP JUMPDEST PUSH1 0x0 JUMPDEST DUP4 DUP2 LT ISZERO PUSH2 0x48FD JUMPI DUP2 SLOAD DUP2 DUP10 ADD MSTORE PUSH1 0x1 DUP3 ADD SWAP2 POP PUSH1 0x20 DUP2 ADD SWAP1 POP PUSH2 0x48DE JUMP JUMPDEST DUP4 DUP9 ADD SWAP6 POP POP POP JUMPDEST POP POP POP SWAP3 SWAP2 POP POP JUMP JUMPDEST PUSH1 0x0 PUSH2 0x491A DUP3 DUP5 PUSH2 0x488B JUMP JUMPDEST SWAP2 POP DUP2 SWAP1 POP SWAP3 SWAP2 POP POP JUMP JUMPDEST PUSH32 0x5374616B65686F6C64657220726F6C65206D69736D6174636800000000000000 PUSH1 0x0 DUP3 ADD MSTORE POP JUMP JUMPDEST PUSH1 0x0 PUSH2 0x495B PUSH1 0x19 DUP4 PUSH2 0x3DD6 JUMP JUMPDEST SWAP2 POP PUSH2 0x4966 DUP3 PUSH2 0x4925 JUMP JUMPDEST PUSH1 0x20 DUP3 ADD SWAP1 POP SWAP2 SWAP1 POP JUMP JUMPDEST PUSH1 0x0 PUSH1 0x20 DUP3 ADD SWAP1 POP DUP2 DUP2 SUB PUSH1 0x0 DUP4 ADD MSTORE PUSH2 0x498A DUP2 PUSH2 0x494E JUMP JUMPDEST SWAP1 POP SWAP2 SWAP1 POP JUMP JUMPDEST PUSH32 0x5374616B65686F6C646572204944207265717569726564000000000000000000 PUSH1 0x0 DUP3 ADD MSTORE POP JUMP JUMPDEST PUSH1 0x0 PUSH2 0x49C7 PUSH1 0x17 DUP4 PUSH2 0x3DD6 JUMP JUMPDEST SWAP2 POP PUSH2 0x49D2 DUP3 PUSH2 0x4991 JUMP JUMPDEST PUSH1 0x20 DUP3 ADD SWAP1 POP SWAP2 SWAP1 POP JUMP JUMPDEST PUSH1 0x0 PUSH1 0x20 DUP3 ADD SWAP1 POP DUP2 DUP2 SUB PUSH1 0x0 DUP4 ADD MSTORE PUSH2 0x49F6 DUP2 PUSH2 0x49BA JUMP JUMPDEST SWAP1 POP SWAP2 SWAP1 POP JUMP JUMPDEST PUSH32 0x526F6C6520726571756972656400000000000000000000000000000000000000 PUSH1 0x0 DUP3 ADD MSTORE POP JUMP JUMPDEST PUSH1 0x0 PUSH2 0x4A33 PUSH1 0xD DUP4 PUSH2 0x3DD6 JUMP JUMPDEST SWAP2 POP PUSH2 0x4A3E DUP3 PUSH2 0x49FD JUMP JUMPDEST PUSH1 0x20 DUP3 ADD SWAP1 POP SWAP2 SWAP1 POP JUMP JUMPDEST PUSH1 0x0 PUSH1 0x20 DUP3 ADD SWAP1 POP DUP2 DUP2 SUB PUSH1 0x0 DUP4 ADD MSTORE PUSH2 0x4A62 DUP2 PUSH2 0x4A26 JUMP JUMPDEST SWAP1 POP SWAP2 SWAP1 POP JUMP JUMPDEST PUSH32 0x57616C6C65742061646472657373207265717569726564000000000000000000 PUSH1 0x0 DUP3 ADD MSTORE POP JUMP JUMPDEST PUSH1 0x0 PUSH2 0x4A9F PUSH1 0x17 DUP4 PUSH2 0x3DD6 JUMP JUMPDEST SWAP2 POP PUSH2 0x4AAA DUP3 PUSH2 0x4A69 JUMP JUMPDEST PUSH1 0x20 DUP3 ADD SWAP1 POP SWAP2 SWAP1 POP JUMP JUMPDEST PUSH1 0x0 PUSH1 0x20 DUP3 ADD SWAP1 POP DUP2 DUP2 SUB PUSH1 0x0 DUP4 ADD MSTORE PUSH2 0x4ACE DUP2 PUSH2 0x4A92 JUMP JUMPDEST SWAP1 POP SWAP2 SWAP1 POP JUMP JUMPDEST PUSH32 0x4275796572204944207265717569726564000000000000000000000000000000 PUSH1 0x0 DUP3 ADD MSTORE POP JUMP JUMPDEST PUSH1 0x0 PUSH2 0x4B0B PUSH1 0x11 DUP4 PUSH2 0x3DD6 JUMP JUMPDEST SWAP2 POP PUSH2 0x4B16 DUP3 PUSH2 0x4AD5 JUMP JUMPDEST PUSH1 0x20 DUP3 ADD SWAP1 POP SWAP2 SWAP1 POP JUMP JUMPDEST PUSH1 0x0 PUSH1 0x20 DUP3 ADD SWAP1 POP DUP2 DUP2 SUB PUSH1 0x0 DUP4 ADD MSTORE PUSH2 0x4B3A DUP2 PUSH2 0x4AFE JUMP JUMPDEST SWAP1 POP SWAP2 SWAP1 POP JUMP JUMPDEST PUSH32 0x5374616B65686F6C646572206E6F7420666F756E640000000000000000000000 PUSH1 0x0 DUP3 ADD MSTORE POP JUMP JUMPDEST PUSH1 0x0 PUSH2 0x4B77 PUSH1 0x15 DUP4 PUSH2 0x3DD6 JUMP JUMPDEST SWAP2 POP PUSH2 0x4B82 DUP3 PUSH2 0x4B41 JUMP JUMPDEST PUSH1 0x20 DUP3 ADD SWAP1 POP SWAP2 SWAP1 POP JUMP JUMPDEST PUSH1 0x0 PUSH1 0x20 DUP3 ADD SWAP1 POP DUP2 DUP2 SUB PUSH1 0x0 DUP4 ADD MSTORE PUSH2 0x4BA6 DUP2 PUSH2 0x4B6A JUMP JUMPDEST SWAP1 POP SWAP2 SWAP1 POP JUMP JUMPDEST PUSH32 0x5374616B65686F6C64657220616C726561647920696E61637469766500000000 PUSH1 0x0 DUP3 ADD MSTORE POP JUMP JUMPDEST PUSH1 0x0 PUSH2 0x4BE3 PUSH1 0x1C DUP4 PUSH2 0x3DD6 JUMP JUMPDEST SWAP2 POP PUSH2 0x4BEE DUP3 PUSH2 0x4BAD JUMP JUMPDEST PUSH1 0x20 DUP3 ADD SWAP1 POP SWAP2 SWAP1 POP JUMP JUMPDEST PUSH1 0x0 PUSH1 0x20 DUP3 ADD SWAP1 POP DUP2 DUP2 SUB PUSH1 0x0 DUP4 ADD MSTORE PUSH2 0x4C12 DUP2 PUSH2 0x4BD6 JUMP JUMPDEST SWAP1 POP SWAP2 SWAP1 POP JUMP INVALID LOG2 PUSH5 0x6970667358 0x22 SLT KECCAK256 0xD4 SWAP13 GASLIMIT 0x4E SWAP5 0x2E 0xE9 EXTCODECOPY PUSH0 LOG3 DUP4 STOP EXTCODECOPY SWAP9 LOG3 DUP2 DUP13 0x4D MUL SWAP13 SWAP4 0x29 SHL 0xC5 0xAA GAS 0xCB 0xAD 0x26 EQ RETURNDATACOPY 0xBC PUSH5 0x736F6C6343 STOP ADDMOD SHR STOP CALLER "},"methodIdentifiers":{"authorizeStakeholder(string,string,string,address)":"a0d05fa1","generateReport(string,string,string,uint256,uint256)":"16c3913f","getCompany(string)":"b24a4e52","getCompanyReportIds(string)":"2c10f557","getCompanySubmissionIds(string)":"ae69370b","getReport(uint256)":"4e7f9b19","getReportCount()":"cad9642b","getStakeholder(string,string)":"d00bb8b8","getStakeholderCount(string)":"cbc07993","getSubmission(uint256)":"3e8686cc","getSubmissionCount()":"9999d2ae","hasReportAccess(uint256,string)":"696fd2c1","isStakeholderAuthorized(string,string)":"fb8c3485","isWalletAuthorized(string,address)":"0e4ff8d0","owner()":"8da5cb5b","purchaseReportAccess(uint256,string)":"b6c33e04","registerCompany(string,string)":"74448ba4","revokeStakeholder(string,string)":"fc7457ab","submitESGData(string,string,string,string,string,string,uint256)":"7c59a551","submitESGDataAsStakeholder(string,string,string,string,uint256)":"4c74f74e","updateCompanyMetadata(string,string)":"0218a7ec"}}}}}