{
  "_format": "hh-sol-artifact-1",
  "contractName": "ESGStorage",
  "sourceName": "contracts/ESGStorage.sol",
  "abi": [
    {
      "inputs": [],
      "stateMutability": "nonpayable",
      "type": "constructor"
    },
    {
      "anonymous": false,
      "inputs": [
        {
          "indexed": true,
          "internalType": "string",
          "name": "companyId",
          "type": "string"
        },
        {
          "indexed": false,
          "internalType": "string",
          "name": "metadataHash",
          "type": "string"
        },
        {
          "indexed": false,
          "internalType": "uint256",
          "name": "timestamp",
          "type": "uint256"
        }
      ],
      "name": "CompanyRegistered",
      "type": "event"
    },
    {
      "anonymous": false,
      "inputs": [
        {
          "indexed": true,
          "internalType": "uint256",
          "name": "submissionId",
          "type": "uint256"
        },
        {
          "indexed": true,
          "internalType": "string",
          "name": "companyId",
          "type": "string"
        },
        {
          "indexed": true,
          "internalType": "string",
          "name": "stakeholderId",
          "type": "string"
        },
        {
          "indexed": false,
          "internalType": "string",
          "name": "actor",
          "type": "string"
        },
        {
          "indexed": false,
          "internalType": "string",
          "name": "period",
          "type": "string"
        },
        {
          "indexed": false,
          "internalType": "string",
          "name": "dataHash",
          "type": "string"
        },
        {
          "indexed": false,
          "internalType": "uint256",
          "name": "co2Value",
          "type": "uint256"
        },
        {
          "indexed": false,
          "internalType": "uint256",
          "name": "timestamp",
          "type": "uint256"
        }
      ],
      "name": "ESGDataSubmitted",
      "type": "event"
    },
    {
      "anonymous": false,
      "inputs": [
        {
          "indexed": true,
          "internalType": "uint256",
          "name": "reportId",
          "type": "uint256"
        },
        {
          "indexed": true,
          "internalType": "string",
          "name": "companyId",
          "type": "string"
        },
        {
          "indexed": false,
          "internalType": "string",
          "name": "period",
          "type": "string"
        },
        {
          "indexed": false,
          "internalType": "string",
          "name": "reportHash",
          "type": "string"
        },
        {
          "indexed": false,
          "internalType": "uint256",
          "name": "totalCo2Value",
          "type": "uint256"
        },
        {
          "indexed": false,
          "internalType": "uint256",
          "name": "score",
          "type": "uint256"
        },
        {
          "indexed": false,
          "internalType": "uint256",
          "name": "timestamp",
          "type": "uint256"
        }
      ],
      "name": "ReportGenerated",
      "type": "event"
    },
    {
      "anonymous": false,
      "inputs": [
        {
          "indexed": true,
          "internalType": "uint256",
          "name": "reportId",
          "type": "uint256"
        },
        {
          "indexed": true,
          "internalType": "string",
          "name": "companyId",
          "type": "string"
        },
        {
          "indexed": true,
          "internalType": "string",
          "name": "buyerId",
          "type": "string"
        },
        {
          "indexed": false,
          "internalType": "uint256",
          "name": "timestamp",
          "type": "uint256"
        }
      ],
      "name": "ReportPurchased",
      "type": "event"
    },
    {
      "anonymous": false,
      "inputs": [
        {
          "indexed": true,
          "internalType": "string",
          "name": "companyId",
          "type": "string"
        },
        {
          "indexed": true,
          "internalType": "string",
          "name": "stakeholderId",
          "type": "string"
        },
        {
          "indexed": false,
          "internalType": "string",
          "name": "role",
          "type": "string"
        },
        {
          "indexed": false,
          "internalType": "uint256",
          "name": "timestamp",
          "type": "uint256"
        }
      ],
      "name": "StakeholderAuthorized",
      "type": "event"
    },
    {
      "anonymous": false,
      "inputs": [
        {
          "indexed": true,
          "internalType": "string",
          "name": "companyId",
          "type": "string"
        },
        {
          "indexed": true,
          "internalType": "string",
          "name": "stakeholderId",
          "type": "string"
        },
        {
          "indexed": false,
          "internalType": "uint256",
          "name": "timestamp",
          "type": "uint256"
        }
      ],
      "name": "StakeholderRevoked",
      "type": "event"
    },
    {
      "inputs": [
        {
          "internalType": "string",
          "name": "companyId",
          "type": "string"
        },
        {
          "internalType": "string",
          "name": "stakeholderId",
          "type": "string"
        },
        {
          "internalType": "string",
          "name": "role",
          "type": "string"
        }
      ],
      "name": "authorizeStakeholder",
      "outputs": [],
      "stateMutability": "nonpayable",
      "type": "function"
    },
    {
      "inputs": [
        {
          "internalType": "string",
          "name": "companyId",
          "type": "string"
        },
        {
          "internalType": "string",
          "name": "period",
          "type": "string"
        },
        {
          "internalType": "string",
          "name": "reportHash",
          "type": "string"
        },
        {
          "internalType": "uint256",
          "name": "totalCo2Value",
          "type": "uint256"
        },
        {
          "internalType": "uint256",
          "name": "score",
          "type": "uint256"
        }
      ],
      "name": "generateReport",
      "outputs": [
        {
          "internalType": "uint256",
          "name": "",
          "type": "uint256"
        }
      ],
      "stateMutability": "nonpayable",
      "type": "function"
    },
    {
      "inputs": [
        {
          "internalType": "string",
          "name": "companyId",
          "type": "string"
        }
      ],
      "name": "getCompany",
      "outputs": [
        {
          "components": [
            {
              "internalType": "string",
              "name": "companyId",
              "type": "string"
            },
            {
              "internalType": "string",
              "name": "metadataHash",
              "type": "string"
            },
            {
              "internalType": "bool",
              "name": "exists",
              "type": "bool"
            },
            {
              "internalType": "uint256",
              "name": "createdAt",
              "type": "uint256"
            }
          ],
          "internalType": "struct ESGStorage.Company",
          "name": "",
          "type": "tuple"
        }
      ],
      "stateMutability": "view",
      "type": "function"
    },
    {
      "inputs": [
        {
          "internalType": "string",
          "name": "companyId",
          "type": "string"
        }
      ],
      "name": "getCompanyReportIds",
      "outputs": [
        {
          "internalType": "uint256[]",
          "name": "",
          "type": "uint256[]"
        }
      ],
      "stateMutability": "view",
      "type": "function"
    },
    {
      "inputs": [
        {
          "internalType": "string",
          "name": "companyId",
          "type": "string"
        }
      ],
      "name": "getCompanySubmissionIds",
      "outputs": [
        {
          "internalType": "uint256[]",
          "name": "",
          "type": "uint256[]"
        }
      ],
      "stateMutability": "view",
      "type": "function"
    },
    {
      "inputs": [
        {
          "internalType": "uint256",
          "name": "reportId",
          "type": "uint256"
        }
      ],
      "name": "getReport",
      "outputs": [
        {
          "components": [
            {
              "internalType": "uint256",
              "name": "id",
              "type": "uint256"
            },
            {
              "internalType": "string",
              "name": "companyId",
              "type": "string"
            },
            {
              "internalType": "string",
              "name": "period",
              "type": "string"
            },
            {
              "internalType": "string",
              "name": "reportHash",
              "type": "string"
            },
            {
              "internalType": "uint256",
              "name": "totalCo2Value",
              "type": "uint256"
            },
            {
              "internalType": "uint256",
              "name": "score",
              "type": "uint256"
            },
            {
              "internalType": "uint256",
              "name": "generatedAt",
              "type": "uint256"
            },
            {
              "internalType": "bool",
              "name": "exists",
              "type": "bool"
            }
          ],
          "internalType": "struct ESGStorage.Report",
          "name": "",
          "type": "tuple"
        }
      ],
      "stateMutability": "view",
      "type": "function"
    },
    {
      "inputs": [],
      "name": "getReportCount",
      "outputs": [
        {
          "internalType": "uint256",
          "name": "",
          "type": "uint256"
        }
      ],
      "stateMutability": "view",
      "type": "function"
    },
    {
      "inputs": [
        {
          "internalType": "string",
          "name": "companyId",
          "type": "string"
        },
        {
          "internalType": "string",
          "name": "stakeholderId",
          "type": "string"
        }
      ],
      "name": "getStakeholder",
      "outputs": [
        {
          "components": [
            {
              "internalType": "string",
              "name": "stakeholderId",
              "type": "string"
            },
            {
              "internalType": "string",
              "name": "role",
              "type": "string"
            },
            {
              "internalType": "bool",
              "name": "active",
              "type": "bool"
            },
            {
              "internalType": "uint256",
              "name": "authorizedAt",
              "type": "uint256"
            }
          ],
          "internalType": "struct ESGStorage.Stakeholder",
          "name": "",
          "type": "tuple"
        }
      ],
      "stateMutability": "view",
      "type": "function"
    },
    {
      "inputs": [
        {
          "internalType": "string",
          "name": "companyId",
          "type": "string"
        }
      ],
      "name": "getStakeholderCount",
      "outputs": [
        {
          "internalType": "uint256",
          "name": "",
          "type": "uint256"
        }
      ],
      "stateMutability": "view",
      "type": "function"
    },
    {
      "inputs": [
        {
          "internalType": "uint256",
          "name": "submissionId",
          "type": "uint256"
        }
      ],
      "name": "getSubmission",
      "outputs": [
        {
          "components": [
            {
              "internalType": "uint256",
              "name": "id",
              "type": "uint256"
            },
            {
              "internalType": "string",
              "name": "companyId",
              "type": "string"
            },
            {
              "internalType": "string",
              "name": "stakeholderId",
              "type": "string"
            },
            {
              "internalType": "string",
              "name": "stakeholderRole",
              "type": "string"
            },
            {
              "internalType": "string",
              "name": "actor",
              "type": "string"
            },
            {
              "internalType": "string",
              "name": "period",
              "type": "string"
            },
            {
              "internalType": "string",
              "name": "dataHash",
              "type": "string"
            },
            {
              "internalType": "uint256",
              "name": "co2Value",
              "type": "uint256"
            },
            {
              "internalType": "uint256",
              "name": "timestamp",
              "type": "uint256"
            }
          ],
          "internalType": "struct ESGStorage.Submission",
          "name": "",
          "type": "tuple"
        }
      ],
      "stateMutability": "view",
      "type": "function"
    },
    {
      "inputs": [],
      "name": "getSubmissionCount",
      "outputs": [
        {
          "internalType": "uint256",
          "name": "",
          "type": "uint256"
        }
      ],
      "stateMutability": "view",
      "type": "function"
    },
    {
      "inputs": [
        {
          "internalType": "uint256",
          "name": "reportId",
          "type": "uint256"
        },
        {
          "internalType": "string",
          "name": "buyerId",
          "type": "string"
        }
      ],
      "name": "hasReportAccess",
      "outputs": [
        {
          "internalType": "bool",
          "name": "",
          "type": "bool"
        }
      ],
      "stateMutability": "view",
      "type": "function"
    },
    {
      "inputs": [
        {
          "internalType": "string",
          "name": "companyId",
          "type": "string"
        },
        {
          "internalType": "string",
          "name": "stakeholderId",
          "type": "string"
        }
      ],
      "name": "isStakeholderAuthorized",
      "outputs": [
        {
          "internalType": "bool",
          "name": "",
          "type": "bool"
        }
      ],
      "stateMutability": "view",
      "type": "function"
    },
    {
      "inputs": [],
      "name": "owner",
      "outputs": [
        {
          "internalType": "address",
          "name": "",
          "type": "address"
        }
      ],
      "stateMutability": "view",
      "type": "function"
    },
    {
      "inputs": [
        {
          "internalType": "uint256",
          "name": "reportId",
          "type": "uint256"
        },
        {
          "internalType": "string",
          "name": "buyerId",
          "type": "string"
        }
      ],
      "name": "purchaseReportAccess",
      "outputs": [
        {
          "internalType": "bool",
          "name": "",
          "type": "bool"
        }
      ],
      "stateMutability": "nonpayable",
      "type": "function"
    },
    {
      "inputs": [
        {
          "internalType": "string",
          "name": "companyId",
          "type": "string"
        },
        {
          "internalType": "string",
          "name": "metadataHash",
          "type": "string"
        }
      ],
      "name": "registerCompany",
      "outputs": [],
      "stateMutability": "nonpayable",
      "type": "function"
    },
    {
      "inputs": [
        {
          "internalType": "string",
          "name": "companyId",
          "type": "string"
        },
        {
          "internalType": "string",
          "name": "stakeholderId",
          "type": "string"
        }
      ],
      "name": "revokeStakeholder",
      "outputs": [],
      "stateMutability": "nonpayable",
      "type": "function"
    },
    {
      "inputs": [
        {
          "internalType": "string",
          "name": "companyId",
          "type": "string"
        },
        {
          "internalType": "string",
          "name": "stakeholderId",
          "type": "string"
        },
        {
          "internalType": "string",
          "name": "stakeholderRole",
          "type": "string"
        },
        {
          "internalType": "string",
          "name": "actor",
          "type": "string"
        },
        {
          "internalType": "string",
          "name": "period",
          "type": "string"
        },
        {
          "internalType": "string",
          "name": "dataHash",
          "type": "string"
        },
        {
          "internalType": "uint256",
          "name": "co2Value",
          "type": "uint256"
        }
      ],
      "name": "submitESGData",
      "outputs": [
        {
          "internalType": "uint256",
          "name": "",
          "type": "uint256"
        }
      ],
      "stateMutability": "nonpayable",
      "type": "function"
    },
    {
      "inputs": [
        {
          "internalType": "string",
          "name": "companyId",
          "type": "string"
        },
        {
          "internalType": "string",
          "name": "metadataHash",
          "type": "string"
        }
      ],
      "name": "updateCompanyMetadata",
      "outputs": [],
      "stateMutability": "nonpayable",
      "type": "function"
    }
  ],
  "bytecode": "0x60a060405234801561001057600080fd5b503373ffffffffffffffffffffffffffffffffffffffff1660808173ffffffffffffffffffffffffffffffffffffffff1681525050608051613ec7610091600039600081816104320152818161056501528181610d6d015281816113470152818161157801528181611aa801528181611daf01526123020152613ec76000f3fe608060405234801561001057600080fd5b50600436106101215760003560e01c80638da5cb5b116100ad578063cad9642b11610071578063cad9642b14610366578063cbc0799314610384578063d00bb8b8146103b4578063fb8c3485146103e4578063fc7457ab1461041457610121565b80638da5cb5b1461029a5780639999d2ae146102b8578063ae69370b146102d6578063b24a4e5214610306578063b6c33e041461033657610121565b806345de8853116100f457806345de8853146101d25780634e7f9b19146101ee578063696fd2c11461021e57806374448ba41461024e5780637c59a5511461026a57610121565b80630218a7ec1461012657806316c3913f146101425780632c10f557146101725780633e8686cc146101a2575b600080fd5b610140600480360381019061013b91906127ba565b610430565b005b61015c60048036038101906101579190612868565b610561565b6040516101699190612946565b60405180910390f35b61018c60048036038101906101879190612961565b610889565b6040516101999190612a68565b60405180910390f35b6101bc60048036038101906101b79190612a8a565b61096f565b6040516101c99190612c1e565b60405180910390f35b6101ec60048036038101906101e79190612c40565b610d6b565b005b61020860048036038101906102039190612a8a565b611045565b6040516102159190612dc0565b60405180910390f35b61023860048036038101906102339190612de2565b6112cf565b6040516102459190612e4d565b60405180910390f35b610268600480360381019061026391906127ba565b611345565b005b610284600480360381019061027f9190612e68565b611574565b6040516102919190612946565b60405180910390f35b6102a2611aa6565b6040516102af9190612ff3565b60405180910390f35b6102c0611aca565b6040516102cd9190612946565b60405180910390f35b6102f060048036038101906102eb9190612961565b611ad4565b6040516102fd9190612a68565b60405180910390f35b610320600480360381019061031b9190612961565b611bba565b60405161032d9190613078565b60405180910390f35b610350600480360381019061034b9190612de2565b611dab565b60405161035d9190612e4d565b60405180910390f35b61036e611fb0565b60405161037b9190612946565b60405180910390f35b61039e60048036038101906103999190612961565b611fba565b6040516103ab9190612946565b60405180910390f35b6103ce60048036038101906103c991906127ba565b612055565b6040516103db9190613104565b60405180910390f35b6103fe60048036038101906103f991906127ba565b6122ae565b60405161040b9190612e4d565b60405180910390f35b61042e600480360381019061042991906127ba565b612300565b005b7f000000000000000000000000000000000000000000000000000000000000000073ffffffffffffffffffffffffffffffffffffffff163373ffffffffffffffffffffffffffffffffffffffff16146104be576040517f08c379a00000000000000000000000000000000000000000000000000000000081526004016104b590613183565b60405180910390fd5b816000816040516104cf91906131df565b908152602001604051809103902060020160009054906101000a900460ff1661052d576040517f08c379a000000000000000000000000000000000000000000000000000000000815260040161052490613242565b60405180910390fd5b8160008460405161053e91906131df565b9081526020016040518091039020600101908161055b919061346e565b50505050565b60007f000000000000000000000000000000000000000000000000000000000000000073ffffffffffffffffffffffffffffffffffffffff163373ffffffffffffffffffffffffffffffffffffffff16146105f1576040517f08c379a00000000000000000000000000000000000000000000000000000000081526004016105e890613183565b60405180910390fd5b8560008160405161060291906131df565b908152602001604051809103902060020160009054906101000a900460ff16610660576040517f08c379a000000000000000000000000000000000000000000000000000000000815260040161065790613242565b60405180910390fd5b60008651116106a4576040517f08c379a000000000000000000000000000000000000000000000000000000000815260040161069b9061358c565b60405180910390fd5b60008551116106e8576040517f08c379a00000000000000000000000000000000000000000000000000000000081526004016106df906135f8565b60405180910390fd5b6000600960008154809291906106fd90613647565b9190505590506040518061010001604052808281526020018981526020018881526020018781526020018681526020018581526020014281526020016001151581525060076000838152602001908152602001600020600082015181600001556020820151816001019081610772919061346e565b506040820151816002019081610788919061346e565b50606082015181600301908161079e919061346e565b506080820151816004015560a0820151816005015560c0820151816006015560e08201518160070160006101000a81548160ff0219169083151502179055509050506006886040516107f091906131df565b90815260200160405180910390208190806001815401808255809150506001900390600052602060002001600090919091909150558760405161083391906131df565b6040518091039020817ff6b8c3ee718b848994733f1ead2f3f0b4b54ccbb772af4009edc8cfe95cd299a89898989426040516108739594939291906136c8565b60405180910390a3809250505095945050505050565b60608160008160405161089c91906131df565b908152602001604051809103902060020160009054906101000a900460ff166108fa576040517f08c379a00000000000000000000000000000000000000000000000000000000081526004016108f190613242565b60405180910390fd5b60068360405161090a91906131df565b908152602001604051809103902080548060200260200160405190810160405280929190818152602001828054801561096257602002820191906000526020600020905b81548152602001906001019080831161094e575b5050505050915050919050565b610977612579565b60085482106109bb576040517f08c379a00000000000000000000000000000000000000000000000000000000081526004016109b290613775565b60405180910390fd5b6004600083815260200190815260200160002060405180610120016040529081600082015481526020016001820180546109f490613291565b80601f0160208091040260200160405190810160405280929190818152602001828054610a2090613291565b8015610a6d5780601f10610a4257610100808354040283529160200191610a6d565b820191906000526020600020905b815481529060010190602001808311610a5057829003601f168201915b50505050508152602001600282018054610a8690613291565b80601f0160208091040260200160405190810160405280929190818152602001828054610ab290613291565b8015610aff5780601f10610ad457610100808354040283529160200191610aff565b820191906000526020600020905b815481529060010190602001808311610ae257829003601f168201915b50505050508152602001600382018054610b1890613291565b80601f0160208091040260200160405190810160405280929190818152602001828054610b4490613291565b8015610b915780601f10610b6657610100808354040283529160200191610b91565b820191906000526020600020905b815481529060010190602001808311610b7457829003601f168201915b50505050508152602001600482018054610baa90613291565b80601f0160208091040260200160405190810160405280929190818152602001828054610bd690613291565b8015610c235780601f10610bf857610100808354040283529160200191610c23565b820191906000526020600020905b815481529060010190602001808311610c0657829003601f168201915b50505050508152602001600582018054610c3c90613291565b80601f0160208091040260200160405190810160405280929190818152602001828054610c6890613291565b8015610cb55780601f10610c8a57610100808354040283529160200191610cb5565b820191906000526020600020905b815481529060010190602001808311610c9857829003601f168201915b50505050508152602001600682018054610cce90613291565b80601f0160208091040260200160405190810160405280929190818152602001828054610cfa90613291565b8015610d475780601f10610d1c57610100808354040283529160200191610d47565b820191906000526020600020905b815481529060010190602001808311610d2a57829003601f168201915b50505050508152602001600782015481526020016008820154815250509050919050565b7f000000000000000000000000000000000000000000000000000000000000000073ffffffffffffffffffffffffffffffffffffffff163373ffffffffffffffffffffffffffffffffffffffff1614610df9576040517f08c379a0000000000000000000000000000000000000000000000000000000008152600401610df090613183565b60405180910390fd5b82600081604051610e0a91906131df565b908152602001604051809103902060020160009054906101000a900460ff16610e68576040517f08c379a0000000000000000000000000000000000000000000000000000000008152600401610e5f90613242565b60405180910390fd5b6000835111610eac576040517f08c379a0000000000000000000000000000000000000000000000000000000008152600401610ea3906137e1565b60405180910390fd5b6000825111610ef0576040517f08c379a0000000000000000000000000000000000000000000000000000000008152600401610ee79061384d565b60405180910390fd5b6000610efb84612568565b90506000600286604051610f0f91906131df565b9081526020016040518091039020600083815260200190815260200160002090506000816000018054610f4190613291565b905003610f8e57600186604051610f5891906131df565b90815260200160405180910390208290806001815401808255809150506001900390600052602060002001600090919091909150555b84816000019081610f9f919061346e565b5083816001019081610fb1919061346e565b5060018160020160006101000a81548160ff02191690831515021790555042816003018190555084604051610fe691906131df565b604051809103902086604051610ffc91906131df565b60405180910390207f6cc896fed6368f0600012825740fbeaef868cc0183e0cd77434b9e3ed5d49131864260405161103592919061386d565b60405180910390a3505050505050565b61104d6125c5565b6007600083815260200190815260200160002060070160009054906101000a900460ff166110b0576040517f08c379a00000000000000000000000000000000000000000000000000000000081526004016110a7906138e9565b60405180910390fd5b6007600083815260200190815260200160002060405180610100016040529081600082015481526020016001820180546110e990613291565b80601f016020809104026020016040519081016040528092919081815260200182805461111590613291565b80156111625780601f1061113757610100808354040283529160200191611162565b820191906000526020600020905b81548152906001019060200180831161114557829003601f168201915b5050505050815260200160028201805461117b90613291565b80601f01602080910402602001604051908101604052809291908181526020018280546111a790613291565b80156111f45780601f106111c9576101008083540402835291602001916111f4565b820191906000526020600020905b8154815290600101906020018083116111d757829003601f168201915b5050505050815260200160038201805461120d90613291565b80601f016020809104026020016040519081016040528092919081815260200182805461123990613291565b80156112865780601f1061125b57610100808354040283529160200191611286565b820191906000526020600020905b81548152906001019060200180831161126957829003601f168201915b505050505081526020016004820154815260200160058201548152602001600682015481526020016007820160009054906101000a900460ff1615151515815250509050919050565b60006007600084815260200190815260200160002060070160009054906101000a900460ff16611302576000905061133f565b60056000848152602001908152602001600020600061132084612568565b815260200190815260200160002060009054906101000a900460ff1690505b92915050565b7f000000000000000000000000000000000000000000000000000000000000000073ffffffffffffffffffffffffffffffffffffffff163373ffffffffffffffffffffffffffffffffffffffff16146113d3576040517f08c379a00000000000000000000000000000000000000000000000000000000081526004016113ca90613183565b60405180910390fd5b6000825111611417576040517f08c379a000000000000000000000000000000000000000000000000000000000815260040161140e90613955565b60405180910390fd5b60008260405161142791906131df565b908152602001604051809103902060020160009054906101000a900460ff1615611486576040517f08c379a000000000000000000000000000000000000000000000000000000000815260040161147d906139c1565b60405180910390fd5b6040518060800160405280838152602001828152602001600115158152602001428152506000836040516114ba91906131df565b908152602001604051809103902060008201518160000190816114dd919061346e565b5060208201518160010190816114f3919061346e565b5060408201518160020160006101000a81548160ff021916908315150217905550606082015181600301559050508160405161152f91906131df565b60405180910390207f7a5b6c3b56f3fd96c4145e8d16588d8853fbcfbbca80a8209817253e3d3b32f3824260405161156892919061386d565b60405180910390a25050565b60007f000000000000000000000000000000000000000000000000000000000000000073ffffffffffffffffffffffffffffffffffffffff163373ffffffffffffffffffffffffffffffffffffffff1614611604576040517f08c379a00000000000000000000000000000000000000000000000000000000081526004016115fb90613183565b60405180910390fd5b8760008160405161161591906131df565b908152602001604051809103902060020160009054906101000a900460ff16611673576040517f08c379a000000000000000000000000000000000000000000000000000000000815260040161166a90613242565b60405180910390fd5b60008651116116b7576040517f08c379a00000000000000000000000000000000000000000000000000000000081526004016116ae90613a2d565b60405180910390fd5b60008551116116fb576040517f08c379a00000000000000000000000000000000000000000000000000000000081526004016116f29061358c565b60405180910390fd5b600084511161173f576040517f08c379a000000000000000000000000000000000000000000000000000000000815260040161173690613a99565b60405180910390fd5b600061174a89612568565b9050600060028b60405161175e91906131df565b9081526020016040518091039020600083815260200190815260200160002090508060020160009054906101000a900460ff166117d0576040517f08c379a00000000000000000000000000000000000000000000000000000000081526004016117c790613b05565b60405180910390fd5b600089510361186d578060010180546117e890613291565b80601f016020809104026020016040519081016040528092919081815260200182805461181490613291565b80156118615780601f1061183657610100808354040283529160200191611861565b820191906000526020600020905b81548152906001019060200180831161184457829003601f168201915b505050505098506118cf565b8880519060200120816001016040516118869190613bc8565b6040518091039020146118ce576040517f08c379a00000000000000000000000000000000000000000000000000000000081526004016118c590613c2b565b60405180910390fd5b5b6000600860008154809291906118e490613647565b9190505590506040518061012001604052808281526020018d81526020018c81526020018b81526020018a8152602001898152602001888152602001878152602001428152506004600083815260200190815260200160002060008201518160000155602082015181600101908161195c919061346e565b506040820151816002019081611972919061346e565b506060820151816003019081611988919061346e565b50608082015181600401908161199e919061346e565b5060a08201518160050190816119b4919061346e565b5060c08201518160060190816119ca919061346e565b5060e08201518160070155610100820151816008015590505060038c6040516119f391906131df565b90815260200160405180910390208190806001815401808255809150506001900390600052602060002001600090919091909150558a604051611a3691906131df565b60405180910390208c604051611a4c91906131df565b6040518091039020827fdede3af022c0c1182f1be40127babcdf6f8db18866d079873f2a7c29d3b8ef6a8c8c8c8c42604051611a8c959493929190613c4b565b60405180910390a480945050505050979650505050505050565b7f000000000000000000000000000000000000000000000000000000000000000081565b6000600854905090565b606081600081604051611ae791906131df565b908152602001604051809103902060020160009054906101000a900460ff16611b45576040517f08c379a0000000000000000000000000000000000000000000000000000000008152600401611b3c90613242565b60405180910390fd5b600383604051611b5591906131df565b9081526020016040518091039020805480602002602001604051908101604052809291908181526020018280548015611bad57602002820191906000526020600020905b815481526020019060010190808311611b99575b5050505050915050919050565b611bc261260c565b81600081604051611bd391906131df565b908152602001604051809103902060020160009054906101000a900460ff16611c31576040517f08c379a0000000000000000000000000000000000000000000000000000000008152600401611c2890613242565b60405180910390fd5b600083604051611c4191906131df565b9081526020016040518091039020604051806080016040529081600082018054611c6a90613291565b80601f0160208091040260200160405190810160405280929190818152602001828054611c9690613291565b8015611ce35780601f10611cb857610100808354040283529160200191611ce3565b820191906000526020600020905b815481529060010190602001808311611cc657829003601f168201915b50505050508152602001600182018054611cfc90613291565b80601f0160208091040260200160405190810160405280929190818152602001828054611d2890613291565b8015611d755780601f10611d4a57610100808354040283529160200191611d75565b820191906000526020600020905b815481529060010190602001808311611d5857829003601f168201915b505050505081526020016002820160009054906101000a900460ff16151515158152602001600382015481525050915050919050565b60007f000000000000000000000000000000000000000000000000000000000000000073ffffffffffffffffffffffffffffffffffffffff163373ffffffffffffffffffffffffffffffffffffffff1614611e3b576040517f08c379a0000000000000000000000000000000000000000000000000000000008152600401611e3290613183565b60405180910390fd5b6007600084815260200190815260200160002060070160009054906101000a900460ff16611e9e576040517f08c379a0000000000000000000000000000000000000000000000000000000008152600401611e95906138e9565b60405180910390fd5b6000825111611ee2576040517f08c379a0000000000000000000000000000000000000000000000000000000008152600401611ed990613cff565b60405180910390fd5b6000611eed83612568565b9050600160056000868152602001908152602001600020600083815260200190815260200160002060006101000a81548160ff02191690831515021790555082604051611f3a91906131df565b604051809103902060076000868152602001908152602001600020600101604051611f659190613da2565b6040518091039020857f3dc871a421b0de3bcb519220d648f02efbb6807744382f02d4d4d22e660ad78342604051611f9d9190612946565b60405180910390a4600191505092915050565b6000600954905090565b600081600081604051611fcd91906131df565b908152602001604051809103902060020160009054906101000a900460ff1661202b576040517f08c379a000000000000000000000000000000000000000000000000000000000815260040161202290613242565b60405180910390fd5b60018360405161203b91906131df565b908152602001604051809103902080549050915050919050565b61205d612636565b8260008160405161206e91906131df565b908152602001604051809103902060020160009054906101000a900460ff166120cc576040517f08c379a00000000000000000000000000000000000000000000000000000000081526004016120c390613242565b60405180910390fd5b60006002856040516120de91906131df565b908152602001604051809103902060006120f786612568565b815260200190815260200160002060405180608001604052908160008201805461212090613291565b80601f016020809104026020016040519081016040528092919081815260200182805461214c90613291565b80156121995780601f1061216e57610100808354040283529160200191612199565b820191906000526020600020905b81548152906001019060200180831161217c57829003601f168201915b505050505081526020016001820180546121b290613291565b80601f01602080910402602001604051908101604052809291908181526020018280546121de90613291565b801561222b5780601f106122005761010080835404028352916020019161222b565b820191906000526020600020905b81548152906001019060200180831161220e57829003601f168201915b505050505081526020016002820160009054906101000a900460ff1615151515815260200160038201548152505090506000816000015151116122a3576040517f08c379a000000000000000000000000000000000000000000000000000000000815260040161229a90613e05565b60405180910390fd5b809250505092915050565b60006002836040516122c091906131df565b908152602001604051809103902060006122d984612568565b815260200190815260200160002060020160009054906101000a900460ff16905092915050565b7f000000000000000000000000000000000000000000000000000000000000000073ffffffffffffffffffffffffffffffffffffffff163373ffffffffffffffffffffffffffffffffffffffff161461238e576040517f08c379a000000000000000000000000000000000000000000000000000000000815260040161238590613183565b60405180910390fd5b8160008160405161239f91906131df565b908152602001604051809103902060020160009054906101000a900460ff166123fd576040517f08c379a00000000000000000000000000000000000000000000000000000000081526004016123f490613242565b60405180910390fd5b600061240883612568565b9050600060028560405161241c91906131df565b908152602001604051809103902060008381526020019081526020016000209050600081600001805461244e90613291565b905011612490576040517f08c379a000000000000000000000000000000000000000000000000000000000815260040161248790613e05565b60405180910390fd5b8060020160009054906101000a900460ff166124e1576040517f08c379a00000000000000000000000000000000000000000000000000000000081526004016124d890613e71565b60405180910390fd5b60008160020160006101000a81548160ff0219169083151502179055508360405161250c91906131df565b60405180910390208560405161252291906131df565b60405180910390207f7e0c731807253762ad5c300dc71e21e154e6b5492f7a864d0eb74dd6902b000e426040516125599190612946565b60405180910390a35050505050565b600081805190602001209050919050565b6040518061012001604052806000815260200160608152602001606081526020016060815260200160608152602001606081526020016060815260200160008152602001600081525090565b604051806101000160405280600081526020016060815260200160608152602001606081526020016000815260200160008152602001600081526020016000151581525090565b60405180608001604052806060815260200160608152602001600015158152602001600081525090565b60405180608001604052806060815260200160608152602001600015158152602001600081525090565b6000604051905090565b600080fd5b600080fd5b600080fd5b600080fd5b6000601f19601f8301169050919050565b7f4e487b7100000000000000000000000000000000000000000000000000000000600052604160045260246000fd5b6126c78261267e565b810181811067ffffffffffffffff821117156126e6576126e561268f565b5b80604052505050565b60006126f9612660565b905061270582826126be565b919050565b600067ffffffffffffffff8211156127255761272461268f565b5b61272e8261267e565b9050602081019050919050565b82818337600083830152505050565b600061275d6127588461270a565b6126ef565b90508281526020810184848401111561277957612778612679565b5b61278484828561273b565b509392505050565b600082601f8301126127a1576127a0612674565b5b81356127b184826020860161274a565b91505092915050565b600080604083850312156127d1576127d061266a565b5b600083013567ffffffffffffffff8111156127ef576127ee61266f565b5b6127fb8582860161278c565b925050602083013567ffffffffffffffff81111561281c5761281b61266f565b5b6128288582860161278c565b9150509250929050565b6000819050919050565b61284581612832565b811461285057600080fd5b50565b6000813590506128628161283c565b92915050565b600080600080600060a086880312156128845761288361266a565b5b600086013567ffffffffffffffff8111156128a2576128a161266f565b5b6128ae8882890161278c565b955050602086013567ffffffffffffffff8111156128cf576128ce61266f565b5b6128db8882890161278c565b945050604086013567ffffffffffffffff8111156128fc576128fb61266f565b5b6129088882890161278c565b935050606061291988828901612853565b925050608061292a88828901612853565b9150509295509295909350565b61294081612832565b82525050565b600060208201905061295b6000830184612937565b92915050565b6000602082840312156129775761297661266a565b5b600082013567ffffffffffffffff8111156129955761299461266f565b5b6129a18482850161278c565b91505092915050565b600081519050919050565b600082825260208201905092915050565b6000819050602082019050919050565b6129df81612832565b82525050565b60006129f183836129d6565b60208301905092915050565b6000602082019050919050565b6000612a15826129aa565b612a1f81856129b5565b9350612a2a836129c6565b8060005b83811015612a5b578151612a4288826129e5565b9750612a4d836129fd565b925050600181019050612a2e565b5085935050505092915050565b60006020820190508181036000830152612a828184612a0a565b905092915050565b600060208284031215612aa057612a9f61266a565b5b6000612aae84828501612853565b91505092915050565b600081519050919050565b600082825260208201905092915050565b60005b83811015612af1578082015181840152602081019050612ad6565b60008484015250505050565b6000612b0882612ab7565b612b128185612ac2565b9350612b22818560208601612ad3565b612b2b8161267e565b840191505092915050565b600061012083016000830151612b4f60008601826129d6565b5060208301518482036020860152612b678282612afd565b91505060408301518482036040860152612b818282612afd565b91505060608301518482036060860152612b9b8282612afd565b91505060808301518482036080860152612bb58282612afd565b91505060a083015184820360a0860152612bcf8282612afd565b91505060c083015184820360c0860152612be98282612afd565b91505060e0830151612bfe60e08601826129d6565b50610100830151612c136101008601826129d6565b508091505092915050565b60006020820190508181036000830152612c388184612b36565b905092915050565b600080600060608486031215612c5957612c5861266a565b5b600084013567ffffffffffffffff811115612c7757612c7661266f565b5b612c838682870161278c565b935050602084013567ffffffffffffffff811115612ca457612ca361266f565b5b612cb08682870161278c565b925050604084013567ffffffffffffffff811115612cd157612cd061266f565b5b612cdd8682870161278c565b9150509250925092565b60008115159050919050565b612cfc81612ce7565b82525050565b600061010083016000830151612d1b60008601826129d6565b5060208301518482036020860152612d338282612afd565b91505060408301518482036040860152612d4d8282612afd565b91505060608301518482036060860152612d678282612afd565b9150506080830151612d7c60808601826129d6565b5060a0830151612d8f60a08601826129d6565b5060c0830151612da260c08601826129d6565b5060e0830151612db560e0860182612cf3565b508091505092915050565b60006020820190508181036000830152612dda8184612d02565b905092915050565b60008060408385031215612df957612df861266a565b5b6000612e0785828601612853565b925050602083013567ffffffffffffffff811115612e2857612e2761266f565b5b612e348582860161278c565b9150509250929050565b612e4781612ce7565b82525050565b6000602082019050612e626000830184612e3e565b92915050565b600080600080600080600060e0888a031215612e8757612e8661266a565b5b600088013567ffffffffffffffff811115612ea557612ea461266f565b5b612eb18a828b0161278c565b975050602088013567ffffffffffffffff811115612ed257612ed161266f565b5b612ede8a828b0161278c565b965050604088013567ffffffffffffffff811115612eff57612efe61266f565b5b612f0b8a828b0161278c565b955050606088013567ffffffffffffffff811115612f2c57612f2b61266f565b5b612f388a828b0161278c565b945050608088013567ffffffffffffffff811115612f5957612f5861266f565b5b612f658a828b0161278c565b93505060a088013567ffffffffffffffff811115612f8657612f8561266f565b5b612f928a828b0161278c565b92505060c0612fa38a828b01612853565b91505092959891949750929550565b600073ffffffffffffffffffffffffffffffffffffffff82169050919050565b6000612fdd82612fb2565b9050919050565b612fed81612fd2565b82525050565b60006020820190506130086000830184612fe4565b92915050565b6000608083016000830151848203600086015261302b8282612afd565b915050602083015184820360208601526130458282612afd565b915050604083015161305a6040860182612cf3565b50606083015161306d60608601826129d6565b508091505092915050565b60006020820190508181036000830152613092818461300e565b905092915050565b600060808301600083015184820360008601526130b78282612afd565b915050602083015184820360208601526130d18282612afd565b91505060408301516130e66040860182612cf3565b5060608301516130f960608601826129d6565b508091505092915050565b6000602082019050818103600083015261311e818461309a565b905092915050565b600082825260208201905092915050565b7f4f6e6c79206f776e657200000000000000000000000000000000000000000000600082015250565b600061316d600a83613126565b915061317882613137565b602082019050919050565b6000602082019050818103600083015261319c81613160565b9050919050565b600081905092915050565b60006131b982612ab7565b6131c381856131a3565b93506131d3818560208601612ad3565b80840191505092915050565b60006131eb82846131ae565b915081905092915050565b7f436f6d70616e79206e6f7420666f756e64000000000000000000000000000000600082015250565b600061322c601183613126565b9150613237826131f6565b602082019050919050565b6000602082019050818103600083015261325b8161321f565b9050919050565b7f4e487b7100000000000000000000000000000000000000000000000000000000600052602260045260246000fd5b600060028204905060018216806132a957607f821691505b6020821081036132bc576132bb613262565b5b50919050565b60008190508160005260206000209050919050565b60006020601f8301049050919050565b600082821b905092915050565b6000600883026133247fffffffffffffffffffffffffffffffffffffffffffffffffffffffffffffffff826132e7565b61332e86836132e7565b95508019841693508086168417925050509392505050565b6000819050919050565b600061336b61336661336184612832565b613346565b612832565b9050919050565b6000819050919050565b61338583613350565b61339961339182613372565b8484546132f4565b825550505050565b600090565b6133ae6133a1565b6133b981848461337c565b505050565b5b818110156133dd576133d26000826133a6565b6001810190506133bf565b5050565b601f821115613422576133f3816132c2565b6133fc846132d7565b8101602085101561340b578190505b61341f613417856132d7565b8301826133be565b50505b505050565b600082821c905092915050565b600061344560001984600802613427565b1980831691505092915050565b600061345e8383613434565b9150826002028217905092915050565b61347782612ab7565b67ffffffffffffffff8111156134905761348f61268f565b5b61349a8254613291565b6134a58282856133e1565b600060209050601f8311600181146134d857600084156134c6578287015190505b6134d08582613452565b865550613538565b601f1984166134e6866132c2565b60005b8281101561350e578489015182556001820191506020850194506020810190506134e9565b8683101561352b5784890151613527601f891682613434565b8355505b6001600288020188555050505b505050505050565b7f506572696f642072657175697265640000000000000000000000000000000000600082015250565b6000613576600f83613126565b915061358182613540565b602082019050919050565b600060208201905081810360008301526135a581613569565b9050919050565b7f5265706f72742068617368207265717569726564000000000000000000000000600082015250565b60006135e2601483613126565b91506135ed826135ac565b602082019050919050565b60006020820190508181036000830152613611816135d5565b9050919050565b7f4e487b7100000000000000000000000000000000000000000000000000000000600052601160045260246000fd5b600061365282612832565b91507fffffffffffffffffffffffffffffffffffffffffffffffffffffffffffffffff820361368457613683613618565b5b600182019050919050565b600061369a82612ab7565b6136a48185613126565b93506136b4818560208601612ad3565b6136bd8161267e565b840191505092915050565b600060a08201905081810360008301526136e2818861368f565b905081810360208301526136f6818761368f565b90506137056040830186612937565b6137126060830185612937565b61371f6080830184612937565b9695505050505050565b7f5375626d697373696f6e206e6f7420666f756e64000000000000000000000000600082015250565b600061375f601483613126565b915061376a82613729565b602082019050919050565b6000602082019050818103600083015261378e81613752565b9050919050565b7f5374616b65686f6c646572204944207265717569726564000000000000000000600082015250565b60006137cb601783613126565b91506137d682613795565b602082019050919050565b600060208201905081810360008301526137fa816137be565b9050919050565b7f526f6c6520726571756972656400000000000000000000000000000000000000600082015250565b6000613837600d83613126565b915061384282613801565b602082019050919050565b600060208201905081810360008301526138668161382a565b9050919050565b60006040820190508181036000830152613887818561368f565b90506138966020830184612937565b9392505050565b7f5265706f7274206e6f7420666f756e6400000000000000000000000000000000600082015250565b60006138d3601083613126565b91506138de8261389d565b602082019050919050565b60006020820190508181036000830152613902816138c6565b9050919050565b7f436f6d70616e7920494420726571756972656400000000000000000000000000600082015250565b600061393f601383613126565b915061394a82613909565b602082019050919050565b6000602082019050818103600083015261396e81613932565b9050919050565b7f436f6d70616e7920616c72656164792065786973747300000000000000000000600082015250565b60006139ab601683613126565b91506139b682613975565b602082019050919050565b600060208201905081810360008301526139da8161399e565b9050919050565b7f4163746f72207265717569726564000000000000000000000000000000000000600082015250565b6000613a17600e83613126565b9150613a22826139e1565b602082019050919050565b60006020820190508181036000830152613a4681613a0a565b9050919050565b7f4461746120686173682072657175697265640000000000000000000000000000600082015250565b6000613a83601283613126565b9150613a8e82613a4d565b602082019050919050565b60006020820190508181036000830152613ab281613a76565b9050919050565b7f5374616b65686f6c646572206e6f7420617574686f72697a6564000000000000600082015250565b6000613aef601a83613126565b9150613afa82613ab9565b602082019050919050565b60006020820190508181036000830152613b1e81613ae2565b9050919050565b600081905092915050565b60008190508160005260206000209050919050565b60008154613b5281613291565b613b5c8186613b25565b94506001821660008114613b775760018114613b8c57613bbf565b60ff1983168652811515820286019350613bbf565b613b9585613b30565b60005b83811015613bb757815481890152600182019150602081019050613b98565b838801955050505b50505092915050565b6000613bd48284613b45565b915081905092915050565b7f5374616b65686f6c64657220726f6c65206d69736d6174636800000000000000600082015250565b6000613c15601983613126565b9150613c2082613bdf565b602082019050919050565b60006020820190508181036000830152613c4481613c08565b9050919050565b600060a0820190508181036000830152613c65818861368f565b90508181036020830152613c79818761368f565b90508181036040830152613c8d818661368f565b9050613c9c6060830185612937565b613ca96080830184612937565b9695505050505050565b7f4275796572204944207265717569726564000000000000000000000000000000600082015250565b6000613ce9601183613126565b9150613cf482613cb3565b602082019050919050565b60006020820190508181036000830152613d1881613cdc565b9050919050565b60008154613d2c81613291565b613d3681866131a3565b94506001821660008114613d515760018114613d6657613d99565b60ff1983168652811515820286019350613d99565b613d6f856132c2565b60005b83811015613d9157815481890152600182019150602081019050613d72565b838801955050505b50505092915050565b6000613dae8284613d1f565b915081905092915050565b7f5374616b65686f6c646572206e6f7420666f756e640000000000000000000000600082015250565b6000613def601583613126565b9150613dfa82613db9565b602082019050919050565b60006020820190508181036000830152613e1e81613de2565b9050919050565b7f5374616b65686f6c64657220616c726561647920696e61637469766500000000600082015250565b6000613e5b601c83613126565b9150613e6682613e25565b602082019050919050565b60006020820190508181036000830152613e8a81613e4e565b905091905056fea2646970667358221220ab33bf1ee614e103123694317b4df71be17c17a89d9605f8be41791bf382870b64736f6c634300081c0033",
  "linkReferences": {},
  "deployedLinkReferences": {}
}