{
  "_format": "hh-sol-artifact-1",
  "contractName": "ESGStorage",
  "sourceName": "contracts/ESGStorage.sol",
  "abi": [
    {
      "anonymous": false,
      "inputs": [
        {
          "indexed": true,
          "internalType": "uint256",
          "name": "index",
          "type": "uint256"
        },
        {
          "indexed": false,
          "internalType": "string",
          "name": "actor",
          "type": "string"
        },
        {
          "indexed": false,
          "internalType": "string",
          "name": "companyId",
          "type": "string"
        },
        {
          "indexed": false,
          "internalType": "string",
          "name": "dataHash",
          "type": "string"
        }
      ],
      "name": "RecordAdded",
      "type": "event"
    },
    {
      "inputs": [
        {
          "internalType": "string",
          "name": "actor",
          "type": "string"
        },
        {
          "internalType": "string",
          "name": "dataHash",
          "type": "string"
        },
        {
          "internalType": "uint256",
          "name": "co2Value",
          "type": "uint256"
        },
        {
          "internalType": "string",
          "name": "companyId",
          "type": "string"
        }
      ],
      "name": "addRecord",
      "outputs": [
        {
          "internalType": "uint256",
          "name": "",
          "type": "uint256"
        }
      ],
      "stateMutability": "nonpayable",
      "type": "function"
    },
    {
      "inputs": [
        {
          "internalType": "uint256",
          "name": "index",
          "type": "uint256"
        }
      ],
      "name": "getRecord",
      "outputs": [
        {
          "components": [
            {
              "internalType": "string",
              "name": "actor",
              "type": "string"
            },
            {
              "internalType": "string",
              "name": "dataHash",
              "type": "string"
            },
            {
              "internalType": "uint256",
              "name": "co2Value",
              "type": "uint256"
            },
            {
              "internalType": "uint256",
              "name": "timestamp",
              "type": "uint256"
            },
            {
              "internalType": "string",
              "name": "companyId",
              "type": "string"
            }
          ],
          "internalType": "struct ESGStorage.ESGRecord",
          "name": "",
          "type": "tuple"
        }
      ],
      "stateMutability": "view",
      "type": "function"
    },
    {
      "inputs": [],
      "name": "getRecordCount",
      "outputs": [
        {
          "internalType": "uint256",
          "name": "",
          "type": "uint256"
        }
      ],
      "stateMutability": "view",
      "type": "function"
    },
    {
      "inputs": [
        {
          "internalType": "uint256",
          "name": "",
          "type": "uint256"
        }
      ],
      "name": "records",
      "outputs": [
        {
          "internalType": "string",
          "name": "actor",
          "type": "string"
        },
        {
          "internalType": "string",
          "name": "dataHash",
          "type": "string"
        },
        {
          "internalType": "uint256",
          "name": "co2Value",
          "type": "uint256"
        },
        {
          "internalType": "uint256",
          "name": "timestamp",
          "type": "uint256"
        },
        {
          "internalType": "string",
          "name": "companyId",
          "type": "string"
        }
      ],
      "stateMutability": "view",
      "type": "function"
    }
  ],
  "bytecode": "0x6080604052348015600f57600080fd5b50610f5e8061001f6000396000f3fe608060405234801561001057600080fd5b506004361061004c5760003560e01c806303e9e6091461005157806334461067146100815780638290c0d2146100b5578063ca267f28146100e5575b600080fd5b61006b600480360381019061006691906106c2565b610103565b6040516100789190610812565b60405180910390f35b61009b600480360381019061009691906106c2565b610350565b6040516100ac95949392919061088d565b60405180910390f35b6100cf60048036038101906100ca9190610a2a565b61052e565b6040516100dc9190610ae5565b60405180910390f35b6100ed61063d565b6040516100fa9190610ae5565b60405180910390f35b61010b610649565b6000805490508210610152576040517f08c379a000000000000000000000000000000000000000000000000000000000815260040161014990610b4c565b60405180910390fd5b6000828154811061016657610165610b6c565b5b90600052602060002090600502016040518060a001604052908160008201805461018f90610bca565b80601f01602080910402602001604051908101604052809291908181526020018280546101bb90610bca565b80156102085780601f106101dd57610100808354040283529160200191610208565b820191906000526020600020905b8154815290600101906020018083116101eb57829003601f168201915b5050505050815260200160018201805461022190610bca565b80601f016020809104026020016040519081016040528092919081815260200182805461024d90610bca565b801561029a5780601f1061026f5761010080835404028352916020019161029a565b820191906000526020600020905b81548152906001019060200180831161027d57829003601f168201915b5050505050815260200160028201548152602001600382015481526020016004820180546102c790610bca565b80601f01602080910402602001604051908101604052809291908181526020018280546102f390610bca565b80156103405780601f1061031557610100808354040283529160200191610340565b820191906000526020600020905b81548152906001019060200180831161032357829003601f168201915b5050505050815250509050919050565b6000818154811061036057600080fd5b906000526020600020906005020160009150905080600001805461038390610bca565b80601f01602080910402602001604051908101604052809291908181526020018280546103af90610bca565b80156103fc5780601f106103d1576101008083540402835291602001916103fc565b820191906000526020600020905b8154815290600101906020018083116103df57829003601f168201915b50505050509080600101805461041190610bca565b80601f016020809104026020016040519081016040528092919081815260200182805461043d90610bca565b801561048a5780601f1061045f5761010080835404028352916020019161048a565b820191906000526020600020905b81548152906001019060200180831161046d57829003601f168201915b5050505050908060020154908060030154908060040180546104ab90610bca565b80601f01602080910402602001604051908101604052809291908181526020018280546104d790610bca565b80156105245780601f106104f957610100808354040283529160200191610524565b820191906000526020600020905b81548152906001019060200180831161050757829003601f168201915b5050505050905085565b6000806040518060a001604052808781526020018681526020018581526020014281526020018481525090506000819080600181540180825580915050600190039060005260206000209060050201600090919091909150600082015181600001908161059b9190610da7565b5060208201518160010190816105b19190610da7565b50604082015181600201556060820151816003015560808201518160040190816105db9190610da7565b505050600060016000805490506105f29190610ea8565b9050807f32461dca2b0453944e6182689e5a824e738185a02d42ed2a9bc0bc6f6a87783388868960405161062893929190610edc565b60405180910390a28092505050949350505050565b60008080549050905090565b6040518060a0016040528060608152602001606081526020016000815260200160008152602001606081525090565b6000604051905090565b600080fd5b600080fd5b6000819050919050565b61069f8161068c565b81146106aa57600080fd5b50565b6000813590506106bc81610696565b92915050565b6000602082840312156106d8576106d7610682565b5b60006106e6848285016106ad565b91505092915050565b600081519050919050565b600082825260208201905092915050565b60005b8381101561072957808201518184015260208101905061070e565b60008484015250505050565b6000601f19601f8301169050919050565b6000610751826106ef565b61075b81856106fa565b935061076b81856020860161070b565b61077481610735565b840191505092915050565b6107888161068c565b82525050565b600060a08301600083015184820360008601526107ab8282610746565b915050602083015184820360208601526107c58282610746565b91505060408301516107da604086018261077f565b5060608301516107ed606086018261077f565b50608083015184820360808601526108058282610746565b9150508091505092915050565b6000602082019050818103600083015261082c818461078e565b905092915050565b600082825260208201905092915050565b6000610850826106ef565b61085a8185610834565b935061086a81856020860161070b565b61087381610735565b840191505092915050565b6108878161068c565b82525050565b600060a08201905081810360008301526108a78188610845565b905081810360208301526108bb8187610845565b90506108ca604083018661087e565b6108d7606083018561087e565b81810360808301526108e98184610845565b90509695505050505050565b600080fd5b600080fd5b7f4e487b7100000000000000000000000000000000000000000000000000000000600052604160045260246000fd5b61093782610735565b810181811067ffffffffffffffff82111715610956576109556108ff565b5b80604052505050565b6000610969610678565b9050610975828261092e565b919050565b600067ffffffffffffffff821115610995576109946108ff565b5b61099e82610735565b9050602081019050919050565b82818337600083830152505050565b60006109cd6109c88461097a565b61095f565b9050828152602081018484840111156109e9576109e86108fa565b5b6109f48482856109ab565b509392505050565b600082601f830112610a1157610a106108f5565b5b8135610a218482602086016109ba565b91505092915050565b60008060008060808587031215610a4457610a43610682565b5b600085013567ffffffffffffffff811115610a6257610a61610687565b5b610a6e878288016109fc565b945050602085013567ffffffffffffffff811115610a8f57610a8e610687565b5b610a9b878288016109fc565b9350506040610aac878288016106ad565b925050606085013567ffffffffffffffff811115610acd57610acc610687565b5b610ad9878288016109fc565b91505092959194509250565b6000602082019050610afa600083018461087e565b92915050565b7f5265636f7264206e6f7420666f756e6400000000000000000000000000000000600082015250565b6000610b36601083610834565b9150610b4182610b00565b602082019050919050565b60006020820190508181036000830152610b6581610b29565b9050919050565b7f4e487b7100000000000000000000000000000000000000000000000000000000600052603260045260246000fd5b7f4e487b7100000000000000000000000000000000000000000000000000000000600052602260045260246000fd5b60006002820490506001821680610be257607f821691505b602082108103610bf557610bf4610b9b565b5b50919050565b60008190508160005260206000209050919050565b60006020601f8301049050919050565b600082821b905092915050565b600060088302610c5d7fffffffffffffffffffffffffffffffffffffffffffffffffffffffffffffffff82610c20565b610c678683610c20565b95508019841693508086168417925050509392505050565b6000819050919050565b6000610ca4610c9f610c9a8461068c565b610c7f565b61068c565b9050919050565b6000819050919050565b610cbe83610c89565b610cd2610cca82610cab565b848454610c2d565b825550505050565b600090565b610ce7610cda565b610cf2818484610cb5565b505050565b5b81811015610d1657610d0b600082610cdf565b600181019050610cf8565b5050565b601f821115610d5b57610d2c81610bfb565b610d3584610c10565b81016020851015610d44578190505b610d58610d5085610c10565b830182610cf7565b50505b505050565b600082821c905092915050565b6000610d7e60001984600802610d60565b1980831691505092915050565b6000610d978383610d6d565b9150826002028217905092915050565b610db0826106ef565b67ffffffffffffffff811115610dc957610dc86108ff565b5b610dd38254610bca565b610dde828285610d1a565b600060209050601f831160018114610e115760008415610dff578287015190505b610e098582610d8b565b865550610e71565b601f198416610e1f86610bfb565b60005b82811015610e4757848901518255600182019150602085019450602081019050610e22565b86831015610e645784890151610e60601f891682610d6d565b8355505b6001600288020188555050505b505050505050565b7f4e487b7100000000000000000000000000000000000000000000000000000000600052601160045260246000fd5b6000610eb38261068c565b9150610ebe8361068c565b9250828203905081811115610ed657610ed5610e79565b5b92915050565b60006060820190508181036000830152610ef68186610845565b90508181036020830152610f0a8185610845565b90508181036040830152610f1e8184610845565b905094935050505056fea2646970667358221220f7e4fb845c33df21dcd04bebe24c3b7a283da2cb10e1b771dee6b73afb11f4d664736f6c634300081c0033",
  "linkReferences": {},
  "deployedLinkReferences": {}
}