{
  "_format": "hh-sol-artifact-1",
  "contractName": "ESGStorage",
  "sourceName": "contracts/ESGStorage.sol",
  "abi": [
    {
      "inputs": [],
      "stateMutability": "nonpayable",
      "type": "constructor"
    },
    {
      "anonymous": false,
      "inputs": [
        {
          "indexed": true,
          "internalType": "string",
          "name": "companyId",
          "type": "string"
        },
        {
          "indexed": false,
          "internalType": "string",
          "name": "metadataHash",
          "type": "string"
        },
        {
          "indexed": false,
          "internalType": "uint256",
          "name": "timestamp",
          "type": "uint256"
        }
      ],
      "name": "CompanyRegistered",
      "type": "event"
    },
    {
      "anonymous": false,
      "inputs": [
        {
          "indexed": true,
          "internalType": "uint256",
          "name": "submissionId",
          "type": "uint256"
        },
        {
          "indexed": true,
          "internalType": "string",
          "name": "companyId",
          "type": "string"
        },
        {
          "indexed": true,
          "internalType": "string",
          "name": "stakeholderId",
          "type": "string"
        },
        {
          "indexed": false,
          "internalType": "string",
          "name": "actor",
          "type": "string"
        },
        {
          "indexed": false,
          "internalType": "string",
          "name": "period",
          "type": "string"
        },
        {
          "indexed": false,
          "internalType": "string",
          "name": "dataHash",
          "type": "string"
        },
        {
          "indexed": false,
          "internalType": "uint256",
          "name": "co2Value",
          "type": "uint256"
        },
        {
          "indexed": false,
          "internalType": "uint256",
          "name": "timestamp",
          "type": "uint256"
        }
      ],
      "name": "ESGDataSubmitted",
      "type": "event"
    },
    {
      "anonymous": false,
      "inputs": [
        {
          "indexed": true,
          "internalType": "uint256",
          "name": "reportId",
          "type": "uint256"
        },
        {
          "indexed": true,
          "internalType": "string",
          "name": "companyId",
          "type": "string"
        },
        {
          "indexed": false,
          "internalType": "string",
          "name": "period",
          "type": "string"
        },
        {
          "indexed": false,
          "internalType": "string",
          "name": "reportHash",
          "type": "string"
        },
        {
          "indexed": false,
          "internalType": "uint256",
          "name": "totalCo2Value",
          "type": "uint256"
        },
        {
          "indexed": false,
          "internalType": "uint256",
          "name": "score",
          "type": "uint256"
        },
        {
          "indexed": false,
          "internalType": "uint256",
          "name": "timestamp",
          "type": "uint256"
        }
      ],
      "name": "ReportGenerated",
      "type": "event"
    },
    {
      "anonymous": false,
      "inputs": [
        {
          "indexed": true,
          "internalType": "uint256",
          "name": "reportId",
          "type": "uint256"
        },
        {
          "indexed": true,
          "internalType": "string",
          "name": "companyId",
          "type": "string"
        },
        {
          "indexed": true,
          "internalType": "string",
          "name": "buyerId",
          "type": "string"
        },
        {
          "indexed": false,
          "internalType": "uint256",
          "name": "timestamp",
          "type": "uint256"
        }
      ],
      "name": "ReportPurchased",
      "type": "event"
    },
    {
      "anonymous": false,
      "inputs": [
        {
          "indexed": true,
          "internalType": "string",
          "name": "companyId",
          "type": "string"
        },
        {
          "indexed": true,
          "internalType": "string",
          "name": "stakeholderId",
          "type": "string"
        },
        {
          "indexed": true,
          "internalType": "address",
          "name": "walletAddress",
          "type": "address"
        },
        {
          "indexed": false,
          "internalType": "string",
          "name": "role",
          "type": "string"
        },
        {
          "indexed": false,
          "internalType": "uint256",
          "name": "timestamp",
          "type": "uint256"
        }
      ],
      "name": "StakeholderAuthorized",
      "type": "event"
    },
    {
      "anonymous": false,
      "inputs": [
        {
          "indexed": true,
          "internalType": "string",
          "name": "companyId",
          "type": "string"
        },
        {
          "indexed": true,
          "internalType": "string",
          "name": "stakeholderId",
          "type": "string"
        },
        {
          "indexed": false,
          "internalType": "uint256",
          "name": "timestamp",
          "type": "uint256"
        }
      ],
      "name": "StakeholderRevoked",
      "type": "event"
    },
    {
      "inputs": [
        {
          "internalType": "string",
          "name": "companyId",
          "type": "string"
        },
        {
          "internalType": "string",
          "name": "stakeholderId",
          "type": "string"
        },
        {
          "internalType": "string",
          "name": "role",
          "type": "string"
        },
        {
          "internalType": "address",
          "name": "walletAddress",
          "type": "address"
        }
      ],
      "name": "authorizeStakeholder",
      "outputs": [],
      "stateMutability": "nonpayable",
      "type": "function"
    },
    {
      "inputs": [
        {
          "internalType": "string",
          "name": "companyId",
          "type": "string"
        },
        {
          "internalType": "string",
          "name": "period",
          "type": "string"
        },
        {
          "internalType": "string",
          "name": "reportHash",
          "type": "string"
        },
        {
          "internalType": "uint256",
          "name": "totalCo2Value",
          "type": "uint256"
        },
        {
          "internalType": "uint256",
          "name": "score",
          "type": "uint256"
        }
      ],
      "name": "generateReport",
      "outputs": [
        {
          "internalType": "uint256",
          "name": "",
          "type": "uint256"
        }
      ],
      "stateMutability": "nonpayable",
      "type": "function"
    },
    {
      "inputs": [
        {
          "internalType": "string",
          "name": "companyId",
          "type": "string"
        }
      ],
      "name": "getCompany",
      "outputs": [
        {
          "components": [
            {
              "internalType": "string",
              "name": "companyId",
              "type": "string"
            },
            {
              "internalType": "string",
              "name": "metadataHash",
              "type": "string"
            },
            {
              "internalType": "bool",
              "name": "exists",
              "type": "bool"
            },
            {
              "internalType": "uint256",
              "name": "createdAt",
              "type": "uint256"
            }
          ],
          "internalType": "struct ESGStorage.Company",
          "name": "",
          "type": "tuple"
        }
      ],
      "stateMutability": "view",
      "type": "function"
    },
    {
      "inputs": [
        {
          "internalType": "string",
          "name": "companyId",
          "type": "string"
        }
      ],
      "name": "getCompanyReportIds",
      "outputs": [
        {
          "internalType": "uint256[]",
          "name": "",
          "type": "uint256[]"
        }
      ],
      "stateMutability": "view",
      "type": "function"
    },
    {
      "inputs": [
        {
          "internalType": "string",
          "name": "companyId",
          "type": "string"
        }
      ],
      "name": "getCompanySubmissionIds",
      "outputs": [
        {
          "internalType": "uint256[]",
          "name": "",
          "type": "uint256[]"
        }
      ],
      "stateMutability": "view",
      "type": "function"
    },
    {
      "inputs": [
        {
          "internalType": "uint256",
          "name": "reportId",
          "type": "uint256"
        }
      ],
      "name": "getReport",
      "outputs": [
        {
          "components": [
            {
              "internalType": "uint256",
              "name": "id",
              "type": "uint256"
            },
            {
              "internalType": "string",
              "name": "companyId",
              "type": "string"
            },
            {
              "internalType": "string",
              "name": "period",
              "type": "string"
            },
            {
              "internalType": "string",
              "name": "reportHash",
              "type": "string"
            },
            {
              "internalType": "uint256",
              "name": "totalCo2Value",
              "type": "uint256"
            },
            {
              "internalType": "uint256",
              "name": "score",
              "type": "uint256"
            },
            {
              "internalType": "uint256",
              "name": "generatedAt",
              "type": "uint256"
            },
            {
              "internalType": "bool",
              "name": "exists",
              "type": "bool"
            }
          ],
          "internalType": "struct ESGStorage.Report",
          "name": "",
          "type": "tuple"
        }
      ],
      "stateMutability": "view",
      "type": "function"
    },
    {
      "inputs": [],
      "name": "getReportCount",
      "outputs": [
        {
          "internalType": "uint256",
          "name": "",
          "type": "uint256"
        }
      ],
      "stateMutability": "view",
      "type": "function"
    },
    {
      "inputs": [
        {
          "internalType": "string",
          "name": "companyId",
          "type": "string"
        },
        {
          "internalType": "string",
          "name": "stakeholderId",
          "type": "string"
        }
      ],
      "name": "getStakeholder",
      "outputs": [
        {
          "components": [
            {
              "internalType": "string",
              "name": "stakeholderId",
              "type": "string"
            },
            {
              "internalType": "string",
              "name": "role",
              "type": "string"
            },
            {
              "internalType": "address",
              "name": "walletAddress",
              "type": "address"
            },
            {
              "internalType": "bool",
              "name": "active",
              "type": "bool"
            },
            {
              "internalType": "uint256",
              "name": "authorizedAt",
              "type": "uint256"
            }
          ],
          "internalType": "struct ESGStorage.Stakeholder",
          "name": "",
          "type": "tuple"
        }
      ],
      "stateMutability": "view",
      "type": "function"
    },
    {
      "inputs": [
        {
          "internalType": "string",
          "name": "companyId",
          "type": "string"
        }
      ],
      "name": "getStakeholderCount",
      "outputs": [
        {
          "internalType": "uint256",
          "name": "",
          "type": "uint256"
        }
      ],
      "stateMutability": "view",
      "type": "function"
    },
    {
      "inputs": [
        {
          "internalType": "uint256",
          "name": "submissionId",
          "type": "uint256"
        }
      ],
      "name": "getSubmission",
      "outputs": [
        {
          "components": [
            {
              "internalType": "uint256",
              "name": "id",
              "type": "uint256"
            },
            {
              "internalType": "string",
              "name": "companyId",
              "type": "string"
            },
            {
              "internalType": "string",
              "name": "stakeholderId",
              "type": "string"
            },
            {
              "internalType": "string",
              "name": "stakeholderRole",
              "type": "string"
            },
            {
              "internalType": "address",
              "name": "submitterWallet",
              "type": "address"
            },
            {
              "internalType": "string",
              "name": "actor",
              "type": "string"
            },
            {
              "internalType": "string",
              "name": "period",
              "type": "string"
            },
            {
              "internalType": "string",
              "name": "dataHash",
              "type": "string"
            },
            {
              "internalType": "uint256",
              "name": "co2Value",
              "type": "uint256"
            },
            {
              "internalType": "uint256",
              "name": "timestamp",
              "type": "uint256"
            }
          ],
          "internalType": "struct ESGStorage.Submission",
          "name": "",
          "type": "tuple"
        }
      ],
      "stateMutability": "view",
      "type": "function"
    },
    {
      "inputs": [],
      "name": "getSubmissionCount",
      "outputs": [
        {
          "internalType": "uint256",
          "name": "",
          "type": "uint256"
        }
      ],
      "stateMutability": "view",
      "type": "function"
    },
    {
      "inputs": [
        {
          "internalType": "uint256",
          "name": "reportId",
          "type": "uint256"
        },
        {
          "internalType": "string",
          "name": "buyerId",
          "type": "string"
        }
      ],
      "name": "hasReportAccess",
      "outputs": [
        {
          "internalType": "bool",
          "name": "",
          "type": "bool"
        }
      ],
      "stateMutability": "view",
      "type": "function"
    },
    {
      "inputs": [
        {
          "internalType": "string",
          "name": "companyId",
          "type": "string"
        },
        {
          "internalType": "string",
          "name": "stakeholderId",
          "type": "string"
        }
      ],
      "name": "isStakeholderAuthorized",
      "outputs": [
        {
          "internalType": "bool",
          "name": "",
          "type": "bool"
        }
      ],
      "stateMutability": "view",
      "type": "function"
    },
    {
      "inputs": [
        {
          "internalType": "string",
          "name": "companyId",
          "type": "string"
        },
        {
          "internalType": "address",
          "name": "walletAddress",
          "type": "address"
        }
      ],
      "name": "isWalletAuthorized",
      "outputs": [
        {
          "internalType": "bool",
          "name": "",
          "type": "bool"
        }
      ],
      "stateMutability": "view",
      "type": "function"
    },
    {
      "inputs": [],
      "name": "owner",
      "outputs": [
        {
          "internalType": "address",
          "name": "",
          "type": "address"
        }
      ],
      "stateMutability": "view",
      "type": "function"
    },
    {
      "inputs": [
        {
          "internalType": "uint256",
          "name": "reportId",
          "type": "uint256"
        },
        {
          "internalType": "string",
          "name": "buyerId",
          "type": "string"
        }
      ],
      "name": "purchaseReportAccess",
      "outputs": [
        {
          "internalType": "bool",
          "name": "",
          "type": "bool"
        }
      ],
      "stateMutability": "nonpayable",
      "type": "function"
    },
    {
      "inputs": [
        {
          "internalType": "string",
          "name": "companyId",
          "type": "string"
        },
        {
          "internalType": "string",
          "name": "metadataHash",
          "type": "string"
        }
      ],
      "name": "registerCompany",
      "outputs": [],
      "stateMutability": "nonpayable",
      "type": "function"
    },
    {
      "inputs": [
        {
          "internalType": "string",
          "name": "companyId",
          "type": "string"
        },
        {
          "internalType": "string",
          "name": "stakeholderId",
          "type": "string"
        }
      ],
      "name": "revokeStakeholder",
      "outputs": [],
      "stateMutability": "nonpayable",
      "type": "function"
    },
    {
      "inputs": [
        {
          "internalType": "string",
          "name": "companyId",
          "type": "string"
        },
        {
          "internalType": "string",
          "name": "stakeholderId",
          "type": "string"
        },
        {
          "internalType": "string",
          "name": "stakeholderRole",
          "type": "string"
        },
        {
          "internalType": "string",
          "name": "actor",
          "type": "string"
        },
        {
          "internalType": "string",
          "name": "period",
          "type": "string"
        },
        {
          "internalType": "string",
          "name": "dataHash",
          "type": "string"
        },
        {
          "internalType": "uint256",
          "name": "co2Value",
          "type": "uint256"
        }
      ],
      "name": "submitESGData",
      "outputs": [
        {
          "internalType": "uint256",
          "name": "",
          "type": "uint256"
        }
      ],
      "stateMutability": "nonpayable",
      "type": "function"
    },
    {
      "inputs": [
        {
          "internalType": "string",
          "name": "companyId",
          "type": "string"
        },
        {
          "internalType": "string",
          "name": "actor",
          "type": "string"
        },
        {
          "internalType": "string",
          "name": "period",
          "type": "string"
        },
        {
          "internalType": "string",
          "name": "dataHash",
          "type": "string"
        },
        {
          "internalType": "uint256",
          "name": "co2Value",
          "type": "uint256"
        }
      ],
      "name": "submitESGDataAsStakeholder",
      "outputs": [
        {
          "internalType": "uint256",
          "name": "",
          "type": "uint256"
        }
      ],
      "stateMutability": "nonpayable",
      "type": "function"
    },
    {
      "inputs": [
        {
          "internalType": "string",
          "name": "companyId",
          "type": "string"
        },
        {
          "internalType": "string",
          "name": "metadataHash",
          "type": "string"
        }
      ],
      "name": "updateCompanyMetadata",
      "outputs": [],
      "stateMutability": "nonpayable",
      "type": "function"
    }
  ],
  "bytecode": "0x60a060405234801561001057600080fd5b503373ffffffffffffffffffffffffffffffffffffffff1660808173ffffffffffffffffffffffffffffffffffffffff1681525050608051614c4f610091600039600081816104a80152818161069a015281816117b2015281816119e301528181611f9b01528181611fc90152818161278a0152612d330152614c4f6000f3fe608060405234801561001057600080fd5b50600436106101375760003560e01c80638da5cb5b116100b8578063b6c33e041161007c578063b6c33e04146103ac578063cad9642b146103dc578063cbc07993146103fa578063d00bb8b81461042a578063fb8c34851461045a578063fc7457ab1461048a57610137565b80638da5cb5b146102f45780639999d2ae14610312578063a0d05fa114610330578063ae69370b1461034c578063b24a4e521461037c57610137565b80634c74f74e116100ff5780634c74f74e146102185780634e7f9b1914610248578063696fd2c11461027857806374448ba4146102a85780637c59a551146102c457610137565b80630218a7ec1461013c5780630e4ff8d01461015857806316c3913f146101885780632c10f557146101b85780633e8686cc146101e8575b600080fd5b610156600480360381019061015191906132ac565b6104a6565b005b610172600480360381019061016d9190613382565b6105d7565b60405161017f91906133f9565b60405180910390f35b6101a2600480360381019061019d919061344a565b610696565b6040516101af9190613528565b60405180910390f35b6101d260048036038101906101cd9190613543565b6109be565b6040516101df919061364a565b60405180910390f35b61020260048036038101906101fd919061366c565b610aa4565b60405161020f9190613824565b60405180910390f35b610232600480360381019061022d9190613846565b610ef6565b60405161023f9190613528565b60405180910390f35b610262600480360381019061025d919061366c565b6114b0565b60405161026f91906139fe565b60405180910390f35b610292600480360381019061028d9190613a20565b61173a565b60405161029f91906133f9565b60405180910390f35b6102c260048036038101906102bd91906132ac565b6117b0565b005b6102de60048036038101906102d99190613a7c565b6119df565b6040516102eb9190613528565b60405180910390f35b6102fc611f99565b6040516103099190613bd5565b60405180910390f35b61031a611fbd565b6040516103279190613528565b60405180910390f35b61034a60048036038101906103459190613bf0565b611fc7565b005b61036660048036038101906103619190613543565b6124af565b604051610373919061364a565b60405180910390f35b61039660048036038101906103919190613543565b612595565b6040516103a39190613d15565b60405180910390f35b6103c660048036038101906103c19190613a20565b612786565b6040516103d391906133f9565b60405180910390f35b6103e461298b565b6040516103f19190613528565b60405180910390f35b610414600480360381019061040f9190613543565b612995565b6040516104219190613528565b60405180910390f35b610444600480360381019061043f91906132ac565b612a30565b6040516104519190613db4565b60405180910390f35b610474600480360381019061046f91906132ac565b612cdf565b60405161048191906133f9565b60405180910390f35b6104a4600480360381019061049f91906132ac565b612d31565b005b7f000000000000000000000000000000000000000000000000000000000000000073ffffffffffffffffffffffffffffffffffffffff163373ffffffffffffffffffffffffffffffffffffffff1614610534576040517f08c379a000000000000000000000000000000000000000000000000000000000815260040161052b90613e33565b60405180910390fd5b816000816040516105459190613e8f565b908152602001604051809103902060020160009054906101000a900460ff166105a3576040517f08c379a000000000000000000000000000000000000000000000000000000000815260040161059a90613ef2565b60405180910390fd5b816000846040516105b49190613e8f565b908152602001604051809103902060010190816105d1919061411e565b50505050565b6000806003846040516105ea9190613e8f565b908152602001604051809103902060008473ffffffffffffffffffffffffffffffffffffffff1673ffffffffffffffffffffffffffffffffffffffff1681526020019081526020016000205490506000801b810361064c576000915050610690565b60028460405161065c9190613e8f565b9081526020016040518091039020600082815260200190815260200160002060020160149054906101000a900460ff169150505b92915050565b60007f000000000000000000000000000000000000000000000000000000000000000073ffffffffffffffffffffffffffffffffffffffff163373ffffffffffffffffffffffffffffffffffffffff1614610726576040517f08c379a000000000000000000000000000000000000000000000000000000000815260040161071d90613e33565b60405180910390fd5b856000816040516107379190613e8f565b908152602001604051809103902060020160009054906101000a900460ff16610795576040517f08c379a000000000000000000000000000000000000000000000000000000000815260040161078c90613ef2565b60405180910390fd5b60008651116107d9576040517f08c379a00000000000000000000000000000000000000000000000000000000081526004016107d09061423c565b60405180910390fd5b600085511161081d576040517f08c379a0000000000000000000000000000000000000000000000000000000008152600401610814906142a8565b60405180910390fd5b6000600a6000815480929190610832906142f7565b91905055905060405180610100016040528082815260200189815260200188815260200187815260200186815260200185815260200142815260200160011515815250600860008381526020019081526020016000206000820151816000015560208201518160010190816108a7919061411e565b5060408201518160020190816108bd919061411e565b5060608201518160030190816108d3919061411e565b506080820151816004015560a0820151816005015560c0820151816006015560e08201518160070160006101000a81548160ff0219169083151502179055509050506007886040516109259190613e8f565b9081526020016040518091039020819080600181540180825580915050600190039060005260206000200160009091909190915055876040516109689190613e8f565b6040518091039020817ff6b8c3ee718b848994733f1ead2f3f0b4b54ccbb772af4009edc8cfe95cd299a89898989426040516109a8959493929190614378565b60405180910390a3809250505095945050505050565b6060816000816040516109d19190613e8f565b908152602001604051809103902060020160009054906101000a900460ff16610a2f576040517f08c379a0000000000000000000000000000000000000000000000000000000008152600401610a2690613ef2565b60405180910390fd5b600783604051610a3f9190613e8f565b9081526020016040518091039020805480602002602001604051908101604052809291908181526020018280548015610a9757602002820191906000526020600020905b815481526020019060010190808311610a83575b5050505050915050919050565b610aac613031565b6009548210610af0576040517f08c379a0000000000000000000000000000000000000000000000000000000008152600401610ae790614425565b60405180910390fd5b600560008381526020019081526020016000206040518061014001604052908160008201548152602001600182018054610b2990613f41565b80601f0160208091040260200160405190810160405280929190818152602001828054610b5590613f41565b8015610ba25780601f10610b7757610100808354040283529160200191610ba2565b820191906000526020600020905b815481529060010190602001808311610b8557829003601f168201915b50505050508152602001600282018054610bbb90613f41565b80601f0160208091040260200160405190810160405280929190818152602001828054610be790613f41565b8015610c345780601f10610c0957610100808354040283529160200191610c34565b820191906000526020600020905b815481529060010190602001808311610c1757829003601f168201915b50505050508152602001600382018054610c4d90613f41565b80601f0160208091040260200160405190810160405280929190818152602001828054610c7990613f41565b8015610cc65780601f10610c9b57610100808354040283529160200191610cc6565b820191906000526020600020905b815481529060010190602001808311610ca957829003601f168201915b505050505081526020016004820160009054906101000a900473ffffffffffffffffffffffffffffffffffffffff1673ffffffffffffffffffffffffffffffffffffffff1673ffffffffffffffffffffffffffffffffffffffff168152602001600582018054610d3590613f41565b80601f0160208091040260200160405190810160405280929190818152602001828054610d6190613f41565b8015610dae5780601f10610d8357610100808354040283529160200191610dae565b820191906000526020600020905b815481529060010190602001808311610d9157829003601f168201915b50505050508152602001600682018054610dc790613f41565b80601f0160208091040260200160405190810160405280929190818152602001828054610df390613f41565b8015610e405780601f10610e1557610100808354040283529160200191610e40565b820191906000526020600020905b815481529060010190602001808311610e2357829003601f168201915b50505050508152602001600782018054610e5990613f41565b80601f0160208091040260200160405190810160405280929190818152602001828054610e8590613f41565b8015610ed25780601f10610ea757610100808354040283529160200191610ed2565b820191906000526020600020905b815481529060010190602001808311610eb557829003601f168201915b50505050508152602001600882015481526020016009820154815250509050919050565b600085600081604051610f099190613e8f565b908152602001604051809103902060020160009054906101000a900460ff16610f67576040517f08c379a0000000000000000000000000000000000000000000000000000000008152600401610f5e90613ef2565b60405180910390fd5b6000865111610fab576040517f08c379a0000000000000000000000000000000000000000000000000000000008152600401610fa290614491565b60405180910390fd5b6000855111610fef576040517f08c379a0000000000000000000000000000000000000000000000000000000008152600401610fe69061423c565b60405180910390fd5b6000845111611033576040517f08c379a000000000000000000000000000000000000000000000000000000000815260040161102a906144fd565b60405180910390fd5b60006003886040516110459190613e8f565b908152602001604051809103902060003373ffffffffffffffffffffffffffffffffffffffff1673ffffffffffffffffffffffffffffffffffffffff1681526020019081526020016000205490506000801b81036110d8576040517f08c379a00000000000000000000000000000000000000000000000000000000081526004016110cf90614569565b60405180910390fd5b60006002896040516110ea9190613e8f565b9081526020016040518091039020600083815260200190815260200160002090508060020160149054906101000a900460ff1661115c576040517f08c379a0000000000000000000000000000000000000000000000000000000008152600401611153906145d5565b60405180910390fd5b600060096000815480929190611171906142f7565b9190505590506040518061014001604052808281526020018b815260200183600001805461119e90613f41565b80601f01602080910402602001604051908101604052809291908181526020018280546111ca90613f41565b80156112175780601f106111ec57610100808354040283529160200191611217565b820191906000526020600020905b8154815290600101906020018083116111fa57829003601f168201915b5050505050815260200183600101805461123090613f41565b80601f016020809104026020016040519081016040528092919081815260200182805461125c90613f41565b80156112a95780601f1061127e576101008083540402835291602001916112a9565b820191906000526020600020905b81548152906001019060200180831161128c57829003601f168201915b505050505081526020013373ffffffffffffffffffffffffffffffffffffffff1681526020018a8152602001898152602001888152602001878152602001428152506005600083815260200190815260200160002060008201518160000155602082015181600101908161131d919061411e565b506040820151816002019081611333919061411e565b506060820151816003019081611349919061411e565b5060808201518160040160006101000a81548173ffffffffffffffffffffffffffffffffffffffff021916908373ffffffffffffffffffffffffffffffffffffffff16021790555060a08201518160050190816113a6919061411e565b5060c08201518160060190816113bc919061411e565b5060e08201518160070190816113d2919061411e565b506101008201518160080155610120820151816009015590505060048a6040516113fc9190613e8f565b9081526020016040518091039020819080600181540180825580915050600190039060005260206000200160009091909190915055816000016040516114429190614678565b60405180910390208a6040516114589190613e8f565b6040518091039020827fdede3af022c0c1182f1be40127babcdf6f8db18866d079873f2a7c29d3b8ef6a8c8c8c8c4260405161149895949392919061468f565b60405180910390a48094505050505095945050505050565b6114b861309a565b6008600083815260200190815260200160002060070160009054906101000a900460ff1661151b576040517f08c379a000000000000000000000000000000000000000000000000000000000815260040161151290614743565b60405180910390fd5b60086000838152602001908152602001600020604051806101000160405290816000820154815260200160018201805461155490613f41565b80601f016020809104026020016040519081016040528092919081815260200182805461158090613f41565b80156115cd5780601f106115a2576101008083540402835291602001916115cd565b820191906000526020600020905b8154815290600101906020018083116115b057829003601f168201915b505050505081526020016002820180546115e690613f41565b80601f016020809104026020016040519081016040528092919081815260200182805461161290613f41565b801561165f5780601f106116345761010080835404028352916020019161165f565b820191906000526020600020905b81548152906001019060200180831161164257829003601f168201915b5050505050815260200160038201805461167890613f41565b80601f01602080910402602001604051908101604052809291908181526020018280546116a490613f41565b80156116f15780601f106116c6576101008083540402835291602001916116f1565b820191906000526020600020905b8154815290600101906020018083116116d457829003601f168201915b505050505081526020016004820154815260200160058201548152602001600682015481526020016007820160009054906101000a900460ff1615151515815250509050919050565b60006008600084815260200190815260200160002060070160009054906101000a900460ff1661176d57600090506117aa565b60066000848152602001908152602001600020600061178b84613020565b815260200190815260200160002060009054906101000a900460ff1690505b92915050565b7f000000000000000000000000000000000000000000000000000000000000000073ffffffffffffffffffffffffffffffffffffffff163373ffffffffffffffffffffffffffffffffffffffff161461183e576040517f08c379a000000000000000000000000000000000000000000000000000000000815260040161183590613e33565b60405180910390fd5b6000825111611882576040517f08c379a0000000000000000000000000000000000000000000000000000000008152600401611879906147af565b60405180910390fd5b6000826040516118929190613e8f565b908152602001604051809103902060020160009054906101000a900460ff16156118f1576040517f08c379a00000000000000000000000000000000000000000000000000000000081526004016118e89061481b565b60405180910390fd5b6040518060800160405280838152602001828152602001600115158152602001428152506000836040516119259190613e8f565b90815260200160405180910390206000820151816000019081611948919061411e565b50602082015181600101908161195e919061411e565b5060408201518160020160006101000a81548160ff021916908315150217905550606082015181600301559050508160405161199a9190613e8f565b60405180910390207f7a5b6c3b56f3fd96c4145e8d16588d8853fbcfbbca80a8209817253e3d3b32f382426040516119d392919061483b565b60405180910390a25050565b60007f000000000000000000000000000000000000000000000000000000000000000073ffffffffffffffffffffffffffffffffffffffff163373ffffffffffffffffffffffffffffffffffffffff1614611a6f576040517f08c379a0000000000000000000000000000000000000000000000000000000008152600401611a6690613e33565b60405180910390fd5b87600081604051611a809190613e8f565b908152602001604051809103902060020160009054906101000a900460ff16611ade576040517f08c379a0000000000000000000000000000000000000000000000000000000008152600401611ad590613ef2565b60405180910390fd5b6000865111611b22576040517f08c379a0000000000000000000000000000000000000000000000000000000008152600401611b1990614491565b60405180910390fd5b6000855111611b66576040517f08c379a0000000000000000000000000000000000000000000000000000000008152600401611b5d9061423c565b60405180910390fd5b6000845111611baa576040517f08c379a0000000000000000000000000000000000000000000000000000000008152600401611ba1906144fd565b60405180910390fd5b6000611bb589613020565b9050600060028b604051611bc99190613e8f565b9081526020016040518091039020600083815260200190815260200160002090508060020160149054906101000a900460ff16611c3b576040517f08c379a0000000000000000000000000000000000000000000000000000000008152600401611c32906145d5565b60405180910390fd5b6000895103611cd857806001018054611c5390613f41565b80601f0160208091040260200160405190810160405280929190818152602001828054611c7f90613f41565b8015611ccc5780601f10611ca157610100808354040283529160200191611ccc565b820191906000526020600020905b815481529060010190602001808311611caf57829003601f168201915b50505050509850611d3a565b888051906020012081600101604051611cf1919061490e565b604051809103902014611d39576040517f08c379a0000000000000000000000000000000000000000000000000000000008152600401611d3090614971565b60405180910390fd5b5b600060096000815480929190611d4f906142f7565b9190505590506040518061014001604052808281526020018d81526020018c81526020018b81526020018360020160009054906101000a900473ffffffffffffffffffffffffffffffffffffffff1673ffffffffffffffffffffffffffffffffffffffff1681526020018a81526020018981526020018881526020018781526020014281525060056000838152602001908152602001600020600082015181600001556020820151816001019081611e07919061411e565b506040820151816002019081611e1d919061411e565b506060820151816003019081611e33919061411e565b5060808201518160040160006101000a81548173ffffffffffffffffffffffffffffffffffffffff021916908373ffffffffffffffffffffffffffffffffffffffff16021790555060a0820151816005019081611e90919061411e565b5060c0820151816006019081611ea6919061411e565b5060e0820151816007019081611ebc919061411e565b506101008201518160080155610120820151816009015590505060048c604051611ee69190613e8f565b90815260200160405180910390208190806001815401808255809150506001900390600052602060002001600090919091909150558a604051611f299190613e8f565b60405180910390208c604051611f3f9190613e8f565b6040518091039020827fdede3af022c0c1182f1be40127babcdf6f8db18866d079873f2a7c29d3b8ef6a8c8c8c8c42604051611f7f95949392919061468f565b60405180910390a480945050505050979650505050505050565b7f000000000000000000000000000000000000000000000000000000000000000081565b6000600954905090565b7f000000000000000000000000000000000000000000000000000000000000000073ffffffffffffffffffffffffffffffffffffffff163373ffffffffffffffffffffffffffffffffffffffff1614612055576040517f08c379a000000000000000000000000000000000000000000000000000000000815260040161204c90613e33565b60405180910390fd5b836000816040516120669190613e8f565b908152602001604051809103902060020160009054906101000a900460ff166120c4576040517f08c379a00000000000000000000000000000000000000000000000000000000081526004016120bb90613ef2565b60405180910390fd5b6000845111612108576040517f08c379a00000000000000000000000000000000000000000000000000000000081526004016120ff906149dd565b60405180910390fd5b600083511161214c576040517f08c379a000000000000000000000000000000000000000000000000000000000815260040161214390614a49565b60405180910390fd5b600073ffffffffffffffffffffffffffffffffffffffff168273ffffffffffffffffffffffffffffffffffffffff16036121bb576040517f08c379a00000000000000000000000000000000000000000000000000000000081526004016121b290614ab5565b60405180910390fd5b60006121c685613020565b905060006002876040516121da9190613e8f565b908152602001604051809103902060008381526020019081526020016000209050600081600001805461220c90613f41565b90500361225d576001876040516122239190613e8f565b908152602001604051809103902082908060018154018082558091505060019003906000526020600020016000909190919091505561233d565b8373ffffffffffffffffffffffffffffffffffffffff168160020160009054906101000a900473ffffffffffffffffffffffffffffffffffffffff1673ffffffffffffffffffffffffffffffffffffffff161461233c576000801b6003886040516122c89190613e8f565b908152602001604051809103902060008360020160009054906101000a900473ffffffffffffffffffffffffffffffffffffffff1673ffffffffffffffffffffffffffffffffffffffff1673ffffffffffffffffffffffffffffffffffffffff168152602001908152602001600020819055505b5b8581600001908161234e919061411e565b5084816001019081612360919061411e565b50838160020160006101000a81548173ffffffffffffffffffffffffffffffffffffffff021916908373ffffffffffffffffffffffffffffffffffffffff16021790555060018160020160146101000a81548160ff021916908315150217905550428160030181905550816003886040516123db9190613e8f565b908152602001604051809103902060008673ffffffffffffffffffffffffffffffffffffffff1673ffffffffffffffffffffffffffffffffffffffff168152602001908152602001600020819055508373ffffffffffffffffffffffffffffffffffffffff168660405161244f9190613e8f565b6040518091039020886040516124659190613e8f565b60405180910390207f7f32e1de1c19ad349406ebb07f08dcf4ff3a5bd591b0ef876773cf26f5c11c40884260405161249e92919061483b565b60405180910390a450505050505050565b6060816000816040516124c29190613e8f565b908152602001604051809103902060020160009054906101000a900460ff16612520576040517f08c379a000000000000000000000000000000000000000000000000000000000815260040161251790613ef2565b60405180910390fd5b6004836040516125309190613e8f565b908152602001604051809103902080548060200260200160405190810160405280929190818152602001828054801561258857602002820191906000526020600020905b815481526020019060010190808311612574575b5050505050915050919050565b61259d6130e1565b816000816040516125ae9190613e8f565b908152602001604051809103902060020160009054906101000a900460ff1661260c576040517f08c379a000000000000000000000000000000000000000000000000000000000815260040161260390613ef2565b60405180910390fd5b60008360405161261c9190613e8f565b908152602001604051809103902060405180608001604052908160008201805461264590613f41565b80601f016020809104026020016040519081016040528092919081815260200182805461267190613f41565b80156126be5780601f10612693576101008083540402835291602001916126be565b820191906000526020600020905b8154815290600101906020018083116126a157829003601f168201915b505050505081526020016001820180546126d790613f41565b80601f016020809104026020016040519081016040528092919081815260200182805461270390613f41565b80156127505780601f1061272557610100808354040283529160200191612750565b820191906000526020600020905b81548152906001019060200180831161273357829003601f168201915b505050505081526020016002820160009054906101000a900460ff16151515158152602001600382015481525050915050919050565b60007f000000000000000000000000000000000000000000000000000000000000000073ffffffffffffffffffffffffffffffffffffffff163373ffffffffffffffffffffffffffffffffffffffff1614612816576040517f08c379a000000000000000000000000000000000000000000000000000000000815260040161280d90613e33565b60405180910390fd5b6008600084815260200190815260200160002060070160009054906101000a900460ff16612879576040517f08c379a000000000000000000000000000000000000000000000000000000000815260040161287090614743565b60405180910390fd5b60008251116128bd576040517f08c379a00000000000000000000000000000000000000000000000000000000081526004016128b490614b21565b60405180910390fd5b60006128c883613020565b9050600160066000868152602001908152602001600020600083815260200190815260200160002060006101000a81548160ff021916908315150217905550826040516129159190613e8f565b6040518091039020600860008681526020019081526020016000206001016040516129409190614678565b6040518091039020857f3dc871a421b0de3bcb519220d648f02efbb6807744382f02d4d4d22e660ad783426040516129789190613528565b60405180910390a4600191505092915050565b6000600a54905090565b6000816000816040516129a89190613e8f565b908152602001604051809103902060020160009054906101000a900460ff16612a06576040517f08c379a00000000000000000000000000000000000000000000000000000000081526004016129fd90613ef2565b60405180910390fd5b600183604051612a169190613e8f565b908152602001604051809103902080549050915050919050565b612a3861310b565b82600081604051612a499190613e8f565b908152602001604051809103902060020160009054906101000a900460ff16612aa7576040517f08c379a0000000000000000000000000000000000000000000000000000000008152600401612a9e90613ef2565b60405180910390fd5b6000600285604051612ab99190613e8f565b90815260200160405180910390206000612ad286613020565b81526020019081526020016000206040518060a0016040529081600082018054612afb90613f41565b80601f0160208091040260200160405190810160405280929190818152602001828054612b2790613f41565b8015612b745780601f10612b4957610100808354040283529160200191612b74565b820191906000526020600020905b815481529060010190602001808311612b5757829003601f168201915b50505050508152602001600182018054612b8d90613f41565b80601f0160208091040260200160405190810160405280929190818152602001828054612bb990613f41565b8015612c065780601f10612bdb57610100808354040283529160200191612c06565b820191906000526020600020905b815481529060010190602001808311612be957829003601f168201915b505050505081526020016002820160009054906101000a900473ffffffffffffffffffffffffffffffffffffffff1673ffffffffffffffffffffffffffffffffffffffff1673ffffffffffffffffffffffffffffffffffffffff1681526020016002820160149054906101000a900460ff161515151581526020016003820154815250509050600081600001515111612cd4576040517f08c379a0000000000000000000000000000000000000000000000000000000008152600401612ccb90614b8d565b60405180910390fd5b809250505092915050565b6000600283604051612cf19190613e8f565b90815260200160405180910390206000612d0a84613020565b815260200190815260200160002060020160149054906101000a900460ff16905092915050565b7f000000000000000000000000000000000000000000000000000000000000000073ffffffffffffffffffffffffffffffffffffffff163373ffffffffffffffffffffffffffffffffffffffff1614612dbf576040517f08c379a0000000000000000000000000000000000000000000000000000000008152600401612db690613e33565b60405180910390fd5b81600081604051612dd09190613e8f565b908152602001604051809103902060020160009054906101000a900460ff16612e2e576040517f08c379a0000000000000000000000000000000000000000000000000000000008152600401612e2590613ef2565b60405180910390fd5b6000612e3983613020565b90506000600285604051612e4d9190613e8f565b9081526020016040518091039020600083815260200190815260200160002090506000816000018054612e7f90613f41565b905011612ec1576040517f08c379a0000000000000000000000000000000000000000000000000000000008152600401612eb890614b8d565b60405180910390fd5b8060020160149054906101000a900460ff16612f12576040517f08c379a0000000000000000000000000000000000000000000000000000000008152600401612f0990614bf9565b60405180910390fd5b6000801b600386604051612f269190613e8f565b908152602001604051809103902060008360020160009054906101000a900473ffffffffffffffffffffffffffffffffffffffff1673ffffffffffffffffffffffffffffffffffffffff1673ffffffffffffffffffffffffffffffffffffffff1681526020019081526020016000208190555060008160020160146101000a81548160ff02191690831515021790555083604051612fc49190613e8f565b604051809103902085604051612fda9190613e8f565b60405180910390207f7e0c731807253762ad5c300dc71e21e154e6b5492f7a864d0eb74dd6902b000e426040516130119190613528565b60405180910390a35050505050565b600081805190602001209050919050565b60405180610140016040528060008152602001606081526020016060815260200160608152602001600073ffffffffffffffffffffffffffffffffffffffff16815260200160608152602001606081526020016060815260200160008152602001600081525090565b604051806101000160405280600081526020016060815260200160608152602001606081526020016000815260200160008152602001600081526020016000151581525090565b60405180608001604052806060815260200160608152602001600015158152602001600081525090565b6040518060a001604052806060815260200160608152602001600073ffffffffffffffffffffffffffffffffffffffff168152602001600015158152602001600081525090565b6000604051905090565b600080fd5b600080fd5b600080fd5b600080fd5b6000601f19601f8301169050919050565b7f4e487b7100000000000000000000000000000000000000000000000000000000600052604160045260246000fd5b6131b982613170565b810181811067ffffffffffffffff821117156131d8576131d7613181565b5b80604052505050565b60006131eb613152565b90506131f782826131b0565b919050565b600067ffffffffffffffff82111561321757613216613181565b5b61322082613170565b9050602081019050919050565b82818337600083830152505050565b600061324f61324a846131fc565b6131e1565b90508281526020810184848401111561326b5761326a61316b565b5b61327684828561322d565b509392505050565b600082601f83011261329357613292613166565b5b81356132a384826020860161323c565b91505092915050565b600080604083850312156132c3576132c261315c565b5b600083013567ffffffffffffffff8111156132e1576132e0613161565b5b6132ed8582860161327e565b925050602083013567ffffffffffffffff81111561330e5761330d613161565b5b61331a8582860161327e565b9150509250929050565b600073ffffffffffffffffffffffffffffffffffffffff82169050919050565b600061334f82613324565b9050919050565b61335f81613344565b811461336a57600080fd5b50565b60008135905061337c81613356565b92915050565b600080604083850312156133995761339861315c565b5b600083013567ffffffffffffffff8111156133b7576133b6613161565b5b6133c38582860161327e565b92505060206133d48582860161336d565b9150509250929050565b60008115159050919050565b6133f3816133de565b82525050565b600060208201905061340e60008301846133ea565b92915050565b6000819050919050565b61342781613414565b811461343257600080fd5b50565b6000813590506134448161341e565b92915050565b600080600080600060a086880312156134665761346561315c565b5b600086013567ffffffffffffffff81111561348457613483613161565b5b6134908882890161327e565b955050602086013567ffffffffffffffff8111156134b1576134b0613161565b5b6134bd8882890161327e565b945050604086013567ffffffffffffffff8111156134de576134dd613161565b5b6134ea8882890161327e565b93505060606134fb88828901613435565b925050608061350c88828901613435565b9150509295509295909350565b61352281613414565b82525050565b600060208201905061353d6000830184613519565b92915050565b6000602082840312156135595761355861315c565b5b600082013567ffffffffffffffff81111561357757613576613161565b5b6135838482850161327e565b91505092915050565b600081519050919050565b600082825260208201905092915050565b6000819050602082019050919050565b6135c181613414565b82525050565b60006135d383836135b8565b60208301905092915050565b6000602082019050919050565b60006135f78261358c565b6136018185613597565b935061360c836135a8565b8060005b8381101561363d57815161362488826135c7565b975061362f836135df565b925050600181019050613610565b5085935050505092915050565b6000602082019050818103600083015261366481846135ec565b905092915050565b6000602082840312156136825761368161315c565b5b600061369084828501613435565b91505092915050565b600081519050919050565b600082825260208201905092915050565b60005b838110156136d35780820151818401526020810190506136b8565b60008484015250505050565b60006136ea82613699565b6136f481856136a4565b93506137048185602086016136b5565b61370d81613170565b840191505092915050565b61372181613344565b82525050565b60006101408301600083015161374060008601826135b8565b506020830151848203602086015261375882826136df565b9150506040830151848203604086015261377282826136df565b9150506060830151848203606086015261378c82826136df565b91505060808301516137a16080860182613718565b5060a083015184820360a08601526137b982826136df565b91505060c083015184820360c08601526137d382826136df565b91505060e083015184820360e08601526137ed82826136df565b9150506101008301516138046101008601826135b8565b506101208301516138196101208601826135b8565b508091505092915050565b6000602082019050818103600083015261383e8184613727565b905092915050565b600080600080600060a086880312156138625761386161315c565b5b600086013567ffffffffffffffff8111156138805761387f613161565b5b61388c8882890161327e565b955050602086013567ffffffffffffffff8111156138ad576138ac613161565b5b6138b98882890161327e565b945050604086013567ffffffffffffffff8111156138da576138d9613161565b5b6138e68882890161327e565b935050606086013567ffffffffffffffff81111561390757613906613161565b5b6139138882890161327e565b925050608061392488828901613435565b9150509295509295909350565b61393a816133de565b82525050565b60006101008301600083015161395960008601826135b8565b506020830151848203602086015261397182826136df565b9150506040830151848203604086015261398b82826136df565b915050606083015184820360608601526139a582826136df565b91505060808301516139ba60808601826135b8565b5060a08301516139cd60a08601826135b8565b5060c08301516139e060c08601826135b8565b5060e08301516139f360e0860182613931565b508091505092915050565b60006020820190508181036000830152613a188184613940565b905092915050565b60008060408385031215613a3757613a3661315c565b5b6000613a4585828601613435565b925050602083013567ffffffffffffffff811115613a6657613a65613161565b5b613a728582860161327e565b9150509250929050565b600080600080600080600060e0888a031215613a9b57613a9a61315c565b5b600088013567ffffffffffffffff811115613ab957613ab8613161565b5b613ac58a828b0161327e565b975050602088013567ffffffffffffffff811115613ae657613ae5613161565b5b613af28a828b0161327e565b965050604088013567ffffffffffffffff811115613b1357613b12613161565b5b613b1f8a828b0161327e565b955050606088013567ffffffffffffffff811115613b4057613b3f613161565b5b613b4c8a828b0161327e565b945050608088013567ffffffffffffffff811115613b6d57613b6c613161565b5b613b798a828b0161327e565b93505060a088013567ffffffffffffffff811115613b9a57613b99613161565b5b613ba68a828b0161327e565b92505060c0613bb78a828b01613435565b91505092959891949750929550565b613bcf81613344565b82525050565b6000602082019050613bea6000830184613bc6565b92915050565b60008060008060808587031215613c0a57613c0961315c565b5b600085013567ffffffffffffffff811115613c2857613c27613161565b5b613c348782880161327e565b945050602085013567ffffffffffffffff811115613c5557613c54613161565b5b613c618782880161327e565b935050604085013567ffffffffffffffff811115613c8257613c81613161565b5b613c8e8782880161327e565b9250506060613c9f8782880161336d565b91505092959194509250565b60006080830160008301518482036000860152613cc882826136df565b91505060208301518482036020860152613ce282826136df565b9150506040830151613cf76040860182613931565b506060830151613d0a60608601826135b8565b508091505092915050565b60006020820190508181036000830152613d2f8184613cab565b905092915050565b600060a0830160008301518482036000860152613d5482826136df565b91505060208301518482036020860152613d6e82826136df565b9150506040830151613d836040860182613718565b506060830151613d966060860182613931565b506080830151613da960808601826135b8565b508091505092915050565b60006020820190508181036000830152613dce8184613d37565b905092915050565b600082825260208201905092915050565b7f4f6e6c79206f776e657200000000000000000000000000000000000000000000600082015250565b6000613e1d600a83613dd6565b9150613e2882613de7565b602082019050919050565b60006020820190508181036000830152613e4c81613e10565b9050919050565b600081905092915050565b6000613e6982613699565b613e738185613e53565b9350613e838185602086016136b5565b80840191505092915050565b6000613e9b8284613e5e565b915081905092915050565b7f436f6d70616e79206e6f7420666f756e64000000000000000000000000000000600082015250565b6000613edc601183613dd6565b9150613ee782613ea6565b602082019050919050565b60006020820190508181036000830152613f0b81613ecf565b9050919050565b7f4e487b7100000000000000000000000000000000000000000000000000000000600052602260045260246000fd5b60006002820490506001821680613f5957607f821691505b602082108103613f6c57613f6b613f12565b5b50919050565b60008190508160005260206000209050919050565b60006020601f8301049050919050565b600082821b905092915050565b600060088302613fd47fffffffffffffffffffffffffffffffffffffffffffffffffffffffffffffffff82613f97565b613fde8683613f97565b95508019841693508086168417925050509392505050565b6000819050919050565b600061401b61401661401184613414565b613ff6565b613414565b9050919050565b6000819050919050565b61403583614000565b61404961404182614022565b848454613fa4565b825550505050565b600090565b61405e614051565b61406981848461402c565b505050565b5b8181101561408d57614082600082614056565b60018101905061406f565b5050565b601f8211156140d2576140a381613f72565b6140ac84613f87565b810160208510156140bb578190505b6140cf6140c785613f87565b83018261406e565b50505b505050565b600082821c905092915050565b60006140f5600019846008026140d7565b1980831691505092915050565b600061410e83836140e4565b9150826002028217905092915050565b61412782613699565b67ffffffffffffffff8111156141405761413f613181565b5b61414a8254613f41565b614155828285614091565b600060209050601f8311600181146141885760008415614176578287015190505b6141808582614102565b8655506141e8565b601f19841661419686613f72565b60005b828110156141be57848901518255600182019150602085019450602081019050614199565b868310156141db57848901516141d7601f8916826140e4565b8355505b6001600288020188555050505b505050505050565b7f506572696f642072657175697265640000000000000000000000000000000000600082015250565b6000614226600f83613dd6565b9150614231826141f0565b602082019050919050565b6000602082019050818103600083015261425581614219565b9050919050565b7f5265706f72742068617368207265717569726564000000000000000000000000600082015250565b6000614292601483613dd6565b915061429d8261425c565b602082019050919050565b600060208201905081810360008301526142c181614285565b9050919050565b7f4e487b7100000000000000000000000000000000000000000000000000000000600052601160045260246000fd5b600061430282613414565b91507fffffffffffffffffffffffffffffffffffffffffffffffffffffffffffffffff8203614334576143336142c8565b5b600182019050919050565b600061434a82613699565b6143548185613dd6565b93506143648185602086016136b5565b61436d81613170565b840191505092915050565b600060a0820190508181036000830152614392818861433f565b905081810360208301526143a6818761433f565b90506143b56040830186613519565b6143c26060830185613519565b6143cf6080830184613519565b9695505050505050565b7f5375626d697373696f6e206e6f7420666f756e64000000000000000000000000600082015250565b600061440f601483613dd6565b915061441a826143d9565b602082019050919050565b6000602082019050818103600083015261443e81614402565b9050919050565b7f4163746f72207265717569726564000000000000000000000000000000000000600082015250565b600061447b600e83613dd6565b915061448682614445565b602082019050919050565b600060208201905081810360008301526144aa8161446e565b9050919050565b7f4461746120686173682072657175697265640000000000000000000000000000600082015250565b60006144e7601283613dd6565b91506144f2826144b1565b602082019050919050565b60006020820190508181036000830152614516816144da565b9050919050565b7f57616c6c6574206e6f7420617574686f72697a65640000000000000000000000600082015250565b6000614553601583613dd6565b915061455e8261451d565b602082019050919050565b6000602082019050818103600083015261458281614546565b9050919050565b7f5374616b65686f6c646572206e6f7420617574686f72697a6564000000000000600082015250565b60006145bf601a83613dd6565b91506145ca82614589565b602082019050919050565b600060208201905081810360008301526145ee816145b2565b9050919050565b6000815461460281613f41565b61460c8186613e53565b94506001821660008114614627576001811461463c5761466f565b60ff198316865281151582028601935061466f565b61464585613f72565b60005b8381101561466757815481890152600182019150602081019050614648565b838801955050505b50505092915050565b600061468482846145f5565b915081905092915050565b600060a08201905081810360008301526146a9818861433f565b905081810360208301526146bd818761433f565b905081810360408301526146d1818661433f565b90506146e06060830185613519565b6146ed6080830184613519565b9695505050505050565b7f5265706f7274206e6f7420666f756e6400000000000000000000000000000000600082015250565b600061472d601083613dd6565b9150614738826146f7565b602082019050919050565b6000602082019050818103600083015261475c81614720565b9050919050565b7f436f6d70616e7920494420726571756972656400000000000000000000000000600082015250565b6000614799601383613dd6565b91506147a482614763565b602082019050919050565b600060208201905081810360008301526147c88161478c565b9050919050565b7f436f6d70616e7920616c72656164792065786973747300000000000000000000600082015250565b6000614805601683613dd6565b9150614810826147cf565b602082019050919050565b60006020820190508181036000830152614834816147f8565b9050919050565b60006040820190508181036000830152614855818561433f565b90506148646020830184613519565b9392505050565b600081905092915050565b60008190508160005260206000209050919050565b6000815461489881613f41565b6148a2818661486b565b945060018216600081146148bd57600181146148d257614905565b60ff1983168652811515820286019350614905565b6148db85614876565b60005b838110156148fd578154818901526001820191506020810190506148de565b838801955050505b50505092915050565b600061491a828461488b565b915081905092915050565b7f5374616b65686f6c64657220726f6c65206d69736d6174636800000000000000600082015250565b600061495b601983613dd6565b915061496682614925565b602082019050919050565b6000602082019050818103600083015261498a8161494e565b9050919050565b7f5374616b65686f6c646572204944207265717569726564000000000000000000600082015250565b60006149c7601783613dd6565b91506149d282614991565b602082019050919050565b600060208201905081810360008301526149f6816149ba565b9050919050565b7f526f6c6520726571756972656400000000000000000000000000000000000000600082015250565b6000614a33600d83613dd6565b9150614a3e826149fd565b602082019050919050565b60006020820190508181036000830152614a6281614a26565b9050919050565b7f57616c6c65742061646472657373207265717569726564000000000000000000600082015250565b6000614a9f601783613dd6565b9150614aaa82614a69565b602082019050919050565b60006020820190508181036000830152614ace81614a92565b9050919050565b7f4275796572204944207265717569726564000000000000000000000000000000600082015250565b6000614b0b601183613dd6565b9150614b1682614ad5565b602082019050919050565b60006020820190508181036000830152614b3a81614afe565b9050919050565b7f5374616b65686f6c646572206e6f7420666f756e640000000000000000000000600082015250565b6000614b77601583613dd6565b9150614b8282614b41565b602082019050919050565b60006020820190508181036000830152614ba681614b6a565b9050919050565b7f5374616b65686f6c64657220616c726561647920696e61637469766500000000600082015250565b6000614be3601c83613dd6565b9150614bee82614bad565b602082019050919050565b60006020820190508181036000830152614c1281614bd6565b905091905056fea2646970667358221220d49c454e942ee93c5fa383003c98a3818c4d029c93291bc5aa5acbad26143ebc64736f6c634300081c0033",
  "linkReferences": {},
  "deployedLinkReferences": {}
}